{
  "contractName": "ArtFactory",
  "abi": [
    {
      "inputs": [
        {
          "internalType": "address",
          "name": "_artistFeeAccount",
          "type": "address"
        },
        {
          "internalType": "uint256",
          "name": "_artistFeePercentage",
          "type": "uint256"
        },
        {
          "internalType": "uint256",
          "name": "_baseArtPrice",
          "type": "uint256"
        },
        {
          "internalType": "uint256",
          "name": "_parentMultiplierPercentage",
          "type": "uint256"
        },
        {
          "internalType": "uint256",
          "name": "_minParents",
          "type": "uint256"
        },
        {
          "internalType": "uint256",
          "name": "_maxParents",
          "type": "uint256"
        },
        {
          "internalType": "uint256",
          "name": "_minLegacies",
          "type": "uint256"
        },
        {
          "internalType": "uint256",
          "name": "_maxLegacies",
          "type": "uint256"
        }
      ],
      "stateMutability": "nonpayable",
      "type": "constructor"
    },
    {
      "anonymous": false,
      "inputs": [
        {
          "indexed": false,
          "internalType": "uint256",
          "name": "id",
          "type": "uint256"
        },
        {
          "indexed": true,
          "internalType": "address",
          "name": "buyer",
          "type": "address"
        },
        {
          "indexed": false,
          "internalType": "uint256",
          "name": "price",
          "type": "uint256"
        },
        {
          "indexed": false,
          "internalType": "uint256[]",
          "name": "parentIDS",
          "type": "uint256[]"
        },
        {
          "indexed": false,
          "internalType": "uint256",
          "name": "numLegacies",
          "type": "uint256"
        },
        {
          "indexed": false,
          "internalType": "uint256",
          "name": "gen",
          "type": "uint256"
        },
        {
          "indexed": false,
          "internalType": "uint256",
          "name": "timestamp",
          "type": "uint256"
        }
      ],
      "name": "Accept",
      "type": "event"
    },
    {
      "anonymous": false,
      "inputs": [
        {
          "indexed": false,
          "internalType": "uint256",
          "name": "id",
          "type": "uint256"
        },
        {
          "indexed": false,
          "internalType": "uint256",
          "name": "price",
          "type": "uint256"
        },
        {
          "indexed": true,
          "internalType": "address",
          "name": "owner",
          "type": "address"
        },
        {
          "indexed": false,
          "internalType": "uint256",
          "name": "gen",
          "type": "uint256"
        },
        {
          "indexed": false,
          "internalType": "string",
          "name": "tokenURI",
          "type": "string"
        },
        {
          "indexed": false,
          "internalType": "string",
          "name": "name",
          "type": "string"
        },
        {
          "indexed": false,
          "internalType": "bool",
          "name": "legacyCreated",
          "type": "bool"
        },
        {
          "indexed": false,
          "internalType": "uint256[]",
          "name": "parents",
          "type": "uint256[]"
        },
        {
          "indexed": false,
          "internalType": "uint256[]",
          "name": "siblings",
          "type": "uint256[]"
        },
        {
          "indexed": false,
          "internalType": "uint256",
          "name": "timestamp",
          "type": "uint256"
        }
      ],
      "name": "ArtForSale",
      "type": "event"
    },
    {
      "anonymous": false,
      "inputs": [
        {
          "indexed": false,
          "internalType": "uint256",
          "name": "id",
          "type": "uint256"
        },
        {
          "indexed": false,
          "internalType": "uint256",
          "name": "orderID",
          "type": "uint256"
        },
        {
          "indexed": true,
          "internalType": "address",
          "name": "owner",
          "type": "address"
        },
        {
          "indexed": false,
          "internalType": "uint256",
          "name": "gen",
          "type": "uint256"
        },
        {
          "indexed": false,
          "internalType": "string",
          "name": "tokenURI",
          "type": "string"
        },
        {
          "indexed": false,
          "internalType": "string",
          "name": "name",
          "type": "string"
        },
        {
          "indexed": false,
          "internalType": "bool",
          "name": "legacyCreated",
          "type": "bool"
        },
        {
          "indexed": false,
          "internalType": "uint256[]",
          "name": "parents",
          "type": "uint256[]"
        },
        {
          "indexed": false,
          "internalType": "uint256[]",
          "name": "siblings",
          "type": "uint256[]"
        },
        {
          "indexed": false,
          "internalType": "uint256",
          "name": "timestamp",
          "type": "uint256"
        }
      ],
      "name": "ArtFromOrder",
      "type": "event"
    },
    {
      "anonymous": false,
      "inputs": [
        {
          "indexed": false,
          "internalType": "uint256",
          "name": "id",
          "type": "uint256"
        },
        {
          "indexed": true,
          "internalType": "address",
          "name": "owner",
          "type": "address"
        },
        {
          "indexed": false,
          "internalType": "uint256",
          "name": "gen",
          "type": "uint256"
        },
        {
          "indexed": false,
          "internalType": "string",
          "name": "tokenURI",
          "type": "string"
        },
        {
          "indexed": false,
          "internalType": "string",
          "name": "name",
          "type": "string"
        },
        {
          "indexed": false,
          "internalType": "bool",
          "name": "legacyCreated",
          "type": "bool"
        },
        {
          "indexed": false,
          "internalType": "uint256[]",
          "name": "parents",
          "type": "uint256[]"
        },
        {
          "indexed": false,
          "internalType": "uint256[]",
          "name": "siblings",
          "type": "uint256[]"
        },
        {
          "indexed": false,
          "internalType": "uint256",
          "name": "timestamp",
          "type": "uint256"
        }
      ],
      "name": "ArtGen0",
      "type": "event"
    },
    {
      "anonymous": false,
      "inputs": [
        {
          "indexed": false,
          "internalType": "uint256",
          "name": "id",
          "type": "uint256"
        },
        {
          "indexed": true,
          "internalType": "address",
          "name": "buyer",
          "type": "address"
        },
        {
          "indexed": false,
          "internalType": "uint256",
          "name": "price",
          "type": "uint256"
        },
        {
          "indexed": false,
          "internalType": "uint256[]",
          "name": "parentIDS",
          "type": "uint256[]"
        },
        {
          "indexed": false,
          "internalType": "uint256",
          "name": "numLegacies",
          "type": "uint256"
        },
        {
          "indexed": false,
          "internalType": "uint256",
          "name": "gen",
          "type": "uint256"
        },
        {
          "indexed": false,
          "internalType": "uint256",
          "name": "timestamp",
          "type": "uint256"
        }
      ],
      "name": "Cancel",
      "type": "event"
    },
    {
      "anonymous": false,
      "inputs": [
        {
          "indexed": false,
          "internalType": "uint256",
          "name": "id",
          "type": "uint256"
        },
        {
          "indexed": true,
          "internalType": "address",
          "name": "buyer",
          "type": "address"
        },
        {
          "indexed": false,
          "internalType": "uint256",
          "name": "price",
          "type": "uint256"
        },
        {
          "indexed": false,
          "internalType": "uint256[]",
          "name": "parentIDS",
          "type": "uint256[]"
        },
        {
          "indexed": false,
          "internalType": "uint256",
          "name": "numLegacies",
          "type": "uint256"
        },
        {
          "indexed": false,
          "internalType": "uint256",
          "name": "gen",
          "type": "uint256"
        },
        {
          "indexed": false,
          "internalType": "uint256",
          "name": "timestamp",
          "type": "uint256"
        }
      ],
      "name": "Order",
      "type": "event"
    },
    {
      "anonymous": false,
      "inputs": [
        {
          "indexed": true,
          "internalType": "address",
          "name": "previousOwner",
          "type": "address"
        },
        {
          "indexed": true,
          "internalType": "address",
          "name": "newOwner",
          "type": "address"
        }
      ],
      "name": "OwnershipTransferred",
      "type": "event"
    },
    {
      "anonymous": false,
      "inputs": [
        {
          "indexed": false,
          "internalType": "uint256",
          "name": "id",
          "type": "uint256"
        },
        {
          "indexed": false,
          "internalType": "uint256",
          "name": "price",
          "type": "uint256"
        },
        {
          "indexed": true,
          "internalType": "address",
          "name": "buyer",
          "type": "address"
        },
        {
          "indexed": false,
          "internalType": "uint256",
          "name": "gen",
          "type": "uint256"
        },
        {
          "indexed": false,
          "internalType": "string",
          "name": "tokenURI",
          "type": "string"
        },
        {
          "indexed": false,
          "internalType": "string",
          "name": "name",
          "type": "string"
        },
        {
          "indexed": false,
          "internalType": "bool",
          "name": "legacyCreated",
          "type": "bool"
        },
        {
          "indexed": false,
          "internalType": "uint256[]",
          "name": "parents",
          "type": "uint256[]"
        },
        {
          "indexed": false,
          "internalType": "uint256[]",
          "name": "siblings",
          "type": "uint256[]"
        },
        {
          "indexed": false,
          "internalType": "uint256",
          "name": "timestamp",
          "type": "uint256"
        }
      ],
      "name": "Purchase",
      "type": "event"
    },
    {
      "anonymous": false,
      "inputs": [
        {
          "indexed": false,
          "internalType": "uint256",
          "name": "id",
          "type": "uint256"
        },
        {
          "indexed": true,
          "internalType": "address",
          "name": "owner",
          "type": "address"
        },
        {
          "indexed": false,
          "internalType": "uint256",
          "name": "gen",
          "type": "uint256"
        },
        {
          "indexed": false,
          "internalType": "string",
          "name": "tokenURI",
          "type": "string"
        },
        {
          "indexed": false,
          "internalType": "string",
          "name": "name",
          "type": "string"
        },
        {
          "indexed": false,
          "internalType": "bool",
          "name": "legacyCreated",
          "type": "bool"
        },
        {
          "indexed": false,
          "internalType": "uint256[]",
          "name": "parents",
          "type": "uint256[]"
        },
        {
          "indexed": false,
          "internalType": "uint256[]",
          "name": "siblings",
          "type": "uint256[]"
        },
        {
          "indexed": false,
          "internalType": "uint256",
          "name": "timestamp",
          "type": "uint256"
        }
      ],
      "name": "SaleCancel",
      "type": "event"
    },
    {
      "inputs": [
        {
          "internalType": "uint256",
          "name": "",
          "type": "uint256"
        }
      ],
      "name": "acceptedOrders",
      "outputs": [
        {
          "internalType": "bool",
          "name": "",
          "type": "bool"
        }
      ],
      "stateMutability": "view",
      "type": "function",
      "constant": true
    },
    {
      "inputs": [],
      "name": "artistFeeAccount",
      "outputs": [
        {
          "internalType": "address",
          "name": "",
          "type": "address"
        }
      ],
      "stateMutability": "view",
      "type": "function",
      "constant": true
    },
    {
      "inputs": [],
      "name": "artistFeePercentage",
      "outputs": [
        {
          "internalType": "uint256",
          "name": "",
          "type": "uint256"
        }
      ],
      "stateMutability": "view",
      "type": "function",
      "constant": true
    },
    {
      "inputs": [],
      "name": "artworkCount",
      "outputs": [
        {
          "internalType": "uint256",
          "name": "",
          "type": "uint256"
        }
      ],
      "stateMutability": "view",
      "type": "function",
      "constant": true
    },
    {
      "inputs": [
        {
          "internalType": "uint256",
          "name": "",
          "type": "uint256"
        }
      ],
      "name": "artworks",
      "outputs": [
        {
          "internalType": "uint256",
          "name": "id",
          "type": "uint256"
        },
        {
          "internalType": "address",
          "name": "owner",
          "type": "address"
        },
        {
          "internalType": "uint256",
          "name": "gen",
          "type": "uint256"
        },
        {
          "internalType": "string",
          "name": "tokenURI",
          "type": "string"
        },
        {
          "internalType": "string",
          "name": "name",
          "type": "string"
        },
        {
          "internalType": "bool",
          "name": "legacyCreated",
          "type": "bool"
        },
        {
          "internalType": "uint256",
          "name": "timestamp",
          "type": "uint256"
        }
      ],
      "stateMutability": "view",
      "type": "function",
      "constant": true
    },
    {
      "inputs": [
        {
          "internalType": "address",
          "name": "",
          "type": "address"
        }
      ],
      "name": "balances",
      "outputs": [
        {
          "internalType": "uint256",
          "name": "",
          "type": "uint256"
        }
      ],
      "stateMutability": "view",
      "type": "function",
      "constant": true
    },
    {
      "inputs": [],
      "name": "baseArtPrice",
      "outputs": [
        {
          "internalType": "uint256",
          "name": "",
          "type": "uint256"
        }
      ],
      "stateMutability": "view",
      "type": "function",
      "constant": true
    },
    {
      "inputs": [
        {
          "internalType": "uint256",
          "name": "",
          "type": "uint256"
        }
      ],
      "name": "cancelledOrders",
      "outputs": [
        {
          "internalType": "bool",
          "name": "",
          "type": "bool"
        }
      ],
      "stateMutability": "view",
      "type": "function",
      "constant": true
    },
    {
      "inputs": [],
      "name": "contractFeeAccount",
      "outputs": [
        {
          "internalType": "address",
          "name": "",
          "type": "address"
        }
      ],
      "stateMutability": "view",
      "type": "function",
      "constant": true
    },
    {
      "inputs": [],
      "name": "contractFeePercentage",
      "outputs": [
        {
          "internalType": "uint256",
          "name": "",
          "type": "uint256"
        }
      ],
      "stateMutability": "view",
      "type": "function",
      "constant": true
    },
    {
      "inputs": [
        {
          "internalType": "uint256",
          "name": "",
          "type": "uint256"
        }
      ],
      "name": "filledOrders",
      "outputs": [
        {
          "internalType": "bool",
          "name": "",
          "type": "bool"
        }
      ],
      "stateMutability": "view",
      "type": "function",
      "constant": true
    },
    {
      "inputs": [],
      "name": "maxLegacies",
      "outputs": [
        {
          "internalType": "uint256",
          "name": "",
          "type": "uint256"
        }
      ],
      "stateMutability": "view",
      "type": "function",
      "constant": true
    },
    {
      "inputs": [],
      "name": "maxParents",
      "outputs": [
        {
          "internalType": "uint256",
          "name": "",
          "type": "uint256"
        }
      ],
      "stateMutability": "view",
      "type": "function",
      "constant": true
    },
    {
      "inputs": [],
      "name": "minLegacies",
      "outputs": [
        {
          "internalType": "uint256",
          "name": "",
          "type": "uint256"
        }
      ],
      "stateMutability": "view",
      "type": "function",
      "constant": true
    },
    {
      "inputs": [],
      "name": "minParents",
      "outputs": [
        {
          "internalType": "uint256",
          "name": "",
          "type": "uint256"
        }
      ],
      "stateMutability": "view",
      "type": "function",
      "constant": true
    },
    {
      "inputs": [],
      "name": "orderCount",
      "outputs": [
        {
          "internalType": "uint256",
          "name": "",
          "type": "uint256"
        }
      ],
      "stateMutability": "view",
      "type": "function",
      "constant": true
    },
    {
      "inputs": [
        {
          "internalType": "uint256",
          "name": "",
          "type": "uint256"
        }
      ],
      "name": "orders",
      "outputs": [
        {
          "internalType": "uint256",
          "name": "id",
          "type": "uint256"
        },
        {
          "internalType": "address",
          "name": "buyer",
          "type": "address"
        },
        {
          "internalType": "uint256",
          "name": "price",
          "type": "uint256"
        },
        {
          "internalType": "uint256",
          "name": "numLegacies",
          "type": "uint256"
        },
        {
          "internalType": "uint256",
          "name": "gen",
          "type": "uint256"
        },
        {
          "internalType": "uint256",
          "name": "timestamp",
          "type": "uint256"
        }
      ],
      "stateMutability": "view",
      "type": "function",
      "constant": true
    },
    {
      "inputs": [],
      "name": "owner",
      "outputs": [
        {
          "internalType": "address",
          "name": "",
          "type": "address"
        }
      ],
      "stateMutability": "view",
      "type": "function",
      "constant": true
    },
    {
      "inputs": [],
      "name": "parentMultiplierPercentage",
      "outputs": [
        {
          "internalType": "uint256",
          "name": "",
          "type": "uint256"
        }
      ],
      "stateMutability": "view",
      "type": "function",
      "constant": true
    },
    {
      "inputs": [
        {
          "internalType": "uint256",
          "name": "",
          "type": "uint256"
        }
      ],
      "name": "prices",
      "outputs": [
        {
          "internalType": "uint256",
          "name": "",
          "type": "uint256"
        }
      ],
      "stateMutability": "view",
      "type": "function",
      "constant": true
    },
    {
      "inputs": [],
      "name": "renounceOwnership",
      "outputs": [],
      "stateMutability": "nonpayable",
      "type": "function"
    },
    {
      "inputs": [],
      "name": "tokens",
      "outputs": [
        {
          "internalType": "contract Tokens",
          "name": "",
          "type": "address"
        }
      ],
      "stateMutability": "view",
      "type": "function",
      "constant": true
    },
    {
      "inputs": [
        {
          "internalType": "address",
          "name": "newOwner",
          "type": "address"
        }
      ],
      "name": "transferOwnership",
      "outputs": [],
      "stateMutability": "nonpayable",
      "type": "function"
    },
    {
      "inputs": [
        {
          "internalType": "address",
          "name": "_contractFeeAccount",
          "type": "address"
        }
      ],
      "name": "changeContractFeeAccount",
      "outputs": [],
      "stateMutability": "nonpayable",
      "type": "function"
    },
    {
      "inputs": [
        {
          "internalType": "address",
          "name": "_artistFeeAccount",
          "type": "address"
        }
      ],
      "name": "changeArtistFeeAccount",
      "outputs": [],
      "stateMutability": "nonpayable",
      "type": "function"
    },
    {
      "inputs": [
        {
          "internalType": "uint256",
          "name": "_artistFeePercentage",
          "type": "uint256"
        }
      ],
      "name": "changeArtistFeePercentage",
      "outputs": [],
      "stateMutability": "nonpayable",
      "type": "function"
    },
    {
      "inputs": [
        {
          "internalType": "uint256",
          "name": "_baseArtPrice",
          "type": "uint256"
        }
      ],
      "name": "changeBaseArtPrice",
      "outputs": [],
      "stateMutability": "nonpayable",
      "type": "function"
    },
    {
      "inputs": [
        {
          "internalType": "uint256",
          "name": "_parentMultiplierPercentage",
          "type": "uint256"
        }
      ],
      "name": "changeParentMultiplierPercentage",
      "outputs": [],
      "stateMutability": "nonpayable",
      "type": "function"
    },
    {
      "inputs": [
        {
          "internalType": "uint256",
          "name": "_minParents",
          "type": "uint256"
        }
      ],
      "name": "changeMinParents",
      "outputs": [],
      "stateMutability": "nonpayable",
      "type": "function"
    },
    {
      "inputs": [
        {
          "internalType": "uint256",
          "name": "_maxParents",
          "type": "uint256"
        }
      ],
      "name": "changeMaxParents",
      "outputs": [],
      "stateMutability": "nonpayable",
      "type": "function"
    },
    {
      "inputs": [
        {
          "internalType": "uint256",
          "name": "_minLegacies",
          "type": "uint256"
        }
      ],
      "name": "changeMinLegacies",
      "outputs": [],
      "stateMutability": "nonpayable",
      "type": "function"
    },
    {
      "inputs": [
        {
          "internalType": "uint256",
          "name": "_maxLegacies",
          "type": "uint256"
        }
      ],
      "name": "changeMaxLegacies",
      "outputs": [],
      "stateMutability": "nonpayable",
      "type": "function"
    },
    {
      "inputs": [
        {
          "internalType": "address",
          "name": "_tokensAddress",
          "type": "address"
        },
        {
          "internalType": "string",
          "name": "_tokenURI",
          "type": "string"
        },
        {
          "internalType": "string",
          "name": "_name",
          "type": "string"
        }
      ],
      "name": "createArtGen0",
      "outputs": [],
      "stateMutability": "nonpayable",
      "type": "function"
    },
    {
      "inputs": [
        {
          "internalType": "address",
          "name": "_tokensAddress",
          "type": "address"
        },
        {
          "internalType": "uint256",
          "name": "_orderID",
          "type": "uint256"
        },
        {
          "internalType": "string",
          "name": "_tokenURI",
          "type": "string"
        },
        {
          "internalType": "string",
          "name": "_name",
          "type": "string"
        },
        {
          "internalType": "uint256",
          "name": "_gen",
          "type": "uint256"
        },
        {
          "internalType": "uint256[]",
          "name": "_parents",
          "type": "uint256[]"
        },
        {
          "internalType": "uint256[]",
          "name": "_siblings",
          "type": "uint256[]"
        },
        {
          "internalType": "address",
          "name": "_buyer",
          "type": "address"
        }
      ],
      "name": "createArtFromOrder",
      "outputs": [],
      "stateMutability": "nonpayable",
      "type": "function"
    },
    {
      "inputs": [
        {
          "internalType": "address",
          "name": "_tokenAddress",
          "type": "address"
        },
        {
          "internalType": "uint256",
          "name": "_id",
          "type": "uint256"
        },
        {
          "internalType": "uint256",
          "name": "_price",
          "type": "uint256"
        }
      ],
      "name": "putUpForSale",
      "outputs": [],
      "stateMutability": "nonpayable",
      "type": "function"
    },
    {
      "inputs": [
        {
          "internalType": "uint256",
          "name": "_id",
          "type": "uint256"
        }
      ],
      "name": "cancelSale",
      "outputs": [],
      "stateMutability": "nonpayable",
      "type": "function"
    },
    {
      "inputs": [
        {
          "internalType": "address",
          "name": "_tokenAddress",
          "type": "address"
        },
        {
          "internalType": "uint256",
          "name": "_id",
          "type": "uint256"
        }
      ],
      "name": "purchase",
      "outputs": [],
      "stateMutability": "payable",
      "type": "function",
      "payable": true
    },
    {
      "inputs": [
        {
          "internalType": "uint256[]",
          "name": "_parentIDS",
          "type": "uint256[]"
        },
        {
          "internalType": "uint256",
          "name": "_numLegacies",
          "type": "uint256"
        }
      ],
      "name": "createOrder",
      "outputs": [],
      "stateMutability": "payable",
      "type": "function",
      "payable": true
    },
    {
      "inputs": [
        {
          "internalType": "uint256",
          "name": "_id",
          "type": "uint256"
        }
      ],
      "name": "acceptOrder",
      "outputs": [],
      "stateMutability": "nonpayable",
      "type": "function"
    },
    {
      "inputs": [
        {
          "internalType": "uint256",
          "name": "_id",
          "type": "uint256"
        }
      ],
      "name": "cancelOrder",
      "outputs": [],
      "stateMutability": "nonpayable",
      "type": "function"
    },
    {
      "inputs": [],
      "name": "withdrawBalance",
      "outputs": [],
      "stateMutability": "nonpayable",
      "type": "function"
    }
  ],
  "bytecode": "0x60806040523480156200001157600080fd5b506040516200481c3803806200481c8339818101604052810190620000379190620001f6565b600062000049620001c060201b60201c565b9050806000806101000a81548173ffffffffffffffffffffffffffffffffffffffff021916908373ffffffffffffffffffffffffffffffffffffffff1602179055508073ffffffffffffffffffffffffffffffffffffffff16600073ffffffffffffffffffffffffffffffffffffffff167f8be0079c531659141344cd1fd0a4f28419497f9722a3daafe3b4186f6b6457e060405160405180910390a3506000600c819055506000600d81905550600160028190555033600360006101000a81548173ffffffffffffffffffffffffffffffffffffffff021916908373ffffffffffffffffffffffffffffffffffffffff16021790555087600560006101000a81548173ffffffffffffffffffffffffffffffffffffffff021916908373ffffffffffffffffffffffffffffffffffffffff160217905550866004819055508560068190555084600781905550836008819055508260098190555081600a8190555080600b8190555050505050505050506200032b565b600033905090565b600081519050620001d981620002f7565b92915050565b600081519050620001f08162000311565b92915050565b600080600080600080600080610100898b0312156200021457600080fd5b6000620002248b828c01620001c8565b9850506020620002378b828c01620001df565b97505060406200024a8b828c01620001df565b96505060606200025d8b828c01620001df565b9550506080620002708b828c01620001df565b94505060a0620002838b828c01620001df565b93505060c0620002968b828c01620001df565b92505060e0620002a98b828c01620001df565b9150509295985092959890939650565b6000620002c682620002cd565b9050919050565b600073ffffffffffffffffffffffffffffffffffffffff82169050919050565b6000819050919050565b6200030281620002b9565b81146200030e57600080fd5b50565b6200031c81620002ed565b81146200032857600080fd5b50565b6144e1806200033b6000396000f3fe6080604052600436106102465760003560e01c806392bfdccb11610139578063bd94b005116100b6578063dbd8987c1161007a578063dbd8987c14610855578063e51fe66314610880578063ef18e9ed146108a9578063f2fde38b146108d2578063fc3fa70f146108fb578063feb216991461092657610246565b8063bd94b00514610784578063c283e7eb146107ad578063c4a3df10146107d6578063ccfc1fc914610801578063d45fc36b1461082c57610246565b8063a85c38ef116100fd578063a85c38ef14610676578063af773709146106b8578063ba1c2a16146106e1578063bc15e6011461070a578063bc31c1c11461074757610246565b806392bfdccb1461058f57806395d4b2df146105ba5780639d63848a146105f75780639e029fbc14610622578063a08764451461064b57610246565b80636257dcc5116101c7578063808b0a041161018b578063808b0a04146104c9578063873775ad146104f45780638a29d0e41461051d5780638da5cb5b146105485780638de932221461057357610246565b80636257dcc51461040e57806363111b651461043757806369edcd5b14610460578063715018a61461048957806372fbb390146104a057610246565b80633c00a96a1161020e5780633c00a96a146103445780634b60267314610360578063514fcac7146103a35780635c717fb8146103cc5780635fd8c710146103f757610246565b806316eea7d51461024b5780632453ffa81461028857806327e235e3146102b35780632a80805b146102f05780632f12616d14610319575b600080fd5b34801561025757600080fd5b50610272600480360381019061026d91906137a6565b610951565b60405161027f9190613b1c565b60405180910390f35b34801561029457600080fd5b5061029d610971565b6040516102aa9190613b92565b60405180910390f35b3480156102bf57600080fd5b506102da60048036038101906102d591906134e4565b610977565b6040516102e79190613b92565b60405180910390f35b3480156102fc57600080fd5b50610317600480360381019061031291906137a6565b61098f565b005b34801561032557600080fd5b5061032e610a0e565b60405161033b9190613b92565b60405180910390f35b61035e60048036038101906103599190613729565b610a14565b005b34801561036c57600080fd5b50610387600480360381019061038291906137a6565b610f7c565b60405161039a9796959493929190613bad565b60405180910390f35b3480156103af57600080fd5b506103ca60048036038101906103c591906137a6565b6110fb565b005b3480156103d857600080fd5b506103e1611347565b6040516103ee9190613a63565b60405180910390f35b34801561040357600080fd5b5061040c61136d565b005b34801561041a57600080fd5b50610435600480360381019061043091906137a6565b61148c565b005b34801561044357600080fd5b5061045e600480360381019061045991906137a6565b6114ff565b005b34801561046c57600080fd5b50610487600480360381019061048291906134e4565b611572565b005b34801561049557600080fd5b5061049e611632565b005b3480156104ac57600080fd5b506104c760048036038101906104c2919061350d565b61176c565b005b3480156104d557600080fd5b506104de611a6c565b6040516104eb9190613b92565b60405180910390f35b34801561050057600080fd5b5061051b600480360381019061051691906137a6565b611a72565b005b34801561052957600080fd5b50610532611aef565b60405161053f9190613a63565b60405180910390f35b34801561055457600080fd5b5061055d611b15565b60405161056a9190613a63565b60405180910390f35b61058d6004803603810190610588919061358c565b611b3e565b005b34801561059b57600080fd5b506105a4612311565b6040516105b19190613b92565b60405180910390f35b3480156105c657600080fd5b506105e160048036038101906105dc91906137a6565b612317565b6040516105ee9190613b1c565b60405180910390f35b34801561060357600080fd5b5061060c612337565b6040516106199190613b37565b60405180910390f35b34801561062e57600080fd5b50610649600480360381019061064491906137a6565b61235d565b005b34801561065757600080fd5b506106606123c1565b60405161066d9190613b92565b60405180910390f35b34801561068257600080fd5b5061069d600480360381019061069891906137a6565b6123c7565b6040516106af96959493929190613c2a565b60405180910390f35b3480156106c457600080fd5b506106df60048036038101906106da91906134e4565b612423565b005b3480156106ed57600080fd5b50610708600480360381019061070391906137a6565b6124c1565b005b34801561071657600080fd5b50610731600480360381019061072c91906137a6565b61253e565b60405161073e9190613b1c565b60405180910390f35b34801561075357600080fd5b5061076e600480360381019061076991906137a6565b61255e565b60405161077b9190613b92565b60405180910390f35b34801561079057600080fd5b506107ab60048036038101906107a691906137a6565b612576565b005b3480156107b957600080fd5b506107d460048036038101906107cf91906136da565b6126b7565b005b3480156107e257600080fd5b506107eb61288f565b6040516107f89190613b92565b60405180910390f35b34801561080d57600080fd5b50610816612895565b6040516108239190613b92565b60405180910390f35b34801561083857600080fd5b50610853600480360381019061084e91906137a6565b61289b565b005b34801561086157600080fd5b5061086a61291a565b6040516108779190613b92565b60405180910390f35b34801561088c57600080fd5b506108a760048036038101906108a291906135c8565b612920565b005b3480156108b557600080fd5b506108d060048036038101906108cb91906137a6565b612f05565b005b3480156108de57600080fd5b506108f960048036038101906108f491906134e4565b6130a2565b005b34801561090757600080fd5b5061091061324b565b60405161091d9190613b92565b60405180910390f35b34801561093257600080fd5b5061093b613251565b6040516109489190613b92565b60405180910390f35b60146020528060005260406000206000915054906101000a900460ff1681565b600d5481565b60116020528060005260406000206000915090505481565b600560009054906101000a900473ffffffffffffffffffffffffffffffffffffffff1673ffffffffffffffffffffffffffffffffffffffff163373ffffffffffffffffffffffffffffffffffffffff16146109e957600080fd5b6000811180156109fb57506009548111155b610a0457600080fd5b8060088190555050565b600a5481565b6000825190506008548110158015610a2e57506009548111155b610a3757600080fd5b600a548210158015610a4b5750600b548211155b610a5457600080fd5b6000600d54905060006001905060005b83811015610be5573373ffffffffffffffffffffffffffffffffffffffff16600e6000888481518110610ac0577f4e487b7100000000000000000000000000000000000000000000000000000000600052603260045260246000fd5b6020026020010151815260200190815260200160002060010160009054906101000a900473ffffffffffffffffffffffffffffffffffffffff1673ffffffffffffffffffffffffffffffffffffffff1614610b1a57600080fd5b81600e6000888481518110610b58577f4e487b7100000000000000000000000000000000000000000000000000000000600052603260045260246000fd5b60200260200101518152602001908152602001600020600201541115610bd257600e6000878381518110610bb5577f4e487b7100000000000000000000000000000000000000000000000000000000600052603260045260246000fd5b602002602001015181526020019081526020016000206002015491505b8080610bdd90614330565b915050610a64565b506000610c366064610c2886610c1a600754610c0c8b60065461325790919063ffffffff16565b61325790919063ffffffff16565b61325790919063ffffffff16565b61326d90919063ffffffff16565b600654610c439190614105565b905060008111610c5257600080fd5b6000610c7c6064610c6e6002548561325790919063ffffffff16565b61326d90919063ffffffff16565b9050610c91818361328390919063ffffffff16565b3414610c9c57600080fd5b6040518060e001604052808581526020013373ffffffffffffffffffffffffffffffffffffffff16815260200183815260200188815260200187815260200184815260200142815250600f60008681526020019081526020016000206000820151816000015560208201518160010160006101000a81548173ffffffffffffffffffffffffffffffffffffffff021916908373ffffffffffffffffffffffffffffffffffffffff160217905550604082015181600201556060820151816003019080519060200190610d6f9291906132b7565b506080820151816004015560a0820151816005015560c08201518160060155905050610de382601160003073ffffffffffffffffffffffffffffffffffffffff1673ffffffffffffffffffffffffffffffffffffffff1681526020019081526020016000205461328390919063ffffffff16565b601160003073ffffffffffffffffffffffffffffffffffffffff1673ffffffffffffffffffffffffffffffffffffffff16815260200190815260200160002081905550610e9a8160116000600360009054906101000a900473ffffffffffffffffffffffffffffffffffffffff1673ffffffffffffffffffffffffffffffffffffffff1673ffffffffffffffffffffffffffffffffffffffff1681526020019081526020016000205461328390919063ffffffff16565b60116000600360009054906101000a900473ffffffffffffffffffffffffffffffffffffffff1673ffffffffffffffffffffffffffffffffffffffff1673ffffffffffffffffffffffffffffffffffffffff16815260200190815260200160002081905550610f156001600d5461328390919063ffffffff16565b600d819055503373ffffffffffffffffffffffffffffffffffffffff167fea6d3114e11168d7162e8537e39f28a853c350c9980461aa095181b2c172a2d085848a8a8842604051610f6b96959493929190613d25565b60405180910390a250505050505050565b600e6020528060005260406000206000915090508060000154908060010160009054906101000a900473ffffffffffffffffffffffffffffffffffffffff1690806002015490806003018054610fd1906142e4565b80601f0160208091040260200160405190810160405280929190818152602001828054610ffd906142e4565b801561104a5780601f1061101f5761010080835404028352916020019161104a565b820191906000526020600020905b81548152906001019060200180831161102d57829003601f168201915b50505050509080600401805461105f906142e4565b80601f016020809104026020016040519081016040528092919081815260200182805461108b906142e4565b80156110d85780601f106110ad576101008083540402835291602001916110d8565b820191906000526020600020905b8154815290600101906020018083116110bb57829003601f168201915b5050505050908060050160009054906101000a900460ff16908060080154905087565b6000600f600083815260200190815260200160002090508181600001541461112257600080fd5b8060010160009054906101000a900473ffffffffffffffffffffffffffffffffffffffff1673ffffffffffffffffffffffffffffffffffffffff163373ffffffffffffffffffffffffffffffffffffffff161461117e57600080fd5b60016013600084815260200190815260200160002060006101000a81548160ff0219169083151502179055506112008160020154601160003373ffffffffffffffffffffffffffffffffffffffff1673ffffffffffffffffffffffffffffffffffffffff1681526020019081526020016000205461328390919063ffffffff16565b601160003373ffffffffffffffffffffffffffffffffffffffff1673ffffffffffffffffffffffffffffffffffffffff168152602001908152602001600020819055506112998160020154601160003073ffffffffffffffffffffffffffffffffffffffff1673ffffffffffffffffffffffffffffffffffffffff1681526020019081526020016000205461329990919063ffffffff16565b601160003073ffffffffffffffffffffffffffffffffffffffff1673ffffffffffffffffffffffffffffffffffffffff168152602001908152602001600020819055503373ffffffffffffffffffffffffffffffffffffffff167f057fa5c8af6f0d3dfedc67d0489c48dc8cd5dd00db429b88dc62a32c503bc85a83836002015484600301856004015486600501544260405161133b96959493929190613d8d565b60405180910390a25050565b600560009054906101000a900473ffffffffffffffffffffffffffffffffffffffff1681565b60003390506000601160008373ffffffffffffffffffffffffffffffffffffffff1673ffffffffffffffffffffffffffffffffffffffff16815260200190815260200160002054116113be57600080fd5b6000601160008373ffffffffffffffffffffffffffffffffffffffff1673ffffffffffffffffffffffffffffffffffffffff168152602001908152602001600020819055508073ffffffffffffffffffffffffffffffffffffffff166108fc601160008473ffffffffffffffffffffffffffffffffffffffff1673ffffffffffffffffffffffffffffffffffffffff168152602001908152602001600020549081150290604051600060405180830381858888f19350505050158015611488573d6000803e3d6000fd5b5050565b600560009054906101000a900473ffffffffffffffffffffffffffffffffffffffff1673ffffffffffffffffffffffffffffffffffffffff163373ffffffffffffffffffffffffffffffffffffffff16146114e657600080fd5b600a548110156114f557600080fd5b80600b8190555050565b600560009054906101000a900473ffffffffffffffffffffffffffffffffffffffff1673ffffffffffffffffffffffffffffffffffffffff163373ffffffffffffffffffffffffffffffffffffffff161461155957600080fd5b60085481101561156857600080fd5b8060098190555050565b61157a6132af565b73ffffffffffffffffffffffffffffffffffffffff16611598611b15565b73ffffffffffffffffffffffffffffffffffffffff16146115ee576040517f08c379a00000000000000000000000000000000000000000000000000000000081526004016115e590613b72565b60405180910390fd5b80600360006101000a81548173ffffffffffffffffffffffffffffffffffffffff021916908373ffffffffffffffffffffffffffffffffffffffff16021790555050565b61163a6132af565b73ffffffffffffffffffffffffffffffffffffffff16611658611b15565b73ffffffffffffffffffffffffffffffffffffffff16146116ae576040517f08c379a00000000000000000000000000000000000000000000000000000000081526004016116a590613b72565b60405180910390fd5b600073ffffffffffffffffffffffffffffffffffffffff1660008054906101000a900473ffffffffffffffffffffffffffffffffffffffff1673ffffffffffffffffffffffffffffffffffffffff167f8be0079c531659141344cd1fd0a4f28419497f9722a3daafe3b4186f6b6457e060405160405180910390a360008060006101000a81548173ffffffffffffffffffffffffffffffffffffffff021916908373ffffffffffffffffffffffffffffffffffffffff160217905550565b600560009054906101000a900473ffffffffffffffffffffffffffffffffffffffff1673ffffffffffffffffffffffffffffffffffffffff163373ffffffffffffffffffffffffffffffffffffffff16146117c657600080fd5b6000600c54905060606040518061012001604052808381526020013373ffffffffffffffffffffffffffffffffffffffff1681526020016000815260200185815260200184815260200160001515815260200182815260200182815260200142815250600e60008481526020019081526020016000206000820151816000015560208201518160010160006101000a81548173ffffffffffffffffffffffffffffffffffffffff021916908373ffffffffffffffffffffffffffffffffffffffff1602179055506040820151816002015560608201518160030190805190602001906118b3929190613304565b5060808201518160040190805190602001906118d0929190613304565b5060a08201518160050160006101000a81548160ff02191690831515021790555060c082015181600601908051906020019061190d9291906132b7565b5060e082015181600701908051906020019061192a9291906132b7565b50610100820151816008015590505061194f6001600c5461328390919063ffffffff16565b600c8190555060065460106000848152602001908152602001600020819055508473ffffffffffffffffffffffffffffffffffffffff16635c21bc2c3384876040518463ffffffff1660e01b81526004016119ac93929190613ade565b602060405180830381600087803b1580156119c657600080fd5b505af11580156119da573d6000803e3d6000fd5b505050506040513d601f19601f820116820180604052508101906119fe919061377d565b611a0757600080fd5b3373ffffffffffffffffffffffffffffffffffffffff167f1e7f38031edb2943238e446365befdb2745df92bdaed635ef33635dc09ee590483600087876000878842604051611a5d989796959493929190613c8b565b60405180910390a25050505050565b60085481565b600560009054906101000a900473ffffffffffffffffffffffffffffffffffffffff1673ffffffffffffffffffffffffffffffffffffffff163373ffffffffffffffffffffffffffffffffffffffff1614611acc57600080fd5b600081118015611adc5750606481105b611ae557600080fd5b8060078190555050565b600360009054906101000a900473ffffffffffffffffffffffffffffffffffffffff1681565b60008060009054906101000a900473ffffffffffffffffffffffffffffffffffffffff16905090565b6000600e6000838152602001908152602001600020905081816000015414611b6557600080fd5b8060010160009054906101000a900473ffffffffffffffffffffffffffffffffffffffff1673ffffffffffffffffffffffffffffffffffffffff163373ffffffffffffffffffffffffffffffffffffffff161415611bc257600080fd5b60006010600084815260200190815260200160002054905060008111611be757600080fd5b6000806000611c146064611c066002548761325790919063ffffffff16565b61326d90919063ffffffff16565b9050600560009054906101000a900473ffffffffffffffffffffffffffffffffffffffff1673ffffffffffffffffffffffffffffffffffffffff168560010160009054906101000a900473ffffffffffffffffffffffffffffffffffffffff1673ffffffffffffffffffffffffffffffffffffffff161415611e6057611ca3818561328390919063ffffffff16565b9250611d1b84601160008860010160009054906101000a900473ffffffffffffffffffffffffffffffffffffffff1673ffffffffffffffffffffffffffffffffffffffff1673ffffffffffffffffffffffffffffffffffffffff1681526020019081526020016000205461328390919063ffffffff16565b601160008760010160009054906101000a900473ffffffffffffffffffffffffffffffffffffffff1673ffffffffffffffffffffffffffffffffffffffff1673ffffffffffffffffffffffffffffffffffffffff16815260200190815260200160002081905550611df68160116000600360009054906101000a900473ffffffffffffffffffffffffffffffffffffffff1673ffffffffffffffffffffffffffffffffffffffff1673ffffffffffffffffffffffffffffffffffffffff1681526020019081526020016000205461328390919063ffffffff16565b60116000600360009054906101000a900473ffffffffffffffffffffffffffffffffffffffff1673ffffffffffffffffffffffffffffffffffffffff1673ffffffffffffffffffffffffffffffffffffffff16815260200190815260200160002081905550612141565b611e886064611e7a6004548761325790919063ffffffff16565b61326d90919063ffffffff16565b9150611eaf81611ea1848761328390919063ffffffff16565b61328390919063ffffffff16565b9250611f2784601160008860010160009054906101000a900473ffffffffffffffffffffffffffffffffffffffff1673ffffffffffffffffffffffffffffffffffffffff1673ffffffffffffffffffffffffffffffffffffffff1681526020019081526020016000205461328390919063ffffffff16565b601160008760010160009054906101000a900473ffffffffffffffffffffffffffffffffffffffff1673ffffffffffffffffffffffffffffffffffffffff1673ffffffffffffffffffffffffffffffffffffffff168152602001908152602001600020819055506120028260116000600560009054906101000a900473ffffffffffffffffffffffffffffffffffffffff1673ffffffffffffffffffffffffffffffffffffffff1673ffffffffffffffffffffffffffffffffffffffff1681526020019081526020016000205461328390919063ffffffff16565b60116000600560009054906101000a900473ffffffffffffffffffffffffffffffffffffffff1673ffffffffffffffffffffffffffffffffffffffff1673ffffffffffffffffffffffffffffffffffffffff168152602001908152602001600020819055506120db8160116000600360009054906101000a900473ffffffffffffffffffffffffffffffffffffffff1673ffffffffffffffffffffffffffffffffffffffff1673ffffffffffffffffffffffffffffffffffffffff1681526020019081526020016000205461328390919063ffffffff16565b60116000600360009054906101000a900473ffffffffffffffffffffffffffffffffffffffff1673ffffffffffffffffffffffffffffffffffffffff1673ffffffffffffffffffffffffffffffffffffffff168152602001908152602001600020819055505b82341461214d57600080fd5b600060106000888152602001908152602001600020819055508673ffffffffffffffffffffffffffffffffffffffff1663f5537ede8660010160009054906101000a900473ffffffffffffffffffffffffffffffffffffffff1633896040518463ffffffff1660e01b81526004016121c793929190613aa7565b602060405180830381600087803b1580156121e157600080fd5b505af11580156121f5573d6000803e3d6000fd5b505050506040513d601f19601f82011682018060405250810190612219919061377d565b61222257600080fd5b338560010160006101000a81548173ffffffffffffffffffffffffffffffffffffffff021916908373ffffffffffffffffffffffffffffffffffffffff1602179055508460010160009054906101000a900473ffffffffffffffffffffffffffffffffffffffff1673ffffffffffffffffffffffffffffffffffffffff167fae3104c9b49cc06ceac7a185673d2db9c5ddf4b4f4ec68656c50a1b111f7969587868860020154896003018a6004018b60050160009054906101000a900460ff168c6006018d6007014260405161230099989796959493929190613f38565b60405180910390a250505050505050565b60045481565b60126020528060005260406000206000915054906101000a900460ff1681565b600160009054906101000a900473ffffffffffffffffffffffffffffffffffffffff1681565b600560009054906101000a900473ffffffffffffffffffffffffffffffffffffffff1673ffffffffffffffffffffffffffffffffffffffff163373ffffffffffffffffffffffffffffffffffffffff16146123b757600080fd5b8060068190555050565b600c5481565b600f6020528060005260406000206000915090508060000154908060010160009054906101000a900473ffffffffffffffffffffffffffffffffffffffff16908060020154908060040154908060050154908060060154905086565b600560009054906101000a900473ffffffffffffffffffffffffffffffffffffffff1673ffffffffffffffffffffffffffffffffffffffff163373ffffffffffffffffffffffffffffffffffffffff161461247d57600080fd5b80600560006101000a81548173ffffffffffffffffffffffffffffffffffffffff021916908373ffffffffffffffffffffffffffffffffffffffff16021790555050565b600560009054906101000a900473ffffffffffffffffffffffffffffffffffffffff1673ffffffffffffffffffffffffffffffffffffffff163373ffffffffffffffffffffffffffffffffffffffff161461251b57600080fd5b60008111801561252b5750606481105b61253457600080fd5b8060048190555050565b60136020528060005260406000206000915054906101000a900460ff1681565b60106020528060005260406000206000915090505481565b6000600e600083815260200190815260200160002090508181600001541461259d57600080fd5b8060010160009054906101000a900473ffffffffffffffffffffffffffffffffffffffff1673ffffffffffffffffffffffffffffffffffffffff163373ffffffffffffffffffffffffffffffffffffffff16146125f957600080fd5b600060106000848152602001908152602001600020819055508060010160009054906101000a900473ffffffffffffffffffffffffffffffffffffffff1673ffffffffffffffffffffffffffffffffffffffff167f8d88929a4426088e764ca239c69f4e9364f3fde0af94b28371f9ff4c5e566bf683836002015484600301856004018660050160009054906101000a900460ff168760060188600701426040516126ab989796959493929190613df5565b60405180910390a25050565b6000600e60008481526020019081526020016000209050828160000154146126de57600080fd5b8060010160009054906101000a900473ffffffffffffffffffffffffffffffffffffffff1673ffffffffffffffffffffffffffffffffffffffff163373ffffffffffffffffffffffffffffffffffffffff161461273a57600080fd5b8160106000858152602001908152602001600020819055508373ffffffffffffffffffffffffffffffffffffffff1663e985e9c533306040518363ffffffff1660e01b815260040161278d929190613a7e565b60206040518083038186803b1580156127a557600080fd5b505afa1580156127b9573d6000803e3d6000fd5b505050506040513d601f19601f820116820180604052508101906127dd919061377d565b6127e657600080fd5b8060010160009054906101000a900473ffffffffffffffffffffffffffffffffffffffff1673ffffffffffffffffffffffffffffffffffffffff167f7d8ccee44f815e95b2e5674820d34366f7802106110ff5fa34c022f7d2ac8a068484846002015485600301866004018760050160009054906101000a900460ff1688600601896007014260405161288199989796959493929190613f38565b60405180910390a250505050565b60095481565b60065481565b600560009054906101000a900473ffffffffffffffffffffffffffffffffffffffff1673ffffffffffffffffffffffffffffffffffffffff163373ffffffffffffffffffffffffffffffffffffffff16146128f557600080fd5b6000811180156129075750600b548111155b61291057600080fd5b80600a8190555050565b60025481565b600560009054906101000a900473ffffffffffffffffffffffffffffffffffffffff1673ffffffffffffffffffffffffffffffffffffffff163373ffffffffffffffffffffffffffffffffffffffff161461297a57600080fd5b6000600f60008981526020019081526020016000209050878160000154146129a157600080fd5b60011515601260008a815260200190815260200160002060009054906101000a900460ff161515146129d257600080fd5b6000600c5490506040518061012001604052808281526020018473ffffffffffffffffffffffffffffffffffffffff16815260200187815260200189815260200188815260200160001515815260200186815260200185815260200142815250600e60008381526020019081526020016000206000820151816000015560208201518160010160006101000a81548173ffffffffffffffffffffffffffffffffffffffff021916908373ffffffffffffffffffffffffffffffffffffffff160217905550604082015181600201556060820151816003019080519060200190612abc929190613304565b506080820151816004019080519060200190612ad9929190613304565b5060a08201518160050160006101000a81548160ff02191690831515021790555060c0820151816006019080519060200190612b169291906132b7565b5060e0820151816007019080519060200190612b339291906132b7565b5061010082015181600801559050506001601460008b815260200190815260200160002060006101000a81548160ff021916908315150217905550612b846001600c5461328390919063ffffffff16565b600c8190555060005b8551811015612c895760001515600e6000888481518110612bd7577f4e487b7100000000000000000000000000000000000000000000000000000000600052603260045260246000fd5b6020026020010151815260200190815260200160002060050160009054906101000a900460ff1615151415612c76576001600e6000888481518110612c45577f4e487b7100000000000000000000000000000000000000000000000000000000600052603260045260246000fd5b6020026020010151815260200190815260200160002060050160006101000a81548160ff0219169083151502179055505b8080612c8190614330565b915050612b8d565b50600082600201549050612d078160116000600560009054906101000a900473ffffffffffffffffffffffffffffffffffffffff1673ffffffffffffffffffffffffffffffffffffffff1673ffffffffffffffffffffffffffffffffffffffff1681526020019081526020016000205461328390919063ffffffff16565b60116000600560009054906101000a900473ffffffffffffffffffffffffffffffffffffffff1673ffffffffffffffffffffffffffffffffffffffff1673ffffffffffffffffffffffffffffffffffffffff16815260200190815260200160002081905550612dbe81601160003073ffffffffffffffffffffffffffffffffffffffff1673ffffffffffffffffffffffffffffffffffffffff1681526020019081526020016000205461329990919063ffffffff16565b601160003073ffffffffffffffffffffffffffffffffffffffff1673ffffffffffffffffffffffffffffffffffffffff168152602001908152602001600020819055508a73ffffffffffffffffffffffffffffffffffffffff16635c21bc2c85848c6040518463ffffffff1660e01b8152600401612e3e93929190613ade565b602060405180830381600087803b158015612e5857600080fd5b505af1158015612e6c573d6000803e3d6000fd5b505050506040513d601f19601f82011682018060405250810190612e90919061377d565b612e9957600080fd5b3373ffffffffffffffffffffffffffffffffffffffff167f81b940d420a6c43bca1faff62c3c9e6b8d6948948d59d08586c3ab0875d464b1838c8a8d8d60008d8d42604051612ef099989796959493929190613e8f565b60405180910390a25050505050505050505050565b600560009054906101000a900473ffffffffffffffffffffffffffffffffffffffff1673ffffffffffffffffffffffffffffffffffffffff163373ffffffffffffffffffffffffffffffffffffffff1614612f5f57600080fd5b6000600f6000838152602001908152602001600020905081816000015414612f8657600080fd5b600015156013600084815260200190815260200160002060009054906101000a900460ff161515148015612fde5750600015156014600084815260200190815260200160002060009054906101000a900460ff161515145b612fe757600080fd5b60016012600084815260200190815260200160002060006101000a81548160ff0219169083151502179055508060010160009054906101000a900473ffffffffffffffffffffffffffffffffffffffff1673ffffffffffffffffffffffffffffffffffffffff167f30a8ec127d500fd2ce70a37e1e9f8b83679d53e1148ce5a68bc4c43c1de8cc0283836002015484600301856004015486600501544260405161309696959493929190613d8d565b60405180910390a25050565b6130aa6132af565b73ffffffffffffffffffffffffffffffffffffffff166130c8611b15565b73ffffffffffffffffffffffffffffffffffffffff161461311e576040517f08c379a000000000000000000000000000000000000000000000000000000000815260040161311590613b72565b60405180910390fd5b600073ffffffffffffffffffffffffffffffffffffffff168173ffffffffffffffffffffffffffffffffffffffff16141561318e576040517f08c379a000000000000000000000000000000000000000000000000000000000815260040161318590613b52565b60405180910390fd5b8073ffffffffffffffffffffffffffffffffffffffff1660008054906101000a900473ffffffffffffffffffffffffffffffffffffffff1673ffffffffffffffffffffffffffffffffffffffff167f8be0079c531659141344cd1fd0a4f28419497f9722a3daafe3b4186f6b6457e060405160405180910390a3806000806101000a81548173ffffffffffffffffffffffffffffffffffffffff021916908373ffffffffffffffffffffffffffffffffffffffff16021790555050565b600b5481565b60075481565b60008183613265919061418c565b905092915050565b6000818361327b919061415b565b905092915050565b600081836132919190614105565b905092915050565b600081836132a791906141e6565b905092915050565b600033905090565b8280548282559060005260206000209081019282156132f3579160200282015b828111156132f25782518255916020019190600101906132d7565b5b509050613300919061338a565b5090565b828054613310906142e4565b90600052602060002090601f0160209004810192826133325760008555613379565b82601f1061334b57805160ff1916838001178555613379565b82800160010185558215613379579182015b8281111561337857825182559160200191906001019061335d565b5b509050613386919061338a565b5090565b5b808211156133a357600081600090555060010161338b565b5090565b60006133ba6133b584614012565b613fe1565b905080838252602082019050828560208602820111156133d957600080fd5b60005b8581101561340957816133ef88826134cf565b8452602084019350602083019250506001810190506133dc565b5050509392505050565b60006134266134218461403e565b613fe1565b90508281526020810184848401111561343e57600080fd5b6134498482856142a2565b509392505050565b60008135905061346081614466565b92915050565b600082601f83011261347757600080fd5b81356134878482602086016133a7565b91505092915050565b60008151905061349f8161447d565b92915050565b600082601f8301126134b657600080fd5b81356134c6848260208601613413565b91505092915050565b6000813590506134de81614494565b92915050565b6000602082840312156134f657600080fd5b600061350484828501613451565b91505092915050565b60008060006060848603121561352257600080fd5b600061353086828701613451565b935050602084013567ffffffffffffffff81111561354d57600080fd5b613559868287016134a5565b925050604084013567ffffffffffffffff81111561357657600080fd5b613582868287016134a5565b9150509250925092565b6000806040838503121561359f57600080fd5b60006135ad85828601613451565b92505060206135be858286016134cf565b9150509250929050565b600080600080600080600080610100898b0312156135e557600080fd5b60006135f38b828c01613451565b98505060206136048b828c016134cf565b975050604089013567ffffffffffffffff81111561362157600080fd5b61362d8b828c016134a5565b965050606089013567ffffffffffffffff81111561364a57600080fd5b6136568b828c016134a5565b95505060806136678b828c016134cf565b94505060a089013567ffffffffffffffff81111561368457600080fd5b6136908b828c01613466565b93505060c089013567ffffffffffffffff8111156136ad57600080fd5b6136b98b828c01613466565b92505060e06136ca8b828c01613451565b9150509295985092959890939650565b6000806000606084860312156136ef57600080fd5b60006136fd86828701613451565b935050602061370e868287016134cf565b925050604061371f868287016134cf565b9150509250925092565b6000806040838503121561373c57600080fd5b600083013567ffffffffffffffff81111561375657600080fd5b61376285828601613466565b9250506020613773858286016134cf565b9150509250929050565b60006020828403121561378f57600080fd5b600061379d84828501613490565b91505092915050565b6000602082840312156137b857600080fd5b60006137c6848285016134cf565b91505092915050565b60006137db8383613a45565b60208301905092915050565b6137f081614224565b82525050565b6000613801826140a8565b61380b81856140e3565b93506138168361406e565b8060005b8381101561384757815161382e88826137cf565b9750613839836140c9565b92505060018101905061381a565b5085935050505092915050565b600061385f826140b3565b61386981856140e3565b93506138748361407e565b8060005b838110156138ac5761388982614435565b61389388826137cf565b975061389e836140d6565b925050600181019050613878565b5085935050505092915050565b6138c281614236565b82525050565b6138d18161426c565b82525050565b6138e081614290565b82525050565b60006138f1826140be565b6138fb81856140f4565b935061390b8185602086016142b1565b61391481614448565b840191505092915050565b6000815461392c816142e4565b61393681866140f4565b94506001821660008114613951576001811461396357613996565b60ff1983168652602086019350613996565b61396c85614093565b60005b8381101561398e5781548189015260018201915060208101905061396f565b808801955050505b50505092915050565b60006139ac6026836140f4565b91507f4f776e61626c653a206e6577206f776e657220697320746865207a65726f206160008301527f64647265737300000000000000000000000000000000000000000000000000006020830152604082019050919050565b6000613a126020836140f4565b91507f4f776e61626c653a2063616c6c6572206973206e6f7420746865206f776e65726000830152602082019050919050565b613a4e81614262565b82525050565b613a5d81614262565b82525050565b6000602082019050613a7860008301846137e7565b92915050565b6000604082019050613a9360008301856137e7565b613aa060208301846137e7565b9392505050565b6000606082019050613abc60008301866137e7565b613ac960208301856137e7565b613ad66040830184613a54565b949350505050565b6000606082019050613af360008301866137e7565b613b006020830185613a54565b8181036040830152613b1281846138e6565b9050949350505050565b6000602082019050613b3160008301846138b9565b92915050565b6000602082019050613b4c60008301846138c8565b92915050565b60006020820190508181036000830152613b6b8161399f565b9050919050565b60006020820190508181036000830152613b8b81613a05565b9050919050565b6000602082019050613ba76000830184613a54565b92915050565b600060e082019050613bc2600083018a613a54565b613bcf60208301896137e7565b613bdc6040830188613a54565b8181036060830152613bee81876138e6565b90508181036080830152613c0281866138e6565b9050613c1160a08301856138b9565b613c1e60c0830184613a54565b98975050505050505050565b600060c082019050613c3f6000830189613a54565b613c4c60208301886137e7565b613c596040830187613a54565b613c666060830186613a54565b613c736080830185613a54565b613c8060a0830184613a54565b979650505050505050565b600061010082019050613ca1600083018b613a54565b613cae602083018a6138d7565b8181036040830152613cc081896138e6565b90508181036060830152613cd481886138e6565b9050613ce360808301876138b9565b81810360a0830152613cf581866137f6565b905081810360c0830152613d0981856137f6565b9050613d1860e0830184613a54565b9998505050505050505050565b600060c082019050613d3a6000830189613a54565b613d476020830188613a54565b8181036040830152613d5981876137f6565b9050613d686060830186613a54565b613d756080830185613a54565b613d8260a0830184613a54565b979650505050505050565b600060c082019050613da26000830189613a54565b613daf6020830188613a54565b8181036040830152613dc18187613854565b9050613dd06060830186613a54565b613ddd6080830185613a54565b613dea60a0830184613a54565b979650505050505050565b600061010082019050613e0b600083018b613a54565b613e18602083018a613a54565b8181036040830152613e2a818961391f565b90508181036060830152613e3e818861391f565b9050613e4d60808301876138b9565b81810360a0830152613e5f8186613854565b905081810360c0830152613e738185613854565b9050613e8260e0830184613a54565b9998505050505050505050565b600061012082019050613ea5600083018c613a54565b613eb2602083018b613a54565b613ebf604083018a613a54565b8181036060830152613ed181896138e6565b90508181036080830152613ee581886138e6565b9050613ef460a08301876138b9565b81810360c0830152613f0681866137f6565b905081810360e0830152613f1a81856137f6565b9050613f2a610100830184613a54565b9a9950505050505050505050565b600061012082019050613f4e600083018c613a54565b613f5b602083018b613a54565b613f68604083018a613a54565b8181036060830152613f7a818961391f565b90508181036080830152613f8e818861391f565b9050613f9d60a08301876138b9565b81810360c0830152613faf8186613854565b905081810360e0830152613fc38185613854565b9050613fd3610100830184613a54565b9a9950505050505050505050565b6000604051905081810181811067ffffffffffffffff8211171561400857614007614406565b5b8060405250919050565b600067ffffffffffffffff82111561402d5761402c614406565b5b602082029050602081019050919050565b600067ffffffffffffffff82111561405957614058614406565b5b601f19601f8301169050602081019050919050565b6000819050602082019050919050565b60008190508160005260206000209050919050565b60008190508160005260206000209050919050565b600081519050919050565b600081549050919050565b600081519050919050565b6000602082019050919050565b6000600182019050919050565b600082825260208201905092915050565b600082825260208201905092915050565b600061411082614262565b915061411b83614262565b9250827fffffffffffffffffffffffffffffffffffffffffffffffffffffffffffffffff038211156141505761414f614379565b5b828201905092915050565b600061416682614262565b915061417183614262565b925082614181576141806143a8565b5b828204905092915050565b600061419782614262565b91506141a283614262565b9250817fffffffffffffffffffffffffffffffffffffffffffffffffffffffffffffffff04831182151516156141db576141da614379565b5b828202905092915050565b60006141f182614262565b91506141fc83614262565b92508282101561420f5761420e614379565b5b828203905092915050565b6000819050919050565b600061422f82614242565b9050919050565b60008115159050919050565b600073ffffffffffffffffffffffffffffffffffffffff82169050919050565b6000819050919050565b60006142778261427e565b9050919050565b600061428982614242565b9050919050565b600061429b82614262565b9050919050565b82818337600083830152505050565b60005b838110156142cf5780820151818401526020810190506142b4565b838111156142de576000848401525b50505050565b600060028204905060018216806142fc57607f821691505b602082108114156143105761430f6143d7565b5b50919050565b600061432961432483614459565b61421a565b9050919050565b600061433b82614262565b91507fffffffffffffffffffffffffffffffffffffffffffffffffffffffffffffffff82141561436e5761436d614379565b5b600182019050919050565b7f4e487b7100000000000000000000000000000000000000000000000000000000600052601160045260246000fd5b7f4e487b7100000000000000000000000000000000000000000000000000000000600052601260045260246000fd5b7f4e487b7100000000000000000000000000000000000000000000000000000000600052602260045260246000fd5b7f4e487b7100000000000000000000000000000000000000000000000000000000600052604160045260246000fd5b60006144418254614316565b9050919050565b6000601f19601f8301169050919050565b60008160001c9050919050565b61446f81614224565b811461447a57600080fd5b50565b61448681614236565b811461449157600080fd5b50565b61449d81614262565b81146144a857600080fd5b5056fea2646970667358221220e63cd49f95da640933998d9175eaa1f26fcdc9a57ace7bbeabb07395ada99a6764736f6c63430008000033",
  "immutableReferences": {},
  "source": "// SPDX-License-Identifier: MIT\npragma solidity >=0.4.22 <0.9.0;\n\nimport './Tokens.sol';\nimport \"@openzeppelin/contracts/access/Ownable.sol\";\nimport \"@openzeppelin/contracts/token/ERC721/extensions/ERC721URIStorage.sol\";\nimport \"@openzeppelin/contracts/utils/math/SafeMath.sol\";\n\n// TODO: \n// TODO: cant create multiple legacies\n// TODO: fix tests where artist is buyer\n// TODO: tests for rejects order if filled or cancelled\n// TODO: tests for purchase if from artist or not\n\ncontract ArtFactory is Ownable {\n\n  using SafeMath for uint256;\n\n  Tokens public tokens;\n  \n  uint256 public contractFeePercentage; // percentage out of 100\n  address public contractFeeAccount;\n  uint256 public artistFeePercentage; // percentage out of 100\n  address public artistFeeAccount;\n  uint256 public baseArtPrice; // in wei\n  uint256 public parentMultiplierPercentage; // percentage out of 100\n  uint256 public minParents;\n  uint256 public maxParents;\n  uint256 public minLegacies;\n  uint256 public maxLegacies;\n  uint256 public artworkCount;\n  uint256 public orderCount;\n\n  mapping(uint256 => Art) public artworks;\n  mapping(uint256 => _Order) public orders;\n  mapping(uint256 => uint256) public prices;\n  mapping(address => uint256) public balances;\n  mapping(uint256 => bool) public acceptedOrders;\n  mapping(uint256 => bool) public cancelledOrders;\n  mapping(uint256 => bool) public filledOrders;\n\n  struct Art {\n    uint256 id;\n    address owner;\n    uint256 gen;\n    string tokenURI;\n    string name;\n    bool legacyCreated;\n    uint256[] parents;\n    uint256[] siblings;\n    uint256 timestamp;\n  }\n\n  struct _Order {\n    uint256 id;\n    address buyer;\n    uint256 price;\n    uint256[] parentIDS;\n    uint256 numLegacies;\n    uint256 gen;\n    uint256 timestamp;\n  }\n\n  event ArtGen0(uint256 id, address indexed owner, uint256 gen, string tokenURI, string name, bool legacyCreated, uint256[] parents, uint256[] siblings, uint256 timestamp);\n  event ArtFromOrder(uint256 id, uint256 orderID, address indexed owner, uint256 gen, string tokenURI, string name, bool legacyCreated, uint256[] parents, uint256[] siblings, uint256 timestamp);\n  event Order(uint256 id, address indexed buyer, uint256 price, uint256[] parentIDS, uint256 numLegacies, uint256 gen, uint256 timestamp);\n  event Accept(uint256 id, address indexed buyer, uint256 price, uint256[] parentIDS, uint256 numLegacies, uint256 gen, uint256 timestamp);\n  event Cancel(uint256 id, address indexed buyer, uint256 price, uint256[] parentIDS, uint256 numLegacies, uint256 gen, uint256 timestamp);\n  event ArtForSale(uint256 id, uint256 price, address indexed owner, uint256 gen, string tokenURI, string name, bool legacyCreated, uint256[] parents, uint256[] siblings, uint256 timestamp);\n  event SaleCancel(uint256 id, address indexed owner, uint256 gen, string tokenURI, string name, bool legacyCreated, uint256[] parents, uint256[] siblings, uint256 timestamp);\n  event Purchase(uint256 id, uint256 price, address indexed buyer, uint256 gen, string tokenURI, string name, bool legacyCreated, uint256[] parents, uint256[] siblings, uint256 timestamp);\n\n  constructor(\n    address _artistFeeAccount,\n    uint256 _artistFeePercentage,\n    uint256 _baseArtPrice,\n    uint256 _parentMultiplierPercentage,\n    uint256 _minParents,\n    uint256 _maxParents,\n    uint256 _minLegacies,\n    uint256 _maxLegacies\n    ){\n    \n    artworkCount = 0;\n    orderCount = 0;\n    contractFeePercentage = 1;\n    contractFeeAccount = msg.sender;\n\n    artistFeeAccount = _artistFeeAccount;\n    artistFeePercentage = _artistFeePercentage;\n    baseArtPrice = _baseArtPrice;\n    parentMultiplierPercentage = _parentMultiplierPercentage;\n    minParents = _minParents;\n    maxParents = _maxParents;\n    minLegacies = _minLegacies;\n    maxLegacies = _maxLegacies;\n  }\n\n  modifier onlyArtist() {\n    require(msg.sender == artistFeeAccount);\n    _;\n  }\n\n  function changeContractFeeAccount(address _contractFeeAccount) public onlyOwner {\n    contractFeeAccount = _contractFeeAccount;\n  }\n\n  function changeArtistFeeAccount(address _artistFeeAccount) public onlyArtist {\n    artistFeeAccount = _artistFeeAccount;\n  }\n\n  function changeArtistFeePercentage(uint256 _artistFeePercentage) public onlyArtist {\n    require(_artistFeePercentage > 0 && _artistFeePercentage < 100);\n    artistFeePercentage = _artistFeePercentage;\n  }\n\n  function changeBaseArtPrice(uint256 _baseArtPrice) public onlyArtist {\n    baseArtPrice = _baseArtPrice;\n  }\n\n  function changeParentMultiplierPercentage(uint256 _parentMultiplierPercentage) public onlyArtist {\n    require(_parentMultiplierPercentage > 0 && _parentMultiplierPercentage < 100);\n    parentMultiplierPercentage = _parentMultiplierPercentage;\n  }\n\n  function changeMinParents(uint256 _minParents) public onlyArtist {\n    require(_minParents > 0 && _minParents <= maxParents);\n    minParents = _minParents;\n  }\n\n  function changeMaxParents(uint256 _maxParents) public onlyArtist {\n    require(_maxParents >= minParents);\n    maxParents = _maxParents;\n  }\n\n  function changeMinLegacies(uint256 _minLegacies) public onlyArtist {\n    require(_minLegacies > 0 && _minLegacies <= maxLegacies);\n    minLegacies = _minLegacies;\n  }\n\n  function changeMaxLegacies(uint256 _maxLegacies) public onlyArtist {\n    require(_maxLegacies >= minLegacies);\n    maxLegacies = _maxLegacies;\n  }\n\n  function createArtGen0(address _tokensAddress, string memory _tokenURI, string memory _name) public onlyArtist {\n    uint256 _id = artworkCount;\n    uint256[] memory arr;\n\n    artworks[_id] = Art(_id, msg.sender, 0, _tokenURI, _name, false, arr, arr, block.timestamp);\n    artworkCount = artworkCount.add(1);\n    prices[_id] = baseArtPrice;\n\n    require(Tokens(_tokensAddress).createToken(msg.sender, _id, _tokenURI));\n    \n    emit ArtGen0(_id, msg.sender, 0, _tokenURI, _name, false, arr, arr, block.timestamp);\n  }\n\n  function createArtFromOrder(address _tokensAddress, uint256 _orderID, string memory _tokenURI, string memory _name, uint256 _gen, uint256[] memory _parents, uint256[] memory _siblings, address _buyer) public onlyArtist {\n    _Order storage _order = orders[_orderID];\n    require(_order.id == _orderID);\n    require(acceptedOrders[_orderID] == true);\n    \n    uint256 _id = artworkCount;\n    artworks[_id] = Art(_id, _buyer, _gen, _tokenURI, _name, false, _parents, _siblings, block.timestamp);\n    \n    filledOrders[_orderID] = true;\n    artworkCount = artworkCount.add(1);\n    for(uint i=0;i<_parents.length;i++) {\n      if(artworks[_parents[i]].legacyCreated == false) {\n        artworks[_parents[i]].legacyCreated = true;\n      }\n    }\n\n    uint256 _price = _order.price;\n    balances[artistFeeAccount] = balances[artistFeeAccount].add(_price);\n    balances[address(this)] = balances[address(this)].sub(_price);\n\n    require(Tokens(_tokensAddress).createToken(_buyer, _id, _tokenURI));\n    \n    emit ArtFromOrder(_id, _orderID, msg.sender, _gen, _tokenURI, _name, false, _parents, _siblings, block.timestamp);\n  }\n\n  function putUpForSale(address _tokenAddress, uint256 _id, uint256 _price) public {\n    Art storage _art = artworks[_id];\n    require(_art.id == _id);\n    require(msg.sender == _art.owner);\n\n    prices[_id] = _price;\n\n    require(Tokens(_tokenAddress).isApprovedForAll(msg.sender, address(this)));\n\n    emit ArtForSale(_id, _price, _art.owner, _art.gen, _art.tokenURI, _art.name, _art.legacyCreated, _art.parents, _art.siblings, block.timestamp);\n  }\n\n  function cancelSale(uint256 _id) public {\n    Art storage _art = artworks[_id];\n    require(_art.id == _id);\n    require(msg.sender == _art.owner);\n\n    prices[_id] = 0;\n    \n    emit SaleCancel(_id, _art.owner, _art.gen, _art.tokenURI, _art.name, _art.legacyCreated, _art.parents, _art.siblings, block.timestamp);\n  }\n\n  function purchase(address _tokenAddress, uint256 _id) public payable {\n    Art storage _art = artworks[_id];\n    require(_art.id == _id);\n    require(msg.sender != _art.owner);\n    uint256 _price = prices[_id];\n    require(_price > 0);\n\n    uint256 totalPrice;\n    uint256 artistCut;\n    uint256 contractCut = _price.mul(contractFeePercentage).div(100);\n    \n    if(_art.owner == artistFeeAccount){\n      totalPrice = _price.add(contractCut);\n\n      balances[_art.owner] = balances[_art.owner].add(_price);\n      balances[contractFeeAccount] = balances[contractFeeAccount].add(contractCut);\n    } else {\n      artistCut = _price.mul(artistFeePercentage).div(100);\n      totalPrice = _price.add(artistCut).add(contractCut);\n\n      balances[_art.owner] = balances[_art.owner].add(_price);\n      balances[artistFeeAccount] = balances[artistFeeAccount].add(artistCut);\n      balances[contractFeeAccount] = balances[contractFeeAccount].add(contractCut);\n    }\n    require(msg.value == totalPrice);\n\n    prices[_id] = 0;\n\n    require(Tokens(_tokenAddress).transferToken(_art.owner, msg.sender, _id));\n\n    _art.owner = msg.sender;\n    \n    emit Purchase(_id, _price, _art.owner, _art.gen, _art.tokenURI, _art.name, _art.legacyCreated, _art.parents, _art.siblings, block.timestamp);\n  }\n\n  function createOrder(uint256[] memory _parentIDS, uint256 _numLegacies) public payable {\n    uint256 _numParents = _parentIDS.length;\n    require(_numParents >= minParents && _numParents <= maxParents);\n    require(_numLegacies >= minLegacies && _numLegacies <= maxLegacies);\n    \n    uint256 _id = orderCount;\n    \n    uint256 _gen = 1;\n    for(uint256 i=0;i<_numParents;i++) {\n      require(artworks[_parentIDS[i]].owner == msg.sender);\n      if (artworks[_parentIDS[i]].gen > _gen) {\n        _gen = artworks[_parentIDS[i]].gen;\n      }\n    }\n\n    uint256 _price = baseArtPrice + (baseArtPrice.mul(_numLegacies).mul(parentMultiplierPercentage).mul(_numParents).div(100));  // TODO: CHECK THIS\n    require(_price > 0);\n    uint256 _contractFee = _price.mul(contractFeePercentage).div(100);\n    require(msg.value == _price.add(_contractFee));\n    orders[_id] = _Order(_id, msg.sender, _price, _parentIDS, _numLegacies, _gen, block.timestamp);\n    \n    balances[address(this)] = balances[address(this)].add(_price);\n    balances[contractFeeAccount] = balances[contractFeeAccount].add(_contractFee);\n    orderCount = orderCount.add(1);\n    \n    emit Order(_id, msg.sender, _price, _parentIDS, _numLegacies, _gen, block.timestamp);\n  }\n\n  function acceptOrder(uint256 _id) public onlyArtist {\n    _Order storage _order = orders[_id];\n    require(_order.id == _id);\n    require(cancelledOrders[_id] == false && filledOrders[_id] == false);\n    acceptedOrders[_id] = true;\n    \n    emit Accept(_id, _order.buyer, _order.price, _order.parentIDS, _order.numLegacies, _order.gen, block.timestamp);\n  }\n\n  function cancelOrder(uint256 _id) public {\n    _Order storage _order = orders[_id];\n    require(_order.id == _id);\n    require(msg.sender == _order.buyer);\n    \n    cancelledOrders[_id] = true;\n    balances[msg.sender] = balances[msg.sender].add(_order.price); // TODO: need to test\n    balances[address(this)] = balances[address(this)].sub(_order.price); // TODO: need to test\n    \n    emit Cancel(_id, msg.sender, _order.price, _order.parentIDS, _order.numLegacies, _order.gen, block.timestamp);\n  }\n\n  function withdrawBalance() public {\n    address payable _account = payable(msg.sender);\n    require(balances[_account] > 0 );\n    \n    balances[_account] = 0;\n    _account.transfer(balances[_account]);\n  }\n}",
  "sourcePath": "/Users/andrewmlevy/Documents/blockchain/4_portfolio_projects/art-marketplace/src/contracts/ArtFactory.sol",
  "compiler": {
    "name": "solc",
    "version": "0.8.0+commit.c7dfd78e.Emscripten.clang"
  },
  "schemaVersion": "3.4.1",
  "updatedAt": "2021-06-10T15:59:18.511Z",
  "networkType": "ethereum",
  "devdoc": {
    "kind": "dev",
    "methods": {
      "owner()": {
        "details": "Returns the address of the current owner."
      },
      "renounceOwnership()": {
        "details": "Leaves the contract without owner. It will not be possible to call `onlyOwner` functions anymore. Can only be called by the current owner. NOTE: Renouncing ownership will leave the contract without an owner, thereby removing any functionality that is only available to the owner."
      },
      "transferOwnership(address)": {
        "details": "Transfers ownership of the contract to a new account (`newOwner`). Can only be called by the current owner."
      }
    },
    "version": 1
  },
  "userdoc": {
    "kind": "user",
    "methods": {},
    "version": 1
  }
}