{
  "contractName": "ArtFactory",
  "abi": [
    {
      "inputs": [
        {
          "internalType": "address",
          "name": "_artistFeeAccount",
          "type": "address"
        },
        {
          "internalType": "uint256",
          "name": "_artistFee",
          "type": "uint256"
        }
      ],
      "stateMutability": "nonpayable",
      "type": "constructor"
    },
    {
      "anonymous": false,
      "inputs": [
        {
          "indexed": true,
          "internalType": "address",
          "name": "owner",
          "type": "address"
        },
        {
          "indexed": true,
          "internalType": "address",
          "name": "approved",
          "type": "address"
        },
        {
          "indexed": true,
          "internalType": "uint256",
          "name": "tokenId",
          "type": "uint256"
        }
      ],
      "name": "Approval",
      "type": "event"
    },
    {
      "anonymous": false,
      "inputs": [
        {
          "indexed": true,
          "internalType": "address",
          "name": "owner",
          "type": "address"
        },
        {
          "indexed": true,
          "internalType": "address",
          "name": "operator",
          "type": "address"
        },
        {
          "indexed": false,
          "internalType": "bool",
          "name": "approved",
          "type": "bool"
        }
      ],
      "name": "ApprovalForAll",
      "type": "event"
    },
    {
      "anonymous": false,
      "inputs": [
        {
          "indexed": false,
          "internalType": "uint256",
          "name": "id",
          "type": "uint256"
        },
        {
          "indexed": false,
          "internalType": "address",
          "name": "owner",
          "type": "address"
        },
        {
          "indexed": false,
          "internalType": "uint256",
          "name": "gen",
          "type": "uint256"
        },
        {
          "indexed": false,
          "internalType": "uint256",
          "name": "dna",
          "type": "uint256"
        },
        {
          "indexed": false,
          "internalType": "string",
          "name": "tokenURI",
          "type": "string"
        },
        {
          "indexed": false,
          "internalType": "string",
          "name": "name",
          "type": "string"
        }
      ],
      "name": "Artwork",
      "type": "event"
    },
    {
      "anonymous": false,
      "inputs": [
        {
          "indexed": true,
          "internalType": "address",
          "name": "previousOwner",
          "type": "address"
        },
        {
          "indexed": true,
          "internalType": "address",
          "name": "newOwner",
          "type": "address"
        }
      ],
      "name": "OwnershipTransferred",
      "type": "event"
    },
    {
      "anonymous": false,
      "inputs": [
        {
          "indexed": false,
          "internalType": "uint256[]",
          "name": "ids",
          "type": "uint256[]"
        },
        {
          "indexed": false,
          "internalType": "uint256",
          "name": "deadline",
          "type": "uint256"
        }
      ],
      "name": "Proposal",
      "type": "event"
    },
    {
      "anonymous": false,
      "inputs": [
        {
          "indexed": true,
          "internalType": "address",
          "name": "from",
          "type": "address"
        },
        {
          "indexed": true,
          "internalType": "address",
          "name": "to",
          "type": "address"
        },
        {
          "indexed": true,
          "internalType": "uint256",
          "name": "tokenId",
          "type": "uint256"
        }
      ],
      "name": "Transfer",
      "type": "event"
    },
    {
      "inputs": [
        {
          "internalType": "address",
          "name": "to",
          "type": "address"
        },
        {
          "internalType": "uint256",
          "name": "tokenId",
          "type": "uint256"
        }
      ],
      "name": "approve",
      "outputs": [],
      "stateMutability": "nonpayable",
      "type": "function"
    },
    {
      "inputs": [],
      "name": "artistFee",
      "outputs": [
        {
          "internalType": "uint256",
          "name": "",
          "type": "uint256"
        }
      ],
      "stateMutability": "view",
      "type": "function"
    },
    {
      "inputs": [],
      "name": "artistFeeAccount",
      "outputs": [
        {
          "internalType": "address",
          "name": "",
          "type": "address"
        }
      ],
      "stateMutability": "view",
      "type": "function"
    },
    {
      "inputs": [
        {
          "internalType": "address",
          "name": "owner",
          "type": "address"
        }
      ],
      "name": "balanceOf",
      "outputs": [
        {
          "internalType": "uint256",
          "name": "",
          "type": "uint256"
        }
      ],
      "stateMutability": "view",
      "type": "function"
    },
    {
      "inputs": [],
      "name": "contractFee",
      "outputs": [
        {
          "internalType": "uint256",
          "name": "",
          "type": "uint256"
        }
      ],
      "stateMutability": "view",
      "type": "function"
    },
    {
      "inputs": [],
      "name": "contractFeeAccount",
      "outputs": [
        {
          "internalType": "address",
          "name": "",
          "type": "address"
        }
      ],
      "stateMutability": "view",
      "type": "function"
    },
    {
      "inputs": [],
      "name": "critterCount",
      "outputs": [
        {
          "internalType": "uint256",
          "name": "",
          "type": "uint256"
        }
      ],
      "stateMutability": "view",
      "type": "function"
    },
    {
      "inputs": [
        {
          "internalType": "uint256",
          "name": "",
          "type": "uint256"
        }
      ],
      "name": "critters",
      "outputs": [
        {
          "internalType": "uint256",
          "name": "id",
          "type": "uint256"
        },
        {
          "internalType": "address",
          "name": "owner",
          "type": "address"
        },
        {
          "internalType": "uint256",
          "name": "gen",
          "type": "uint256"
        },
        {
          "internalType": "uint256",
          "name": "dna",
          "type": "uint256"
        },
        {
          "internalType": "string",
          "name": "tokenURI",
          "type": "string"
        },
        {
          "internalType": "string",
          "name": "name",
          "type": "string"
        },
        {
          "internalType": "bool",
          "name": "legacyCreated",
          "type": "bool"
        }
      ],
      "stateMutability": "view",
      "type": "function"
    },
    {
      "inputs": [
        {
          "internalType": "uint256",
          "name": "tokenId",
          "type": "uint256"
        }
      ],
      "name": "getApproved",
      "outputs": [
        {
          "internalType": "address",
          "name": "",
          "type": "address"
        }
      ],
      "stateMutability": "view",
      "type": "function"
    },
    {
      "inputs": [
        {
          "internalType": "address",
          "name": "owner",
          "type": "address"
        },
        {
          "internalType": "address",
          "name": "operator",
          "type": "address"
        }
      ],
      "name": "isApprovedForAll",
      "outputs": [
        {
          "internalType": "bool",
          "name": "",
          "type": "bool"
        }
      ],
      "stateMutability": "view",
      "type": "function"
    },
    {
      "inputs": [],
      "name": "name",
      "outputs": [
        {
          "internalType": "string",
          "name": "",
          "type": "string"
        }
      ],
      "stateMutability": "view",
      "type": "function"
    },
    {
      "inputs": [],
      "name": "owner",
      "outputs": [
        {
          "internalType": "address",
          "name": "",
          "type": "address"
        }
      ],
      "stateMutability": "view",
      "type": "function"
    },
    {
      "inputs": [
        {
          "internalType": "uint256",
          "name": "tokenId",
          "type": "uint256"
        }
      ],
      "name": "ownerOf",
      "outputs": [
        {
          "internalType": "address",
          "name": "",
          "type": "address"
        }
      ],
      "stateMutability": "view",
      "type": "function"
    },
    {
      "inputs": [],
      "name": "proposalCount",
      "outputs": [
        {
          "internalType": "uint256",
          "name": "",
          "type": "uint256"
        }
      ],
      "stateMutability": "view",
      "type": "function"
    },
    {
      "inputs": [
        {
          "internalType": "uint256",
          "name": "",
          "type": "uint256"
        }
      ],
      "name": "proposals",
      "outputs": [
        {
          "internalType": "uint256",
          "name": "deadline",
          "type": "uint256"
        },
        {
          "internalType": "uint256",
          "name": "totalVotes",
          "type": "uint256"
        }
      ],
      "stateMutability": "view",
      "type": "function"
    },
    {
      "inputs": [],
      "name": "renounceOwnership",
      "outputs": [],
      "stateMutability": "nonpayable",
      "type": "function"
    },
    {
      "inputs": [
        {
          "internalType": "address",
          "name": "from",
          "type": "address"
        },
        {
          "internalType": "address",
          "name": "to",
          "type": "address"
        },
        {
          "internalType": "uint256",
          "name": "tokenId",
          "type": "uint256"
        }
      ],
      "name": "safeTransferFrom",
      "outputs": [],
      "stateMutability": "nonpayable",
      "type": "function"
    },
    {
      "inputs": [
        {
          "internalType": "address",
          "name": "from",
          "type": "address"
        },
        {
          "internalType": "address",
          "name": "to",
          "type": "address"
        },
        {
          "internalType": "uint256",
          "name": "tokenId",
          "type": "uint256"
        },
        {
          "internalType": "bytes",
          "name": "_data",
          "type": "bytes"
        }
      ],
      "name": "safeTransferFrom",
      "outputs": [],
      "stateMutability": "nonpayable",
      "type": "function"
    },
    {
      "inputs": [
        {
          "internalType": "address",
          "name": "operator",
          "type": "address"
        },
        {
          "internalType": "bool",
          "name": "approved",
          "type": "bool"
        }
      ],
      "name": "setApprovalForAll",
      "outputs": [],
      "stateMutability": "nonpayable",
      "type": "function"
    },
    {
      "inputs": [
        {
          "internalType": "bytes4",
          "name": "interfaceId",
          "type": "bytes4"
        }
      ],
      "name": "supportsInterface",
      "outputs": [
        {
          "internalType": "bool",
          "name": "",
          "type": "bool"
        }
      ],
      "stateMutability": "view",
      "type": "function"
    },
    {
      "inputs": [],
      "name": "symbol",
      "outputs": [
        {
          "internalType": "string",
          "name": "",
          "type": "string"
        }
      ],
      "stateMutability": "view",
      "type": "function"
    },
    {
      "inputs": [
        {
          "internalType": "uint256",
          "name": "tokenId",
          "type": "uint256"
        }
      ],
      "name": "tokenURI",
      "outputs": [
        {
          "internalType": "string",
          "name": "",
          "type": "string"
        }
      ],
      "stateMutability": "view",
      "type": "function"
    },
    {
      "inputs": [
        {
          "internalType": "address",
          "name": "from",
          "type": "address"
        },
        {
          "internalType": "address",
          "name": "to",
          "type": "address"
        },
        {
          "internalType": "uint256",
          "name": "tokenId",
          "type": "uint256"
        }
      ],
      "name": "transferFrom",
      "outputs": [],
      "stateMutability": "nonpayable",
      "type": "function"
    },
    {
      "inputs": [
        {
          "internalType": "address",
          "name": "newOwner",
          "type": "address"
        }
      ],
      "name": "transferOwnership",
      "outputs": [],
      "stateMutability": "nonpayable",
      "type": "function"
    },
    {
      "inputs": [
        {
          "internalType": "address",
          "name": "_artistFeeAccount",
          "type": "address"
        }
      ],
      "name": "changeArtistFeeAccount",
      "outputs": [],
      "stateMutability": "nonpayable",
      "type": "function"
    },
    {
      "inputs": [
        {
          "internalType": "address",
          "name": "_contractFeeAccount",
          "type": "address"
        }
      ],
      "name": "changeContractFeeAccount",
      "outputs": [],
      "stateMutability": "nonpayable",
      "type": "function"
    },
    {
      "inputs": [
        {
          "internalType": "uint256",
          "name": "_gen",
          "type": "uint256"
        },
        {
          "internalType": "uint256",
          "name": "_dna",
          "type": "uint256"
        },
        {
          "internalType": "string",
          "name": "_tokenURI",
          "type": "string"
        },
        {
          "internalType": "string",
          "name": "_name",
          "type": "string"
        }
      ],
      "name": "createArtwork",
      "outputs": [],
      "stateMutability": "nonpayable",
      "type": "function"
    },
    {
      "inputs": [
        {
          "internalType": "uint256[]",
          "name": "_ids",
          "type": "uint256[]"
        },
        {
          "internalType": "address[]",
          "name": "_accounts",
          "type": "address[]"
        },
        {
          "internalType": "uint256",
          "name": "_timeLimit",
          "type": "uint256"
        }
      ],
      "name": "createProposal",
      "outputs": [],
      "stateMutability": "nonpayable",
      "type": "function"
    }
  ],
  "bytecode": "0x60806040523480156200001157600080fd5b5060405162004132380380620041328339818101604052810190620000379190620002cd565b6040518060400160405280600781526020017f43726974746572000000000000000000000000000000000000000000000000008152506040518060400160405280600781526020017f43524954544552000000000000000000000000000000000000000000000000008152506000620000b5620001e760201b60201c565b9050806000806101000a81548173ffffffffffffffffffffffffffffffffffffffff021916908373ffffffffffffffffffffffffffffffffffffffff1602179055508073ffffffffffffffffffffffffffffffffffffffff16600073ffffffffffffffffffffffffffffffffffffffff167f8be0079c531659141344cd1fd0a4f28419497f9722a3daafe3b4186f6b6457e060405160405180910390a35081600190805190602001906200016b929190620001ef565b50806002908051906020019062000184929190620001ef565b505050600160088190555081600b60006101000a81548173ffffffffffffffffffffffffffffffffffffffff021916908373ffffffffffffffffffffffffffffffffffffffff160217905550806009819055506000600c819055505050620003e5565b600033905090565b828054620001fd906200034c565b90600052602060002090601f0160209004810192826200022157600085556200026d565b82601f106200023c57805160ff19168380011785556200026d565b828001600101855582156200026d579182015b828111156200026c5782518255916020019190600101906200024f565b5b5090506200027c919062000280565b5090565b5b808211156200029b57600081600090555060010162000281565b5090565b600081519050620002b081620003b1565b92915050565b600081519050620002c781620003cb565b92915050565b60008060408385031215620002e157600080fd5b6000620002f1858286016200029f565b92505060206200030485828601620002b6565b9150509250929050565b60006200031b8262000322565b9050919050565b600073ffffffffffffffffffffffffffffffffffffffff82169050919050565b6000819050919050565b600060028204905060018216806200036557607f821691505b602082108114156200037c576200037b62000382565b5b50919050565b7f4e487b7100000000000000000000000000000000000000000000000000000000600052602260045260246000fd5b620003bc816200030e565b8114620003c857600080fd5b50565b620003d68162000342565b8114620003e257600080fd5b50565b613d3d80620003f56000396000f3fe608060405234801561001057600080fd5b50600436106101c45760003560e01c80638da5cb5b116100f9578063c87b56dd11610097578063e088e31311610071578063e088e313146104fa578063e985e9c514610516578063f2fde38b14610546578063ff20deb314610562576101c4565b8063c87b56dd1461048e578063d41977cd146104be578063da35c664146104dc576101c4565b8063af773709116100d3578063af7737091461041c578063b25332ae14610438578063b88d4fde14610456578063beda1b3614610472576101c4565b80638da5cb5b146103c457806395d89b41146103e2578063a22cb46514610400576101c4565b80634feb7d1b1161016657806369edcd5b1161014057806369edcd5b1461035057806370a082311461036c578063715018a61461039c5780638a29d0e4146103a6576101c4565b80634feb7d1b146102cc5780635c717fb8146103025780636352211e14610320576101c4565b8063081812fc116101a2578063081812fc14610248578063095ea7b31461027857806323b872dd1461029457806342842e0e146102b0576101c4565b8063013cf08b146101c957806301ffc9a7146101fa57806306fdde031461022a575b600080fd5b6101e360048036038101906101de9190612b4f565b610580565b6040516101f1929190613833565b60405180910390f35b610214600480360381019061020f9190612afd565b6105a4565b60405161022191906134af565b60405180910390f35b610232610686565b60405161023f91906134ca565b60405180910390f35b610262600480360381019061025d9190612b4f565b610718565b60405161026f9190613418565b60405180910390f35b610292600480360381019061028d9190612a42565b61079d565b005b6102ae60048036038101906102a9919061293c565b6108b5565b005b6102ca60048036038101906102c5919061293c565b610915565b005b6102e660048036038101906102e19190612b4f565b610935565b6040516102f997969594939291906137b6565b60405180910390f35b61030a610ab4565b6040516103179190613418565b60405180910390f35b61033a60048036038101906103359190612b4f565b610ada565b6040516103479190613418565b60405180910390f35b61036a600480360381019061036591906128d7565b610b8c565b005b610386600480360381019061038191906128d7565b610c4c565b604051610393919061372c565b60405180910390f35b6103a4610d04565b005b6103ae610e3e565b6040516103bb9190613418565b60405180910390f35b6103cc610e64565b6040516103d99190613418565b60405180910390f35b6103ea610e8d565b6040516103f791906134ca565b60405180910390f35b61041a60048036038101906104159190612a06565b610f1f565b005b610436600480360381019061043191906128d7565b6110a0565b005b61044061113e565b60405161044d919061372c565b60405180910390f35b610470600480360381019061046b919061298b565b611144565b005b61048c60048036038101906104879190612a7e565b6111a6565b005b6104a860048036038101906104a39190612b4f565b611345565b6040516104b591906134ca565b60405180910390f35b6104c6611497565b6040516104d3919061372c565b60405180910390f35b6104e461149d565b6040516104f1919061372c565b60405180910390f35b610514600480360381019061050f9190612b78565b6114a3565b005b610530600480360381019061052b9190612900565b61169d565b60405161053d91906134af565b60405180910390f35b610560600480360381019061055b91906128d7565b611731565b005b61056a6118da565b604051610577919061372c565b60405180910390f35b600f6020528060005260406000206000915090508060020154908060030154905082565b60007f80ac58cd000000000000000000000000000000000000000000000000000000007bffffffffffffffffffffffffffffffffffffffffffffffffffffffff1916827bffffffffffffffffffffffffffffffffffffffffffffffffffffffff1916148061066f57507f5b5e139f000000000000000000000000000000000000000000000000000000007bffffffffffffffffffffffffffffffffffffffffffffffffffffffff1916827bffffffffffffffffffffffffffffffffffffffffffffffffffffffff1916145b8061067f575061067e826118e0565b5b9050919050565b60606001805461069590613b32565b80601f01602080910402602001604051908101604052809291908181526020018280546106c190613b32565b801561070e5780601f106106e35761010080835404028352916020019161070e565b820191906000526020600020905b8154815290600101906020018083116106f157829003601f168201915b5050505050905090565b60006107238261194a565b610762576040517f08c379a00000000000000000000000000000000000000000000000000000000081526004016107599061366c565b60405180910390fd5b6005600083815260200190815260200160002060009054906101000a900473ffffffffffffffffffffffffffffffffffffffff169050919050565b60006107a882610ada565b90508073ffffffffffffffffffffffffffffffffffffffff168373ffffffffffffffffffffffffffffffffffffffff161415610819576040517f08c379a0000000000000000000000000000000000000000000000000000000008152600401610810906136ec565b60405180910390fd5b8073ffffffffffffffffffffffffffffffffffffffff166108386119b6565b73ffffffffffffffffffffffffffffffffffffffff1614806108675750610866816108616119b6565b61169d565b5b6108a6576040517f08c379a000000000000000000000000000000000000000000000000000000000815260040161089d906135ac565b60405180910390fd5b6108b083836119be565b505050565b6108c66108c06119b6565b82611a77565b610905576040517f08c379a00000000000000000000000000000000000000000000000000000000081526004016108fc9061370c565b60405180910390fd5b610910838383611b55565b505050565b61093083838360405180602001604052806000815250611144565b505050565b600e6020528060005260406000206000915090508060000154908060010160009054906101000a900473ffffffffffffffffffffffffffffffffffffffff169080600201549080600301549080600401805461099090613b32565b80601f01602080910402602001604051908101604052809291908181526020018280546109bc90613b32565b8015610a095780601f106109de57610100808354040283529160200191610a09565b820191906000526020600020905b8154815290600101906020018083116109ec57829003601f168201915b505050505090806005018054610a1e90613b32565b80601f0160208091040260200160405190810160405280929190818152602001828054610a4a90613b32565b8015610a975780601f10610a6c57610100808354040283529160200191610a97565b820191906000526020600020905b815481529060010190602001808311610a7a57829003601f168201915b5050505050908060060160009054906101000a900460ff16905087565b600b60009054906101000a900473ffffffffffffffffffffffffffffffffffffffff1681565b6000806003600084815260200190815260200160002060009054906101000a900473ffffffffffffffffffffffffffffffffffffffff169050600073ffffffffffffffffffffffffffffffffffffffff168173ffffffffffffffffffffffffffffffffffffffff161415610b83576040517f08c379a0000000000000000000000000000000000000000000000000000000008152600401610b7a906135ec565b60405180910390fd5b80915050919050565b610b946119b6565b73ffffffffffffffffffffffffffffffffffffffff16610bb2610e64565b73ffffffffffffffffffffffffffffffffffffffff1614610c08576040517f08c379a0000000000000000000000000000000000000000000000000000000008152600401610bff9061368c565b60405180910390fd5b80600a60006101000a81548173ffffffffffffffffffffffffffffffffffffffff021916908373ffffffffffffffffffffffffffffffffffffffff16021790555050565b60008073ffffffffffffffffffffffffffffffffffffffff168273ffffffffffffffffffffffffffffffffffffffff161415610cbd576040517f08c379a0000000000000000000000000000000000000000000000000000000008152600401610cb4906135cc565b60405180910390fd5b600460008373ffffffffffffffffffffffffffffffffffffffff1673ffffffffffffffffffffffffffffffffffffffff168152602001908152602001600020549050919050565b610d0c6119b6565b73ffffffffffffffffffffffffffffffffffffffff16610d2a610e64565b73ffffffffffffffffffffffffffffffffffffffff1614610d80576040517f08c379a0000000000000000000000000000000000000000000000000000000008152600401610d779061368c565b60405180910390fd5b600073ffffffffffffffffffffffffffffffffffffffff1660008054906101000a900473ffffffffffffffffffffffffffffffffffffffff1673ffffffffffffffffffffffffffffffffffffffff167f8be0079c531659141344cd1fd0a4f28419497f9722a3daafe3b4186f6b6457e060405160405180910390a360008060006101000a81548173ffffffffffffffffffffffffffffffffffffffff021916908373ffffffffffffffffffffffffffffffffffffffff160217905550565b600a60009054906101000a900473ffffffffffffffffffffffffffffffffffffffff1681565b60008060009054906101000a900473ffffffffffffffffffffffffffffffffffffffff16905090565b606060028054610e9c90613b32565b80601f0160208091040260200160405190810160405280929190818152602001828054610ec890613b32565b8015610f155780601f10610eea57610100808354040283529160200191610f15565b820191906000526020600020905b815481529060010190602001808311610ef857829003601f168201915b5050505050905090565b610f276119b6565b73ffffffffffffffffffffffffffffffffffffffff168273ffffffffffffffffffffffffffffffffffffffff161415610f95576040517f08c379a0000000000000000000000000000000000000000000000000000000008152600401610f8c9061356c565b60405180910390fd5b8060066000610fa26119b6565b73ffffffffffffffffffffffffffffffffffffffff1673ffffffffffffffffffffffffffffffffffffffff16815260200190815260200160002060008473ffffffffffffffffffffffffffffffffffffffff1673ffffffffffffffffffffffffffffffffffffffff16815260200190815260200160002060006101000a81548160ff0219169083151502179055508173ffffffffffffffffffffffffffffffffffffffff1661104f6119b6565b73ffffffffffffffffffffffffffffffffffffffff167f17307eab39ab6107e8899845ad3d59bd9653f200f220920489ca2b5937696c318360405161109491906134af565b60405180910390a35050565b600b60009054906101000a900473ffffffffffffffffffffffffffffffffffffffff1673ffffffffffffffffffffffffffffffffffffffff163373ffffffffffffffffffffffffffffffffffffffff16146110fa57600080fd5b80600b60006101000a81548173ffffffffffffffffffffffffffffffffffffffff021916908373ffffffffffffffffffffffffffffffffffffffff16021790555050565b60095481565b61115561114f6119b6565b83611a77565b611194576040517f08c379a000000000000000000000000000000000000000000000000000000000815260040161118b9061370c565b60405180910390fd5b6111a084848484611db1565b50505050565b60008082426111b591906139c1565b90506000805b8551811015611262573373ffffffffffffffffffffffffffffffffffffffff16868281518110611214577f4e487b7100000000000000000000000000000000000000000000000000000000600052603260045260246000fd5b602002602001015173ffffffffffffffffffffffffffffffffffffffff16141561124f5761124c600183611e0d90919063ffffffff16565b91505b808061125a90613b64565b9150506111bb565b50604051806080016040528087815260200186815260200183815260200182815250600f600085815260200190815260200160002060008201518160000190805190602001906112b39291906124f8565b5060208201518160010190805190602001906112d0929190612545565b5060408201518160020155606082015181600301559050506112fe6001600d54611e0d90919063ffffffff16565b600d819055507f6d24c3b3ef2477b6b0365c8e74f66e6e7c2c2f382ffd82c26303e317d68104f0868360405161133592919061347f565b60405180910390a1505050505050565b60606113508261194a565b61138f576040517f08c379a00000000000000000000000000000000000000000000000000000000081526004016113869061364c565b60405180910390fd5b60006007600084815260200190815260200160002080546113af90613b32565b80601f01602080910402602001604051908101604052809291908181526020018280546113db90613b32565b80156114285780601f106113fd57610100808354040283529160200191611428565b820191906000526020600020905b81548152906001019060200180831161140b57829003601f168201915b505050505090506000611439611e23565b905060008151141561144f578192505050611492565b60008251111561148457808260405160200161146c9291906133f4565b60405160208183030381529060405292505050611492565b61148d84611e3a565b925050505b919050565b60085481565b600d5481565b600b60009054906101000a900473ffffffffffffffffffffffffffffffffffffffff1673ffffffffffffffffffffffffffffffffffffffff163373ffffffffffffffffffffffffffffffffffffffff16146114fd57600080fd5b6000600c5490506040518060e001604052808281526020013373ffffffffffffffffffffffffffffffffffffffff16815260200186815260200185815260200184815260200183815260200160001515815250600e60008381526020019081526020016000206000820151816000015560208201518160010160006101000a81548173ffffffffffffffffffffffffffffffffffffffff021916908373ffffffffffffffffffffffffffffffffffffffff160217905550604082015181600201556060820151816003015560808201518160040190805190602001906115e49291906125cf565b5060a08201518160050190805190602001906116019291906125cf565b5060c08201518160060160006101000a81548160ff02191690831515021790555090505061162f3382611ee1565b6116398184611eff565b61164f6001600c54611e0d90919063ffffffff16565b600c819055507fffa20e3d8bb9a8904db4d387fda08067f03b29e98e60af933140a74d29cf3b2181338787878760405161168e96959493929190613747565b60405180910390a15050505050565b6000600660008473ffffffffffffffffffffffffffffffffffffffff1673ffffffffffffffffffffffffffffffffffffffff16815260200190815260200160002060008373ffffffffffffffffffffffffffffffffffffffff1673ffffffffffffffffffffffffffffffffffffffff16815260200190815260200160002060009054906101000a900460ff16905092915050565b6117396119b6565b73ffffffffffffffffffffffffffffffffffffffff16611757610e64565b73ffffffffffffffffffffffffffffffffffffffff16146117ad576040517f08c379a00000000000000000000000000000000000000000000000000000000081526004016117a49061368c565b60405180910390fd5b600073ffffffffffffffffffffffffffffffffffffffff168173ffffffffffffffffffffffffffffffffffffffff16141561181d576040517f08c379a00000000000000000000000000000000000000000000000000000000081526004016118149061350c565b60405180910390fd5b8073ffffffffffffffffffffffffffffffffffffffff1660008054906101000a900473ffffffffffffffffffffffffffffffffffffffff1673ffffffffffffffffffffffffffffffffffffffff167f8be0079c531659141344cd1fd0a4f28419497f9722a3daafe3b4186f6b6457e060405160405180910390a3806000806101000a81548173ffffffffffffffffffffffffffffffffffffffff021916908373ffffffffffffffffffffffffffffffffffffffff16021790555050565b600c5481565b60007f01ffc9a7000000000000000000000000000000000000000000000000000000007bffffffffffffffffffffffffffffffffffffffffffffffffffffffff1916827bffffffffffffffffffffffffffffffffffffffffffffffffffffffff1916149050919050565b60008073ffffffffffffffffffffffffffffffffffffffff166003600084815260200190815260200160002060009054906101000a900473ffffffffffffffffffffffffffffffffffffffff1673ffffffffffffffffffffffffffffffffffffffff1614159050919050565b600033905090565b816005600083815260200190815260200160002060006101000a81548173ffffffffffffffffffffffffffffffffffffffff021916908373ffffffffffffffffffffffffffffffffffffffff160217905550808273ffffffffffffffffffffffffffffffffffffffff16611a3183610ada565b73ffffffffffffffffffffffffffffffffffffffff167f8c5be1e5ebec7d5bd14f71427d1e84f3dd0314c0f7b2291e5b200ac8c7c3b92560405160405180910390a45050565b6000611a828261194a565b611ac1576040517f08c379a0000000000000000000000000000000000000000000000000000000008152600401611ab89061358c565b60405180910390fd5b6000611acc83610ada565b90508073ffffffffffffffffffffffffffffffffffffffff168473ffffffffffffffffffffffffffffffffffffffff161480611b3b57508373ffffffffffffffffffffffffffffffffffffffff16611b2384610718565b73ffffffffffffffffffffffffffffffffffffffff16145b80611b4c5750611b4b818561169d565b5b91505092915050565b8273ffffffffffffffffffffffffffffffffffffffff16611b7582610ada565b73ffffffffffffffffffffffffffffffffffffffff1614611bcb576040517f08c379a0000000000000000000000000000000000000000000000000000000008152600401611bc2906136ac565b60405180910390fd5b600073ffffffffffffffffffffffffffffffffffffffff168273ffffffffffffffffffffffffffffffffffffffff161415611c3b576040517f08c379a0000000000000000000000000000000000000000000000000000000008152600401611c329061354c565b60405180910390fd5b611c46838383611f73565b611c516000826119be565b6001600460008573ffffffffffffffffffffffffffffffffffffffff1673ffffffffffffffffffffffffffffffffffffffff1681526020019081526020016000206000828254611ca19190613a48565b925050819055506001600460008473ffffffffffffffffffffffffffffffffffffffff1673ffffffffffffffffffffffffffffffffffffffff1681526020019081526020016000206000828254611cf891906139c1565b92505081905550816003600083815260200190815260200160002060006101000a81548173ffffffffffffffffffffffffffffffffffffffff021916908373ffffffffffffffffffffffffffffffffffffffff160217905550808273ffffffffffffffffffffffffffffffffffffffff168473ffffffffffffffffffffffffffffffffffffffff167fddf252ad1be2c89b69c2b068fc378daa952ba7f163c4a11628f55a4df523b3ef60405160405180910390a4505050565b611dbc848484611b55565b611dc884848484611f78565b611e07576040517f08c379a0000000000000000000000000000000000000000000000000000000008152600401611dfe906134ec565b60405180910390fd5b50505050565b60008183611e1b91906139c1565b905092915050565b606060405180602001604052806000815250905090565b6060611e458261194a565b611e84576040517f08c379a0000000000000000000000000000000000000000000000000000000008152600401611e7b906136cc565b60405180910390fd5b6000611e8e611e23565b90506000815111611eae5760405180602001604052806000815250611ed9565b80611eb88461210f565b604051602001611ec99291906133f4565b6040516020818303038152906040525b915050919050565b611efb8282604051806020016040528060008152506122bc565b5050565b611f088261194a565b611f47576040517f08c379a0000000000000000000000000000000000000000000000000000000008152600401611f3e9061360c565b60405180910390fd5b80600760008481526020019081526020016000209080519060200190611f6e9291906125cf565b505050565b505050565b6000611f998473ffffffffffffffffffffffffffffffffffffffff16612317565b15612102578373ffffffffffffffffffffffffffffffffffffffff1663150b7a02611fc26119b6565b8786866040518563ffffffff1660e01b8152600401611fe49493929190613433565b602060405180830381600087803b158015611ffe57600080fd5b505af192505050801561202f57506040513d601f19601f8201168201806040525081019061202c9190612b26565b60015b6120b2573d806000811461205f576040519150601f19603f3d011682016040523d82523d6000602084013e612064565b606091505b506000815114156120aa576040517f08c379a00000000000000000000000000000000000000000000000000000000081526004016120a1906134ec565b60405180910390fd5b805181602001fd5b63150b7a0260e01b7bffffffffffffffffffffffffffffffffffffffffffffffffffffffff1916817bffffffffffffffffffffffffffffffffffffffffffffffffffffffff191614915050612107565b600190505b949350505050565b60606000821415612157576040518060400160405280600181526020017f300000000000000000000000000000000000000000000000000000000000000081525090506122b7565b600082905060005b6000821461218957808061217290613b64565b915050600a826121829190613a17565b915061215f565b60008167ffffffffffffffff8111156121cb577f4e487b7100000000000000000000000000000000000000000000000000000000600052604160045260246000fd5b6040519080825280601f01601f1916602001820160405280156121fd5781602001600182028036833780820191505090505b5090505b600085146122b0576001826122169190613a48565b9150600a856122259190613bad565b603061223191906139c1565b60f81b81838151811061226d577f4e487b7100000000000000000000000000000000000000000000000000000000600052603260045260246000fd5b60200101907effffffffffffffffffffffffffffffffffffffffffffffffffffffffffffff1916908160001a905350600a856122a99190613a17565b9450612201565b8093505050505b919050565b6122c6838361232a565b6122d36000848484611f78565b612312576040517f08c379a0000000000000000000000000000000000000000000000000000000008152600401612309906134ec565b60405180910390fd5b505050565b600080823b905060008111915050919050565b600073ffffffffffffffffffffffffffffffffffffffff168273ffffffffffffffffffffffffffffffffffffffff16141561239a576040517f08c379a00000000000000000000000000000000000000000000000000000000081526004016123919061362c565b60405180910390fd5b6123a38161194a565b156123e3576040517f08c379a00000000000000000000000000000000000000000000000000000000081526004016123da9061352c565b60405180910390fd5b6123ef60008383611f73565b6001600460008473ffffffffffffffffffffffffffffffffffffffff1673ffffffffffffffffffffffffffffffffffffffff168152602001908152602001600020600082825461243f91906139c1565b92505081905550816003600083815260200190815260200160002060006101000a81548173ffffffffffffffffffffffffffffffffffffffff021916908373ffffffffffffffffffffffffffffffffffffffff160217905550808273ffffffffffffffffffffffffffffffffffffffff16600073ffffffffffffffffffffffffffffffffffffffff167fddf252ad1be2c89b69c2b068fc378daa952ba7f163c4a11628f55a4df523b3ef60405160405180910390a45050565b828054828255906000526020600020908101928215612534579160200282015b82811115612533578251825591602001919060010190612518565b5b5090506125419190612655565b5090565b8280548282559060005260206000209081019282156125be579160200282015b828111156125bd5782518260006101000a81548173ffffffffffffffffffffffffffffffffffffffff021916908373ffffffffffffffffffffffffffffffffffffffff16021790555091602001919060010190612565565b5b5090506125cb9190612655565b5090565b8280546125db90613b32565b90600052602060002090601f0160209004810192826125fd5760008555612644565b82601f1061261657805160ff1916838001178555612644565b82800160010185558215612644579182015b82811115612643578251825591602001919060010190612628565b5b5090506126519190612655565b5090565b5b8082111561266e576000816000905550600101612656565b5090565b60006126856126808461388d565b61385c565b905080838252602082019050828560208602820111156126a457600080fd5b60005b858110156126d457816126ba88826127c6565b8452602084019350602083019250506001810190506126a7565b5050509392505050565b60006126f16126ec846138b9565b61385c565b9050808382526020820190508285602086028201111561271057600080fd5b60005b85811015612740578161272688826128c2565b845260208401935060208301925050600181019050612713565b5050509392505050565b600061275d612758846138e5565b61385c565b90508281526020810184848401111561277557600080fd5b612780848285613af0565b509392505050565b600061279b61279684613915565b61385c565b9050828152602081018484840111156127b357600080fd5b6127be848285613af0565b509392505050565b6000813590506127d581613cab565b92915050565b600082601f8301126127ec57600080fd5b81356127fc848260208601612672565b91505092915050565b600082601f83011261281657600080fd5b81356128268482602086016126de565b91505092915050565b60008135905061283e81613cc2565b92915050565b60008135905061285381613cd9565b92915050565b60008151905061286881613cd9565b92915050565b600082601f83011261287f57600080fd5b813561288f84826020860161274a565b91505092915050565b600082601f8301126128a957600080fd5b81356128b9848260208601612788565b91505092915050565b6000813590506128d181613cf0565b92915050565b6000602082840312156128e957600080fd5b60006128f7848285016127c6565b91505092915050565b6000806040838503121561291357600080fd5b6000612921858286016127c6565b9250506020612932858286016127c6565b9150509250929050565b60008060006060848603121561295157600080fd5b600061295f868287016127c6565b9350506020612970868287016127c6565b9250506040612981868287016128c2565b9150509250925092565b600080600080608085870312156129a157600080fd5b60006129af878288016127c6565b94505060206129c0878288016127c6565b93505060406129d1878288016128c2565b925050606085013567ffffffffffffffff8111156129ee57600080fd5b6129fa8782880161286e565b91505092959194509250565b60008060408385031215612a1957600080fd5b6000612a27858286016127c6565b9250506020612a388582860161282f565b9150509250929050565b60008060408385031215612a5557600080fd5b6000612a63858286016127c6565b9250506020612a74858286016128c2565b9150509250929050565b600080600060608486031215612a9357600080fd5b600084013567ffffffffffffffff811115612aad57600080fd5b612ab986828701612805565b935050602084013567ffffffffffffffff811115612ad657600080fd5b612ae2868287016127db565b9250506040612af3868287016128c2565b9150509250925092565b600060208284031215612b0f57600080fd5b6000612b1d84828501612844565b91505092915050565b600060208284031215612b3857600080fd5b6000612b4684828501612859565b91505092915050565b600060208284031215612b6157600080fd5b6000612b6f848285016128c2565b91505092915050565b60008060008060808587031215612b8e57600080fd5b6000612b9c878288016128c2565b9450506020612bad878288016128c2565b935050604085013567ffffffffffffffff811115612bca57600080fd5b612bd687828801612898565b925050606085013567ffffffffffffffff811115612bf357600080fd5b612bff87828801612898565b91505092959194509250565b6000612c1783836133d6565b60208301905092915050565b612c2c81613a7c565b82525050565b6000612c3d82613955565b612c478185613983565b9350612c5283613945565b8060005b83811015612c83578151612c6a8882612c0b565b9750612c7583613976565b925050600181019050612c56565b5085935050505092915050565b612c9981613a8e565b82525050565b6000612caa82613960565b612cb48185613994565b9350612cc4818560208601613aff565b612ccd81613c9a565b840191505092915050565b6000612ce38261396b565b612ced81856139a5565b9350612cfd818560208601613aff565b612d0681613c9a565b840191505092915050565b6000612d1c8261396b565b612d2681856139b6565b9350612d36818560208601613aff565b80840191505092915050565b6000612d4f6032836139a5565b91507f4552433732313a207472616e7366657220746f206e6f6e20455243373231526560008301527f63656976657220696d706c656d656e74657200000000000000000000000000006020830152604082019050919050565b6000612db56026836139a5565b91507f4f776e61626c653a206e6577206f776e657220697320746865207a65726f206160008301527f64647265737300000000000000000000000000000000000000000000000000006020830152604082019050919050565b6000612e1b601c836139a5565b91507f4552433732313a20746f6b656e20616c7265616479206d696e746564000000006000830152602082019050919050565b6000612e5b6024836139a5565b91507f4552433732313a207472616e7366657220746f20746865207a65726f2061646460008301527f72657373000000000000000000000000000000000000000000000000000000006020830152604082019050919050565b6000612ec16019836139a5565b91507f4552433732313a20617070726f766520746f2063616c6c6572000000000000006000830152602082019050919050565b6000612f01602c836139a5565b91507f4552433732313a206f70657261746f7220717565727920666f72206e6f6e657860008301527f697374656e7420746f6b656e00000000000000000000000000000000000000006020830152604082019050919050565b6000612f676038836139a5565b91507f4552433732313a20617070726f76652063616c6c6572206973206e6f74206f7760008301527f6e6572206e6f7220617070726f76656420666f7220616c6c00000000000000006020830152604082019050919050565b6000612fcd602a836139a5565b91507f4552433732313a2062616c616e636520717565727920666f7220746865207a6560008301527f726f2061646472657373000000000000000000000000000000000000000000006020830152604082019050919050565b60006130336029836139a5565b91507f4552433732313a206f776e657220717565727920666f72206e6f6e657869737460008301527f656e7420746f6b656e00000000000000000000000000000000000000000000006020830152604082019050919050565b6000613099602e836139a5565b91507f45524337323155524953746f726167653a2055524920736574206f66206e6f6e60008301527f6578697374656e7420746f6b656e0000000000000000000000000000000000006020830152604082019050919050565b60006130ff6020836139a5565b91507f4552433732313a206d696e7420746f20746865207a65726f20616464726573736000830152602082019050919050565b600061313f6031836139a5565b91507f45524337323155524953746f726167653a2055524920717565727920666f722060008301527f6e6f6e6578697374656e7420746f6b656e0000000000000000000000000000006020830152604082019050919050565b60006131a5602c836139a5565b91507f4552433732313a20617070726f76656420717565727920666f72206e6f6e657860008301527f697374656e7420746f6b656e00000000000000000000000000000000000000006020830152604082019050919050565b600061320b6020836139a5565b91507f4f776e61626c653a2063616c6c6572206973206e6f7420746865206f776e65726000830152602082019050919050565b600061324b6029836139a5565b91507f4552433732313a207472616e73666572206f6620746f6b656e2074686174206960008301527f73206e6f74206f776e00000000000000000000000000000000000000000000006020830152604082019050919050565b60006132b1602f836139a5565b91507f4552433732314d657461646174613a2055524920717565727920666f72206e6f60008301527f6e6578697374656e7420746f6b656e00000000000000000000000000000000006020830152604082019050919050565b60006133176021836139a5565b91507f4552433732313a20617070726f76616c20746f2063757272656e74206f776e6560008301527f72000000000000000000000000000000000000000000000000000000000000006020830152604082019050919050565b600061337d6031836139a5565b91507f4552433732313a207472616e736665722063616c6c6572206973206e6f74206f60008301527f776e6572206e6f7220617070726f7665640000000000000000000000000000006020830152604082019050919050565b6133df81613ae6565b82525050565b6133ee81613ae6565b82525050565b60006134008285612d11565b915061340c8284612d11565b91508190509392505050565b600060208201905061342d6000830184612c23565b92915050565b60006080820190506134486000830187612c23565b6134556020830186612c23565b61346260408301856133e5565b81810360608301526134748184612c9f565b905095945050505050565b600060408201905081810360008301526134998185612c32565b90506134a860208301846133e5565b9392505050565b60006020820190506134c46000830184612c90565b92915050565b600060208201905081810360008301526134e48184612cd8565b905092915050565b6000602082019050818103600083015261350581612d42565b9050919050565b6000602082019050818103600083015261352581612da8565b9050919050565b6000602082019050818103600083015261354581612e0e565b9050919050565b6000602082019050818103600083015261356581612e4e565b9050919050565b6000602082019050818103600083015261358581612eb4565b9050919050565b600060208201905081810360008301526135a581612ef4565b9050919050565b600060208201905081810360008301526135c581612f5a565b9050919050565b600060208201905081810360008301526135e581612fc0565b9050919050565b6000602082019050818103600083015261360581613026565b9050919050565b600060208201905081810360008301526136258161308c565b9050919050565b60006020820190508181036000830152613645816130f2565b9050919050565b6000602082019050818103600083015261366581613132565b9050919050565b6000602082019050818103600083015261368581613198565b9050919050565b600060208201905081810360008301526136a5816131fe565b9050919050565b600060208201905081810360008301526136c58161323e565b9050919050565b600060208201905081810360008301526136e5816132a4565b9050919050565b600060208201905081810360008301526137058161330a565b9050919050565b6000602082019050818103600083015261372581613370565b9050919050565b600060208201905061374160008301846133e5565b92915050565b600060c08201905061375c60008301896133e5565b6137696020830188612c23565b61377660408301876133e5565b61378360608301866133e5565b81810360808301526137958185612cd8565b905081810360a08301526137a98184612cd8565b9050979650505050505050565b600060e0820190506137cb600083018a6133e5565b6137d86020830189612c23565b6137e560408301886133e5565b6137f260608301876133e5565b81810360808301526138048186612cd8565b905081810360a08301526138188185612cd8565b905061382760c0830184612c90565b98975050505050505050565b600060408201905061384860008301856133e5565b61385560208301846133e5565b9392505050565b6000604051905081810181811067ffffffffffffffff8211171561388357613882613c6b565b5b8060405250919050565b600067ffffffffffffffff8211156138a8576138a7613c6b565b5b602082029050602081019050919050565b600067ffffffffffffffff8211156138d4576138d3613c6b565b5b602082029050602081019050919050565b600067ffffffffffffffff821115613900576138ff613c6b565b5b601f19601f8301169050602081019050919050565b600067ffffffffffffffff8211156139305761392f613c6b565b5b601f19601f8301169050602081019050919050565b6000819050602082019050919050565b600081519050919050565b600081519050919050565b600081519050919050565b6000602082019050919050565b600082825260208201905092915050565b600082825260208201905092915050565b600082825260208201905092915050565b600081905092915050565b60006139cc82613ae6565b91506139d783613ae6565b9250827fffffffffffffffffffffffffffffffffffffffffffffffffffffffffffffffff03821115613a0c57613a0b613bde565b5b828201905092915050565b6000613a2282613ae6565b9150613a2d83613ae6565b925082613a3d57613a3c613c0d565b5b828204905092915050565b6000613a5382613ae6565b9150613a5e83613ae6565b925082821015613a7157613a70613bde565b5b828203905092915050565b6000613a8782613ac6565b9050919050565b60008115159050919050565b60007fffffffff0000000000000000000000000000000000000000000000000000000082169050919050565b600073ffffffffffffffffffffffffffffffffffffffff82169050919050565b6000819050919050565b82818337600083830152505050565b60005b83811015613b1d578082015181840152602081019050613b02565b83811115613b2c576000848401525b50505050565b60006002820490506001821680613b4a57607f821691505b60208210811415613b5e57613b5d613c3c565b5b50919050565b6000613b6f82613ae6565b91507fffffffffffffffffffffffffffffffffffffffffffffffffffffffffffffffff821415613ba257613ba1613bde565b5b600182019050919050565b6000613bb882613ae6565b9150613bc383613ae6565b925082613bd357613bd2613c0d565b5b828206905092915050565b7f4e487b7100000000000000000000000000000000000000000000000000000000600052601160045260246000fd5b7f4e487b7100000000000000000000000000000000000000000000000000000000600052601260045260246000fd5b7f4e487b7100000000000000000000000000000000000000000000000000000000600052602260045260246000fd5b7f4e487b7100000000000000000000000000000000000000000000000000000000600052604160045260246000fd5b6000601f19601f8301169050919050565b613cb481613a7c565b8114613cbf57600080fd5b50565b613ccb81613a8e565b8114613cd657600080fd5b50565b613ce281613a9a565b8114613ced57600080fd5b50565b613cf981613ae6565b8114613d0457600080fd5b5056fea2646970667358221220de4467e26d063502701002640afeadb84c4dbe52c303b495df0797081531c43d64736f6c63430008000033",
  "immutableReferences": {},
  "source": "// SPDX-License-Identifier: MIT\npragma solidity >=0.4.22 <0.9.0;\n\nimport \"@openzeppelin/contracts/access/Ownable.sol\";\nimport \"@openzeppelin/contracts/token/ERC721/extensions/ERC721URIStorage.sol\";\nimport \"@openzeppelin/contracts/utils/math/SafeMath.sol\";\n\ncontract ArtFactory is Ownable, ERC721URIStorage {\n\n  using SafeMath for uint256;\n  \n  uint256 public contractFee;\n  uint256 public artistFee;\n  address public contractFeeAccount;\n  address public artistFeeAccount;\n  uint256 public critterCount;\n  uint256 public proposalCount;\n\n  struct Critter {\n    uint256 id;\n    address owner;\n    uint256 gen;\n    uint256 dna;\n    string tokenURI;\n    string name;\n    bool legacyCreated;\n  }\n\n  struct _Proposal {\n    uint256[] ids;\n    address[] accounts;\n    uint256 deadline;\n    uint256 totalVotes;\n  }\n\n  mapping(uint256 => Critter) public critters;\n  mapping(uint256 => _Proposal) public proposals;\n  //mapping(uint256 => bool) public proposalCancelled;\n  //mapping(uint256 => bool) public orders;\n\n  event Artwork(uint256 id, address owner, uint256 gen, uint256 dna, string tokenURI, string name);\n  event Proposal(uint256[] ids, uint256 deadline);\n  \n  constructor(address _artistFeeAccount, uint256 _artistFee) ERC721(\"Critter\", \"CRITTER\") {\n    contractFee = 1;\n    artistFeeAccount = _artistFeeAccount;\n    artistFee = _artistFee;\n    critterCount = 0;\n  }\n\n  modifier onlyArtist() {\n    require(msg.sender == artistFeeAccount);\n    _;\n  }\n\n  function changeArtistFeeAccount(address _artistFeeAccount) public onlyArtist {\n    artistFeeAccount = _artistFeeAccount;\n  }\n\n  function changeContractFeeAccount(address _contractFeeAccount) public onlyOwner {\n    contractFeeAccount = _contractFeeAccount;\n  }\n\n  function createArtwork(uint256 _gen, uint256 _dna, string memory _tokenURI, string memory _name) public onlyArtist {\n    uint256 _id = critterCount;\n    critters[_id] = Critter(_id, msg.sender, _gen, _dna, _tokenURI, _name, false);\n    _safeMint(msg.sender, _id);\n    _setTokenURI(_id, _tokenURI);\n    critterCount = critterCount.add(1);\n    emit Artwork(_id, msg.sender, _gen, _dna, _tokenURI, _name);\n  }\n\n  function createProposal(uint256[] memory _ids, address[] memory _accounts, uint256 _timeLimit) public {\n    uint256 _proposalID;\n    uint256 _deadline = block.timestamp + _timeLimit;\n    uint256 _totalVotes = 0;\n    // immediately create order if all address are msg.sender\n    for(uint256 i=0; i < _accounts.length; i++) {\n      if(_accounts[i] == msg.sender) {\n        _totalVotes = _totalVotes.add(1);\n      }\n    }\n\n    proposals[_proposalID] = _Proposal(_ids, _accounts, _deadline, _totalVotes);\n    proposalCount = proposalCount.add(1);\n    emit Proposal(_ids, _deadline);\n  }\n}",
  "sourcePath": "/Users/andrewmlevy/Documents/blockchain/4_portfolio_projects/art-marketplace/src/contracts/ArtFactory.sol",
  "compiler": {
    "name": "solc",
    "version": "0.8.0+commit.c7dfd78e.Emscripten.clang"
  },
  "schemaVersion": "3.4.1",
  "updatedAt": "2021-06-01T00:14:54.584Z",
  "devdoc": {
    "kind": "dev",
    "methods": {
      "approve(address,uint256)": {
        "details": "See {IERC721-approve}."
      },
      "balanceOf(address)": {
        "details": "See {IERC721-balanceOf}."
      },
      "getApproved(uint256)": {
        "details": "See {IERC721-getApproved}."
      },
      "isApprovedForAll(address,address)": {
        "details": "See {IERC721-isApprovedForAll}."
      },
      "name()": {
        "details": "See {IERC721Metadata-name}."
      },
      "owner()": {
        "details": "Returns the address of the current owner."
      },
      "ownerOf(uint256)": {
        "details": "See {IERC721-ownerOf}."
      },
      "renounceOwnership()": {
        "details": "Leaves the contract without owner. It will not be possible to call `onlyOwner` functions anymore. Can only be called by the current owner. NOTE: Renouncing ownership will leave the contract without an owner, thereby removing any functionality that is only available to the owner."
      },
      "safeTransferFrom(address,address,uint256)": {
        "details": "See {IERC721-safeTransferFrom}."
      },
      "safeTransferFrom(address,address,uint256,bytes)": {
        "details": "See {IERC721-safeTransferFrom}."
      },
      "setApprovalForAll(address,bool)": {
        "details": "See {IERC721-setApprovalForAll}."
      },
      "supportsInterface(bytes4)": {
        "details": "See {IERC165-supportsInterface}."
      },
      "symbol()": {
        "details": "See {IERC721Metadata-symbol}."
      },
      "tokenURI(uint256)": {
        "details": "See {IERC721Metadata-tokenURI}."
      },
      "transferFrom(address,address,uint256)": {
        "details": "See {IERC721-transferFrom}."
      },
      "transferOwnership(address)": {
        "details": "Transfers ownership of the contract to a new account (`newOwner`). Can only be called by the current owner."
      }
    },
    "version": 1
  },
  "userdoc": {
    "kind": "user",
    "methods": {},
    "version": 1
  }
}