{
  "contractName": "ArtFactory",
  "abi": [
    {
      "inputs": [
        {
          "internalType": "address",
          "name": "_artistFeeAccount",
          "type": "address"
        },
        {
          "internalType": "uint256",
          "name": "_artistFeePercentage",
          "type": "uint256"
        },
        {
          "internalType": "uint256",
          "name": "_baseArtPrice",
          "type": "uint256"
        },
        {
          "internalType": "uint256",
          "name": "_parentMultiplierPercentage",
          "type": "uint256"
        },
        {
          "internalType": "uint256",
          "name": "_minParents",
          "type": "uint256"
        },
        {
          "internalType": "uint256",
          "name": "_maxParents",
          "type": "uint256"
        },
        {
          "internalType": "uint256",
          "name": "_minLegacies",
          "type": "uint256"
        },
        {
          "internalType": "uint256",
          "name": "_maxLegacies",
          "type": "uint256"
        }
      ],
      "stateMutability": "nonpayable",
      "type": "constructor"
    },
    {
      "anonymous": false,
      "inputs": [
        {
          "indexed": false,
          "internalType": "uint256",
          "name": "id",
          "type": "uint256"
        },
        {
          "indexed": true,
          "internalType": "address",
          "name": "buyer",
          "type": "address"
        },
        {
          "indexed": false,
          "internalType": "uint256",
          "name": "price",
          "type": "uint256"
        },
        {
          "indexed": false,
          "internalType": "uint256[]",
          "name": "parentIDS",
          "type": "uint256[]"
        },
        {
          "indexed": false,
          "internalType": "uint256",
          "name": "numLegacies",
          "type": "uint256"
        },
        {
          "indexed": false,
          "internalType": "uint256",
          "name": "gen",
          "type": "uint256"
        }
      ],
      "name": "Accept",
      "type": "event"
    },
    {
      "anonymous": false,
      "inputs": [
        {
          "indexed": false,
          "internalType": "uint256",
          "name": "id",
          "type": "uint256"
        },
        {
          "indexed": false,
          "internalType": "uint256",
          "name": "price",
          "type": "uint256"
        },
        {
          "indexed": true,
          "internalType": "address",
          "name": "owner",
          "type": "address"
        },
        {
          "indexed": false,
          "internalType": "uint256",
          "name": "gen",
          "type": "uint256"
        },
        {
          "indexed": false,
          "internalType": "string",
          "name": "tokenURI",
          "type": "string"
        },
        {
          "indexed": false,
          "internalType": "string",
          "name": "name",
          "type": "string"
        },
        {
          "indexed": false,
          "internalType": "bool",
          "name": "legacyCreated",
          "type": "bool"
        },
        {
          "indexed": false,
          "internalType": "uint256[]",
          "name": "parents",
          "type": "uint256[]"
        },
        {
          "indexed": false,
          "internalType": "uint256[]",
          "name": "siblings",
          "type": "uint256[]"
        }
      ],
      "name": "ArtForSale",
      "type": "event"
    },
    {
      "anonymous": false,
      "inputs": [
        {
          "indexed": false,
          "internalType": "uint256",
          "name": "id",
          "type": "uint256"
        },
        {
          "indexed": false,
          "internalType": "uint256",
          "name": "orderID",
          "type": "uint256"
        },
        {
          "indexed": true,
          "internalType": "address",
          "name": "owner",
          "type": "address"
        },
        {
          "indexed": false,
          "internalType": "uint256",
          "name": "gen",
          "type": "uint256"
        },
        {
          "indexed": false,
          "internalType": "string",
          "name": "tokenURI",
          "type": "string"
        },
        {
          "indexed": false,
          "internalType": "string",
          "name": "name",
          "type": "string"
        },
        {
          "indexed": false,
          "internalType": "bool",
          "name": "legacyCreated",
          "type": "bool"
        },
        {
          "indexed": false,
          "internalType": "uint256[]",
          "name": "parents",
          "type": "uint256[]"
        },
        {
          "indexed": false,
          "internalType": "uint256[]",
          "name": "siblings",
          "type": "uint256[]"
        }
      ],
      "name": "ArtFromOrder",
      "type": "event"
    },
    {
      "anonymous": false,
      "inputs": [
        {
          "indexed": false,
          "internalType": "uint256",
          "name": "id",
          "type": "uint256"
        },
        {
          "indexed": true,
          "internalType": "address",
          "name": "owner",
          "type": "address"
        },
        {
          "indexed": false,
          "internalType": "uint256",
          "name": "gen",
          "type": "uint256"
        },
        {
          "indexed": false,
          "internalType": "string",
          "name": "tokenURI",
          "type": "string"
        },
        {
          "indexed": false,
          "internalType": "string",
          "name": "name",
          "type": "string"
        },
        {
          "indexed": false,
          "internalType": "bool",
          "name": "legacyCreated",
          "type": "bool"
        },
        {
          "indexed": false,
          "internalType": "uint256[]",
          "name": "parents",
          "type": "uint256[]"
        },
        {
          "indexed": false,
          "internalType": "uint256[]",
          "name": "siblings",
          "type": "uint256[]"
        }
      ],
      "name": "ArtGen0",
      "type": "event"
    },
    {
      "anonymous": false,
      "inputs": [
        {
          "indexed": false,
          "internalType": "uint256",
          "name": "id",
          "type": "uint256"
        },
        {
          "indexed": true,
          "internalType": "address",
          "name": "buyer",
          "type": "address"
        },
        {
          "indexed": false,
          "internalType": "uint256",
          "name": "price",
          "type": "uint256"
        },
        {
          "indexed": false,
          "internalType": "uint256[]",
          "name": "parentIDS",
          "type": "uint256[]"
        },
        {
          "indexed": false,
          "internalType": "uint256",
          "name": "numLegacies",
          "type": "uint256"
        },
        {
          "indexed": false,
          "internalType": "uint256",
          "name": "gen",
          "type": "uint256"
        }
      ],
      "name": "Cancel",
      "type": "event"
    },
    {
      "anonymous": false,
      "inputs": [
        {
          "indexed": false,
          "internalType": "uint256",
          "name": "id",
          "type": "uint256"
        },
        {
          "indexed": true,
          "internalType": "address",
          "name": "buyer",
          "type": "address"
        },
        {
          "indexed": false,
          "internalType": "uint256",
          "name": "price",
          "type": "uint256"
        },
        {
          "indexed": false,
          "internalType": "uint256[]",
          "name": "parentIDS",
          "type": "uint256[]"
        },
        {
          "indexed": false,
          "internalType": "uint256",
          "name": "numLegacies",
          "type": "uint256"
        },
        {
          "indexed": false,
          "internalType": "uint256",
          "name": "gen",
          "type": "uint256"
        }
      ],
      "name": "Order",
      "type": "event"
    },
    {
      "anonymous": false,
      "inputs": [
        {
          "indexed": true,
          "internalType": "address",
          "name": "previousOwner",
          "type": "address"
        },
        {
          "indexed": true,
          "internalType": "address",
          "name": "newOwner",
          "type": "address"
        }
      ],
      "name": "OwnershipTransferred",
      "type": "event"
    },
    {
      "anonymous": false,
      "inputs": [
        {
          "indexed": false,
          "internalType": "uint256",
          "name": "id",
          "type": "uint256"
        },
        {
          "indexed": false,
          "internalType": "uint256",
          "name": "price",
          "type": "uint256"
        },
        {
          "indexed": true,
          "internalType": "address",
          "name": "buyer",
          "type": "address"
        },
        {
          "indexed": false,
          "internalType": "uint256",
          "name": "gen",
          "type": "uint256"
        },
        {
          "indexed": false,
          "internalType": "string",
          "name": "tokenURI",
          "type": "string"
        },
        {
          "indexed": false,
          "internalType": "string",
          "name": "name",
          "type": "string"
        },
        {
          "indexed": false,
          "internalType": "bool",
          "name": "legacyCreated",
          "type": "bool"
        },
        {
          "indexed": false,
          "internalType": "uint256[]",
          "name": "parents",
          "type": "uint256[]"
        },
        {
          "indexed": false,
          "internalType": "uint256[]",
          "name": "siblings",
          "type": "uint256[]"
        }
      ],
      "name": "Purchase",
      "type": "event"
    },
    {
      "anonymous": false,
      "inputs": [
        {
          "indexed": false,
          "internalType": "uint256",
          "name": "id",
          "type": "uint256"
        },
        {
          "indexed": true,
          "internalType": "address",
          "name": "owner",
          "type": "address"
        },
        {
          "indexed": false,
          "internalType": "uint256",
          "name": "gen",
          "type": "uint256"
        },
        {
          "indexed": false,
          "internalType": "string",
          "name": "tokenURI",
          "type": "string"
        },
        {
          "indexed": false,
          "internalType": "string",
          "name": "name",
          "type": "string"
        },
        {
          "indexed": false,
          "internalType": "bool",
          "name": "legacyCreated",
          "type": "bool"
        },
        {
          "indexed": false,
          "internalType": "uint256[]",
          "name": "parents",
          "type": "uint256[]"
        },
        {
          "indexed": false,
          "internalType": "uint256[]",
          "name": "siblings",
          "type": "uint256[]"
        }
      ],
      "name": "SaleCancel",
      "type": "event"
    },
    {
      "inputs": [
        {
          "internalType": "uint256",
          "name": "",
          "type": "uint256"
        }
      ],
      "name": "acceptedOrders",
      "outputs": [
        {
          "internalType": "bool",
          "name": "",
          "type": "bool"
        }
      ],
      "stateMutability": "view",
      "type": "function"
    },
    {
      "inputs": [],
      "name": "artistFeeAccount",
      "outputs": [
        {
          "internalType": "address",
          "name": "",
          "type": "address"
        }
      ],
      "stateMutability": "view",
      "type": "function"
    },
    {
      "inputs": [],
      "name": "artistFeePercentage",
      "outputs": [
        {
          "internalType": "uint256",
          "name": "",
          "type": "uint256"
        }
      ],
      "stateMutability": "view",
      "type": "function"
    },
    {
      "inputs": [],
      "name": "artworkCount",
      "outputs": [
        {
          "internalType": "uint256",
          "name": "",
          "type": "uint256"
        }
      ],
      "stateMutability": "view",
      "type": "function"
    },
    {
      "inputs": [
        {
          "internalType": "uint256",
          "name": "",
          "type": "uint256"
        }
      ],
      "name": "artworks",
      "outputs": [
        {
          "internalType": "uint256",
          "name": "id",
          "type": "uint256"
        },
        {
          "internalType": "address",
          "name": "owner",
          "type": "address"
        },
        {
          "internalType": "uint256",
          "name": "gen",
          "type": "uint256"
        },
        {
          "internalType": "string",
          "name": "tokenURI",
          "type": "string"
        },
        {
          "internalType": "string",
          "name": "name",
          "type": "string"
        },
        {
          "internalType": "bool",
          "name": "legacyCreated",
          "type": "bool"
        }
      ],
      "stateMutability": "view",
      "type": "function"
    },
    {
      "inputs": [
        {
          "internalType": "address",
          "name": "",
          "type": "address"
        }
      ],
      "name": "balances",
      "outputs": [
        {
          "internalType": "uint256",
          "name": "",
          "type": "uint256"
        }
      ],
      "stateMutability": "view",
      "type": "function"
    },
    {
      "inputs": [],
      "name": "baseArtPrice",
      "outputs": [
        {
          "internalType": "uint256",
          "name": "",
          "type": "uint256"
        }
      ],
      "stateMutability": "view",
      "type": "function"
    },
    {
      "inputs": [
        {
          "internalType": "uint256",
          "name": "",
          "type": "uint256"
        }
      ],
      "name": "cancelledOrders",
      "outputs": [
        {
          "internalType": "bool",
          "name": "",
          "type": "bool"
        }
      ],
      "stateMutability": "view",
      "type": "function"
    },
    {
      "inputs": [],
      "name": "contractFeeAccount",
      "outputs": [
        {
          "internalType": "address",
          "name": "",
          "type": "address"
        }
      ],
      "stateMutability": "view",
      "type": "function"
    },
    {
      "inputs": [],
      "name": "contractFeePercentage",
      "outputs": [
        {
          "internalType": "uint256",
          "name": "",
          "type": "uint256"
        }
      ],
      "stateMutability": "view",
      "type": "function"
    },
    {
      "inputs": [
        {
          "internalType": "uint256",
          "name": "",
          "type": "uint256"
        }
      ],
      "name": "filledOrders",
      "outputs": [
        {
          "internalType": "bool",
          "name": "",
          "type": "bool"
        }
      ],
      "stateMutability": "view",
      "type": "function"
    },
    {
      "inputs": [],
      "name": "maxLegacies",
      "outputs": [
        {
          "internalType": "uint256",
          "name": "",
          "type": "uint256"
        }
      ],
      "stateMutability": "view",
      "type": "function"
    },
    {
      "inputs": [],
      "name": "maxParents",
      "outputs": [
        {
          "internalType": "uint256",
          "name": "",
          "type": "uint256"
        }
      ],
      "stateMutability": "view",
      "type": "function"
    },
    {
      "inputs": [],
      "name": "minLegacies",
      "outputs": [
        {
          "internalType": "uint256",
          "name": "",
          "type": "uint256"
        }
      ],
      "stateMutability": "view",
      "type": "function"
    },
    {
      "inputs": [],
      "name": "minParents",
      "outputs": [
        {
          "internalType": "uint256",
          "name": "",
          "type": "uint256"
        }
      ],
      "stateMutability": "view",
      "type": "function"
    },
    {
      "inputs": [],
      "name": "orderCount",
      "outputs": [
        {
          "internalType": "uint256",
          "name": "",
          "type": "uint256"
        }
      ],
      "stateMutability": "view",
      "type": "function"
    },
    {
      "inputs": [
        {
          "internalType": "uint256",
          "name": "",
          "type": "uint256"
        }
      ],
      "name": "orders",
      "outputs": [
        {
          "internalType": "uint256",
          "name": "id",
          "type": "uint256"
        },
        {
          "internalType": "address",
          "name": "buyer",
          "type": "address"
        },
        {
          "internalType": "uint256",
          "name": "price",
          "type": "uint256"
        },
        {
          "internalType": "uint256",
          "name": "numLegacies",
          "type": "uint256"
        },
        {
          "internalType": "uint256",
          "name": "gen",
          "type": "uint256"
        }
      ],
      "stateMutability": "view",
      "type": "function"
    },
    {
      "inputs": [],
      "name": "owner",
      "outputs": [
        {
          "internalType": "address",
          "name": "",
          "type": "address"
        }
      ],
      "stateMutability": "view",
      "type": "function"
    },
    {
      "inputs": [],
      "name": "parentMultiplierPercentage",
      "outputs": [
        {
          "internalType": "uint256",
          "name": "",
          "type": "uint256"
        }
      ],
      "stateMutability": "view",
      "type": "function"
    },
    {
      "inputs": [
        {
          "internalType": "uint256",
          "name": "",
          "type": "uint256"
        }
      ],
      "name": "prices",
      "outputs": [
        {
          "internalType": "uint256",
          "name": "",
          "type": "uint256"
        }
      ],
      "stateMutability": "view",
      "type": "function"
    },
    {
      "inputs": [],
      "name": "renounceOwnership",
      "outputs": [],
      "stateMutability": "nonpayable",
      "type": "function"
    },
    {
      "inputs": [],
      "name": "tokens",
      "outputs": [
        {
          "internalType": "contract Tokens",
          "name": "",
          "type": "address"
        }
      ],
      "stateMutability": "view",
      "type": "function"
    },
    {
      "inputs": [
        {
          "internalType": "address",
          "name": "newOwner",
          "type": "address"
        }
      ],
      "name": "transferOwnership",
      "outputs": [],
      "stateMutability": "nonpayable",
      "type": "function"
    },
    {
      "inputs": [
        {
          "internalType": "address",
          "name": "_contractFeeAccount",
          "type": "address"
        }
      ],
      "name": "changeContractFeeAccount",
      "outputs": [],
      "stateMutability": "nonpayable",
      "type": "function"
    },
    {
      "inputs": [
        {
          "internalType": "address",
          "name": "_artistFeeAccount",
          "type": "address"
        }
      ],
      "name": "changeArtistFeeAccount",
      "outputs": [],
      "stateMutability": "nonpayable",
      "type": "function"
    },
    {
      "inputs": [
        {
          "internalType": "uint256",
          "name": "_artistFeePercentage",
          "type": "uint256"
        }
      ],
      "name": "changeArtistFeePercentage",
      "outputs": [],
      "stateMutability": "nonpayable",
      "type": "function"
    },
    {
      "inputs": [
        {
          "internalType": "uint256",
          "name": "_baseArtPrice",
          "type": "uint256"
        }
      ],
      "name": "changeBaseArtPrice",
      "outputs": [],
      "stateMutability": "nonpayable",
      "type": "function"
    },
    {
      "inputs": [
        {
          "internalType": "uint256",
          "name": "_parentMultiplierPercentage",
          "type": "uint256"
        }
      ],
      "name": "changeParentMultiplierPercentage",
      "outputs": [],
      "stateMutability": "nonpayable",
      "type": "function"
    },
    {
      "inputs": [
        {
          "internalType": "uint256",
          "name": "_minParents",
          "type": "uint256"
        }
      ],
      "name": "changeMinParents",
      "outputs": [],
      "stateMutability": "nonpayable",
      "type": "function"
    },
    {
      "inputs": [
        {
          "internalType": "uint256",
          "name": "_maxParents",
          "type": "uint256"
        }
      ],
      "name": "changeMaxParents",
      "outputs": [],
      "stateMutability": "nonpayable",
      "type": "function"
    },
    {
      "inputs": [
        {
          "internalType": "uint256",
          "name": "_minLegacies",
          "type": "uint256"
        }
      ],
      "name": "changeMinLegacies",
      "outputs": [],
      "stateMutability": "nonpayable",
      "type": "function"
    },
    {
      "inputs": [
        {
          "internalType": "uint256",
          "name": "_maxLegacies",
          "type": "uint256"
        }
      ],
      "name": "changeMaxLegacies",
      "outputs": [],
      "stateMutability": "nonpayable",
      "type": "function"
    },
    {
      "inputs": [
        {
          "internalType": "address",
          "name": "_tokensAddress",
          "type": "address"
        },
        {
          "internalType": "string",
          "name": "_tokenURI",
          "type": "string"
        },
        {
          "internalType": "string",
          "name": "_name",
          "type": "string"
        }
      ],
      "name": "createArtGen0",
      "outputs": [],
      "stateMutability": "nonpayable",
      "type": "function"
    },
    {
      "inputs": [
        {
          "internalType": "uint256",
          "name": "_orderID",
          "type": "uint256"
        },
        {
          "internalType": "string",
          "name": "_tokenURI",
          "type": "string"
        },
        {
          "internalType": "string",
          "name": "_name",
          "type": "string"
        },
        {
          "internalType": "uint256",
          "name": "_gen",
          "type": "uint256"
        },
        {
          "internalType": "uint256[]",
          "name": "_parents",
          "type": "uint256[]"
        },
        {
          "internalType": "uint256[]",
          "name": "_siblings",
          "type": "uint256[]"
        },
        {
          "internalType": "address",
          "name": "_buyer",
          "type": "address"
        }
      ],
      "name": "createArtFromOrder",
      "outputs": [],
      "stateMutability": "nonpayable",
      "type": "function"
    },
    {
      "inputs": [
        {
          "internalType": "uint256",
          "name": "_id",
          "type": "uint256"
        },
        {
          "internalType": "uint256",
          "name": "_price",
          "type": "uint256"
        }
      ],
      "name": "putUpForSale",
      "outputs": [],
      "stateMutability": "nonpayable",
      "type": "function"
    },
    {
      "inputs": [
        {
          "internalType": "uint256",
          "name": "_id",
          "type": "uint256"
        }
      ],
      "name": "cancelSale",
      "outputs": [],
      "stateMutability": "nonpayable",
      "type": "function"
    },
    {
      "inputs": [
        {
          "internalType": "uint256",
          "name": "_id",
          "type": "uint256"
        }
      ],
      "name": "purchase",
      "outputs": [],
      "stateMutability": "payable",
      "type": "function"
    },
    {
      "inputs": [
        {
          "internalType": "uint256[]",
          "name": "_parentIDS",
          "type": "uint256[]"
        },
        {
          "internalType": "uint256",
          "name": "_numLegacies",
          "type": "uint256"
        }
      ],
      "name": "createOrder",
      "outputs": [],
      "stateMutability": "payable",
      "type": "function"
    },
    {
      "inputs": [
        {
          "internalType": "uint256",
          "name": "_id",
          "type": "uint256"
        }
      ],
      "name": "acceptOrder",
      "outputs": [],
      "stateMutability": "nonpayable",
      "type": "function"
    },
    {
      "inputs": [
        {
          "internalType": "uint256",
          "name": "_id",
          "type": "uint256"
        }
      ],
      "name": "cancelOrder",
      "outputs": [],
      "stateMutability": "nonpayable",
      "type": "function"
    }
  ],
  "bytecode": "0x60806040523480156200001157600080fd5b5060405162003f7938038062003f798339818101604052810190620000379190620001f6565b600062000049620001c060201b60201c565b9050806000806101000a81548173ffffffffffffffffffffffffffffffffffffffff021916908373ffffffffffffffffffffffffffffffffffffffff1602179055508073ffffffffffffffffffffffffffffffffffffffff16600073ffffffffffffffffffffffffffffffffffffffff167f8be0079c531659141344cd1fd0a4f28419497f9722a3daafe3b4186f6b6457e060405160405180910390a3506000600c819055506000600d81905550600160028190555033600360006101000a81548173ffffffffffffffffffffffffffffffffffffffff021916908373ffffffffffffffffffffffffffffffffffffffff16021790555087600560006101000a81548173ffffffffffffffffffffffffffffffffffffffff021916908373ffffffffffffffffffffffffffffffffffffffff160217905550866004819055508560068190555084600781905550836008819055508260098190555081600a8190555080600b8190555050505050505050506200032b565b600033905090565b600081519050620001d981620002f7565b92915050565b600081519050620001f08162000311565b92915050565b600080600080600080600080610100898b0312156200021457600080fd5b6000620002248b828c01620001c8565b9850506020620002378b828c01620001df565b97505060406200024a8b828c01620001df565b96505060606200025d8b828c01620001df565b9550506080620002708b828c01620001df565b94505060a0620002838b828c01620001df565b93505060c0620002968b828c01620001df565b92505060e0620002a98b828c01620001df565b9150509295985092959890939650565b6000620002c682620002cd565b9050919050565b600073ffffffffffffffffffffffffffffffffffffffff82169050919050565b6000819050919050565b6200030281620002b9565b81146200030e57600080fd5b50565b6200031c81620002ed565b81146200032857600080fd5b50565b613c3e806200033b6000396000f3fe60806040526004361061023b5760003560e01c806395d4b2df1161012e578063c4a3df10116100ab578063ef18e9ed1161006f578063ef18e9ed14610869578063efef39a114610892578063f2fde38b146108ae578063fc3fa70f146108d7578063feb21699146109025761023b565b8063c4a3df1014610796578063ccfc1fc9146107c1578063d45fc36b146107ec578063dbd8987c14610815578063e3cd2304146108405761023b565b8063af773709116100f2578063af773709146106a1578063ba1c2a16146106ca578063bc15e601146106f3578063bc31c1c114610730578063bd94b0051461076d5761023b565b806395d4b2df146105a45780639d63848a146105e15780639e029fbc1461060c578063a087644514610635578063a85c38ef146106605761023b565b80636257dcc5116101bc578063808b0a0411610180578063808b0a04146104cf578063873775ad146104fa5780638a29d0e4146105235780638da5cb5b1461054e57806392bfdccb146105795761023b565b80636257dcc51461041457806363111b651461043d57806369edcd5b14610466578063715018a61461048f57806372fbb390146104a65761023b565b80633c00a96a116102035780633c00a96a146103395780634b60267314610355578063514fcac7146103975780635c717fb8146103c05780635e96c694146103eb5761023b565b806316eea7d5146102405780632453ffa81461027d57806327e235e3146102a85780632a80805b146102e55780632f12616d1461030e575b600080fd5b34801561024c57600080fd5b5061026760048036038101906102629190612e9d565b61092d565b60405161027491906132ed565b60405180910390f35b34801561028957600080fd5b5061029261094d565b60405161029f9190613363565b60405180910390f35b3480156102b457600080fd5b506102cf60048036038101906102ca9190612d78565b610953565b6040516102dc9190613363565b60405180910390f35b3480156102f157600080fd5b5061030c60048036038101906103079190612e9d565b61096b565b005b34801561031a57600080fd5b506103236109ea565b6040516103309190613363565b60405180910390f35b610353600480360381019061034e9190612e20565b6109f0565b005b34801561036157600080fd5b5061037c60048036038101906103779190612e9d565b610f8a565b60405161038e9695949392919061337e565b60405180910390f35b3480156103a357600080fd5b506103be60048036038101906103b99190612e9d565b611103565b005b3480156103cc57600080fd5b506103d5611391565b6040516103e29190613294565b60405180910390f35b3480156103f757600080fd5b50610412600480360381019061040d9190612fc4565b6113b7565b005b34801561042057600080fd5b5061043b60048036038101906104369190612e9d565b6114f8565b005b34801561044957600080fd5b50610464600480360381019061045f9190612e9d565b61156b565b005b34801561047257600080fd5b5061048d60048036038101906104889190612d78565b6115de565b005b34801561049b57600080fd5b506104a461169e565b005b3480156104b257600080fd5b506104cd60048036038101906104c89190612da1565b6117d8565b005b3480156104db57600080fd5b506104e4611ac5565b6040516104f19190613363565b60405180910390f35b34801561050657600080fd5b50610521600480360381019061051c9190612e9d565b611acb565b005b34801561052f57600080fd5b50610538611b48565b6040516105459190613294565b60405180910390f35b34801561055a57600080fd5b50610563611b6e565b6040516105709190613294565b60405180910390f35b34801561058557600080fd5b5061058e611b97565b60405161059b9190613363565b60405180910390f35b3480156105b057600080fd5b506105cb60048036038101906105c69190612e9d565b611b9d565b6040516105d891906132ed565b60405180910390f35b3480156105ed57600080fd5b506105f6611bbd565b6040516106039190613308565b60405180910390f35b34801561061857600080fd5b50610633600480360381019061062e9190612e9d565b611be3565b005b34801561064157600080fd5b5061064a611c47565b6040516106579190613363565b60405180910390f35b34801561066c57600080fd5b5061068760048036038101906106829190612e9d565b611c4d565b6040516106989594939291906133ed565b60405180910390f35b3480156106ad57600080fd5b506106c860048036038101906106c39190612d78565b611ca3565b005b3480156106d657600080fd5b506106f160048036038101906106ec9190612e9d565b611d41565b005b3480156106ff57600080fd5b5061071a60048036038101906107159190612e9d565b611dbe565b60405161072791906132ed565b60405180910390f35b34801561073c57600080fd5b5061075760048036038101906107529190612e9d565b611dde565b6040516107649190613363565b60405180910390f35b34801561077957600080fd5b50610794600480360381019061078f9190612e9d565b611df6565b005b3480156107a257600080fd5b506107ab611f35565b6040516107b89190613363565b60405180910390f35b3480156107cd57600080fd5b506107d6611f3b565b6040516107e39190613363565b60405180910390f35b3480156107f857600080fd5b50610813600480360381019061080e9190612e9d565b611f41565b005b34801561082157600080fd5b5061082a611fc0565b6040516108379190613363565b60405180910390f35b34801561084c57600080fd5b5061086760048036038101906108629190612ec6565b611fc6565b005b34801561087557600080fd5b50610890600480360381019061088b9190612e9d565b612356565b005b6108ac60048036038101906108a79190612e9d565b61246c565b005b3480156108ba57600080fd5b506108d560048036038101906108d09190612d78565b612936565b005b3480156108e357600080fd5b506108ec612adf565b6040516108f99190613363565b60405180910390f35b34801561090e57600080fd5b50610917612ae5565b6040516109249190613363565b60405180910390f35b60146020528060005260406000206000915054906101000a900460ff1681565b600d5481565b60116020528060005260406000206000915090505481565b600560009054906101000a900473ffffffffffffffffffffffffffffffffffffffff1673ffffffffffffffffffffffffffffffffffffffff163373ffffffffffffffffffffffffffffffffffffffff16146109c557600080fd5b6000811180156109d757506009548111155b6109e057600080fd5b8060088190555050565b600a5481565b6000825190506000600d5490506000600190506008548310158015610a1757506009548311155b610a2057600080fd5b600a548410158015610a345750600b548411155b610a3d57600080fd5b60005b83811015610bc1573373ffffffffffffffffffffffffffffffffffffffff16600e6000888481518110610a9c577f4e487b7100000000000000000000000000000000000000000000000000000000600052603260045260246000fd5b6020026020010151815260200190815260200160002060010160009054906101000a900473ffffffffffffffffffffffffffffffffffffffff1673ffffffffffffffffffffffffffffffffffffffff1614610af657600080fd5b81600e6000888481518110610b34577f4e487b7100000000000000000000000000000000000000000000000000000000600052603260045260246000fd5b60200260200101518152602001908152602001600020600201541115610bae57600e6000878381518110610b91577f4e487b7100000000000000000000000000000000000000000000000000000000600052603260045260246000fd5b602002602001015181526020019081526020016000206002015491505b8080610bb990613a8d565b915050610a40565b506000610c126064610c0486610bf6600754610be88b600654612aeb90919063ffffffff16565b612aeb90919063ffffffff16565b612aeb90919063ffffffff16565b612b0190919063ffffffff16565b600654610c1f9190613862565b905060008111610c2e57600080fd5b6000610c586064610c4a60025485612aeb90919063ffffffff16565b612b0190919063ffffffff16565b9050610c6d8183612b1790919063ffffffff16565b3414610c7857600080fd5b6040518060c001604052808581526020013373ffffffffffffffffffffffffffffffffffffffff16815260200183815260200188815260200187815260200184815250600f60008681526020019081526020016000206000820151816000015560208201518160010160006101000a81548173ffffffffffffffffffffffffffffffffffffffff021916908373ffffffffffffffffffffffffffffffffffffffff160217905550604082015181600201556060820151816003019080519060200190610d45929190612b4b565b506080820151816004015560a08201518160050155905050610dd18260116000600560009054906101000a900473ffffffffffffffffffffffffffffffffffffffff1673ffffffffffffffffffffffffffffffffffffffff1673ffffffffffffffffffffffffffffffffffffffff16815260200190815260200160002054612b1790919063ffffffff16565b60116000600560009054906101000a900473ffffffffffffffffffffffffffffffffffffffff1673ffffffffffffffffffffffffffffffffffffffff1673ffffffffffffffffffffffffffffffffffffffff16815260200190815260200160002081905550610eaa8160116000600360009054906101000a900473ffffffffffffffffffffffffffffffffffffffff1673ffffffffffffffffffffffffffffffffffffffff1673ffffffffffffffffffffffffffffffffffffffff16815260200190815260200160002054612b1790919063ffffffff16565b60116000600360009054906101000a900473ffffffffffffffffffffffffffffffffffffffff1673ffffffffffffffffffffffffffffffffffffffff1673ffffffffffffffffffffffffffffffffffffffff16815260200190815260200160002081905550610f256001600d54612b1790919063ffffffff16565b600d819055503373ffffffffffffffffffffffffffffffffffffffff167f7b8553fd3c7e68edca43962e9bab9ff4c2098a62d976499e584d4272892a73af85848a8a88604051610f799594939291906134cb565b60405180910390a250505050505050565b600e6020528060005260406000206000915090508060000154908060010160009054906101000a900473ffffffffffffffffffffffffffffffffffffffff1690806002015490806003018054610fdf90613a41565b80601f016020809104026020016040519081016040528092919081815260200182805461100b90613a41565b80156110585780601f1061102d57610100808354040283529160200191611058565b820191906000526020600020905b81548152906001019060200180831161103b57829003601f168201915b50505050509080600401805461106d90613a41565b80601f016020809104026020016040519081016040528092919081815260200182805461109990613a41565b80156110e65780601f106110bb576101008083540402835291602001916110e6565b820191906000526020600020905b8154815290600101906020018083116110c957829003601f168201915b5050505050908060050160009054906101000a900460ff16905086565b6000600f600083815260200190815260200160002090508181600001541461112a57600080fd5b8060010160009054906101000a900473ffffffffffffffffffffffffffffffffffffffff1673ffffffffffffffffffffffffffffffffffffffff163373ffffffffffffffffffffffffffffffffffffffff161461118657600080fd5b60016013600084815260200190815260200160002060006101000a81548160ff0219169083151502179055506112088160020154601160003373ffffffffffffffffffffffffffffffffffffffff1673ffffffffffffffffffffffffffffffffffffffff16815260200190815260200160002054612b1790919063ffffffff16565b601160003373ffffffffffffffffffffffffffffffffffffffff1673ffffffffffffffffffffffffffffffffffffffff168152602001908152602001600020819055506112c3816002015460116000600560009054906101000a900473ffffffffffffffffffffffffffffffffffffffff1673ffffffffffffffffffffffffffffffffffffffff1673ffffffffffffffffffffffffffffffffffffffff16815260200190815260200160002054612b2d90919063ffffffff16565b60116000600560009054906101000a900473ffffffffffffffffffffffffffffffffffffffff1673ffffffffffffffffffffffffffffffffffffffff1673ffffffffffffffffffffffffffffffffffffffff168152602001908152602001600020819055503373ffffffffffffffffffffffffffffffffffffffff167f1aa7992f057072222c59373cdc4e6e37c776674a81b5c4d536266e7b79bc08518383600201548460030185600401548660050154604051611385959493929190613525565b60405180910390a25050565b600560009054906101000a900473ffffffffffffffffffffffffffffffffffffffff1681565b6000600e60008481526020019081526020016000209050828160000154146113de57600080fd5b8060010160009054906101000a900473ffffffffffffffffffffffffffffffffffffffff1673ffffffffffffffffffffffffffffffffffffffff163373ffffffffffffffffffffffffffffffffffffffff161461143a57600080fd5b8160106000858152602001908152602001600020819055508060010160009054906101000a900473ffffffffffffffffffffffffffffffffffffffff1673ffffffffffffffffffffffffffffffffffffffff167fec03113a0169043c7d24a47f504cd07d50750971892d3c5ad17cfef48b1a076e8484846002015485600301866004018760050160009054906101000a900460ff1688600601896007016040516114eb9897969594939291906136a4565b60405180910390a2505050565b600560009054906101000a900473ffffffffffffffffffffffffffffffffffffffff1673ffffffffffffffffffffffffffffffffffffffff163373ffffffffffffffffffffffffffffffffffffffff161461155257600080fd5b600a5481101561156157600080fd5b80600b8190555050565b600560009054906101000a900473ffffffffffffffffffffffffffffffffffffffff1673ffffffffffffffffffffffffffffffffffffffff163373ffffffffffffffffffffffffffffffffffffffff16146115c557600080fd5b6008548110156115d457600080fd5b8060098190555050565b6115e6612b43565b73ffffffffffffffffffffffffffffffffffffffff16611604611b6e565b73ffffffffffffffffffffffffffffffffffffffff161461165a576040517f08c379a000000000000000000000000000000000000000000000000000000000815260040161165190613343565b60405180910390fd5b80600360006101000a81548173ffffffffffffffffffffffffffffffffffffffff021916908373ffffffffffffffffffffffffffffffffffffffff16021790555050565b6116a6612b43565b73ffffffffffffffffffffffffffffffffffffffff166116c4611b6e565b73ffffffffffffffffffffffffffffffffffffffff161461171a576040517f08c379a000000000000000000000000000000000000000000000000000000000815260040161171190613343565b60405180910390fd5b600073ffffffffffffffffffffffffffffffffffffffff1660008054906101000a900473ffffffffffffffffffffffffffffffffffffffff1673ffffffffffffffffffffffffffffffffffffffff167f8be0079c531659141344cd1fd0a4f28419497f9722a3daafe3b4186f6b6457e060405160405180910390a360008060006101000a81548173ffffffffffffffffffffffffffffffffffffffff021916908373ffffffffffffffffffffffffffffffffffffffff160217905550565b600560009054906101000a900473ffffffffffffffffffffffffffffffffffffffff1673ffffffffffffffffffffffffffffffffffffffff163373ffffffffffffffffffffffffffffffffffffffff161461183257600080fd5b6000600c54905060606040518061010001604052808381526020013373ffffffffffffffffffffffffffffffffffffffff1681526020016000815260200185815260200184815260200160001515815260200182815260200182815250600e60008481526020019081526020016000206000820151816000015560208201518160010160006101000a81548173ffffffffffffffffffffffffffffffffffffffff021916908373ffffffffffffffffffffffffffffffffffffffff160217905550604082015181600201556060820151816003019080519060200190611919929190612b98565b506080820151816004019080519060200190611936929190612b98565b5060a08201518160050160006101000a81548160ff02191690831515021790555060c0820151816006019080519060200190611973929190612b4b565b5060e0820151816007019080519060200190611990929190612b4b565b509050508473ffffffffffffffffffffffffffffffffffffffff16635c21bc2c3384876040518463ffffffff1660e01b81526004016119d1939291906132af565b602060405180830381600087803b1580156119eb57600080fd5b505af11580156119ff573d6000803e3d6000fd5b505050506040513d601f19601f82011682018060405250810190611a239190612e74565b611a2c57600080fd5b611a426001600c54612b1790919063ffffffff16565b600c8190555060065460106000848152602001908152602001600020819055503373ffffffffffffffffffffffffffffffffffffffff167f9ca856e2c173ffc5564e84f3c3777b416dc7017321170b523f7743a4e00e5194836000878760008788604051611ab69796959493929190613440565b60405180910390a25050505050565b60085481565b600560009054906101000a900473ffffffffffffffffffffffffffffffffffffffff1673ffffffffffffffffffffffffffffffffffffffff163373ffffffffffffffffffffffffffffffffffffffff1614611b2557600080fd5b600081118015611b355750606481105b611b3e57600080fd5b8060078190555050565b600360009054906101000a900473ffffffffffffffffffffffffffffffffffffffff1681565b60008060009054906101000a900473ffffffffffffffffffffffffffffffffffffffff16905090565b60045481565b60126020528060005260406000206000915054906101000a900460ff1681565b600160009054906101000a900473ffffffffffffffffffffffffffffffffffffffff1681565b600560009054906101000a900473ffffffffffffffffffffffffffffffffffffffff1673ffffffffffffffffffffffffffffffffffffffff163373ffffffffffffffffffffffffffffffffffffffff1614611c3d57600080fd5b8060068190555050565b600c5481565b600f6020528060005260406000206000915090508060000154908060010160009054906101000a900473ffffffffffffffffffffffffffffffffffffffff16908060020154908060040154908060050154905085565b600560009054906101000a900473ffffffffffffffffffffffffffffffffffffffff1673ffffffffffffffffffffffffffffffffffffffff163373ffffffffffffffffffffffffffffffffffffffff1614611cfd57600080fd5b80600560006101000a81548173ffffffffffffffffffffffffffffffffffffffff021916908373ffffffffffffffffffffffffffffffffffffffff16021790555050565b600560009054906101000a900473ffffffffffffffffffffffffffffffffffffffff1673ffffffffffffffffffffffffffffffffffffffff163373ffffffffffffffffffffffffffffffffffffffff1614611d9b57600080fd5b600081118015611dab5750606481105b611db457600080fd5b8060048190555050565b60136020528060005260406000206000915054906101000a900460ff1681565b60106020528060005260406000206000915090505481565b6000600e6000838152602001908152602001600020905081816000015414611e1d57600080fd5b8060010160009054906101000a900473ffffffffffffffffffffffffffffffffffffffff1673ffffffffffffffffffffffffffffffffffffffff163373ffffffffffffffffffffffffffffffffffffffff1614611e7957600080fd5b600060106000848152602001908152602001600020819055508060010160009054906101000a900473ffffffffffffffffffffffffffffffffffffffff1673ffffffffffffffffffffffffffffffffffffffff167f0de49829b83d46106707b35b589cb0ca70fd4c89b970bd685946a5716f488dc683836002015484600301856004018660050160009054906101000a900460ff168760060188600701604051611f29979695949392919061357f565b60405180910390a25050565b60095481565b60065481565b600560009054906101000a900473ffffffffffffffffffffffffffffffffffffffff1673ffffffffffffffffffffffffffffffffffffffff163373ffffffffffffffffffffffffffffffffffffffff1614611f9b57600080fd5b600081118015611fad5750600b548111155b611fb657600080fd5b80600a8190555050565b60025481565b600560009054906101000a900473ffffffffffffffffffffffffffffffffffffffff1673ffffffffffffffffffffffffffffffffffffffff163373ffffffffffffffffffffffffffffffffffffffff161461202057600080fd5b6000600f600089815260200190815260200160002090508781600001541461204757600080fd5b6000600c5490506040518061010001604052808281526020018473ffffffffffffffffffffffffffffffffffffffff16815260200187815260200189815260200188815260200160001515815260200186815260200185815250600e60008381526020019081526020016000206000820151816000015560208201518160010160006101000a81548173ffffffffffffffffffffffffffffffffffffffff021916908373ffffffffffffffffffffffffffffffffffffffff16021790555060408201518160020155606082015181600301908051906020019061212b929190612b98565b506080820151816004019080519060200190612148929190612b98565b5060a08201518160050160006101000a81548160ff02191690831515021790555060c0820151816006019080519060200190612185929190612b4b565b5060e08201518160070190805190602001906121a2929190612b4b565b509050506001601460008b815260200190815260200160002060006101000a81548160ff0219169083151502179055506121e86001600c54612b1790919063ffffffff16565b600c8190555060005b85518110156122ed5760001515600e600088848151811061223b577f4e487b7100000000000000000000000000000000000000000000000000000000600052603260045260246000fd5b6020026020010151815260200190815260200160002060050160009054906101000a900460ff16151514156122da576001600e60008884815181106122a9577f4e487b7100000000000000000000000000000000000000000000000000000000600052603260045260246000fd5b6020026020010151815260200190815260200160002060050160006101000a81548160ff0219169083151502179055505b80806122e590613a8d565b9150506121f1565b503373ffffffffffffffffffffffffffffffffffffffff167fcaf354a2a82c871b0f6bbe0f9f41db5c6e8477a125e429a203bd2afa3891abe3828b898c8c60008c8c60405161234398979695949392919061360a565b60405180910390a2505050505050505050565b600560009054906101000a900473ffffffffffffffffffffffffffffffffffffffff1673ffffffffffffffffffffffffffffffffffffffff163373ffffffffffffffffffffffffffffffffffffffff16146123b057600080fd5b6000600f60008381526020019081526020016000209050818160000154146123d757600080fd5b60016012600084815260200190815260200160002060006101000a81548160ff0219169083151502179055503373ffffffffffffffffffffffffffffffffffffffff167fa5d00b463a784c4df6b0b63120ca3710402164ef0da5f2b01f8834bf9a531a908383600201548460030185600401548660050154604051612460959493929190613525565b60405180910390a25050565b6000600e600083815260200190815260200160002090508181600001541461249357600080fd5b8060010160009054906101000a900473ffffffffffffffffffffffffffffffffffffffff1673ffffffffffffffffffffffffffffffffffffffff163373ffffffffffffffffffffffffffffffffffffffff1614156124f057600080fd5b6000601060008481526020019081526020016000205490506000811161251557600080fd5b600061253f606461253160045485612aeb90919063ffffffff16565b612b0190919063ffffffff16565b9050600061256b606461255d60025486612aeb90919063ffffffff16565b612b0190919063ffffffff16565b90506000612594826125868587612b1790919063ffffffff16565b612b1790919063ffffffff16565b90508034146125a257600080fd5b61261884601160008860010160009054906101000a900473ffffffffffffffffffffffffffffffffffffffff1673ffffffffffffffffffffffffffffffffffffffff1673ffffffffffffffffffffffffffffffffffffffff16815260200190815260200160002054612b1790919063ffffffff16565b601160008760010160009054906101000a900473ffffffffffffffffffffffffffffffffffffffff1673ffffffffffffffffffffffffffffffffffffffff1673ffffffffffffffffffffffffffffffffffffffff168152602001908152602001600020819055506126f38360116000600560009054906101000a900473ffffffffffffffffffffffffffffffffffffffff1673ffffffffffffffffffffffffffffffffffffffff1673ffffffffffffffffffffffffffffffffffffffff16815260200190815260200160002054612b1790919063ffffffff16565b60116000600560009054906101000a900473ffffffffffffffffffffffffffffffffffffffff1673ffffffffffffffffffffffffffffffffffffffff1673ffffffffffffffffffffffffffffffffffffffff168152602001908152602001600020819055506127cc8260116000600360009054906101000a900473ffffffffffffffffffffffffffffffffffffffff1673ffffffffffffffffffffffffffffffffffffffff1673ffffffffffffffffffffffffffffffffffffffff16815260200190815260200160002054612b1790919063ffffffff16565b60116000600360009054906101000a900473ffffffffffffffffffffffffffffffffffffffff1673ffffffffffffffffffffffffffffffffffffffff1673ffffffffffffffffffffffffffffffffffffffff16815260200190815260200160002081905550338560010160006101000a81548173ffffffffffffffffffffffffffffffffffffffff021916908373ffffffffffffffffffffffffffffffffffffffff160217905550600060106000888152602001908152602001600020819055508460010160009054906101000a900473ffffffffffffffffffffffffffffffffffffffff1673ffffffffffffffffffffffffffffffffffffffff167f161a183be2abd3b65c45bc779cfd89b4a3caff5594986db771e12ee94fd90f3c87868860020154896003018a6004018b60050160009054906101000a900460ff168c6006018d6007016040516129269897969594939291906136a4565b60405180910390a2505050505050565b61293e612b43565b73ffffffffffffffffffffffffffffffffffffffff1661295c611b6e565b73ffffffffffffffffffffffffffffffffffffffff16146129b2576040517f08c379a00000000000000000000000000000000000000000000000000000000081526004016129a990613343565b60405180910390fd5b600073ffffffffffffffffffffffffffffffffffffffff168173ffffffffffffffffffffffffffffffffffffffff161415612a22576040517f08c379a0000000000000000000000000000000000000000000000000000000008152600401612a1990613323565b60405180910390fd5b8073ffffffffffffffffffffffffffffffffffffffff1660008054906101000a900473ffffffffffffffffffffffffffffffffffffffff1673ffffffffffffffffffffffffffffffffffffffff167f8be0079c531659141344cd1fd0a4f28419497f9722a3daafe3b4186f6b6457e060405160405180910390a3806000806101000a81548173ffffffffffffffffffffffffffffffffffffffff021916908373ffffffffffffffffffffffffffffffffffffffff16021790555050565b600b5481565b60075481565b60008183612af991906138e9565b905092915050565b60008183612b0f91906138b8565b905092915050565b60008183612b259190613862565b905092915050565b60008183612b3b9190613943565b905092915050565b600033905090565b828054828255906000526020600020908101928215612b87579160200282015b82811115612b86578251825591602001919060010190612b6b565b5b509050612b949190612c1e565b5090565b828054612ba490613a41565b90600052602060002090601f016020900481019282612bc65760008555612c0d565b82601f10612bdf57805160ff1916838001178555612c0d565b82800160010185558215612c0d579182015b82811115612c0c578251825591602001919060010190612bf1565b5b509050612c1a9190612c1e565b5090565b5b80821115612c37576000816000905550600101612c1f565b5090565b6000612c4e612c498461376f565b61373e565b90508083825260208201905082856020860282011115612c6d57600080fd5b60005b85811015612c9d5781612c838882612d63565b845260208401935060208301925050600181019050612c70565b5050509392505050565b6000612cba612cb58461379b565b61373e565b905082815260208101848484011115612cd257600080fd5b612cdd8482856139ff565b509392505050565b600081359050612cf481613bc3565b92915050565b600082601f830112612d0b57600080fd5b8135612d1b848260208601612c3b565b91505092915050565b600081519050612d3381613bda565b92915050565b600082601f830112612d4a57600080fd5b8135612d5a848260208601612ca7565b91505092915050565b600081359050612d7281613bf1565b92915050565b600060208284031215612d8a57600080fd5b6000612d9884828501612ce5565b91505092915050565b600080600060608486031215612db657600080fd5b6000612dc486828701612ce5565b935050602084013567ffffffffffffffff811115612de157600080fd5b612ded86828701612d39565b925050604084013567ffffffffffffffff811115612e0a57600080fd5b612e1686828701612d39565b9150509250925092565b60008060408385031215612e3357600080fd5b600083013567ffffffffffffffff811115612e4d57600080fd5b612e5985828601612cfa565b9250506020612e6a85828601612d63565b9150509250929050565b600060208284031215612e8657600080fd5b6000612e9484828501612d24565b91505092915050565b600060208284031215612eaf57600080fd5b6000612ebd84828501612d63565b91505092915050565b600080600080600080600060e0888a031215612ee157600080fd5b6000612eef8a828b01612d63565b975050602088013567ffffffffffffffff811115612f0c57600080fd5b612f188a828b01612d39565b965050604088013567ffffffffffffffff811115612f3557600080fd5b612f418a828b01612d39565b9550506060612f528a828b01612d63565b945050608088013567ffffffffffffffff811115612f6f57600080fd5b612f7b8a828b01612cfa565b93505060a088013567ffffffffffffffff811115612f9857600080fd5b612fa48a828b01612cfa565b92505060c0612fb58a828b01612ce5565b91505092959891949750929550565b60008060408385031215612fd757600080fd5b6000612fe585828601612d63565b9250506020612ff685828601612d63565b9150509250929050565b600061300c8383613276565b60208301905092915050565b61302181613981565b82525050565b600061303282613805565b61303c8185613840565b9350613047836137cb565b8060005b8381101561307857815161305f8882613000565b975061306a83613826565b92505060018101905061304b565b5085935050505092915050565b600061309082613810565b61309a8185613840565b93506130a5836137db565b8060005b838110156130dd576130ba82613b92565b6130c48882613000565b97506130cf83613833565b9250506001810190506130a9565b5085935050505092915050565b6130f381613993565b82525050565b613102816139c9565b82525050565b613111816139ed565b82525050565b60006131228261381b565b61312c8185613851565b935061313c818560208601613a0e565b61314581613ba5565b840191505092915050565b6000815461315d81613a41565b6131678186613851565b945060018216600081146131825760018114613194576131c7565b60ff19831686526020860193506131c7565b61319d856137f0565b60005b838110156131bf578154818901526001820191506020810190506131a0565b808801955050505b50505092915050565b60006131dd602683613851565b91507f4f776e61626c653a206e6577206f776e657220697320746865207a65726f206160008301527f64647265737300000000000000000000000000000000000000000000000000006020830152604082019050919050565b6000613243602083613851565b91507f4f776e61626c653a2063616c6c6572206973206e6f7420746865206f776e65726000830152602082019050919050565b61327f816139bf565b82525050565b61328e816139bf565b82525050565b60006020820190506132a96000830184613018565b92915050565b60006060820190506132c46000830186613018565b6132d16020830185613285565b81810360408301526132e38184613117565b9050949350505050565b600060208201905061330260008301846130ea565b92915050565b600060208201905061331d60008301846130f9565b92915050565b6000602082019050818103600083015261333c816131d0565b9050919050565b6000602082019050818103600083015261335c81613236565b9050919050565b60006020820190506133786000830184613285565b92915050565b600060c0820190506133936000830189613285565b6133a06020830188613018565b6133ad6040830187613285565b81810360608301526133bf8186613117565b905081810360808301526133d38185613117565b90506133e260a08301846130ea565b979650505050505050565b600060a0820190506134026000830188613285565b61340f6020830187613018565b61341c6040830186613285565b6134296060830185613285565b6134366080830184613285565b9695505050505050565b600060e082019050613455600083018a613285565b6134626020830189613108565b81810360408301526134748188613117565b905081810360608301526134888187613117565b905061349760808301866130ea565b81810360a08301526134a98185613027565b905081810360c08301526134bd8184613027565b905098975050505050505050565b600060a0820190506134e06000830188613285565b6134ed6020830187613285565b81810360408301526134ff8186613027565b905061350e6060830185613285565b61351b6080830184613285565b9695505050505050565b600060a08201905061353a6000830188613285565b6135476020830187613285565b81810360408301526135598186613085565b90506135686060830185613285565b6135756080830184613285565b9695505050505050565b600060e082019050613594600083018a613285565b6135a16020830189613285565b81810360408301526135b38188613150565b905081810360608301526135c78187613150565b90506135d660808301866130ea565b81810360a08301526135e88185613085565b905081810360c08301526135fc8184613085565b905098975050505050505050565b600061010082019050613620600083018b613285565b61362d602083018a613285565b61363a6040830189613285565b818103606083015261364c8188613117565b905081810360808301526136608187613117565b905061366f60a08301866130ea565b81810360c08301526136818185613027565b905081810360e08301526136958184613027565b90509998505050505050505050565b6000610100820190506136ba600083018b613285565b6136c7602083018a613285565b6136d46040830189613285565b81810360608301526136e68188613150565b905081810360808301526136fa8187613150565b905061370960a08301866130ea565b81810360c083015261371b8185613085565b905081810360e083015261372f8184613085565b90509998505050505050505050565b6000604051905081810181811067ffffffffffffffff8211171561376557613764613b63565b5b8060405250919050565b600067ffffffffffffffff82111561378a57613789613b63565b5b602082029050602081019050919050565b600067ffffffffffffffff8211156137b6576137b5613b63565b5b601f19601f8301169050602081019050919050565b6000819050602082019050919050565b60008190508160005260206000209050919050565b60008190508160005260206000209050919050565b600081519050919050565b600081549050919050565b600081519050919050565b6000602082019050919050565b6000600182019050919050565b600082825260208201905092915050565b600082825260208201905092915050565b600061386d826139bf565b9150613878836139bf565b9250827fffffffffffffffffffffffffffffffffffffffffffffffffffffffffffffffff038211156138ad576138ac613ad6565b5b828201905092915050565b60006138c3826139bf565b91506138ce836139bf565b9250826138de576138dd613b05565b5b828204905092915050565b60006138f4826139bf565b91506138ff836139bf565b9250817fffffffffffffffffffffffffffffffffffffffffffffffffffffffffffffffff048311821515161561393857613937613ad6565b5b828202905092915050565b600061394e826139bf565b9150613959836139bf565b92508282101561396c5761396b613ad6565b5b828203905092915050565b6000819050919050565b600061398c8261399f565b9050919050565b60008115159050919050565b600073ffffffffffffffffffffffffffffffffffffffff82169050919050565b6000819050919050565b60006139d4826139db565b9050919050565b60006139e68261399f565b9050919050565b60006139f8826139bf565b9050919050565b82818337600083830152505050565b60005b83811015613a2c578082015181840152602081019050613a11565b83811115613a3b576000848401525b50505050565b60006002820490506001821680613a5957607f821691505b60208210811415613a6d57613a6c613b34565b5b50919050565b6000613a86613a8183613bb6565b613977565b9050919050565b6000613a98826139bf565b91507fffffffffffffffffffffffffffffffffffffffffffffffffffffffffffffffff821415613acb57613aca613ad6565b5b600182019050919050565b7f4e487b7100000000000000000000000000000000000000000000000000000000600052601160045260246000fd5b7f4e487b7100000000000000000000000000000000000000000000000000000000600052601260045260246000fd5b7f4e487b7100000000000000000000000000000000000000000000000000000000600052602260045260246000fd5b7f4e487b7100000000000000000000000000000000000000000000000000000000600052604160045260246000fd5b6000613b9e8254613a73565b9050919050565b6000601f19601f8301169050919050565b60008160001c9050919050565b613bcc81613981565b8114613bd757600080fd5b50565b613be381613993565b8114613bee57600080fd5b50565b613bfa816139bf565b8114613c0557600080fd5b5056fea26469706673582212207ad0bb22cf8528d6a83276121bff12520ff7b5163f798cb6a37c3fa32edb098b64736f6c63430008000033",
  "immutableReferences": {},
  "source": "// SPDX-License-Identifier: MIT\npragma solidity >=0.4.22 <0.9.0;\n\nimport './Tokens.sol';\nimport \"@openzeppelin/contracts/access/Ownable.sol\";\nimport \"@openzeppelin/contracts/token/ERC721/extensions/ERC721URIStorage.sol\";\nimport \"@openzeppelin/contracts/utils/math/SafeMath.sol\";\n\n// todo\n// cancelled orders balance transfers\n// art needs timestamps\n// orders need timestamps\n// withdraw\n\ncontract ArtFactory is Ownable {\n\n  using SafeMath for uint256;\n\n  Tokens public tokens;\n  \n  uint256 public contractFeePercentage; // percentage out of 100\n  address public contractFeeAccount;\n  uint256 public artistFeePercentage; // percentage out of 100\n  address public artistFeeAccount;\n  uint256 public baseArtPrice; // in wei\n  uint256 public parentMultiplierPercentage; // percentage out of 100\n  uint256 public minParents;\n  uint256 public maxParents;\n  uint256 public minLegacies;\n  uint256 public maxLegacies;\n  uint256 public artworkCount;\n  uint256 public orderCount;\n\n  mapping(uint256 => Art) public artworks;\n  mapping(uint256 => _Order) public orders;\n  mapping(uint256 => uint256) public prices;\n  mapping(address => uint256) public balances;\n  mapping(uint256 => bool) public acceptedOrders;\n  mapping(uint256 => bool) public cancelledOrders;\n  mapping(uint256 => bool) public filledOrders;\n\n  struct Art {\n    uint256 id;\n    address owner;\n    uint256 gen;\n    string tokenURI;\n    string name;\n    bool legacyCreated;\n    uint256[] parents;\n    uint256[] siblings;\n  }\n\n  struct _Order {\n    uint256 id;\n    address buyer;\n    uint256 price;\n    uint256[] parentIDS;\n    uint256 numLegacies;\n    uint256 gen;\n  }\n\n  event ArtGen0(uint256 id, address indexed owner, uint256 gen, string tokenURI, string name, bool legacyCreated, uint256[] parents, uint256[] siblings);\n  event ArtFromOrder(uint256 id, uint256 orderID, address indexed owner, uint256 gen, string tokenURI, string name, bool legacyCreated, uint256[] parents, uint256[] siblings);\n  event Order(uint256 id, address indexed buyer, uint256 price, uint256[] parentIDS, uint256 numLegacies, uint256 gen);\n  event Accept(uint256 id, address indexed buyer, uint256 price, uint256[] parentIDS, uint256 numLegacies, uint256 gen);\n  event Cancel(uint256 id, address indexed buyer, uint256 price, uint256[] parentIDS, uint256 numLegacies, uint256 gen);\n  event ArtForSale(uint256 id, uint256 price, address indexed owner, uint256 gen, string tokenURI, string name, bool legacyCreated, uint256[] parents, uint256[] siblings);\n  event SaleCancel(uint256 id, address indexed owner, uint256 gen, string tokenURI, string name, bool legacyCreated, uint256[] parents, uint256[] siblings);\n  event Purchase(uint256 id, uint256 price, address indexed buyer, uint256 gen, string tokenURI, string name, bool legacyCreated, uint256[] parents, uint256[] siblings);\n\n  constructor(\n    address _artistFeeAccount,\n    uint256 _artistFeePercentage,\n    uint256 _baseArtPrice,\n    uint256 _parentMultiplierPercentage,\n    uint256 _minParents,\n    uint256 _maxParents,\n    uint256 _minLegacies,\n    uint256 _maxLegacies\n    ){\n    \n    artworkCount = 0;\n    orderCount = 0;\n    contractFeePercentage = 1;\n    contractFeeAccount = msg.sender;\n\n    artistFeeAccount = _artistFeeAccount;\n    artistFeePercentage = _artistFeePercentage;\n    baseArtPrice = _baseArtPrice;\n    parentMultiplierPercentage = _parentMultiplierPercentage;\n    minParents = _minParents;\n    maxParents = _maxParents;\n    minLegacies = _minLegacies;\n    maxLegacies = _maxLegacies;\n  }\n\n  modifier onlyArtist() {\n    require(msg.sender == artistFeeAccount);\n    _;\n  }\n\n  function changeContractFeeAccount(address _contractFeeAccount) public onlyOwner {\n    contractFeeAccount = _contractFeeAccount;\n  }\n\n  function changeArtistFeeAccount(address _artistFeeAccount) public onlyArtist {\n    artistFeeAccount = _artistFeeAccount;\n  }\n\n  function changeArtistFeePercentage(uint256 _artistFeePercentage) public onlyArtist {\n    require(_artistFeePercentage > 0 && _artistFeePercentage < 100);\n    artistFeePercentage = _artistFeePercentage;\n  }\n\n  function changeBaseArtPrice(uint256 _baseArtPrice) public onlyArtist {\n    baseArtPrice = _baseArtPrice;\n  }\n\n  function changeParentMultiplierPercentage(uint256 _parentMultiplierPercentage) public onlyArtist {\n    require(_parentMultiplierPercentage > 0 && _parentMultiplierPercentage < 100);\n    parentMultiplierPercentage = _parentMultiplierPercentage;\n  }\n\n  function changeMinParents(uint256 _minParents) public onlyArtist {\n    require(_minParents > 0 && _minParents <= maxParents);\n    minParents = _minParents;\n  }\n\n  function changeMaxParents(uint256 _maxParents) public onlyArtist {\n    require(_maxParents >= minParents);\n    maxParents = _maxParents;\n  }\n\n  function changeMinLegacies(uint256 _minLegacies) public onlyArtist {\n    require(_minLegacies > 0 && _minLegacies <= maxLegacies);\n    minLegacies = _minLegacies;\n  }\n\n  function changeMaxLegacies(uint256 _maxLegacies) public onlyArtist {\n    require(_maxLegacies >= minLegacies);\n    maxLegacies = _maxLegacies;\n  }\n\n  function createArtGen0(address _tokensAddress, string memory _tokenURI, string memory _name) public onlyArtist {\n    uint256 _id = artworkCount;\n    uint256[] memory arr;\n\n    artworks[_id] = Art(_id, msg.sender, 0, _tokenURI, _name, false, arr, arr);\n    \n    require(Tokens(_tokensAddress).createToken(msg.sender, _id, _tokenURI));\n    //_safeMint(msg.sender, _id);\n    //_setTokenURI(_id, _tokenURI);\n    \n    artworkCount = artworkCount.add(1);\n    prices[_id] = baseArtPrice;\n    \n    emit ArtGen0(_id, msg.sender, 0, _tokenURI, _name, false, arr, arr);\n  }\n\n  function createArtFromOrder(uint256 _orderID, string memory _tokenURI, string memory _name, uint256 _gen, uint256[] memory _parents, uint256[] memory _siblings, address _buyer) public onlyArtist {\n    _Order storage _order = orders[_orderID];\n    require(_order.id == _orderID);\n    \n    uint256 _id = artworkCount;\n    artworks[_id] = Art(_id, _buyer, _gen, _tokenURI, _name, false, _parents, _siblings);\n    \n    //_safeMint(_buyer, _id);\n    //_setTokenURI(_id, _tokenURI);\n\n    filledOrders[_orderID] = true;\n    artworkCount = artworkCount.add(1);\n    for(uint i=0;i<_parents.length;i++) {\n      if(artworks[_parents[i]].legacyCreated == false) {\n        artworks[_parents[i]].legacyCreated = true;\n      }\n    }\n    \n    emit ArtFromOrder(_id, _orderID, msg.sender, _gen, _tokenURI, _name, false, _parents, _siblings);\n  }\n\n  function putUpForSale(uint256 _id, uint256 _price) public {\n    Art storage _art = artworks[_id];\n    require(_art.id == _id);\n    require(msg.sender == _art.owner);\n\n    prices[_id] = _price;\n    \n    emit ArtForSale(_id, _price, _art.owner, _art.gen, _art.tokenURI, _art.name, _art.legacyCreated, _art.parents, _art.siblings);\n  }\n\n  function cancelSale(uint256 _id) public {\n    Art storage _art = artworks[_id];\n    require(_art.id == _id);\n    require(msg.sender == _art.owner);\n\n    prices[_id] = 0;\n    \n    emit SaleCancel(_id, _art.owner, _art.gen, _art.tokenURI, _art.name, _art.legacyCreated, _art.parents, _art.siblings);\n  }\n\n  function purchase(uint256 _id) public payable {\n    Art storage _art = artworks[_id];\n    require(_art.id == _id);\n    require(msg.sender != _art.owner);\n    uint256 _price = prices[_id];\n    require(_price > 0);\n\n    uint256 artistCut = _price.mul(artistFeePercentage).div(100);\n    uint256 contractCut = _price.mul(contractFeePercentage).div(100);\n    uint256 totalPrice = _price.add(artistCut).add(contractCut);\n    require(msg.value == totalPrice);\n\n    balances[_art.owner] = balances[_art.owner].add(_price);\n    balances[artistFeeAccount] = balances[artistFeeAccount].add(artistCut);\n    balances[contractFeeAccount] = balances[contractFeeAccount].add(contractCut);\n\n    // transfer NFT (_safeTransfer) - is approval required?\n    // setApprovalForAll(address(this), true);\n    // safeTransferFrom(_art.owner, msg.sender, _id);\n    //_transferAfterApproved(_id, msg.sender);\n    \n    \n    _art.owner = msg.sender;\n\n    prices[_id] = 0;\n\n    emit Purchase(_id, _price, _art.owner, _art.gen, _art.tokenURI, _art.name, _art.legacyCreated, _art.parents, _art.siblings);\n  }\n\n  // function _transferAfterApproved(uint256 _id, address _buyer) private {\n  //   Art storage _art = artworks[_id];\n  //   safeTransferFrom(_art.owner, _buyer, _id);\n  // }\n\n  function createOrder(uint256[] memory _parentIDS, uint256 _numLegacies) public payable {\n    uint256 _numParents = _parentIDS.length;\n    uint256 _id = orderCount;\n    uint256 _gen = 1;\n    \n    require(_numParents >= minParents && _numParents <= maxParents);\n    require(_numLegacies >= minLegacies && _numLegacies <= maxLegacies);\n    \n    for(uint256 i=0;i<_numParents;i++) {\n      require(artworks[_parentIDS[i]].owner == msg.sender);\n      if (artworks[_parentIDS[i]].gen > _gen) {\n        _gen = artworks[_parentIDS[i]].gen;\n      }\n    }\n\n    uint256 _price = baseArtPrice + (baseArtPrice.mul(_numLegacies).mul(parentMultiplierPercentage).mul(_numParents).div(100));  // TODO: CHECK THIS\n    require(_price > 0);\n    uint256 _contractFee = _price.mul(contractFeePercentage).div(100);\n    require(msg.value == _price.add(_contractFee));\n    orders[_id] = _Order(_id, msg.sender, _price, _parentIDS, _numLegacies, _gen);\n    \n    balances[artistFeeAccount] = balances[artistFeeAccount].add(_price);\n    balances[contractFeeAccount] = balances[contractFeeAccount].add(_contractFee);\n    orderCount = orderCount.add(1);\n    \n    emit Order(_id, msg.sender, _price, _parentIDS, _numLegacies, _gen);\n  }\n\n  function acceptOrder(uint256 _id) public onlyArtist {\n    _Order storage _order = orders[_id];\n    require(_order.id == _id);\n    acceptedOrders[_id] = true;\n    \n    emit Accept(_id, msg.sender, _order.price, _order.parentIDS, _order.numLegacies, _order.gen);\n  }\n\n  function cancelOrder(uint256 _id) public {\n    _Order storage _order = orders[_id];\n    require(_order.id == _id);\n    require(msg.sender == _order.buyer);\n    \n    cancelledOrders[_id] = true;\n    balances[msg.sender] = balances[msg.sender].add(_order.price); // TODO: need to test\n    balances[artistFeeAccount] = balances[artistFeeAccount].sub(_order.price); // TODO: need to test\n    \n    emit Cancel(_id, msg.sender, _order.price, _order.parentIDS, _order.numLegacies, _order.gen);\n  }\n}",
  "sourcePath": "/Users/andrewmlevy/Documents/blockchain/4_portfolio_projects/art-marketplace/src/contracts/ArtFactory.sol",
  "compiler": {
    "name": "solc",
    "version": "0.8.0+commit.c7dfd78e.Emscripten.clang"
  },
  "schemaVersion": "3.4.1",
  "updatedAt": "2021-06-04T18:21:43.158Z",
  "devdoc": {
    "kind": "dev",
    "methods": {
      "owner()": {
        "details": "Returns the address of the current owner."
      },
      "renounceOwnership()": {
        "details": "Leaves the contract without owner. It will not be possible to call `onlyOwner` functions anymore. Can only be called by the current owner. NOTE: Renouncing ownership will leave the contract without an owner, thereby removing any functionality that is only available to the owner."
      },
      "transferOwnership(address)": {
        "details": "Transfers ownership of the contract to a new account (`newOwner`). Can only be called by the current owner."
      }
    },
    "version": 1
  },
  "userdoc": {
    "kind": "user",
    "methods": {},
    "version": 1
  }
}