{
  "contractName": "ArtFactory",
  "abi": [
    {
      "inputs": [
        {
          "internalType": "address",
          "name": "_artistFeeAccount",
          "type": "address"
        },
        {
          "internalType": "uint256",
          "name": "_artistFeePercentage",
          "type": "uint256"
        },
        {
          "internalType": "uint256",
          "name": "_baseArtPrice",
          "type": "uint256"
        },
        {
          "internalType": "uint256",
          "name": "_parentMultiplierPercentage",
          "type": "uint256"
        },
        {
          "internalType": "uint256",
          "name": "_minParents",
          "type": "uint256"
        },
        {
          "internalType": "uint256",
          "name": "_maxParents",
          "type": "uint256"
        },
        {
          "internalType": "uint256",
          "name": "_minLegacies",
          "type": "uint256"
        },
        {
          "internalType": "uint256",
          "name": "_maxLegacies",
          "type": "uint256"
        }
      ],
      "stateMutability": "nonpayable",
      "type": "constructor"
    },
    {
      "anonymous": false,
      "inputs": [
        {
          "indexed": false,
          "internalType": "uint256",
          "name": "id",
          "type": "uint256"
        },
        {
          "indexed": true,
          "internalType": "address",
          "name": "buyer",
          "type": "address"
        },
        {
          "indexed": false,
          "internalType": "uint256",
          "name": "price",
          "type": "uint256"
        },
        {
          "indexed": false,
          "internalType": "uint256[]",
          "name": "parentIDS",
          "type": "uint256[]"
        },
        {
          "indexed": false,
          "internalType": "uint256",
          "name": "numLegacies",
          "type": "uint256"
        },
        {
          "indexed": false,
          "internalType": "uint256",
          "name": "gen",
          "type": "uint256"
        },
        {
          "indexed": false,
          "internalType": "uint256",
          "name": "timestamp",
          "type": "uint256"
        }
      ],
      "name": "Accept",
      "type": "event"
    },
    {
      "anonymous": false,
      "inputs": [
        {
          "indexed": false,
          "internalType": "uint256",
          "name": "id",
          "type": "uint256"
        },
        {
          "indexed": false,
          "internalType": "uint256",
          "name": "price",
          "type": "uint256"
        },
        {
          "indexed": true,
          "internalType": "address",
          "name": "owner",
          "type": "address"
        },
        {
          "indexed": false,
          "internalType": "uint256",
          "name": "gen",
          "type": "uint256"
        },
        {
          "indexed": false,
          "internalType": "string",
          "name": "tokenURI",
          "type": "string"
        },
        {
          "indexed": false,
          "internalType": "string",
          "name": "name",
          "type": "string"
        },
        {
          "indexed": false,
          "internalType": "bool",
          "name": "legacyCreated",
          "type": "bool"
        },
        {
          "indexed": false,
          "internalType": "uint256[]",
          "name": "parents",
          "type": "uint256[]"
        },
        {
          "indexed": false,
          "internalType": "uint256[]",
          "name": "siblings",
          "type": "uint256[]"
        },
        {
          "indexed": false,
          "internalType": "uint256",
          "name": "timestamp",
          "type": "uint256"
        }
      ],
      "name": "ArtForSale",
      "type": "event"
    },
    {
      "anonymous": false,
      "inputs": [
        {
          "indexed": false,
          "internalType": "uint256",
          "name": "id",
          "type": "uint256"
        },
        {
          "indexed": false,
          "internalType": "uint256",
          "name": "orderID",
          "type": "uint256"
        },
        {
          "indexed": true,
          "internalType": "address",
          "name": "owner",
          "type": "address"
        },
        {
          "indexed": false,
          "internalType": "uint256",
          "name": "gen",
          "type": "uint256"
        },
        {
          "indexed": false,
          "internalType": "string",
          "name": "tokenURI",
          "type": "string"
        },
        {
          "indexed": false,
          "internalType": "string",
          "name": "name",
          "type": "string"
        },
        {
          "indexed": false,
          "internalType": "bool",
          "name": "legacyCreated",
          "type": "bool"
        },
        {
          "indexed": false,
          "internalType": "uint256[]",
          "name": "parents",
          "type": "uint256[]"
        },
        {
          "indexed": false,
          "internalType": "uint256[]",
          "name": "siblings",
          "type": "uint256[]"
        },
        {
          "indexed": false,
          "internalType": "uint256",
          "name": "timestamp",
          "type": "uint256"
        }
      ],
      "name": "ArtFromOrder",
      "type": "event"
    },
    {
      "anonymous": false,
      "inputs": [
        {
          "indexed": false,
          "internalType": "uint256",
          "name": "id",
          "type": "uint256"
        },
        {
          "indexed": true,
          "internalType": "address",
          "name": "owner",
          "type": "address"
        },
        {
          "indexed": false,
          "internalType": "uint256",
          "name": "gen",
          "type": "uint256"
        },
        {
          "indexed": false,
          "internalType": "string",
          "name": "tokenURI",
          "type": "string"
        },
        {
          "indexed": false,
          "internalType": "string",
          "name": "name",
          "type": "string"
        },
        {
          "indexed": false,
          "internalType": "bool",
          "name": "legacyCreated",
          "type": "bool"
        },
        {
          "indexed": false,
          "internalType": "uint256[]",
          "name": "parents",
          "type": "uint256[]"
        },
        {
          "indexed": false,
          "internalType": "uint256[]",
          "name": "siblings",
          "type": "uint256[]"
        },
        {
          "indexed": false,
          "internalType": "uint256",
          "name": "timestamp",
          "type": "uint256"
        }
      ],
      "name": "ArtGen0",
      "type": "event"
    },
    {
      "anonymous": false,
      "inputs": [
        {
          "indexed": false,
          "internalType": "address",
          "name": "newAddress",
          "type": "address"
        }
      ],
      "name": "ArtistFeeAccount",
      "type": "event"
    },
    {
      "anonymous": false,
      "inputs": [
        {
          "indexed": false,
          "internalType": "uint256",
          "name": "newAmount",
          "type": "uint256"
        }
      ],
      "name": "ArtistFeePercentage",
      "type": "event"
    },
    {
      "anonymous": false,
      "inputs": [
        {
          "indexed": false,
          "internalType": "uint256",
          "name": "newAmount",
          "type": "uint256"
        }
      ],
      "name": "BaseArtPrice",
      "type": "event"
    },
    {
      "anonymous": false,
      "inputs": [
        {
          "indexed": false,
          "internalType": "uint256",
          "name": "id",
          "type": "uint256"
        },
        {
          "indexed": true,
          "internalType": "address",
          "name": "buyer",
          "type": "address"
        },
        {
          "indexed": false,
          "internalType": "uint256",
          "name": "price",
          "type": "uint256"
        },
        {
          "indexed": false,
          "internalType": "uint256[]",
          "name": "parentIDS",
          "type": "uint256[]"
        },
        {
          "indexed": false,
          "internalType": "uint256",
          "name": "numLegacies",
          "type": "uint256"
        },
        {
          "indexed": false,
          "internalType": "uint256",
          "name": "gen",
          "type": "uint256"
        },
        {
          "indexed": false,
          "internalType": "uint256",
          "name": "timestamp",
          "type": "uint256"
        }
      ],
      "name": "Cancel",
      "type": "event"
    },
    {
      "anonymous": false,
      "inputs": [
        {
          "indexed": false,
          "internalType": "address",
          "name": "newAddress",
          "type": "address"
        }
      ],
      "name": "ContractFeeAccount",
      "type": "event"
    },
    {
      "anonymous": false,
      "inputs": [
        {
          "indexed": false,
          "internalType": "uint256",
          "name": "newAmount",
          "type": "uint256"
        }
      ],
      "name": "ContractFeePercentage",
      "type": "event"
    },
    {
      "anonymous": false,
      "inputs": [
        {
          "indexed": false,
          "internalType": "uint256",
          "name": "newAmount",
          "type": "uint256"
        }
      ],
      "name": "MaxLegacies",
      "type": "event"
    },
    {
      "anonymous": false,
      "inputs": [
        {
          "indexed": false,
          "internalType": "uint256",
          "name": "newAmount",
          "type": "uint256"
        }
      ],
      "name": "MaxParents",
      "type": "event"
    },
    {
      "anonymous": false,
      "inputs": [
        {
          "indexed": false,
          "internalType": "uint256",
          "name": "newAmount",
          "type": "uint256"
        }
      ],
      "name": "MinLegacies",
      "type": "event"
    },
    {
      "anonymous": false,
      "inputs": [
        {
          "indexed": false,
          "internalType": "uint256",
          "name": "newAmount",
          "type": "uint256"
        }
      ],
      "name": "MinParents",
      "type": "event"
    },
    {
      "anonymous": false,
      "inputs": [
        {
          "indexed": false,
          "internalType": "uint256",
          "name": "id",
          "type": "uint256"
        },
        {
          "indexed": true,
          "internalType": "address",
          "name": "buyer",
          "type": "address"
        },
        {
          "indexed": false,
          "internalType": "uint256",
          "name": "price",
          "type": "uint256"
        },
        {
          "indexed": false,
          "internalType": "uint256[]",
          "name": "parentIDS",
          "type": "uint256[]"
        },
        {
          "indexed": false,
          "internalType": "uint256",
          "name": "numLegacies",
          "type": "uint256"
        },
        {
          "indexed": false,
          "internalType": "uint256",
          "name": "gen",
          "type": "uint256"
        },
        {
          "indexed": false,
          "internalType": "uint256",
          "name": "timestamp",
          "type": "uint256"
        }
      ],
      "name": "Order",
      "type": "event"
    },
    {
      "anonymous": false,
      "inputs": [
        {
          "indexed": true,
          "internalType": "address",
          "name": "previousOwner",
          "type": "address"
        },
        {
          "indexed": true,
          "internalType": "address",
          "name": "newOwner",
          "type": "address"
        }
      ],
      "name": "OwnershipTransferred",
      "type": "event"
    },
    {
      "anonymous": false,
      "inputs": [
        {
          "indexed": false,
          "internalType": "uint256",
          "name": "newAmount",
          "type": "uint256"
        }
      ],
      "name": "ParentMultiplierPercentage",
      "type": "event"
    },
    {
      "anonymous": false,
      "inputs": [
        {
          "indexed": false,
          "internalType": "uint256",
          "name": "id",
          "type": "uint256"
        },
        {
          "indexed": false,
          "internalType": "uint256",
          "name": "price",
          "type": "uint256"
        },
        {
          "indexed": true,
          "internalType": "address",
          "name": "buyer",
          "type": "address"
        },
        {
          "indexed": false,
          "internalType": "uint256",
          "name": "gen",
          "type": "uint256"
        },
        {
          "indexed": false,
          "internalType": "string",
          "name": "tokenURI",
          "type": "string"
        },
        {
          "indexed": false,
          "internalType": "string",
          "name": "name",
          "type": "string"
        },
        {
          "indexed": false,
          "internalType": "bool",
          "name": "legacyCreated",
          "type": "bool"
        },
        {
          "indexed": false,
          "internalType": "uint256[]",
          "name": "parents",
          "type": "uint256[]"
        },
        {
          "indexed": false,
          "internalType": "uint256[]",
          "name": "siblings",
          "type": "uint256[]"
        },
        {
          "indexed": false,
          "internalType": "uint256",
          "name": "timestamp",
          "type": "uint256"
        }
      ],
      "name": "Purchase",
      "type": "event"
    },
    {
      "anonymous": false,
      "inputs": [
        {
          "indexed": false,
          "internalType": "uint256",
          "name": "id",
          "type": "uint256"
        },
        {
          "indexed": true,
          "internalType": "address",
          "name": "owner",
          "type": "address"
        },
        {
          "indexed": false,
          "internalType": "uint256",
          "name": "gen",
          "type": "uint256"
        },
        {
          "indexed": false,
          "internalType": "string",
          "name": "tokenURI",
          "type": "string"
        },
        {
          "indexed": false,
          "internalType": "string",
          "name": "name",
          "type": "string"
        },
        {
          "indexed": false,
          "internalType": "bool",
          "name": "legacyCreated",
          "type": "bool"
        },
        {
          "indexed": false,
          "internalType": "uint256[]",
          "name": "parents",
          "type": "uint256[]"
        },
        {
          "indexed": false,
          "internalType": "uint256[]",
          "name": "siblings",
          "type": "uint256[]"
        },
        {
          "indexed": false,
          "internalType": "uint256",
          "name": "timestamp",
          "type": "uint256"
        }
      ],
      "name": "SaleCancel",
      "type": "event"
    },
    {
      "inputs": [
        {
          "internalType": "uint256",
          "name": "",
          "type": "uint256"
        }
      ],
      "name": "acceptedOrders",
      "outputs": [
        {
          "internalType": "bool",
          "name": "",
          "type": "bool"
        }
      ],
      "stateMutability": "view",
      "type": "function",
      "constant": true
    },
    {
      "inputs": [],
      "name": "artistFeeAccount",
      "outputs": [
        {
          "internalType": "address",
          "name": "",
          "type": "address"
        }
      ],
      "stateMutability": "view",
      "type": "function",
      "constant": true
    },
    {
      "inputs": [],
      "name": "artistFeePercentage",
      "outputs": [
        {
          "internalType": "uint256",
          "name": "",
          "type": "uint256"
        }
      ],
      "stateMutability": "view",
      "type": "function",
      "constant": true
    },
    {
      "inputs": [],
      "name": "artworkCount",
      "outputs": [
        {
          "internalType": "uint256",
          "name": "",
          "type": "uint256"
        }
      ],
      "stateMutability": "view",
      "type": "function",
      "constant": true
    },
    {
      "inputs": [
        {
          "internalType": "uint256",
          "name": "",
          "type": "uint256"
        }
      ],
      "name": "artworks",
      "outputs": [
        {
          "internalType": "uint256",
          "name": "id",
          "type": "uint256"
        },
        {
          "internalType": "address",
          "name": "owner",
          "type": "address"
        },
        {
          "internalType": "uint256",
          "name": "gen",
          "type": "uint256"
        },
        {
          "internalType": "string",
          "name": "tokenURI",
          "type": "string"
        },
        {
          "internalType": "string",
          "name": "name",
          "type": "string"
        },
        {
          "internalType": "bool",
          "name": "legacyCreated",
          "type": "bool"
        },
        {
          "internalType": "uint256",
          "name": "timestamp",
          "type": "uint256"
        }
      ],
      "stateMutability": "view",
      "type": "function",
      "constant": true
    },
    {
      "inputs": [
        {
          "internalType": "address",
          "name": "",
          "type": "address"
        }
      ],
      "name": "balances",
      "outputs": [
        {
          "internalType": "uint256",
          "name": "",
          "type": "uint256"
        }
      ],
      "stateMutability": "view",
      "type": "function",
      "constant": true
    },
    {
      "inputs": [],
      "name": "baseArtPrice",
      "outputs": [
        {
          "internalType": "uint256",
          "name": "",
          "type": "uint256"
        }
      ],
      "stateMutability": "view",
      "type": "function",
      "constant": true
    },
    {
      "inputs": [
        {
          "internalType": "uint256",
          "name": "",
          "type": "uint256"
        }
      ],
      "name": "cancelledOrders",
      "outputs": [
        {
          "internalType": "bool",
          "name": "",
          "type": "bool"
        }
      ],
      "stateMutability": "view",
      "type": "function",
      "constant": true
    },
    {
      "inputs": [],
      "name": "contractFeeAccount",
      "outputs": [
        {
          "internalType": "address",
          "name": "",
          "type": "address"
        }
      ],
      "stateMutability": "view",
      "type": "function",
      "constant": true
    },
    {
      "inputs": [],
      "name": "contractFeePercentage",
      "outputs": [
        {
          "internalType": "uint256",
          "name": "",
          "type": "uint256"
        }
      ],
      "stateMutability": "view",
      "type": "function",
      "constant": true
    },
    {
      "inputs": [
        {
          "internalType": "uint256",
          "name": "",
          "type": "uint256"
        }
      ],
      "name": "filledOrders",
      "outputs": [
        {
          "internalType": "bool",
          "name": "",
          "type": "bool"
        }
      ],
      "stateMutability": "view",
      "type": "function",
      "constant": true
    },
    {
      "inputs": [],
      "name": "maxLegacies",
      "outputs": [
        {
          "internalType": "uint256",
          "name": "",
          "type": "uint256"
        }
      ],
      "stateMutability": "view",
      "type": "function",
      "constant": true
    },
    {
      "inputs": [],
      "name": "maxParents",
      "outputs": [
        {
          "internalType": "uint256",
          "name": "",
          "type": "uint256"
        }
      ],
      "stateMutability": "view",
      "type": "function",
      "constant": true
    },
    {
      "inputs": [],
      "name": "minLegacies",
      "outputs": [
        {
          "internalType": "uint256",
          "name": "",
          "type": "uint256"
        }
      ],
      "stateMutability": "view",
      "type": "function",
      "constant": true
    },
    {
      "inputs": [],
      "name": "minParents",
      "outputs": [
        {
          "internalType": "uint256",
          "name": "",
          "type": "uint256"
        }
      ],
      "stateMutability": "view",
      "type": "function",
      "constant": true
    },
    {
      "inputs": [],
      "name": "orderCount",
      "outputs": [
        {
          "internalType": "uint256",
          "name": "",
          "type": "uint256"
        }
      ],
      "stateMutability": "view",
      "type": "function",
      "constant": true
    },
    {
      "inputs": [
        {
          "internalType": "uint256",
          "name": "",
          "type": "uint256"
        }
      ],
      "name": "orders",
      "outputs": [
        {
          "internalType": "uint256",
          "name": "id",
          "type": "uint256"
        },
        {
          "internalType": "address",
          "name": "buyer",
          "type": "address"
        },
        {
          "internalType": "uint256",
          "name": "price",
          "type": "uint256"
        },
        {
          "internalType": "uint256",
          "name": "numLegacies",
          "type": "uint256"
        },
        {
          "internalType": "uint256",
          "name": "gen",
          "type": "uint256"
        },
        {
          "internalType": "uint256",
          "name": "timestamp",
          "type": "uint256"
        }
      ],
      "stateMutability": "view",
      "type": "function",
      "constant": true
    },
    {
      "inputs": [],
      "name": "owner",
      "outputs": [
        {
          "internalType": "address",
          "name": "",
          "type": "address"
        }
      ],
      "stateMutability": "view",
      "type": "function",
      "constant": true
    },
    {
      "inputs": [],
      "name": "parentMultiplierPercentage",
      "outputs": [
        {
          "internalType": "uint256",
          "name": "",
          "type": "uint256"
        }
      ],
      "stateMutability": "view",
      "type": "function",
      "constant": true
    },
    {
      "inputs": [
        {
          "internalType": "uint256",
          "name": "",
          "type": "uint256"
        }
      ],
      "name": "prices",
      "outputs": [
        {
          "internalType": "uint256",
          "name": "",
          "type": "uint256"
        }
      ],
      "stateMutability": "view",
      "type": "function",
      "constant": true
    },
    {
      "inputs": [],
      "name": "renounceOwnership",
      "outputs": [],
      "stateMutability": "nonpayable",
      "type": "function"
    },
    {
      "inputs": [],
      "name": "tokens",
      "outputs": [
        {
          "internalType": "contract Tokens",
          "name": "",
          "type": "address"
        }
      ],
      "stateMutability": "view",
      "type": "function",
      "constant": true
    },
    {
      "inputs": [
        {
          "internalType": "address",
          "name": "newOwner",
          "type": "address"
        }
      ],
      "name": "transferOwnership",
      "outputs": [],
      "stateMutability": "nonpayable",
      "type": "function"
    },
    {
      "inputs": [
        {
          "internalType": "address",
          "name": "_contractFeeAccount",
          "type": "address"
        }
      ],
      "name": "changeContractFeeAccount",
      "outputs": [],
      "stateMutability": "nonpayable",
      "type": "function"
    },
    {
      "inputs": [
        {
          "internalType": "address",
          "name": "_artistFeeAccount",
          "type": "address"
        }
      ],
      "name": "changeArtistFeeAccount",
      "outputs": [],
      "stateMutability": "nonpayable",
      "type": "function"
    },
    {
      "inputs": [
        {
          "internalType": "uint256",
          "name": "_artistFeePercentage",
          "type": "uint256"
        }
      ],
      "name": "changeArtistFeePercentage",
      "outputs": [],
      "stateMutability": "nonpayable",
      "type": "function"
    },
    {
      "inputs": [
        {
          "internalType": "uint256",
          "name": "_baseArtPrice",
          "type": "uint256"
        }
      ],
      "name": "changeBaseArtPrice",
      "outputs": [],
      "stateMutability": "nonpayable",
      "type": "function"
    },
    {
      "inputs": [
        {
          "internalType": "uint256",
          "name": "_parentMultiplierPercentage",
          "type": "uint256"
        }
      ],
      "name": "changeParentMultiplierPercentage",
      "outputs": [],
      "stateMutability": "nonpayable",
      "type": "function"
    },
    {
      "inputs": [
        {
          "internalType": "uint256",
          "name": "_minParents",
          "type": "uint256"
        }
      ],
      "name": "changeMinParents",
      "outputs": [],
      "stateMutability": "nonpayable",
      "type": "function"
    },
    {
      "inputs": [
        {
          "internalType": "uint256",
          "name": "_maxParents",
          "type": "uint256"
        }
      ],
      "name": "changeMaxParents",
      "outputs": [],
      "stateMutability": "nonpayable",
      "type": "function"
    },
    {
      "inputs": [
        {
          "internalType": "uint256",
          "name": "_minLegacies",
          "type": "uint256"
        }
      ],
      "name": "changeMinLegacies",
      "outputs": [],
      "stateMutability": "nonpayable",
      "type": "function"
    },
    {
      "inputs": [
        {
          "internalType": "uint256",
          "name": "_maxLegacies",
          "type": "uint256"
        }
      ],
      "name": "changeMaxLegacies",
      "outputs": [],
      "stateMutability": "nonpayable",
      "type": "function"
    },
    {
      "inputs": [
        {
          "internalType": "address",
          "name": "_tokensAddress",
          "type": "address"
        },
        {
          "internalType": "string",
          "name": "_tokenURI",
          "type": "string"
        },
        {
          "internalType": "string",
          "name": "_name",
          "type": "string"
        }
      ],
      "name": "createArtGen0",
      "outputs": [],
      "stateMutability": "nonpayable",
      "type": "function"
    },
    {
      "inputs": [
        {
          "internalType": "address",
          "name": "_tokensAddress",
          "type": "address"
        },
        {
          "internalType": "uint256",
          "name": "_orderID",
          "type": "uint256"
        },
        {
          "internalType": "string",
          "name": "_tokenURI",
          "type": "string"
        },
        {
          "internalType": "string",
          "name": "_name",
          "type": "string"
        },
        {
          "internalType": "uint256",
          "name": "_gen",
          "type": "uint256"
        },
        {
          "internalType": "uint256[]",
          "name": "_parents",
          "type": "uint256[]"
        },
        {
          "internalType": "uint256[]",
          "name": "_siblings",
          "type": "uint256[]"
        },
        {
          "internalType": "address",
          "name": "_buyer",
          "type": "address"
        }
      ],
      "name": "createArtFromOrder",
      "outputs": [],
      "stateMutability": "nonpayable",
      "type": "function"
    },
    {
      "inputs": [
        {
          "internalType": "address",
          "name": "_tokenAddress",
          "type": "address"
        },
        {
          "internalType": "uint256",
          "name": "_id",
          "type": "uint256"
        },
        {
          "internalType": "uint256",
          "name": "_price",
          "type": "uint256"
        }
      ],
      "name": "putUpForSale",
      "outputs": [],
      "stateMutability": "nonpayable",
      "type": "function"
    },
    {
      "inputs": [
        {
          "internalType": "uint256",
          "name": "_id",
          "type": "uint256"
        }
      ],
      "name": "cancelSale",
      "outputs": [],
      "stateMutability": "nonpayable",
      "type": "function"
    },
    {
      "inputs": [
        {
          "internalType": "address",
          "name": "_tokenAddress",
          "type": "address"
        },
        {
          "internalType": "uint256",
          "name": "_id",
          "type": "uint256"
        }
      ],
      "name": "purchase",
      "outputs": [],
      "stateMutability": "payable",
      "type": "function",
      "payable": true
    },
    {
      "inputs": [
        {
          "internalType": "uint256[]",
          "name": "_parentIDS",
          "type": "uint256[]"
        },
        {
          "internalType": "uint256",
          "name": "_numLegacies",
          "type": "uint256"
        }
      ],
      "name": "createOrder",
      "outputs": [],
      "stateMutability": "payable",
      "type": "function",
      "payable": true
    },
    {
      "inputs": [
        {
          "internalType": "uint256",
          "name": "_id",
          "type": "uint256"
        }
      ],
      "name": "acceptOrder",
      "outputs": [],
      "stateMutability": "nonpayable",
      "type": "function"
    },
    {
      "inputs": [
        {
          "internalType": "uint256",
          "name": "_id",
          "type": "uint256"
        }
      ],
      "name": "cancelOrder",
      "outputs": [],
      "stateMutability": "nonpayable",
      "type": "function"
    },
    {
      "inputs": [],
      "name": "withdrawBalance",
      "outputs": [],
      "stateMutability": "nonpayable",
      "type": "function"
    }
  ],
  "bytecode": "0x60806040523480156200001157600080fd5b5060405162004ca338038062004ca3833981810160405281019062000037919062000432565b600062000049620003fc60201b60201c565b9050806000806101000a81548173ffffffffffffffffffffffffffffffffffffffff021916908373ffffffffffffffffffffffffffffffffffffffff1602179055508073ffffffffffffffffffffffffffffffffffffffff16600073ffffffffffffffffffffffffffffffffffffffff167f8be0079c531659141344cd1fd0a4f28419497f9722a3daafe3b4186f6b6457e060405160405180910390a3506000600c819055506000600d81905550600160028190555033600360006101000a81548173ffffffffffffffffffffffffffffffffffffffff021916908373ffffffffffffffffffffffffffffffffffffffff16021790555087600560006101000a81548173ffffffffffffffffffffffffffffffffffffffff021916908373ffffffffffffffffffffffffffffffffffffffff160217905550866004819055508560068190555084600781905550836008819055508260098190555081600a8190555080600b819055507f7658ea79a138308a79efaf790e1faa92326d041116ac14108d7582d8927d862333604051620001e3919062000517565b60405180910390a17fb67233be38122c366518474e4dae8a7114c33bf0aa0c5831d9e61a978589cb02886040516200021c919062000517565b60405180910390a17f60ca92b48c6d48a68c021ff734b0098cf46d48265d838588b149221631cefd5560025460405162000257919062000534565b60405180910390a17fd893ccc11fbb06ad0b7c9111b4639fe6f31715d3d13eee8b6aba69eac4e4cb428760405162000290919062000534565b60405180910390a17ff7bb41fe9a942f8a8b4e0e70976c6b601d08828605d4e0d37032bb65c0417e3a86604051620002c9919062000534565b60405180910390a17f343c52fbb5bef9771857fe5c42c0f1e6d8c49bad05431088368efbff1271f6de8560405162000302919062000534565b60405180910390a17f4cd3751160747e6cfe3950456d596ea7aeefa8fb336ed1792f8a7a832dc79385846040516200033b919062000534565b60405180910390a17f8716afd9d9db8ea58651072558c14bbeffab5769cd1a4ee6317a77b0ebdbc86f8360405162000374919062000534565b60405180910390a17f761a7db8d7cedddf18cc620d1e937eb8d70309bc674d35275fb9432059324e9782604051620003ad919062000534565b60405180910390a17f703a6e785abfff48f61400577bb93dc582bce65968a713aba8727697867b76b981604051620003e6919062000534565b60405180910390a15050505050505050620005c3565b600033905090565b60008151905062000415816200058f565b92915050565b6000815190506200042c81620005a9565b92915050565b600080600080600080600080610100898b0312156200045057600080fd5b6000620004608b828c0162000404565b9850506020620004738b828c016200041b565b9750506040620004868b828c016200041b565b9650506060620004998b828c016200041b565b9550506080620004ac8b828c016200041b565b94505060a0620004bf8b828c016200041b565b93505060c0620004d28b828c016200041b565b92505060e0620004e58b828c016200041b565b9150509295985092959890939650565b620005008162000551565b82525050565b620005118162000585565b82525050565b60006020820190506200052e6000830184620004f5565b92915050565b60006020820190506200054b600083018462000506565b92915050565b60006200055e8262000565565b9050919050565b600073ffffffffffffffffffffffffffffffffffffffff82169050919050565b6000819050919050565b6200059a8162000551565b8114620005a657600080fd5b50565b620005b48162000585565b8114620005c057600080fd5b50565b6146d080620005d36000396000f3fe6080604052600436106102465760003560e01c806392bfdccb11610139578063bd94b005116100b6578063dbd8987c1161007a578063dbd8987c14610855578063e51fe66314610880578063ef18e9ed146108a9578063f2fde38b146108d2578063fc3fa70f146108fb578063feb216991461092657610246565b8063bd94b00514610784578063c283e7eb146107ad578063c4a3df10146107d6578063ccfc1fc914610801578063d45fc36b1461082c57610246565b8063a85c38ef116100fd578063a85c38ef14610676578063af773709146106b8578063ba1c2a16146106e1578063bc15e6011461070a578063bc31c1c11461074757610246565b806392bfdccb1461058f57806395d4b2df146105ba5780639d63848a146105f75780639e029fbc14610622578063a08764451461064b57610246565b80636257dcc5116101c7578063808b0a041161018b578063808b0a04146104c9578063873775ad146104f45780638a29d0e41461051d5780638da5cb5b146105485780638de932221461057357610246565b80636257dcc51461040e57806363111b651461043757806369edcd5b14610460578063715018a61461048957806372fbb390146104a057610246565b80633c00a96a1161020e5780633c00a96a146103445780634b60267314610360578063514fcac7146103a35780635c717fb8146103cc5780635fd8c710146103f757610246565b806316eea7d51461024b5780632453ffa81461028857806327e235e3146102b35780632a80805b146102f05780632f12616d14610319575b600080fd5b34801561025757600080fd5b50610272600480360381019061026d9190613995565b610951565b60405161027f9190613d0b565b60405180910390f35b34801561029457600080fd5b5061029d610971565b6040516102aa9190613d81565b60405180910390f35b3480156102bf57600080fd5b506102da60048036038101906102d591906136d3565b610977565b6040516102e79190613d81565b60405180910390f35b3480156102fc57600080fd5b5061031760048036038101906103129190613995565b61098f565b005b34801561032557600080fd5b5061032e610a45565b60405161033b9190613d81565b60405180910390f35b61035e60048036038101906103599190613918565b610a4b565b005b34801561036c57600080fd5b5061038760048036038101906103829190613995565b610fb3565b60405161039a9796959493929190613d9c565b60405180910390f35b3480156103af57600080fd5b506103ca60048036038101906103c59190613995565b611132565b005b3480156103d857600080fd5b506103e161137e565b6040516103ee9190613c52565b60405180910390f35b34801561040357600080fd5b5061040c6113a4565b005b34801561041a57600080fd5b5061043560048036038101906104309190613995565b6114c3565b005b34801561044357600080fd5b5061045e60048036038101906104599190613995565b61156d565b005b34801561046c57600080fd5b50610487600480360381019061048291906136d3565b611617565b005b34801561049557600080fd5b5061049e61170e565b005b3480156104ac57600080fd5b506104c760048036038101906104c291906136fc565b611848565b005b3480156104d557600080fd5b506104de611b48565b6040516104eb9190613d81565b60405180910390f35b34801561050057600080fd5b5061051b60048036038101906105169190613995565b611b4e565b005b34801561052957600080fd5b50610532611c02565b60405161053f9190613c52565b60405180910390f35b34801561055457600080fd5b5061055d611c28565b60405161056a9190613c52565b60405180910390f35b61058d6004803603810190610588919061377b565b611c51565b005b34801561059b57600080fd5b506105a4612424565b6040516105b19190613d81565b60405180910390f35b3480156105c657600080fd5b506105e160048036038101906105dc9190613995565b61242a565b6040516105ee9190613d0b565b60405180910390f35b34801561060357600080fd5b5061060c61244a565b6040516106199190613d26565b60405180910390f35b34801561062e57600080fd5b5061064960048036038101906106449190613995565b612470565b005b34801561065757600080fd5b5061066061250b565b60405161066d9190613d81565b60405180910390f35b34801561068257600080fd5b5061069d60048036038101906106989190613995565b612511565b6040516106af96959493929190613e19565b60405180910390f35b3480156106c457600080fd5b506106df60048036038101906106da91906136d3565b61256d565b005b3480156106ed57600080fd5b5061070860048036038101906107039190613995565b612642565b005b34801561071657600080fd5b50610731600480360381019061072c9190613995565b6126f6565b60405161073e9190613d0b565b60405180910390f35b34801561075357600080fd5b5061076e60048036038101906107699190613995565b612716565b60405161077b9190613d81565b60405180910390f35b34801561079057600080fd5b506107ab60048036038101906107a69190613995565b61272e565b005b3480156107b957600080fd5b506107d460048036038101906107cf91906138c9565b61286f565b005b3480156107e257600080fd5b506107eb612a47565b6040516107f89190613d81565b60405180910390f35b34801561080d57600080fd5b50610816612a4d565b6040516108239190613d81565b60405180910390f35b34801561083857600080fd5b50610853600480360381019061084e9190613995565b612a53565b005b34801561086157600080fd5b5061086a612b09565b6040516108779190613d81565b60405180910390f35b34801561088c57600080fd5b506108a760048036038101906108a291906137b7565b612b0f565b005b3480156108b557600080fd5b506108d060048036038101906108cb9190613995565b6130f4565b005b3480156108de57600080fd5b506108f960048036038101906108f491906136d3565b613291565b005b34801561090757600080fd5b5061091061343a565b60405161091d9190613d81565b60405180910390f35b34801561093257600080fd5b5061093b613440565b6040516109489190613d81565b60405180910390f35b60146020528060005260406000206000915054906101000a900460ff1681565b600d5481565b60116020528060005260406000206000915090505481565b600560009054906101000a900473ffffffffffffffffffffffffffffffffffffffff1673ffffffffffffffffffffffffffffffffffffffff163373ffffffffffffffffffffffffffffffffffffffff16146109e957600080fd5b6000811180156109fb57506009548111155b610a0457600080fd5b806008819055507f4cd3751160747e6cfe3950456d596ea7aeefa8fb336ed1792f8a7a832dc7938581604051610a3a9190613d81565b60405180910390a150565b600a5481565b6000825190506008548110158015610a6557506009548111155b610a6e57600080fd5b600a548210158015610a825750600b548211155b610a8b57600080fd5b6000600d54905060006001905060005b83811015610c1c573373ffffffffffffffffffffffffffffffffffffffff16600e6000888481518110610af7577f4e487b7100000000000000000000000000000000000000000000000000000000600052603260045260246000fd5b6020026020010151815260200190815260200160002060010160009054906101000a900473ffffffffffffffffffffffffffffffffffffffff1673ffffffffffffffffffffffffffffffffffffffff1614610b5157600080fd5b81600e6000888481518110610b8f577f4e487b7100000000000000000000000000000000000000000000000000000000600052603260045260246000fd5b60200260200101518152602001908152602001600020600201541115610c0957600e6000878381518110610bec577f4e487b7100000000000000000000000000000000000000000000000000000000600052603260045260246000fd5b602002602001015181526020019081526020016000206002015491505b8080610c149061451f565b915050610a9b565b506000610c6d6064610c5f86610c51600754610c438b60065461344690919063ffffffff16565b61344690919063ffffffff16565b61344690919063ffffffff16565b61345c90919063ffffffff16565b600654610c7a91906142f4565b905060008111610c8957600080fd5b6000610cb36064610ca56002548561344690919063ffffffff16565b61345c90919063ffffffff16565b9050610cc8818361347290919063ffffffff16565b3414610cd357600080fd5b6040518060e001604052808581526020013373ffffffffffffffffffffffffffffffffffffffff16815260200183815260200188815260200187815260200184815260200142815250600f60008681526020019081526020016000206000820151816000015560208201518160010160006101000a81548173ffffffffffffffffffffffffffffffffffffffff021916908373ffffffffffffffffffffffffffffffffffffffff160217905550604082015181600201556060820151816003019080519060200190610da69291906134a6565b506080820151816004015560a0820151816005015560c08201518160060155905050610e1a82601160003073ffffffffffffffffffffffffffffffffffffffff1673ffffffffffffffffffffffffffffffffffffffff1681526020019081526020016000205461347290919063ffffffff16565b601160003073ffffffffffffffffffffffffffffffffffffffff1673ffffffffffffffffffffffffffffffffffffffff16815260200190815260200160002081905550610ed18160116000600360009054906101000a900473ffffffffffffffffffffffffffffffffffffffff1673ffffffffffffffffffffffffffffffffffffffff1673ffffffffffffffffffffffffffffffffffffffff1681526020019081526020016000205461347290919063ffffffff16565b60116000600360009054906101000a900473ffffffffffffffffffffffffffffffffffffffff1673ffffffffffffffffffffffffffffffffffffffff1673ffffffffffffffffffffffffffffffffffffffff16815260200190815260200160002081905550610f4c6001600d5461347290919063ffffffff16565b600d819055503373ffffffffffffffffffffffffffffffffffffffff167fea6d3114e11168d7162e8537e39f28a853c350c9980461aa095181b2c172a2d085848a8a8842604051610fa296959493929190613f14565b60405180910390a250505050505050565b600e6020528060005260406000206000915090508060000154908060010160009054906101000a900473ffffffffffffffffffffffffffffffffffffffff1690806002015490806003018054611008906144d3565b80601f0160208091040260200160405190810160405280929190818152602001828054611034906144d3565b80156110815780601f1061105657610100808354040283529160200191611081565b820191906000526020600020905b81548152906001019060200180831161106457829003601f168201915b505050505090806004018054611096906144d3565b80601f01602080910402602001604051908101604052809291908181526020018280546110c2906144d3565b801561110f5780601f106110e45761010080835404028352916020019161110f565b820191906000526020600020905b8154815290600101906020018083116110f257829003601f168201915b5050505050908060050160009054906101000a900460ff16908060080154905087565b6000600f600083815260200190815260200160002090508181600001541461115957600080fd5b8060010160009054906101000a900473ffffffffffffffffffffffffffffffffffffffff1673ffffffffffffffffffffffffffffffffffffffff163373ffffffffffffffffffffffffffffffffffffffff16146111b557600080fd5b60016013600084815260200190815260200160002060006101000a81548160ff0219169083151502179055506112378160020154601160003373ffffffffffffffffffffffffffffffffffffffff1673ffffffffffffffffffffffffffffffffffffffff1681526020019081526020016000205461347290919063ffffffff16565b601160003373ffffffffffffffffffffffffffffffffffffffff1673ffffffffffffffffffffffffffffffffffffffff168152602001908152602001600020819055506112d08160020154601160003073ffffffffffffffffffffffffffffffffffffffff1673ffffffffffffffffffffffffffffffffffffffff1681526020019081526020016000205461348890919063ffffffff16565b601160003073ffffffffffffffffffffffffffffffffffffffff1673ffffffffffffffffffffffffffffffffffffffff168152602001908152602001600020819055503373ffffffffffffffffffffffffffffffffffffffff167f057fa5c8af6f0d3dfedc67d0489c48dc8cd5dd00db429b88dc62a32c503bc85a83836002015484600301856004015486600501544260405161137296959493929190613f7c565b60405180910390a25050565b600560009054906101000a900473ffffffffffffffffffffffffffffffffffffffff1681565b60003390506000601160008373ffffffffffffffffffffffffffffffffffffffff1673ffffffffffffffffffffffffffffffffffffffff16815260200190815260200160002054116113f557600080fd5b6000601160008373ffffffffffffffffffffffffffffffffffffffff1673ffffffffffffffffffffffffffffffffffffffff168152602001908152602001600020819055508073ffffffffffffffffffffffffffffffffffffffff166108fc601160008473ffffffffffffffffffffffffffffffffffffffff1673ffffffffffffffffffffffffffffffffffffffff168152602001908152602001600020549081150290604051600060405180830381858888f193505050501580156114bf573d6000803e3d6000fd5b5050565b600560009054906101000a900473ffffffffffffffffffffffffffffffffffffffff1673ffffffffffffffffffffffffffffffffffffffff163373ffffffffffffffffffffffffffffffffffffffff161461151d57600080fd5b600a5481101561152c57600080fd5b80600b819055507f703a6e785abfff48f61400577bb93dc582bce65968a713aba8727697867b76b9816040516115629190613d81565b60405180910390a150565b600560009054906101000a900473ffffffffffffffffffffffffffffffffffffffff1673ffffffffffffffffffffffffffffffffffffffff163373ffffffffffffffffffffffffffffffffffffffff16146115c757600080fd5b6008548110156115d657600080fd5b806009819055507f8716afd9d9db8ea58651072558c14bbeffab5769cd1a4ee6317a77b0ebdbc86f8160405161160c9190613d81565b60405180910390a150565b61161f61349e565b73ffffffffffffffffffffffffffffffffffffffff1661163d611c28565b73ffffffffffffffffffffffffffffffffffffffff1614611693576040517f08c379a000000000000000000000000000000000000000000000000000000000815260040161168a90613d61565b60405180910390fd5b80600360006101000a81548173ffffffffffffffffffffffffffffffffffffffff021916908373ffffffffffffffffffffffffffffffffffffffff1602179055507f7658ea79a138308a79efaf790e1faa92326d041116ac14108d7582d8927d8623816040516117039190613c52565b60405180910390a150565b61171661349e565b73ffffffffffffffffffffffffffffffffffffffff16611734611c28565b73ffffffffffffffffffffffffffffffffffffffff161461178a576040517f08c379a000000000000000000000000000000000000000000000000000000000815260040161178190613d61565b60405180910390fd5b600073ffffffffffffffffffffffffffffffffffffffff1660008054906101000a900473ffffffffffffffffffffffffffffffffffffffff1673ffffffffffffffffffffffffffffffffffffffff167f8be0079c531659141344cd1fd0a4f28419497f9722a3daafe3b4186f6b6457e060405160405180910390a360008060006101000a81548173ffffffffffffffffffffffffffffffffffffffff021916908373ffffffffffffffffffffffffffffffffffffffff160217905550565b600560009054906101000a900473ffffffffffffffffffffffffffffffffffffffff1673ffffffffffffffffffffffffffffffffffffffff163373ffffffffffffffffffffffffffffffffffffffff16146118a257600080fd5b6000600c54905060606040518061012001604052808381526020013373ffffffffffffffffffffffffffffffffffffffff1681526020016000815260200185815260200184815260200160001515815260200182815260200182815260200142815250600e60008481526020019081526020016000206000820151816000015560208201518160010160006101000a81548173ffffffffffffffffffffffffffffffffffffffff021916908373ffffffffffffffffffffffffffffffffffffffff16021790555060408201518160020155606082015181600301908051906020019061198f9291906134f3565b5060808201518160040190805190602001906119ac9291906134f3565b5060a08201518160050160006101000a81548160ff02191690831515021790555060c08201518160060190805190602001906119e99291906134a6565b5060e0820151816007019080519060200190611a069291906134a6565b506101008201518160080155905050611a2b6001600c5461347290919063ffffffff16565b600c8190555060065460106000848152602001908152602001600020819055508473ffffffffffffffffffffffffffffffffffffffff16635c21bc2c3384876040518463ffffffff1660e01b8152600401611a8893929190613ccd565b602060405180830381600087803b158015611aa257600080fd5b505af1158015611ab6573d6000803e3d6000fd5b505050506040513d601f19601f82011682018060405250810190611ada919061396c565b611ae357600080fd5b3373ffffffffffffffffffffffffffffffffffffffff167f1e7f38031edb2943238e446365befdb2745df92bdaed635ef33635dc09ee590483600087876000878842604051611b39989796959493929190613e7a565b60405180910390a25050505050565b60085481565b600560009054906101000a900473ffffffffffffffffffffffffffffffffffffffff1673ffffffffffffffffffffffffffffffffffffffff163373ffffffffffffffffffffffffffffffffffffffff1614611ba857600080fd5b600081118015611bb85750606481105b611bc157600080fd5b806007819055507f343c52fbb5bef9771857fe5c42c0f1e6d8c49bad05431088368efbff1271f6de81604051611bf79190613d81565b60405180910390a150565b600360009054906101000a900473ffffffffffffffffffffffffffffffffffffffff1681565b60008060009054906101000a900473ffffffffffffffffffffffffffffffffffffffff16905090565b6000600e6000838152602001908152602001600020905081816000015414611c7857600080fd5b8060010160009054906101000a900473ffffffffffffffffffffffffffffffffffffffff1673ffffffffffffffffffffffffffffffffffffffff163373ffffffffffffffffffffffffffffffffffffffff161415611cd557600080fd5b60006010600084815260200190815260200160002054905060008111611cfa57600080fd5b6000806000611d276064611d196002548761344690919063ffffffff16565b61345c90919063ffffffff16565b9050600560009054906101000a900473ffffffffffffffffffffffffffffffffffffffff1673ffffffffffffffffffffffffffffffffffffffff168560010160009054906101000a900473ffffffffffffffffffffffffffffffffffffffff1673ffffffffffffffffffffffffffffffffffffffff161415611f7357611db6818561347290919063ffffffff16565b9250611e2e84601160008860010160009054906101000a900473ffffffffffffffffffffffffffffffffffffffff1673ffffffffffffffffffffffffffffffffffffffff1673ffffffffffffffffffffffffffffffffffffffff1681526020019081526020016000205461347290919063ffffffff16565b601160008760010160009054906101000a900473ffffffffffffffffffffffffffffffffffffffff1673ffffffffffffffffffffffffffffffffffffffff1673ffffffffffffffffffffffffffffffffffffffff16815260200190815260200160002081905550611f098160116000600360009054906101000a900473ffffffffffffffffffffffffffffffffffffffff1673ffffffffffffffffffffffffffffffffffffffff1673ffffffffffffffffffffffffffffffffffffffff1681526020019081526020016000205461347290919063ffffffff16565b60116000600360009054906101000a900473ffffffffffffffffffffffffffffffffffffffff1673ffffffffffffffffffffffffffffffffffffffff1673ffffffffffffffffffffffffffffffffffffffff16815260200190815260200160002081905550612254565b611f9b6064611f8d6004548761344690919063ffffffff16565b61345c90919063ffffffff16565b9150611fc281611fb4848761347290919063ffffffff16565b61347290919063ffffffff16565b925061203a84601160008860010160009054906101000a900473ffffffffffffffffffffffffffffffffffffffff1673ffffffffffffffffffffffffffffffffffffffff1673ffffffffffffffffffffffffffffffffffffffff1681526020019081526020016000205461347290919063ffffffff16565b601160008760010160009054906101000a900473ffffffffffffffffffffffffffffffffffffffff1673ffffffffffffffffffffffffffffffffffffffff1673ffffffffffffffffffffffffffffffffffffffff168152602001908152602001600020819055506121158260116000600560009054906101000a900473ffffffffffffffffffffffffffffffffffffffff1673ffffffffffffffffffffffffffffffffffffffff1673ffffffffffffffffffffffffffffffffffffffff1681526020019081526020016000205461347290919063ffffffff16565b60116000600560009054906101000a900473ffffffffffffffffffffffffffffffffffffffff1673ffffffffffffffffffffffffffffffffffffffff1673ffffffffffffffffffffffffffffffffffffffff168152602001908152602001600020819055506121ee8160116000600360009054906101000a900473ffffffffffffffffffffffffffffffffffffffff1673ffffffffffffffffffffffffffffffffffffffff1673ffffffffffffffffffffffffffffffffffffffff1681526020019081526020016000205461347290919063ffffffff16565b60116000600360009054906101000a900473ffffffffffffffffffffffffffffffffffffffff1673ffffffffffffffffffffffffffffffffffffffff1673ffffffffffffffffffffffffffffffffffffffff168152602001908152602001600020819055505b82341461226057600080fd5b600060106000888152602001908152602001600020819055508673ffffffffffffffffffffffffffffffffffffffff1663f5537ede8660010160009054906101000a900473ffffffffffffffffffffffffffffffffffffffff1633896040518463ffffffff1660e01b81526004016122da93929190613c96565b602060405180830381600087803b1580156122f457600080fd5b505af1158015612308573d6000803e3d6000fd5b505050506040513d601f19601f8201168201806040525081019061232c919061396c565b61233557600080fd5b338560010160006101000a81548173ffffffffffffffffffffffffffffffffffffffff021916908373ffffffffffffffffffffffffffffffffffffffff1602179055508460010160009054906101000a900473ffffffffffffffffffffffffffffffffffffffff1673ffffffffffffffffffffffffffffffffffffffff167fae3104c9b49cc06ceac7a185673d2db9c5ddf4b4f4ec68656c50a1b111f7969587868860020154896003018a6004018b60050160009054906101000a900460ff168c6006018d6007014260405161241399989796959493929190614127565b60405180910390a250505050505050565b60045481565b60126020528060005260406000206000915054906101000a900460ff1681565b600160009054906101000a900473ffffffffffffffffffffffffffffffffffffffff1681565b600560009054906101000a900473ffffffffffffffffffffffffffffffffffffffff1673ffffffffffffffffffffffffffffffffffffffff163373ffffffffffffffffffffffffffffffffffffffff16146124ca57600080fd5b806006819055507ff7bb41fe9a942f8a8b4e0e70976c6b601d08828605d4e0d37032bb65c0417e3a816040516125009190613d81565b60405180910390a150565b600c5481565b600f6020528060005260406000206000915090508060000154908060010160009054906101000a900473ffffffffffffffffffffffffffffffffffffffff16908060020154908060040154908060050154908060060154905086565b600560009054906101000a900473ffffffffffffffffffffffffffffffffffffffff1673ffffffffffffffffffffffffffffffffffffffff163373ffffffffffffffffffffffffffffffffffffffff16146125c757600080fd5b80600560006101000a81548173ffffffffffffffffffffffffffffffffffffffff021916908373ffffffffffffffffffffffffffffffffffffffff1602179055507fb67233be38122c366518474e4dae8a7114c33bf0aa0c5831d9e61a978589cb02816040516126379190613c52565b60405180910390a150565b600560009054906101000a900473ffffffffffffffffffffffffffffffffffffffff1673ffffffffffffffffffffffffffffffffffffffff163373ffffffffffffffffffffffffffffffffffffffff161461269c57600080fd5b6000811180156126ac5750606481105b6126b557600080fd5b806004819055507fd893ccc11fbb06ad0b7c9111b4639fe6f31715d3d13eee8b6aba69eac4e4cb42816040516126eb9190613d81565b60405180910390a150565b60136020528060005260406000206000915054906101000a900460ff1681565b60106020528060005260406000206000915090505481565b6000600e600083815260200190815260200160002090508181600001541461275557600080fd5b8060010160009054906101000a900473ffffffffffffffffffffffffffffffffffffffff1673ffffffffffffffffffffffffffffffffffffffff163373ffffffffffffffffffffffffffffffffffffffff16146127b157600080fd5b600060106000848152602001908152602001600020819055508060010160009054906101000a900473ffffffffffffffffffffffffffffffffffffffff1673ffffffffffffffffffffffffffffffffffffffff167f8d88929a4426088e764ca239c69f4e9364f3fde0af94b28371f9ff4c5e566bf683836002015484600301856004018660050160009054906101000a900460ff16876006018860070142604051612863989796959493929190613fe4565b60405180910390a25050565b6000600e600084815260200190815260200160002090508281600001541461289657600080fd5b8060010160009054906101000a900473ffffffffffffffffffffffffffffffffffffffff1673ffffffffffffffffffffffffffffffffffffffff163373ffffffffffffffffffffffffffffffffffffffff16146128f257600080fd5b8160106000858152602001908152602001600020819055508373ffffffffffffffffffffffffffffffffffffffff1663e985e9c533306040518363ffffffff1660e01b8152600401612945929190613c6d565b60206040518083038186803b15801561295d57600080fd5b505afa158015612971573d6000803e3d6000fd5b505050506040513d601f19601f82011682018060405250810190612995919061396c565b61299e57600080fd5b8060010160009054906101000a900473ffffffffffffffffffffffffffffffffffffffff1673ffffffffffffffffffffffffffffffffffffffff167f7d8ccee44f815e95b2e5674820d34366f7802106110ff5fa34c022f7d2ac8a068484846002015485600301866004018760050160009054906101000a900460ff16886006018960070142604051612a3999989796959493929190614127565b60405180910390a250505050565b60095481565b60065481565b600560009054906101000a900473ffffffffffffffffffffffffffffffffffffffff1673ffffffffffffffffffffffffffffffffffffffff163373ffffffffffffffffffffffffffffffffffffffff1614612aad57600080fd5b600081118015612abf5750600b548111155b612ac857600080fd5b80600a819055507f761a7db8d7cedddf18cc620d1e937eb8d70309bc674d35275fb9432059324e9781604051612afe9190613d81565b60405180910390a150565b60025481565b600560009054906101000a900473ffffffffffffffffffffffffffffffffffffffff1673ffffffffffffffffffffffffffffffffffffffff163373ffffffffffffffffffffffffffffffffffffffff1614612b6957600080fd5b6000600f6000898152602001908152602001600020905087816000015414612b9057600080fd5b60011515601260008a815260200190815260200160002060009054906101000a900460ff16151514612bc157600080fd5b6000600c5490506040518061012001604052808281526020018473ffffffffffffffffffffffffffffffffffffffff16815260200187815260200189815260200188815260200160001515815260200186815260200185815260200142815250600e60008381526020019081526020016000206000820151816000015560208201518160010160006101000a81548173ffffffffffffffffffffffffffffffffffffffff021916908373ffffffffffffffffffffffffffffffffffffffff160217905550604082015181600201556060820151816003019080519060200190612cab9291906134f3565b506080820151816004019080519060200190612cc89291906134f3565b5060a08201518160050160006101000a81548160ff02191690831515021790555060c0820151816006019080519060200190612d059291906134a6565b5060e0820151816007019080519060200190612d229291906134a6565b5061010082015181600801559050506001601460008b815260200190815260200160002060006101000a81548160ff021916908315150217905550612d736001600c5461347290919063ffffffff16565b600c8190555060005b8551811015612e785760001515600e6000888481518110612dc6577f4e487b7100000000000000000000000000000000000000000000000000000000600052603260045260246000fd5b6020026020010151815260200190815260200160002060050160009054906101000a900460ff1615151415612e65576001600e6000888481518110612e34577f4e487b7100000000000000000000000000000000000000000000000000000000600052603260045260246000fd5b6020026020010151815260200190815260200160002060050160006101000a81548160ff0219169083151502179055505b8080612e709061451f565b915050612d7c565b50600082600201549050612ef68160116000600560009054906101000a900473ffffffffffffffffffffffffffffffffffffffff1673ffffffffffffffffffffffffffffffffffffffff1673ffffffffffffffffffffffffffffffffffffffff1681526020019081526020016000205461347290919063ffffffff16565b60116000600560009054906101000a900473ffffffffffffffffffffffffffffffffffffffff1673ffffffffffffffffffffffffffffffffffffffff1673ffffffffffffffffffffffffffffffffffffffff16815260200190815260200160002081905550612fad81601160003073ffffffffffffffffffffffffffffffffffffffff1673ffffffffffffffffffffffffffffffffffffffff1681526020019081526020016000205461348890919063ffffffff16565b601160003073ffffffffffffffffffffffffffffffffffffffff1673ffffffffffffffffffffffffffffffffffffffff168152602001908152602001600020819055508a73ffffffffffffffffffffffffffffffffffffffff16635c21bc2c85848c6040518463ffffffff1660e01b815260040161302d93929190613ccd565b602060405180830381600087803b15801561304757600080fd5b505af115801561305b573d6000803e3d6000fd5b505050506040513d601f19601f8201168201806040525081019061307f919061396c565b61308857600080fd5b3373ffffffffffffffffffffffffffffffffffffffff167f81b940d420a6c43bca1faff62c3c9e6b8d6948948d59d08586c3ab0875d464b1838c8a8d8d60008d8d426040516130df9998979695949392919061407e565b60405180910390a25050505050505050505050565b600560009054906101000a900473ffffffffffffffffffffffffffffffffffffffff1673ffffffffffffffffffffffffffffffffffffffff163373ffffffffffffffffffffffffffffffffffffffff161461314e57600080fd5b6000600f600083815260200190815260200160002090508181600001541461317557600080fd5b600015156013600084815260200190815260200160002060009054906101000a900460ff1615151480156131cd5750600015156014600084815260200190815260200160002060009054906101000a900460ff161515145b6131d657600080fd5b60016012600084815260200190815260200160002060006101000a81548160ff0219169083151502179055508060010160009054906101000a900473ffffffffffffffffffffffffffffffffffffffff1673ffffffffffffffffffffffffffffffffffffffff167f30a8ec127d500fd2ce70a37e1e9f8b83679d53e1148ce5a68bc4c43c1de8cc0283836002015484600301856004015486600501544260405161328596959493929190613f7c565b60405180910390a25050565b61329961349e565b73ffffffffffffffffffffffffffffffffffffffff166132b7611c28565b73ffffffffffffffffffffffffffffffffffffffff161461330d576040517f08c379a000000000000000000000000000000000000000000000000000000000815260040161330490613d61565b60405180910390fd5b600073ffffffffffffffffffffffffffffffffffffffff168173ffffffffffffffffffffffffffffffffffffffff16141561337d576040517f08c379a000000000000000000000000000000000000000000000000000000000815260040161337490613d41565b60405180910390fd5b8073ffffffffffffffffffffffffffffffffffffffff1660008054906101000a900473ffffffffffffffffffffffffffffffffffffffff1673ffffffffffffffffffffffffffffffffffffffff167f8be0079c531659141344cd1fd0a4f28419497f9722a3daafe3b4186f6b6457e060405160405180910390a3806000806101000a81548173ffffffffffffffffffffffffffffffffffffffff021916908373ffffffffffffffffffffffffffffffffffffffff16021790555050565b600b5481565b60075481565b60008183613454919061437b565b905092915050565b6000818361346a919061434a565b905092915050565b6000818361348091906142f4565b905092915050565b6000818361349691906143d5565b905092915050565b600033905090565b8280548282559060005260206000209081019282156134e2579160200282015b828111156134e15782518255916020019190600101906134c6565b5b5090506134ef9190613579565b5090565b8280546134ff906144d3565b90600052602060002090601f0160209004810192826135215760008555613568565b82601f1061353a57805160ff1916838001178555613568565b82800160010185558215613568579182015b8281111561356757825182559160200191906001019061354c565b5b5090506135759190613579565b5090565b5b8082111561359257600081600090555060010161357a565b5090565b60006135a96135a484614201565b6141d0565b905080838252602082019050828560208602820111156135c857600080fd5b60005b858110156135f857816135de88826136be565b8452602084019350602083019250506001810190506135cb565b5050509392505050565b60006136156136108461422d565b6141d0565b90508281526020810184848401111561362d57600080fd5b613638848285614491565b509392505050565b60008135905061364f81614655565b92915050565b600082601f83011261366657600080fd5b8135613676848260208601613596565b91505092915050565b60008151905061368e8161466c565b92915050565b600082601f8301126136a557600080fd5b81356136b5848260208601613602565b91505092915050565b6000813590506136cd81614683565b92915050565b6000602082840312156136e557600080fd5b60006136f384828501613640565b91505092915050565b60008060006060848603121561371157600080fd5b600061371f86828701613640565b935050602084013567ffffffffffffffff81111561373c57600080fd5b61374886828701613694565b925050604084013567ffffffffffffffff81111561376557600080fd5b61377186828701613694565b9150509250925092565b6000806040838503121561378e57600080fd5b600061379c85828601613640565b92505060206137ad858286016136be565b9150509250929050565b600080600080600080600080610100898b0312156137d457600080fd5b60006137e28b828c01613640565b98505060206137f38b828c016136be565b975050604089013567ffffffffffffffff81111561381057600080fd5b61381c8b828c01613694565b965050606089013567ffffffffffffffff81111561383957600080fd5b6138458b828c01613694565b95505060806138568b828c016136be565b94505060a089013567ffffffffffffffff81111561387357600080fd5b61387f8b828c01613655565b93505060c089013567ffffffffffffffff81111561389c57600080fd5b6138a88b828c01613655565b92505060e06138b98b828c01613640565b9150509295985092959890939650565b6000806000606084860312156138de57600080fd5b60006138ec86828701613640565b93505060206138fd868287016136be565b925050604061390e868287016136be565b9150509250925092565b6000806040838503121561392b57600080fd5b600083013567ffffffffffffffff81111561394557600080fd5b61395185828601613655565b9250506020613962858286016136be565b9150509250929050565b60006020828403121561397e57600080fd5b600061398c8482850161367f565b91505092915050565b6000602082840312156139a757600080fd5b60006139b5848285016136be565b91505092915050565b60006139ca8383613c34565b60208301905092915050565b6139df81614413565b82525050565b60006139f082614297565b6139fa81856142d2565b9350613a058361425d565b8060005b83811015613a36578151613a1d88826139be565b9750613a28836142b8565b925050600181019050613a09565b5085935050505092915050565b6000613a4e826142a2565b613a5881856142d2565b9350613a638361426d565b8060005b83811015613a9b57613a7882614624565b613a8288826139be565b9750613a8d836142c5565b925050600181019050613a67565b5085935050505092915050565b613ab181614425565b82525050565b613ac08161445b565b82525050565b613acf8161447f565b82525050565b6000613ae0826142ad565b613aea81856142e3565b9350613afa8185602086016144a0565b613b0381614637565b840191505092915050565b60008154613b1b816144d3565b613b2581866142e3565b94506001821660008114613b405760018114613b5257613b85565b60ff1983168652602086019350613b85565b613b5b85614282565b60005b83811015613b7d57815481890152600182019150602081019050613b5e565b808801955050505b50505092915050565b6000613b9b6026836142e3565b91507f4f776e61626c653a206e6577206f776e657220697320746865207a65726f206160008301527f64647265737300000000000000000000000000000000000000000000000000006020830152604082019050919050565b6000613c016020836142e3565b91507f4f776e61626c653a2063616c6c6572206973206e6f7420746865206f776e65726000830152602082019050919050565b613c3d81614451565b82525050565b613c4c81614451565b82525050565b6000602082019050613c6760008301846139d6565b92915050565b6000604082019050613c8260008301856139d6565b613c8f60208301846139d6565b9392505050565b6000606082019050613cab60008301866139d6565b613cb860208301856139d6565b613cc56040830184613c43565b949350505050565b6000606082019050613ce260008301866139d6565b613cef6020830185613c43565b8181036040830152613d018184613ad5565b9050949350505050565b6000602082019050613d206000830184613aa8565b92915050565b6000602082019050613d3b6000830184613ab7565b92915050565b60006020820190508181036000830152613d5a81613b8e565b9050919050565b60006020820190508181036000830152613d7a81613bf4565b9050919050565b6000602082019050613d966000830184613c43565b92915050565b600060e082019050613db1600083018a613c43565b613dbe60208301896139d6565b613dcb6040830188613c43565b8181036060830152613ddd8187613ad5565b90508181036080830152613df18186613ad5565b9050613e0060a0830185613aa8565b613e0d60c0830184613c43565b98975050505050505050565b600060c082019050613e2e6000830189613c43565b613e3b60208301886139d6565b613e486040830187613c43565b613e556060830186613c43565b613e626080830185613c43565b613e6f60a0830184613c43565b979650505050505050565b600061010082019050613e90600083018b613c43565b613e9d602083018a613ac6565b8181036040830152613eaf8189613ad5565b90508181036060830152613ec38188613ad5565b9050613ed26080830187613aa8565b81810360a0830152613ee481866139e5565b905081810360c0830152613ef881856139e5565b9050613f0760e0830184613c43565b9998505050505050505050565b600060c082019050613f296000830189613c43565b613f366020830188613c43565b8181036040830152613f4881876139e5565b9050613f576060830186613c43565b613f646080830185613c43565b613f7160a0830184613c43565b979650505050505050565b600060c082019050613f916000830189613c43565b613f9e6020830188613c43565b8181036040830152613fb08187613a43565b9050613fbf6060830186613c43565b613fcc6080830185613c43565b613fd960a0830184613c43565b979650505050505050565b600061010082019050613ffa600083018b613c43565b614007602083018a613c43565b81810360408301526140198189613b0e565b9050818103606083015261402d8188613b0e565b905061403c6080830187613aa8565b81810360a083015261404e8186613a43565b905081810360c08301526140628185613a43565b905061407160e0830184613c43565b9998505050505050505050565b600061012082019050614094600083018c613c43565b6140a1602083018b613c43565b6140ae604083018a613c43565b81810360608301526140c08189613ad5565b905081810360808301526140d48188613ad5565b90506140e360a0830187613aa8565b81810360c08301526140f581866139e5565b905081810360e083015261410981856139e5565b9050614119610100830184613c43565b9a9950505050505050505050565b60006101208201905061413d600083018c613c43565b61414a602083018b613c43565b614157604083018a613c43565b81810360608301526141698189613b0e565b9050818103608083015261417d8188613b0e565b905061418c60a0830187613aa8565b81810360c083015261419e8186613a43565b905081810360e08301526141b28185613a43565b90506141c2610100830184613c43565b9a9950505050505050505050565b6000604051905081810181811067ffffffffffffffff821117156141f7576141f66145f5565b5b8060405250919050565b600067ffffffffffffffff82111561421c5761421b6145f5565b5b602082029050602081019050919050565b600067ffffffffffffffff821115614248576142476145f5565b5b601f19601f8301169050602081019050919050565b6000819050602082019050919050565b60008190508160005260206000209050919050565b60008190508160005260206000209050919050565b600081519050919050565b600081549050919050565b600081519050919050565b6000602082019050919050565b6000600182019050919050565b600082825260208201905092915050565b600082825260208201905092915050565b60006142ff82614451565b915061430a83614451565b9250827fffffffffffffffffffffffffffffffffffffffffffffffffffffffffffffffff0382111561433f5761433e614568565b5b828201905092915050565b600061435582614451565b915061436083614451565b9250826143705761436f614597565b5b828204905092915050565b600061438682614451565b915061439183614451565b9250817fffffffffffffffffffffffffffffffffffffffffffffffffffffffffffffffff04831182151516156143ca576143c9614568565b5b828202905092915050565b60006143e082614451565b91506143eb83614451565b9250828210156143fe576143fd614568565b5b828203905092915050565b6000819050919050565b600061441e82614431565b9050919050565b60008115159050919050565b600073ffffffffffffffffffffffffffffffffffffffff82169050919050565b6000819050919050565b60006144668261446d565b9050919050565b600061447882614431565b9050919050565b600061448a82614451565b9050919050565b82818337600083830152505050565b60005b838110156144be5780820151818401526020810190506144a3565b838111156144cd576000848401525b50505050565b600060028204905060018216806144eb57607f821691505b602082108114156144ff576144fe6145c6565b5b50919050565b600061451861451383614648565b614409565b9050919050565b600061452a82614451565b91507fffffffffffffffffffffffffffffffffffffffffffffffffffffffffffffffff82141561455d5761455c614568565b5b600182019050919050565b7f4e487b7100000000000000000000000000000000000000000000000000000000600052601160045260246000fd5b7f4e487b7100000000000000000000000000000000000000000000000000000000600052601260045260246000fd5b7f4e487b7100000000000000000000000000000000000000000000000000000000600052602260045260246000fd5b7f4e487b7100000000000000000000000000000000000000000000000000000000600052604160045260246000fd5b60006146308254614505565b9050919050565b6000601f19601f8301169050919050565b60008160001c9050919050565b61465e81614413565b811461466957600080fd5b50565b61467581614425565b811461468057600080fd5b50565b61468c81614451565b811461469757600080fd5b5056fea2646970667358221220ba5cf3199b331cc5bc614136bfe5d040c0b0c550deee475be1b04bd0191320ec64736f6c63430008000033",
  "immutableReferences": {},
  "source": "// SPDX-License-Identifier: MIT\npragma solidity >=0.4.22 <0.9.0;\n\nimport './Tokens.sol';\nimport \"@openzeppelin/contracts/access/Ownable.sol\";\nimport \"@openzeppelin/contracts/token/ERC721/extensions/ERC721URIStorage.sol\";\nimport \"@openzeppelin/contracts/utils/math/SafeMath.sol\";\n\n// TODO: \n// TODO: cant create multiple legacies\n// TODO: fix tests where artist is buyer\n// TODO: tests for rejects order if filled or cancelled\n// TODO: tests for purchase if from artist or not\n// TODO: test for events for settings both constructor and updates\n\ncontract ArtFactory is Ownable {\n\n  using SafeMath for uint256;\n\n  Tokens public tokens;\n  \n  uint256 public contractFeePercentage; // percentage out of 100\n  address public contractFeeAccount;\n  uint256 public artistFeePercentage; // percentage out of 100\n  address public artistFeeAccount;\n  uint256 public baseArtPrice; // in wei\n  uint256 public parentMultiplierPercentage; // percentage out of 100\n  uint256 public minParents;\n  uint256 public maxParents;\n  uint256 public minLegacies;\n  uint256 public maxLegacies;\n  uint256 public artworkCount;\n  uint256 public orderCount;\n\n  mapping(uint256 => Art) public artworks;\n  mapping(uint256 => _Order) public orders;\n  mapping(uint256 => uint256) public prices;\n  mapping(address => uint256) public balances;\n  mapping(uint256 => bool) public acceptedOrders;\n  mapping(uint256 => bool) public cancelledOrders;\n  mapping(uint256 => bool) public filledOrders;\n\n  struct Art {\n    uint256 id;\n    address owner;\n    uint256 gen;\n    string tokenURI;\n    string name;\n    bool legacyCreated;\n    uint256[] parents;\n    uint256[] siblings;\n    uint256 timestamp;\n  }\n\n  struct _Order {\n    uint256 id;\n    address buyer;\n    uint256 price;\n    uint256[] parentIDS;\n    uint256 numLegacies;\n    uint256 gen;\n    uint256 timestamp;\n  }\n\n  event ArtGen0(uint256 id, address indexed owner, uint256 gen, string tokenURI, string name, bool legacyCreated, uint256[] parents, uint256[] siblings, uint256 timestamp);\n  event ArtFromOrder(uint256 id, uint256 orderID, address indexed owner, uint256 gen, string tokenURI, string name, bool legacyCreated, uint256[] parents, uint256[] siblings, uint256 timestamp);\n  event Order(uint256 id, address indexed buyer, uint256 price, uint256[] parentIDS, uint256 numLegacies, uint256 gen, uint256 timestamp);\n  event Accept(uint256 id, address indexed buyer, uint256 price, uint256[] parentIDS, uint256 numLegacies, uint256 gen, uint256 timestamp);\n  event Cancel(uint256 id, address indexed buyer, uint256 price, uint256[] parentIDS, uint256 numLegacies, uint256 gen, uint256 timestamp);\n  event ArtForSale(uint256 id, uint256 price, address indexed owner, uint256 gen, string tokenURI, string name, bool legacyCreated, uint256[] parents, uint256[] siblings, uint256 timestamp);\n  event SaleCancel(uint256 id, address indexed owner, uint256 gen, string tokenURI, string name, bool legacyCreated, uint256[] parents, uint256[] siblings, uint256 timestamp);\n  event Purchase(uint256 id, uint256 price, address indexed buyer, uint256 gen, string tokenURI, string name, bool legacyCreated, uint256[] parents, uint256[] siblings, uint256 timestamp);\n  event ContractFeeAccount(address newAddress);\n  event ArtistFeeAccount(address newAddress);\n  event ContractFeePercentage(uint256 newAmount);\n  event ArtistFeePercentage(uint256 newAmount);\n  event BaseArtPrice(uint256 newAmount);\n  event ParentMultiplierPercentage(uint256 newAmount);\n  event MinParents(uint256 newAmount);\n  event MaxParents(uint256 newAmount);\n  event MinLegacies(uint256 newAmount);\n  event MaxLegacies(uint256 newAmount);\n\n\n  constructor(\n    address _artistFeeAccount,\n    uint256 _artistFeePercentage,\n    uint256 _baseArtPrice,\n    uint256 _parentMultiplierPercentage,\n    uint256 _minParents,\n    uint256 _maxParents,\n    uint256 _minLegacies,\n    uint256 _maxLegacies\n    ){\n    \n    artworkCount = 0;\n    orderCount = 0;\n    contractFeePercentage = 1;\n    contractFeeAccount = msg.sender;\n\n    artistFeeAccount = _artistFeeAccount;\n    artistFeePercentage = _artistFeePercentage;\n    baseArtPrice = _baseArtPrice;\n    parentMultiplierPercentage = _parentMultiplierPercentage;\n    minParents = _minParents;\n    maxParents = _maxParents;\n    minLegacies = _minLegacies;\n    maxLegacies = _maxLegacies;\n\n    emit ContractFeeAccount(msg.sender);\n    emit ArtistFeeAccount(_artistFeeAccount);\n    emit ContractFeePercentage(contractFeePercentage);\n    emit ArtistFeePercentage(_artistFeePercentage);\n    emit BaseArtPrice(_baseArtPrice);\n    emit ParentMultiplierPercentage(_parentMultiplierPercentage);\n    emit MinParents(_minParents);\n    emit MaxParents(_maxParents);\n    emit MinLegacies(_minLegacies);\n    emit MaxLegacies(_maxLegacies);\n  }\n\n  modifier onlyArtist() {\n    require(msg.sender == artistFeeAccount);\n    _;\n  }\n\n  function changeContractFeeAccount(address _contractFeeAccount) public onlyOwner {\n    contractFeeAccount = _contractFeeAccount;\n    emit ContractFeeAccount(_contractFeeAccount);\n  }\n\n  function changeArtistFeeAccount(address _artistFeeAccount) public onlyArtist {\n    artistFeeAccount = _artistFeeAccount;\n    emit ArtistFeeAccount(_artistFeeAccount);\n  }\n\n  function changeArtistFeePercentage(uint256 _artistFeePercentage) public onlyArtist {\n    require(_artistFeePercentage > 0 && _artistFeePercentage < 100);\n    artistFeePercentage = _artistFeePercentage;\n    emit ArtistFeePercentage(_artistFeePercentage);\n  }\n\n  function changeBaseArtPrice(uint256 _baseArtPrice) public onlyArtist {\n    baseArtPrice = _baseArtPrice;\n    emit BaseArtPrice(_baseArtPrice);\n  }\n\n  function changeParentMultiplierPercentage(uint256 _parentMultiplierPercentage) public onlyArtist {\n    require(_parentMultiplierPercentage > 0 && _parentMultiplierPercentage < 100);\n    parentMultiplierPercentage = _parentMultiplierPercentage;\n    emit ParentMultiplierPercentage(_parentMultiplierPercentage);\n  }\n\n  function changeMinParents(uint256 _minParents) public onlyArtist {\n    require(_minParents > 0 && _minParents <= maxParents);\n    minParents = _minParents;\n    emit MinParents(_minParents);\n  }\n\n  function changeMaxParents(uint256 _maxParents) public onlyArtist {\n    require(_maxParents >= minParents);\n    maxParents = _maxParents;\n    emit MaxParents(_maxParents);\n  }\n\n  function changeMinLegacies(uint256 _minLegacies) public onlyArtist {\n    require(_minLegacies > 0 && _minLegacies <= maxLegacies);\n    minLegacies = _minLegacies;\n    emit MinLegacies(_minLegacies);\n  }\n\n  function changeMaxLegacies(uint256 _maxLegacies) public onlyArtist {\n    require(_maxLegacies >= minLegacies);\n    maxLegacies = _maxLegacies;\n    emit MaxLegacies(_maxLegacies);\n  }\n\n  function createArtGen0(address _tokensAddress, string memory _tokenURI, string memory _name) public onlyArtist {\n    uint256 _id = artworkCount;\n    uint256[] memory arr;\n\n    artworks[_id] = Art(_id, msg.sender, 0, _tokenURI, _name, false, arr, arr, block.timestamp);\n    artworkCount = artworkCount.add(1);\n    prices[_id] = baseArtPrice;\n\n    require(Tokens(_tokensAddress).createToken(msg.sender, _id, _tokenURI));\n    \n    emit ArtGen0(_id, msg.sender, 0, _tokenURI, _name, false, arr, arr, block.timestamp);\n  }\n\n  function createArtFromOrder(address _tokensAddress, uint256 _orderID, string memory _tokenURI, string memory _name, uint256 _gen, uint256[] memory _parents, uint256[] memory _siblings, address _buyer) public onlyArtist {\n    _Order storage _order = orders[_orderID];\n    require(_order.id == _orderID);\n    require(acceptedOrders[_orderID] == true);\n    \n    uint256 _id = artworkCount;\n    artworks[_id] = Art(_id, _buyer, _gen, _tokenURI, _name, false, _parents, _siblings, block.timestamp);\n    \n    filledOrders[_orderID] = true;\n    artworkCount = artworkCount.add(1);\n    for(uint i=0;i<_parents.length;i++) {\n      if(artworks[_parents[i]].legacyCreated == false) {\n        artworks[_parents[i]].legacyCreated = true;\n      }\n    }\n\n    uint256 _price = _order.price;\n    balances[artistFeeAccount] = balances[artistFeeAccount].add(_price);\n    balances[address(this)] = balances[address(this)].sub(_price);\n\n    require(Tokens(_tokensAddress).createToken(_buyer, _id, _tokenURI));\n    \n    emit ArtFromOrder(_id, _orderID, msg.sender, _gen, _tokenURI, _name, false, _parents, _siblings, block.timestamp);\n  }\n\n  function putUpForSale(address _tokenAddress, uint256 _id, uint256 _price) public {\n    Art storage _art = artworks[_id];\n    require(_art.id == _id);\n    require(msg.sender == _art.owner);\n\n    prices[_id] = _price;\n\n    require(Tokens(_tokenAddress).isApprovedForAll(msg.sender, address(this)));\n\n    emit ArtForSale(_id, _price, _art.owner, _art.gen, _art.tokenURI, _art.name, _art.legacyCreated, _art.parents, _art.siblings, block.timestamp);\n  }\n\n  function cancelSale(uint256 _id) public {\n    Art storage _art = artworks[_id];\n    require(_art.id == _id);\n    require(msg.sender == _art.owner);\n\n    prices[_id] = 0;\n    \n    emit SaleCancel(_id, _art.owner, _art.gen, _art.tokenURI, _art.name, _art.legacyCreated, _art.parents, _art.siblings, block.timestamp);\n  }\n\n  function purchase(address _tokenAddress, uint256 _id) public payable {\n    Art storage _art = artworks[_id];\n    require(_art.id == _id);\n    require(msg.sender != _art.owner);\n    uint256 _price = prices[_id];\n    require(_price > 0);\n\n    uint256 totalPrice;\n    uint256 artistCut;\n    uint256 contractCut = _price.mul(contractFeePercentage).div(100);\n    \n    if(_art.owner == artistFeeAccount){\n      totalPrice = _price.add(contractCut);\n\n      balances[_art.owner] = balances[_art.owner].add(_price);\n      balances[contractFeeAccount] = balances[contractFeeAccount].add(contractCut);\n    } else {\n      artistCut = _price.mul(artistFeePercentage).div(100);\n      totalPrice = _price.add(artistCut).add(contractCut);\n\n      balances[_art.owner] = balances[_art.owner].add(_price);\n      balances[artistFeeAccount] = balances[artistFeeAccount].add(artistCut);\n      balances[contractFeeAccount] = balances[contractFeeAccount].add(contractCut);\n    }\n    require(msg.value == totalPrice);\n\n    prices[_id] = 0;\n\n    require(Tokens(_tokenAddress).transferToken(_art.owner, msg.sender, _id));\n\n    _art.owner = msg.sender;\n    \n    emit Purchase(_id, _price, _art.owner, _art.gen, _art.tokenURI, _art.name, _art.legacyCreated, _art.parents, _art.siblings, block.timestamp);\n  }\n\n  function createOrder(uint256[] memory _parentIDS, uint256 _numLegacies) public payable {\n    uint256 _numParents = _parentIDS.length;\n    require(_numParents >= minParents && _numParents <= maxParents);\n    require(_numLegacies >= minLegacies && _numLegacies <= maxLegacies);\n    \n    uint256 _id = orderCount;\n    \n    uint256 _gen = 1;\n    for(uint256 i=0;i<_numParents;i++) {\n      require(artworks[_parentIDS[i]].owner == msg.sender);\n      if (artworks[_parentIDS[i]].gen > _gen) {\n        _gen = artworks[_parentIDS[i]].gen;\n      }\n    }\n\n    uint256 _price = baseArtPrice + (baseArtPrice.mul(_numLegacies).mul(parentMultiplierPercentage).mul(_numParents).div(100));  // TODO: CHECK THIS\n    require(_price > 0);\n    uint256 _contractFee = _price.mul(contractFeePercentage).div(100);\n    require(msg.value == _price.add(_contractFee));\n    orders[_id] = _Order(_id, msg.sender, _price, _parentIDS, _numLegacies, _gen, block.timestamp);\n    \n    balances[address(this)] = balances[address(this)].add(_price);\n    balances[contractFeeAccount] = balances[contractFeeAccount].add(_contractFee);\n    orderCount = orderCount.add(1);\n    \n    emit Order(_id, msg.sender, _price, _parentIDS, _numLegacies, _gen, block.timestamp);\n  }\n\n  function acceptOrder(uint256 _id) public onlyArtist {\n    _Order storage _order = orders[_id];\n    require(_order.id == _id);\n    require(cancelledOrders[_id] == false && filledOrders[_id] == false);\n    acceptedOrders[_id] = true;\n    \n    emit Accept(_id, _order.buyer, _order.price, _order.parentIDS, _order.numLegacies, _order.gen, block.timestamp);\n  }\n\n  function cancelOrder(uint256 _id) public {\n    _Order storage _order = orders[_id];\n    require(_order.id == _id);\n    require(msg.sender == _order.buyer);\n    \n    cancelledOrders[_id] = true;\n    balances[msg.sender] = balances[msg.sender].add(_order.price); // TODO: need to test\n    balances[address(this)] = balances[address(this)].sub(_order.price); // TODO: need to test\n    \n    emit Cancel(_id, msg.sender, _order.price, _order.parentIDS, _order.numLegacies, _order.gen, block.timestamp);\n  }\n\n  function withdrawBalance() public {\n    address payable _account = payable(msg.sender);\n    require(balances[_account] > 0 );\n    \n    balances[_account] = 0;\n    _account.transfer(balances[_account]);\n  }\n}",
  "sourcePath": "/Users/andrewmlevy/Documents/blockchain/4_portfolio_projects/art-marketplace/src/contracts/ArtFactory.sol",
  "compiler": {
    "name": "solc",
    "version": "0.8.0+commit.c7dfd78e.Emscripten.clang"
  },
  "schemaVersion": "3.4.1",
  "updatedAt": "2021-06-20T15:04:06.168Z",
  "networkType": "ethereum",
  "devdoc": {
    "kind": "dev",
    "methods": {
      "owner()": {
        "details": "Returns the address of the current owner."
      },
      "renounceOwnership()": {
        "details": "Leaves the contract without owner. It will not be possible to call `onlyOwner` functions anymore. Can only be called by the current owner. NOTE: Renouncing ownership will leave the contract without an owner, thereby removing any functionality that is only available to the owner."
      },
      "transferOwnership(address)": {
        "details": "Transfers ownership of the contract to a new account (`newOwner`). Can only be called by the current owner."
      }
    },
    "version": 1
  },
  "userdoc": {
    "kind": "user",
    "methods": {},
    "version": 1
  }
}