{
  "contractName": "ArtFactory",
  "abi": [
    {
      "inputs": [
        {
          "internalType": "address",
          "name": "_artistFeeAccount",
          "type": "address"
        },
        {
          "internalType": "uint256",
          "name": "_artistFeePercentage",
          "type": "uint256"
        },
        {
          "internalType": "uint256",
          "name": "_baseArtPrice",
          "type": "uint256"
        },
        {
          "internalType": "uint256",
          "name": "_parentMultiplierPercentage",
          "type": "uint256"
        },
        {
          "internalType": "uint256",
          "name": "_minParents",
          "type": "uint256"
        },
        {
          "internalType": "uint256",
          "name": "_maxParents",
          "type": "uint256"
        },
        {
          "internalType": "uint256",
          "name": "_minLegacies",
          "type": "uint256"
        },
        {
          "internalType": "uint256",
          "name": "_maxLegacies",
          "type": "uint256"
        }
      ],
      "stateMutability": "nonpayable",
      "type": "constructor"
    },
    {
      "anonymous": false,
      "inputs": [
        {
          "indexed": false,
          "internalType": "uint256",
          "name": "id",
          "type": "uint256"
        },
        {
          "indexed": true,
          "internalType": "address",
          "name": "buyer",
          "type": "address"
        },
        {
          "indexed": false,
          "internalType": "uint256",
          "name": "price",
          "type": "uint256"
        },
        {
          "indexed": false,
          "internalType": "uint256[]",
          "name": "parentIDS",
          "type": "uint256[]"
        },
        {
          "indexed": false,
          "internalType": "uint256",
          "name": "numLegacies",
          "type": "uint256"
        },
        {
          "indexed": false,
          "internalType": "uint256",
          "name": "gen",
          "type": "uint256"
        },
        {
          "indexed": false,
          "internalType": "uint256",
          "name": "timestamp",
          "type": "uint256"
        }
      ],
      "name": "Accept",
      "type": "event"
    },
    {
      "anonymous": false,
      "inputs": [
        {
          "indexed": false,
          "internalType": "uint256",
          "name": "id",
          "type": "uint256"
        },
        {
          "indexed": false,
          "internalType": "uint256",
          "name": "price",
          "type": "uint256"
        },
        {
          "indexed": true,
          "internalType": "address",
          "name": "owner",
          "type": "address"
        },
        {
          "indexed": false,
          "internalType": "uint256",
          "name": "gen",
          "type": "uint256"
        },
        {
          "indexed": false,
          "internalType": "string",
          "name": "tokenURI",
          "type": "string"
        },
        {
          "indexed": false,
          "internalType": "string",
          "name": "name",
          "type": "string"
        },
        {
          "indexed": false,
          "internalType": "uint256[]",
          "name": "parents",
          "type": "uint256[]"
        },
        {
          "indexed": false,
          "internalType": "uint256[]",
          "name": "siblings",
          "type": "uint256[]"
        },
        {
          "indexed": false,
          "internalType": "uint256",
          "name": "timestamp",
          "type": "uint256"
        }
      ],
      "name": "ArtForSale",
      "type": "event"
    },
    {
      "anonymous": false,
      "inputs": [
        {
          "indexed": false,
          "internalType": "address",
          "name": "newAddress",
          "type": "address"
        }
      ],
      "name": "ArtistFeeAccount",
      "type": "event"
    },
    {
      "anonymous": false,
      "inputs": [
        {
          "indexed": false,
          "internalType": "uint256",
          "name": "newAmount",
          "type": "uint256"
        }
      ],
      "name": "ArtistFeePercentage",
      "type": "event"
    },
    {
      "anonymous": false,
      "inputs": [
        {
          "indexed": false,
          "internalType": "uint256",
          "name": "newAmount",
          "type": "uint256"
        }
      ],
      "name": "BaseArtPrice",
      "type": "event"
    },
    {
      "anonymous": false,
      "inputs": [
        {
          "indexed": false,
          "internalType": "uint256",
          "name": "id",
          "type": "uint256"
        },
        {
          "indexed": true,
          "internalType": "address",
          "name": "buyer",
          "type": "address"
        },
        {
          "indexed": false,
          "internalType": "uint256",
          "name": "price",
          "type": "uint256"
        },
        {
          "indexed": false,
          "internalType": "uint256[]",
          "name": "parentIDS",
          "type": "uint256[]"
        },
        {
          "indexed": false,
          "internalType": "uint256",
          "name": "numLegacies",
          "type": "uint256"
        },
        {
          "indexed": false,
          "internalType": "uint256",
          "name": "gen",
          "type": "uint256"
        },
        {
          "indexed": false,
          "internalType": "uint256",
          "name": "timestamp",
          "type": "uint256"
        }
      ],
      "name": "Cancel",
      "type": "event"
    },
    {
      "anonymous": false,
      "inputs": [
        {
          "indexed": false,
          "internalType": "address",
          "name": "newAddress",
          "type": "address"
        }
      ],
      "name": "ContractFeeAccount",
      "type": "event"
    },
    {
      "anonymous": false,
      "inputs": [
        {
          "indexed": false,
          "internalType": "uint256",
          "name": "newAmount",
          "type": "uint256"
        }
      ],
      "name": "ContractFeePercentage",
      "type": "event"
    },
    {
      "anonymous": false,
      "inputs": [
        {
          "indexed": false,
          "internalType": "uint256",
          "name": "newAmount",
          "type": "uint256"
        }
      ],
      "name": "MaxLegacies",
      "type": "event"
    },
    {
      "anonymous": false,
      "inputs": [
        {
          "indexed": false,
          "internalType": "uint256",
          "name": "newAmount",
          "type": "uint256"
        }
      ],
      "name": "MaxParents",
      "type": "event"
    },
    {
      "anonymous": false,
      "inputs": [
        {
          "indexed": false,
          "internalType": "uint256",
          "name": "newAmount",
          "type": "uint256"
        }
      ],
      "name": "MinLegacies",
      "type": "event"
    },
    {
      "anonymous": false,
      "inputs": [
        {
          "indexed": false,
          "internalType": "uint256",
          "name": "newAmount",
          "type": "uint256"
        }
      ],
      "name": "MinParents",
      "type": "event"
    },
    {
      "anonymous": false,
      "inputs": [
        {
          "indexed": false,
          "internalType": "uint256",
          "name": "id",
          "type": "uint256"
        },
        {
          "indexed": false,
          "internalType": "uint256",
          "name": "orderID",
          "type": "uint256"
        },
        {
          "indexed": true,
          "internalType": "address",
          "name": "owner",
          "type": "address"
        },
        {
          "indexed": false,
          "internalType": "uint256",
          "name": "gen",
          "type": "uint256"
        },
        {
          "indexed": false,
          "internalType": "string",
          "name": "tokenURI",
          "type": "string"
        },
        {
          "indexed": false,
          "internalType": "string",
          "name": "name",
          "type": "string"
        },
        {
          "indexed": false,
          "internalType": "uint256[]",
          "name": "parents",
          "type": "uint256[]"
        },
        {
          "indexed": false,
          "internalType": "uint256[]",
          "name": "siblings",
          "type": "uint256[]"
        },
        {
          "indexed": false,
          "internalType": "uint256",
          "name": "timestamp",
          "type": "uint256"
        }
      ],
      "name": "NewArt",
      "type": "event"
    },
    {
      "anonymous": false,
      "inputs": [
        {
          "indexed": false,
          "internalType": "uint256",
          "name": "id",
          "type": "uint256"
        },
        {
          "indexed": true,
          "internalType": "address",
          "name": "buyer",
          "type": "address"
        },
        {
          "indexed": false,
          "internalType": "uint256",
          "name": "price",
          "type": "uint256"
        },
        {
          "indexed": false,
          "internalType": "uint256[]",
          "name": "parentIDS",
          "type": "uint256[]"
        },
        {
          "indexed": false,
          "internalType": "uint256",
          "name": "numLegacies",
          "type": "uint256"
        },
        {
          "indexed": false,
          "internalType": "uint256",
          "name": "gen",
          "type": "uint256"
        },
        {
          "indexed": false,
          "internalType": "uint256",
          "name": "timestamp",
          "type": "uint256"
        }
      ],
      "name": "Order",
      "type": "event"
    },
    {
      "anonymous": false,
      "inputs": [
        {
          "indexed": true,
          "internalType": "address",
          "name": "previousOwner",
          "type": "address"
        },
        {
          "indexed": true,
          "internalType": "address",
          "name": "newOwner",
          "type": "address"
        }
      ],
      "name": "OwnershipTransferred",
      "type": "event"
    },
    {
      "anonymous": false,
      "inputs": [
        {
          "indexed": false,
          "internalType": "uint256",
          "name": "newAmount",
          "type": "uint256"
        }
      ],
      "name": "ParentMultiplierPercentage",
      "type": "event"
    },
    {
      "anonymous": false,
      "inputs": [
        {
          "indexed": false,
          "internalType": "uint256",
          "name": "id",
          "type": "uint256"
        },
        {
          "indexed": false,
          "internalType": "uint256",
          "name": "price",
          "type": "uint256"
        },
        {
          "indexed": true,
          "internalType": "address",
          "name": "buyer",
          "type": "address"
        },
        {
          "indexed": false,
          "internalType": "uint256",
          "name": "gen",
          "type": "uint256"
        },
        {
          "indexed": false,
          "internalType": "string",
          "name": "tokenURI",
          "type": "string"
        },
        {
          "indexed": false,
          "internalType": "string",
          "name": "name",
          "type": "string"
        },
        {
          "indexed": false,
          "internalType": "uint256[]",
          "name": "parents",
          "type": "uint256[]"
        },
        {
          "indexed": false,
          "internalType": "uint256[]",
          "name": "siblings",
          "type": "uint256[]"
        },
        {
          "indexed": false,
          "internalType": "uint256",
          "name": "timestamp",
          "type": "uint256"
        }
      ],
      "name": "Purchase",
      "type": "event"
    },
    {
      "anonymous": false,
      "inputs": [
        {
          "indexed": false,
          "internalType": "uint256",
          "name": "id",
          "type": "uint256"
        },
        {
          "indexed": true,
          "internalType": "address",
          "name": "owner",
          "type": "address"
        },
        {
          "indexed": false,
          "internalType": "uint256",
          "name": "gen",
          "type": "uint256"
        },
        {
          "indexed": false,
          "internalType": "string",
          "name": "tokenURI",
          "type": "string"
        },
        {
          "indexed": false,
          "internalType": "string",
          "name": "name",
          "type": "string"
        },
        {
          "indexed": false,
          "internalType": "uint256[]",
          "name": "parents",
          "type": "uint256[]"
        },
        {
          "indexed": false,
          "internalType": "uint256[]",
          "name": "siblings",
          "type": "uint256[]"
        },
        {
          "indexed": false,
          "internalType": "uint256",
          "name": "timestamp",
          "type": "uint256"
        }
      ],
      "name": "SaleCancel",
      "type": "event"
    },
    {
      "anonymous": false,
      "inputs": [
        {
          "indexed": true,
          "internalType": "address",
          "name": "user",
          "type": "address"
        },
        {
          "indexed": false,
          "internalType": "uint256",
          "name": "amount",
          "type": "uint256"
        },
        {
          "indexed": false,
          "internalType": "uint256",
          "name": "balance",
          "type": "uint256"
        }
      ],
      "name": "Withdraw",
      "type": "event"
    },
    {
      "inputs": [
        {
          "internalType": "uint256",
          "name": "",
          "type": "uint256"
        }
      ],
      "name": "acceptedOrders",
      "outputs": [
        {
          "internalType": "bool",
          "name": "",
          "type": "bool"
        }
      ],
      "stateMutability": "view",
      "type": "function",
      "constant": true
    },
    {
      "inputs": [],
      "name": "artistFeeAccount",
      "outputs": [
        {
          "internalType": "address",
          "name": "",
          "type": "address"
        }
      ],
      "stateMutability": "view",
      "type": "function",
      "constant": true
    },
    {
      "inputs": [],
      "name": "artistFeePercentage",
      "outputs": [
        {
          "internalType": "uint256",
          "name": "",
          "type": "uint256"
        }
      ],
      "stateMutability": "view",
      "type": "function",
      "constant": true
    },
    {
      "inputs": [],
      "name": "artworkCount",
      "outputs": [
        {
          "internalType": "uint256",
          "name": "",
          "type": "uint256"
        }
      ],
      "stateMutability": "view",
      "type": "function",
      "constant": true
    },
    {
      "inputs": [
        {
          "internalType": "uint256",
          "name": "",
          "type": "uint256"
        }
      ],
      "name": "artworks",
      "outputs": [
        {
          "internalType": "uint256",
          "name": "id",
          "type": "uint256"
        },
        {
          "internalType": "address",
          "name": "owner",
          "type": "address"
        },
        {
          "internalType": "uint256",
          "name": "gen",
          "type": "uint256"
        },
        {
          "internalType": "string",
          "name": "tokenURI",
          "type": "string"
        },
        {
          "internalType": "string",
          "name": "name",
          "type": "string"
        },
        {
          "internalType": "uint256",
          "name": "timestamp",
          "type": "uint256"
        }
      ],
      "stateMutability": "view",
      "type": "function",
      "constant": true
    },
    {
      "inputs": [
        {
          "internalType": "address",
          "name": "",
          "type": "address"
        }
      ],
      "name": "balances",
      "outputs": [
        {
          "internalType": "uint256",
          "name": "",
          "type": "uint256"
        }
      ],
      "stateMutability": "view",
      "type": "function",
      "constant": true
    },
    {
      "inputs": [],
      "name": "baseArtPrice",
      "outputs": [
        {
          "internalType": "uint256",
          "name": "",
          "type": "uint256"
        }
      ],
      "stateMutability": "view",
      "type": "function",
      "constant": true
    },
    {
      "inputs": [
        {
          "internalType": "uint256",
          "name": "",
          "type": "uint256"
        }
      ],
      "name": "cancelledOrders",
      "outputs": [
        {
          "internalType": "bool",
          "name": "",
          "type": "bool"
        }
      ],
      "stateMutability": "view",
      "type": "function",
      "constant": true
    },
    {
      "inputs": [],
      "name": "contractFeeAccount",
      "outputs": [
        {
          "internalType": "address",
          "name": "",
          "type": "address"
        }
      ],
      "stateMutability": "view",
      "type": "function",
      "constant": true
    },
    {
      "inputs": [],
      "name": "contractFeePercentage",
      "outputs": [
        {
          "internalType": "uint256",
          "name": "",
          "type": "uint256"
        }
      ],
      "stateMutability": "view",
      "type": "function",
      "constant": true
    },
    {
      "inputs": [
        {
          "internalType": "uint256",
          "name": "",
          "type": "uint256"
        }
      ],
      "name": "filledOrders",
      "outputs": [
        {
          "internalType": "bool",
          "name": "",
          "type": "bool"
        }
      ],
      "stateMutability": "view",
      "type": "function",
      "constant": true
    },
    {
      "inputs": [],
      "name": "maxLegacies",
      "outputs": [
        {
          "internalType": "uint256",
          "name": "",
          "type": "uint256"
        }
      ],
      "stateMutability": "view",
      "type": "function",
      "constant": true
    },
    {
      "inputs": [],
      "name": "maxParents",
      "outputs": [
        {
          "internalType": "uint256",
          "name": "",
          "type": "uint256"
        }
      ],
      "stateMutability": "view",
      "type": "function",
      "constant": true
    },
    {
      "inputs": [],
      "name": "minLegacies",
      "outputs": [
        {
          "internalType": "uint256",
          "name": "",
          "type": "uint256"
        }
      ],
      "stateMutability": "view",
      "type": "function",
      "constant": true
    },
    {
      "inputs": [],
      "name": "minParents",
      "outputs": [
        {
          "internalType": "uint256",
          "name": "",
          "type": "uint256"
        }
      ],
      "stateMutability": "view",
      "type": "function",
      "constant": true
    },
    {
      "inputs": [],
      "name": "orderCount",
      "outputs": [
        {
          "internalType": "uint256",
          "name": "",
          "type": "uint256"
        }
      ],
      "stateMutability": "view",
      "type": "function",
      "constant": true
    },
    {
      "inputs": [
        {
          "internalType": "uint256",
          "name": "",
          "type": "uint256"
        }
      ],
      "name": "orders",
      "outputs": [
        {
          "internalType": "uint256",
          "name": "id",
          "type": "uint256"
        },
        {
          "internalType": "address",
          "name": "buyer",
          "type": "address"
        },
        {
          "internalType": "uint256",
          "name": "price",
          "type": "uint256"
        },
        {
          "internalType": "uint256",
          "name": "numLegacies",
          "type": "uint256"
        },
        {
          "internalType": "uint256",
          "name": "gen",
          "type": "uint256"
        },
        {
          "internalType": "uint256",
          "name": "timestamp",
          "type": "uint256"
        }
      ],
      "stateMutability": "view",
      "type": "function",
      "constant": true
    },
    {
      "inputs": [],
      "name": "owner",
      "outputs": [
        {
          "internalType": "address",
          "name": "",
          "type": "address"
        }
      ],
      "stateMutability": "view",
      "type": "function",
      "constant": true
    },
    {
      "inputs": [],
      "name": "parentMultiplierPercentage",
      "outputs": [
        {
          "internalType": "uint256",
          "name": "",
          "type": "uint256"
        }
      ],
      "stateMutability": "view",
      "type": "function",
      "constant": true
    },
    {
      "inputs": [
        {
          "internalType": "uint256",
          "name": "",
          "type": "uint256"
        }
      ],
      "name": "prices",
      "outputs": [
        {
          "internalType": "uint256",
          "name": "",
          "type": "uint256"
        }
      ],
      "stateMutability": "view",
      "type": "function",
      "constant": true
    },
    {
      "inputs": [],
      "name": "renounceOwnership",
      "outputs": [],
      "stateMutability": "nonpayable",
      "type": "function"
    },
    {
      "inputs": [],
      "name": "tokens",
      "outputs": [
        {
          "internalType": "contract Tokens",
          "name": "",
          "type": "address"
        }
      ],
      "stateMutability": "view",
      "type": "function",
      "constant": true
    },
    {
      "inputs": [
        {
          "internalType": "address",
          "name": "newOwner",
          "type": "address"
        }
      ],
      "name": "transferOwnership",
      "outputs": [],
      "stateMutability": "nonpayable",
      "type": "function"
    },
    {
      "inputs": [
        {
          "internalType": "address",
          "name": "_contractFeeAccount",
          "type": "address"
        }
      ],
      "name": "changeContractFeeAccount",
      "outputs": [],
      "stateMutability": "nonpayable",
      "type": "function"
    },
    {
      "inputs": [
        {
          "internalType": "address",
          "name": "_artistFeeAccount",
          "type": "address"
        }
      ],
      "name": "changeArtistFeeAccount",
      "outputs": [],
      "stateMutability": "nonpayable",
      "type": "function"
    },
    {
      "inputs": [
        {
          "internalType": "uint256",
          "name": "_artistFeePercentage",
          "type": "uint256"
        }
      ],
      "name": "changeArtistFeePercentage",
      "outputs": [],
      "stateMutability": "nonpayable",
      "type": "function"
    },
    {
      "inputs": [
        {
          "internalType": "uint256",
          "name": "_baseArtPrice",
          "type": "uint256"
        }
      ],
      "name": "changeBaseArtPrice",
      "outputs": [],
      "stateMutability": "nonpayable",
      "type": "function"
    },
    {
      "inputs": [
        {
          "internalType": "uint256",
          "name": "_parentMultiplierPercentage",
          "type": "uint256"
        }
      ],
      "name": "changeParentMultiplierPercentage",
      "outputs": [],
      "stateMutability": "nonpayable",
      "type": "function"
    },
    {
      "inputs": [
        {
          "internalType": "uint256",
          "name": "_minParents",
          "type": "uint256"
        }
      ],
      "name": "changeMinParents",
      "outputs": [],
      "stateMutability": "nonpayable",
      "type": "function"
    },
    {
      "inputs": [
        {
          "internalType": "uint256",
          "name": "_maxParents",
          "type": "uint256"
        }
      ],
      "name": "changeMaxParents",
      "outputs": [],
      "stateMutability": "nonpayable",
      "type": "function"
    },
    {
      "inputs": [
        {
          "internalType": "uint256",
          "name": "_minLegacies",
          "type": "uint256"
        }
      ],
      "name": "changeMinLegacies",
      "outputs": [],
      "stateMutability": "nonpayable",
      "type": "function"
    },
    {
      "inputs": [
        {
          "internalType": "uint256",
          "name": "_maxLegacies",
          "type": "uint256"
        }
      ],
      "name": "changeMaxLegacies",
      "outputs": [],
      "stateMutability": "nonpayable",
      "type": "function"
    },
    {
      "inputs": [
        {
          "internalType": "address",
          "name": "_tokensAddress",
          "type": "address"
        },
        {
          "internalType": "string",
          "name": "_tokenURI",
          "type": "string"
        },
        {
          "internalType": "string",
          "name": "_name",
          "type": "string"
        }
      ],
      "name": "createArtGen0",
      "outputs": [],
      "stateMutability": "nonpayable",
      "type": "function"
    },
    {
      "inputs": [
        {
          "internalType": "address",
          "name": "_tokensAddress",
          "type": "address"
        },
        {
          "internalType": "uint256",
          "name": "_orderID",
          "type": "uint256"
        },
        {
          "internalType": "string",
          "name": "_tokenURI",
          "type": "string"
        },
        {
          "internalType": "string",
          "name": "_name",
          "type": "string"
        },
        {
          "internalType": "uint256",
          "name": "_gen",
          "type": "uint256"
        },
        {
          "internalType": "uint256[]",
          "name": "_parents",
          "type": "uint256[]"
        },
        {
          "internalType": "uint256[]",
          "name": "_siblings",
          "type": "uint256[]"
        },
        {
          "internalType": "address",
          "name": "_buyer",
          "type": "address"
        }
      ],
      "name": "createArtFromOrder",
      "outputs": [],
      "stateMutability": "nonpayable",
      "type": "function"
    },
    {
      "inputs": [
        {
          "internalType": "address",
          "name": "_tokenAddress",
          "type": "address"
        },
        {
          "internalType": "uint256",
          "name": "_id",
          "type": "uint256"
        }
      ],
      "name": "purchase",
      "outputs": [],
      "stateMutability": "payable",
      "type": "function",
      "payable": true
    },
    {
      "inputs": [
        {
          "internalType": "uint256[]",
          "name": "_parentIDS",
          "type": "uint256[]"
        },
        {
          "internalType": "uint256",
          "name": "_numLegacies",
          "type": "uint256"
        }
      ],
      "name": "createOrder",
      "outputs": [],
      "stateMutability": "payable",
      "type": "function",
      "payable": true
    },
    {
      "inputs": [
        {
          "internalType": "uint256",
          "name": "_id",
          "type": "uint256"
        }
      ],
      "name": "acceptOrder",
      "outputs": [],
      "stateMutability": "nonpayable",
      "type": "function"
    },
    {
      "inputs": [
        {
          "internalType": "uint256",
          "name": "_id",
          "type": "uint256"
        }
      ],
      "name": "cancelOrder",
      "outputs": [],
      "stateMutability": "nonpayable",
      "type": "function"
    },
    {
      "inputs": [],
      "name": "withdrawBalance",
      "outputs": [],
      "stateMutability": "nonpayable",
      "type": "function"
    }
  ],
  "bytecode": "0x60806040523480156200001157600080fd5b50604051620046ca380380620046ca833981810160405281019062000037919062000432565b600062000049620003fc60201b60201c565b9050806000806101000a81548173ffffffffffffffffffffffffffffffffffffffff021916908373ffffffffffffffffffffffffffffffffffffffff1602179055508073ffffffffffffffffffffffffffffffffffffffff16600073ffffffffffffffffffffffffffffffffffffffff167f8be0079c531659141344cd1fd0a4f28419497f9722a3daafe3b4186f6b6457e060405160405180910390a3506000600c819055506000600d81905550600160028190555033600360006101000a81548173ffffffffffffffffffffffffffffffffffffffff021916908373ffffffffffffffffffffffffffffffffffffffff16021790555087600560006101000a81548173ffffffffffffffffffffffffffffffffffffffff021916908373ffffffffffffffffffffffffffffffffffffffff160217905550866004819055508560068190555084600781905550836008819055508260098190555081600a8190555080600b819055507f7658ea79a138308a79efaf790e1faa92326d041116ac14108d7582d8927d862333604051620001e3919062000517565b60405180910390a17fb67233be38122c366518474e4dae8a7114c33bf0aa0c5831d9e61a978589cb02886040516200021c919062000517565b60405180910390a17f60ca92b48c6d48a68c021ff734b0098cf46d48265d838588b149221631cefd5560025460405162000257919062000534565b60405180910390a17fd893ccc11fbb06ad0b7c9111b4639fe6f31715d3d13eee8b6aba69eac4e4cb428760405162000290919062000534565b60405180910390a17ff7bb41fe9a942f8a8b4e0e70976c6b601d08828605d4e0d37032bb65c0417e3a86604051620002c9919062000534565b60405180910390a17f343c52fbb5bef9771857fe5c42c0f1e6d8c49bad05431088368efbff1271f6de8560405162000302919062000534565b60405180910390a17f4cd3751160747e6cfe3950456d596ea7aeefa8fb336ed1792f8a7a832dc79385846040516200033b919062000534565b60405180910390a17f8716afd9d9db8ea58651072558c14bbeffab5769cd1a4ee6317a77b0ebdbc86f8360405162000374919062000534565b60405180910390a17f761a7db8d7cedddf18cc620d1e937eb8d70309bc674d35275fb9432059324e9782604051620003ad919062000534565b60405180910390a17f703a6e785abfff48f61400577bb93dc582bce65968a713aba8727697867b76b981604051620003e6919062000534565b60405180910390a15050505050505050620005c3565b600033905090565b60008151905062000415816200058f565b92915050565b6000815190506200042c81620005a9565b92915050565b600080600080600080600080610100898b0312156200045057600080fd5b6000620004608b828c0162000404565b9850506020620004738b828c016200041b565b9750506040620004868b828c016200041b565b9650506060620004998b828c016200041b565b9550506080620004ac8b828c016200041b565b94505060a0620004bf8b828c016200041b565b93505060c0620004d28b828c016200041b565b92505060e0620004e58b828c016200041b565b9150509295985092959890939650565b620005008162000551565b82525050565b620005118162000585565b82525050565b60006020820190506200052e6000830184620004f5565b92915050565b60006020820190506200054b600083018462000506565b92915050565b60006200055e8262000565565b9050919050565b600073ffffffffffffffffffffffffffffffffffffffff82169050919050565b6000819050919050565b6200059a8162000551565b8114620005a657600080fd5b50565b620005b48162000585565b8114620005c057600080fd5b50565b6140f780620005d36000396000f3fe6080604052600436106102305760003560e01c80638de932221161012e578063bc31c1c1116100ab578063e51fe6631161006f578063e51fe66314610817578063ef18e9ed14610840578063f2fde38b14610869578063fc3fa70f14610892578063feb21699146108bd57610230565b8063bc31c1c114610730578063c4a3df101461076d578063ccfc1fc914610798578063d45fc36b146107c3578063dbd8987c146107ec57610230565b8063a0876445116100f2578063a087644514610634578063a85c38ef1461065f578063af773709146106a1578063ba1c2a16146106ca578063bc15e601146106f357610230565b80638de932221461055c57806392bfdccb1461057857806395d4b2df146105a35780639d63848a146105e05780639e029fbc1461060b57610230565b80635fd8c710116101bc57806372fbb3901161018057806372fbb39014610489578063808b0a04146104b2578063873775ad146104dd5780638a29d0e4146105065780638da5cb5b1461053157610230565b80635fd8c710146103e05780636257dcc5146103f757806363111b651461042057806369edcd5b14610449578063715018a61461047257610230565b80632f12616d116102035780632f12616d146103035780633c00a96a1461032e5780634b6026731461034a578063514fcac71461038c5780635c717fb8146103b557610230565b806316eea7d5146102355780632453ffa81461027257806327e235e31461029d5780632a80805b146102da575b600080fd5b34801561024157600080fd5b5061025c60048036038101906102579190613461565b6108e8565b60405161026991906137bd565b60405180910390f35b34801561027e57600080fd5b50610287610908565b6040516102949190613833565b60405180910390f35b3480156102a957600080fd5b506102c460048036038101906102bf91906131ee565b61090e565b6040516102d19190613833565b60405180910390f35b3480156102e657600080fd5b5061030160048036038101906102fc9190613461565b610926565b005b34801561030f57600080fd5b506103186109dc565b6040516103259190613833565b60405180910390f35b610348600480360381019061034391906133e4565b6109e2565b005b34801561035657600080fd5b50610371600480360381019061036c9190613461565b610f4a565b6040516103839695949392919061384e565b60405180910390f35b34801561039857600080fd5b506103b360048036038101906103ae9190613461565b6110b6565b005b3480156103c157600080fd5b506103ca611302565b6040516103d7919061372d565b60405180910390f35b3480156103ec57600080fd5b506103f5611328565b005b34801561040357600080fd5b5061041e60048036038101906104199190613461565b61145f565b005b34801561042c57600080fd5b5061044760048036038101906104429190613461565b611509565b005b34801561045557600080fd5b50610470600480360381019061046b91906131ee565b6115b3565b005b34801561047e57600080fd5b506104876116aa565b005b34801561049557600080fd5b506104b060048036038101906104ab9190613217565b6117e4565b005b3480156104be57600080fd5b506104c7611abc565b6040516104d49190613833565b60405180910390f35b3480156104e957600080fd5b5061050460048036038101906104ff9190613461565b611ac2565b005b34801561051257600080fd5b5061051b611b76565b604051610528919061372d565b60405180910390f35b34801561053d57600080fd5b50610546611b9c565b604051610553919061372d565b60405180910390f35b61057660048036038101906105719190613296565b611bc5565b005b34801561058457600080fd5b5061058d612385565b60405161059a9190613833565b60405180910390f35b3480156105af57600080fd5b506105ca60048036038101906105c59190613461565b61238b565b6040516105d791906137bd565b60405180910390f35b3480156105ec57600080fd5b506105f56123ab565b60405161060291906137d8565b60405180910390f35b34801561061757600080fd5b50610632600480360381019061062d9190613461565b6123d1565b005b34801561064057600080fd5b5061064961246c565b6040516106569190613833565b60405180910390f35b34801561066b57600080fd5b5061068660048036038101906106819190613461565b612472565b604051610698969594939291906138bd565b60405180910390f35b3480156106ad57600080fd5b506106c860048036038101906106c391906131ee565b6124ce565b005b3480156106d657600080fd5b506106f160048036038101906106ec9190613461565b6125a3565b005b3480156106ff57600080fd5b5061071a60048036038101906107159190613461565b612657565b60405161072791906137bd565b60405180910390f35b34801561073c57600080fd5b5061075760048036038101906107529190613461565b612677565b6040516107649190613833565b60405180910390f35b34801561077957600080fd5b5061078261268f565b60405161078f9190613833565b60405180910390f35b3480156107a457600080fd5b506107ad612695565b6040516107ba9190613833565b60405180910390f35b3480156107cf57600080fd5b506107ea60048036038101906107e59190613461565b61269b565b005b3480156107f857600080fd5b50610801612751565b60405161080e9190613833565b60405180910390f35b34801561082357600080fd5b5061083e600480360381019061083991906132d2565b612757565b005b34801561084c57600080fd5b5061086760048036038101906108629190613461565b612c0f565b005b34801561087557600080fd5b50610890600480360381019061088b91906131ee565b612dac565b005b34801561089e57600080fd5b506108a7612f55565b6040516108b49190613833565b60405180910390f35b3480156108c957600080fd5b506108d2612f5b565b6040516108df9190613833565b60405180910390f35b60146020528060005260406000206000915054906101000a900460ff1681565b600d5481565b60116020528060005260406000206000915090505481565b600560009054906101000a900473ffffffffffffffffffffffffffffffffffffffff1673ffffffffffffffffffffffffffffffffffffffff163373ffffffffffffffffffffffffffffffffffffffff161461098057600080fd5b60008111801561099257506009548111155b61099b57600080fd5b806008819055507f4cd3751160747e6cfe3950456d596ea7aeefa8fb336ed1792f8a7a832dc79385816040516109d19190613833565b60405180910390a150565b600a5481565b60008251905060085481101580156109fc57506009548111155b610a0557600080fd5b600a548210158015610a195750600b548211155b610a2257600080fd5b6000600d54905060006001905060005b83811015610bb3573373ffffffffffffffffffffffffffffffffffffffff16600e6000888481518110610a8e577f4e487b7100000000000000000000000000000000000000000000000000000000600052603260045260246000fd5b6020026020010151815260200190815260200160002060010160009054906101000a900473ffffffffffffffffffffffffffffffffffffffff1673ffffffffffffffffffffffffffffffffffffffff1614610ae857600080fd5b81600e6000888481518110610b26577f4e487b7100000000000000000000000000000000000000000000000000000000600052603260045260246000fd5b60200260200101518152602001908152602001600020600201541115610ba057600e6000878381518110610b83577f4e487b7100000000000000000000000000000000000000000000000000000000600052603260045260246000fd5b602002602001015181526020019081526020016000206002015491505b8080610bab90613f46565b915050610a32565b506000610c046064610bf686610be8600754610bda8b600654612f6190919063ffffffff16565b612f6190919063ffffffff16565b612f6190919063ffffffff16565b612f7790919063ffffffff16565b600654610c119190613d09565b905060008111610c2057600080fd5b6000610c4a6064610c3c60025485612f6190919063ffffffff16565b612f7790919063ffffffff16565b9050610c5f8183612f8d90919063ffffffff16565b3414610c6a57600080fd5b6040518060e001604052808581526020013373ffffffffffffffffffffffffffffffffffffffff16815260200183815260200188815260200187815260200184815260200142815250600f60008681526020019081526020016000206000820151816000015560208201518160010160006101000a81548173ffffffffffffffffffffffffffffffffffffffff021916908373ffffffffffffffffffffffffffffffffffffffff160217905550604082015181600201556060820151816003019080519060200190610d3d929190612fc1565b506080820151816004015560a0820151816005015560c08201518160060155905050610db182601160003073ffffffffffffffffffffffffffffffffffffffff1673ffffffffffffffffffffffffffffffffffffffff16815260200190815260200160002054612f8d90919063ffffffff16565b601160003073ffffffffffffffffffffffffffffffffffffffff1673ffffffffffffffffffffffffffffffffffffffff16815260200190815260200160002081905550610e688160116000600360009054906101000a900473ffffffffffffffffffffffffffffffffffffffff1673ffffffffffffffffffffffffffffffffffffffff1673ffffffffffffffffffffffffffffffffffffffff16815260200190815260200160002054612f8d90919063ffffffff16565b60116000600360009054906101000a900473ffffffffffffffffffffffffffffffffffffffff1673ffffffffffffffffffffffffffffffffffffffff1673ffffffffffffffffffffffffffffffffffffffff16815260200190815260200160002081905550610ee36001600d54612f8d90919063ffffffff16565b600d819055503373ffffffffffffffffffffffffffffffffffffffff167fea6d3114e11168d7162e8537e39f28a853c350c9980461aa095181b2c172a2d085848a8a8842604051610f39969594939291906139e1565b60405180910390a250505050505050565b600e6020528060005260406000206000915090508060000154908060010160009054906101000a900473ffffffffffffffffffffffffffffffffffffffff1690806002015490806003018054610f9f90613efa565b80601f0160208091040260200160405190810160405280929190818152602001828054610fcb90613efa565b80156110185780601f10610fed57610100808354040283529160200191611018565b820191906000526020600020905b815481529060010190602001808311610ffb57829003601f168201915b50505050509080600401805461102d90613efa565b80601f016020809104026020016040519081016040528092919081815260200182805461105990613efa565b80156110a65780601f1061107b576101008083540402835291602001916110a6565b820191906000526020600020905b81548152906001019060200180831161108957829003601f168201915b5050505050908060070154905086565b6000600f60008381526020019081526020016000209050818160000154146110dd57600080fd5b8060010160009054906101000a900473ffffffffffffffffffffffffffffffffffffffff1673ffffffffffffffffffffffffffffffffffffffff163373ffffffffffffffffffffffffffffffffffffffff161461113957600080fd5b60016013600084815260200190815260200160002060006101000a81548160ff0219169083151502179055506111bb8160020154601160003373ffffffffffffffffffffffffffffffffffffffff1673ffffffffffffffffffffffffffffffffffffffff16815260200190815260200160002054612f8d90919063ffffffff16565b601160003373ffffffffffffffffffffffffffffffffffffffff1673ffffffffffffffffffffffffffffffffffffffff168152602001908152602001600020819055506112548160020154601160003073ffffffffffffffffffffffffffffffffffffffff1673ffffffffffffffffffffffffffffffffffffffff16815260200190815260200160002054612fa390919063ffffffff16565b601160003073ffffffffffffffffffffffffffffffffffffffff1673ffffffffffffffffffffffffffffffffffffffff168152602001908152602001600020819055503373ffffffffffffffffffffffffffffffffffffffff167f057fa5c8af6f0d3dfedc67d0489c48dc8cd5dd00db429b88dc62a32c503bc85a8383600201548460030185600401548660050154426040516112f696959493929190613a49565b60405180910390a25050565b600560009054906101000a900473ffffffffffffffffffffffffffffffffffffffff1681565b60003390506000601160008373ffffffffffffffffffffffffffffffffffffffff1673ffffffffffffffffffffffffffffffffffffffff1681526020019081526020016000205490506000811161137e57600080fd5b6000601160008473ffffffffffffffffffffffffffffffffffffffff1673ffffffffffffffffffffffffffffffffffffffff168152602001908152602001600020819055508173ffffffffffffffffffffffffffffffffffffffff166108fc829081150290604051600060405180830381858888f19350505050158015611409573d6000803e3d6000fd5b503373ffffffffffffffffffffffffffffffffffffffff167ff279e6a1f5e320cca91135676d9cb6e44ca8a08c0b88342bcdb1144f6511b56882600060405161145392919061391e565b60405180910390a25050565b600560009054906101000a900473ffffffffffffffffffffffffffffffffffffffff1673ffffffffffffffffffffffffffffffffffffffff163373ffffffffffffffffffffffffffffffffffffffff16146114b957600080fd5b600a548110156114c857600080fd5b80600b819055507f703a6e785abfff48f61400577bb93dc582bce65968a713aba8727697867b76b9816040516114fe9190613833565b60405180910390a150565b600560009054906101000a900473ffffffffffffffffffffffffffffffffffffffff1673ffffffffffffffffffffffffffffffffffffffff163373ffffffffffffffffffffffffffffffffffffffff161461156357600080fd5b60085481101561157257600080fd5b806009819055507f8716afd9d9db8ea58651072558c14bbeffab5769cd1a4ee6317a77b0ebdbc86f816040516115a89190613833565b60405180910390a150565b6115bb612fb9565b73ffffffffffffffffffffffffffffffffffffffff166115d9611b9c565b73ffffffffffffffffffffffffffffffffffffffff161461162f576040517f08c379a000000000000000000000000000000000000000000000000000000000815260040161162690613813565b60405180910390fd5b80600360006101000a81548173ffffffffffffffffffffffffffffffffffffffff021916908373ffffffffffffffffffffffffffffffffffffffff1602179055507f7658ea79a138308a79efaf790e1faa92326d041116ac14108d7582d8927d86238160405161169f919061372d565b60405180910390a150565b6116b2612fb9565b73ffffffffffffffffffffffffffffffffffffffff166116d0611b9c565b73ffffffffffffffffffffffffffffffffffffffff1614611726576040517f08c379a000000000000000000000000000000000000000000000000000000000815260040161171d90613813565b60405180910390fd5b600073ffffffffffffffffffffffffffffffffffffffff1660008054906101000a900473ffffffffffffffffffffffffffffffffffffffff1673ffffffffffffffffffffffffffffffffffffffff167f8be0079c531659141344cd1fd0a4f28419497f9722a3daafe3b4186f6b6457e060405160405180910390a360008060006101000a81548173ffffffffffffffffffffffffffffffffffffffff021916908373ffffffffffffffffffffffffffffffffffffffff160217905550565b600560009054906101000a900473ffffffffffffffffffffffffffffffffffffffff1673ffffffffffffffffffffffffffffffffffffffff163373ffffffffffffffffffffffffffffffffffffffff161461183e57600080fd5b6000600c54905060606040518061010001604052808381526020013373ffffffffffffffffffffffffffffffffffffffff1681526020016000815260200185815260200184815260200182815260200182815260200142815250600e60008481526020019081526020016000206000820151816000015560208201518160010160006101000a81548173ffffffffffffffffffffffffffffffffffffffff021916908373ffffffffffffffffffffffffffffffffffffffff16021790555060408201518160020155606082015181600301908051906020019061192292919061300e565b50608082015181600401908051906020019061193f92919061300e565b5060a082015181600501908051906020019061195c929190612fc1565b5060c0820151816006019080519060200190611979929190612fc1565b5060e0820151816007015590505061199d6001600c54612f8d90919063ffffffff16565b600c8190555060065460106000848152602001908152602001600020819055508473ffffffffffffffffffffffffffffffffffffffff16635c21bc2c3384876040518463ffffffff1660e01b81526004016119fa9392919061377f565b602060405180830381600087803b158015611a1457600080fd5b505af1158015611a28573d6000803e3d6000fd5b505050506040513d601f19601f82011682018060405250810190611a4c9190613438565b611a5557600080fd5b3373ffffffffffffffffffffffffffffffffffffffff167f657248a13499ac2f9745544f304d5f5cd10c4690789f3036ecf4db442c699e9183620f423f60008888878842604051611aad989796959493929190613947565b60405180910390a25050505050565b60085481565b600560009054906101000a900473ffffffffffffffffffffffffffffffffffffffff1673ffffffffffffffffffffffffffffffffffffffff163373ffffffffffffffffffffffffffffffffffffffff1614611b1c57600080fd5b600081118015611b2c5750606481105b611b3557600080fd5b806007819055507f343c52fbb5bef9771857fe5c42c0f1e6d8c49bad05431088368efbff1271f6de81604051611b6b9190613833565b60405180910390a150565b600360009054906101000a900473ffffffffffffffffffffffffffffffffffffffff1681565b60008060009054906101000a900473ffffffffffffffffffffffffffffffffffffffff16905090565b6000600e6000838152602001908152602001600020905081816000015414611bec57600080fd5b8060010160009054906101000a900473ffffffffffffffffffffffffffffffffffffffff1673ffffffffffffffffffffffffffffffffffffffff163373ffffffffffffffffffffffffffffffffffffffff161415611c4957600080fd5b60006010600084815260200190815260200160002054905060008111611c6e57600080fd5b6000806000611c9b6064611c8d60025487612f6190919063ffffffff16565b612f7790919063ffffffff16565b9050600560009054906101000a900473ffffffffffffffffffffffffffffffffffffffff1673ffffffffffffffffffffffffffffffffffffffff168560010160009054906101000a900473ffffffffffffffffffffffffffffffffffffffff1673ffffffffffffffffffffffffffffffffffffffff161415611ee757611d2a8185612f8d90919063ffffffff16565b9250611da284601160008860010160009054906101000a900473ffffffffffffffffffffffffffffffffffffffff1673ffffffffffffffffffffffffffffffffffffffff1673ffffffffffffffffffffffffffffffffffffffff16815260200190815260200160002054612f8d90919063ffffffff16565b601160008760010160009054906101000a900473ffffffffffffffffffffffffffffffffffffffff1673ffffffffffffffffffffffffffffffffffffffff1673ffffffffffffffffffffffffffffffffffffffff16815260200190815260200160002081905550611e7d8160116000600360009054906101000a900473ffffffffffffffffffffffffffffffffffffffff1673ffffffffffffffffffffffffffffffffffffffff1673ffffffffffffffffffffffffffffffffffffffff16815260200190815260200160002054612f8d90919063ffffffff16565b60116000600360009054906101000a900473ffffffffffffffffffffffffffffffffffffffff1673ffffffffffffffffffffffffffffffffffffffff1673ffffffffffffffffffffffffffffffffffffffff168152602001908152602001600020819055506121c8565b611f0f6064611f0160045487612f6190919063ffffffff16565b612f7790919063ffffffff16565b9150611f3681611f288487612f8d90919063ffffffff16565b612f8d90919063ffffffff16565b9250611fae84601160008860010160009054906101000a900473ffffffffffffffffffffffffffffffffffffffff1673ffffffffffffffffffffffffffffffffffffffff1673ffffffffffffffffffffffffffffffffffffffff16815260200190815260200160002054612f8d90919063ffffffff16565b601160008760010160009054906101000a900473ffffffffffffffffffffffffffffffffffffffff1673ffffffffffffffffffffffffffffffffffffffff1673ffffffffffffffffffffffffffffffffffffffff168152602001908152602001600020819055506120898260116000600560009054906101000a900473ffffffffffffffffffffffffffffffffffffffff1673ffffffffffffffffffffffffffffffffffffffff1673ffffffffffffffffffffffffffffffffffffffff16815260200190815260200160002054612f8d90919063ffffffff16565b60116000600560009054906101000a900473ffffffffffffffffffffffffffffffffffffffff1673ffffffffffffffffffffffffffffffffffffffff1673ffffffffffffffffffffffffffffffffffffffff168152602001908152602001600020819055506121628160116000600360009054906101000a900473ffffffffffffffffffffffffffffffffffffffff1673ffffffffffffffffffffffffffffffffffffffff1673ffffffffffffffffffffffffffffffffffffffff16815260200190815260200160002054612f8d90919063ffffffff16565b60116000600360009054906101000a900473ffffffffffffffffffffffffffffffffffffffff1673ffffffffffffffffffffffffffffffffffffffff1673ffffffffffffffffffffffffffffffffffffffff168152602001908152602001600020819055505b8234146121d457600080fd5b600060106000888152602001908152602001600020819055508673ffffffffffffffffffffffffffffffffffffffff1663f5537ede8660010160009054906101000a900473ffffffffffffffffffffffffffffffffffffffff1633896040518463ffffffff1660e01b815260040161224e93929190613748565b602060405180830381600087803b15801561226857600080fd5b505af115801561227c573d6000803e3d6000fd5b505050506040513d601f19601f820116820180604052508101906122a09190613438565b6122a957600080fd5b338560010160006101000a81548173ffffffffffffffffffffffffffffffffffffffff021916908373ffffffffffffffffffffffffffffffffffffffff1602179055508460010160009054906101000a900473ffffffffffffffffffffffffffffffffffffffff1673ffffffffffffffffffffffffffffffffffffffff167fb1838bb61f200d4b1ceb3bc21bbb0949a749b686851cec558d4d9797b6c3365887868860020154896003018a6004018b6005018c60060142604051612374989796959493929190613b4b565b60405180910390a250505050505050565b60045481565b60126020528060005260406000206000915054906101000a900460ff1681565b600160009054906101000a900473ffffffffffffffffffffffffffffffffffffffff1681565b600560009054906101000a900473ffffffffffffffffffffffffffffffffffffffff1673ffffffffffffffffffffffffffffffffffffffff163373ffffffffffffffffffffffffffffffffffffffff161461242b57600080fd5b806006819055507ff7bb41fe9a942f8a8b4e0e70976c6b601d08828605d4e0d37032bb65c0417e3a816040516124619190613833565b60405180910390a150565b600c5481565b600f6020528060005260406000206000915090508060000154908060010160009054906101000a900473ffffffffffffffffffffffffffffffffffffffff16908060020154908060040154908060050154908060060154905086565b600560009054906101000a900473ffffffffffffffffffffffffffffffffffffffff1673ffffffffffffffffffffffffffffffffffffffff163373ffffffffffffffffffffffffffffffffffffffff161461252857600080fd5b80600560006101000a81548173ffffffffffffffffffffffffffffffffffffffff021916908373ffffffffffffffffffffffffffffffffffffffff1602179055507fb67233be38122c366518474e4dae8a7114c33bf0aa0c5831d9e61a978589cb0281604051612598919061372d565b60405180910390a150565b600560009054906101000a900473ffffffffffffffffffffffffffffffffffffffff1673ffffffffffffffffffffffffffffffffffffffff163373ffffffffffffffffffffffffffffffffffffffff16146125fd57600080fd5b60008111801561260d5750606481105b61261657600080fd5b806004819055507fd893ccc11fbb06ad0b7c9111b4639fe6f31715d3d13eee8b6aba69eac4e4cb428160405161264c9190613833565b60405180910390a150565b60136020528060005260406000206000915054906101000a900460ff1681565b60106020528060005260406000206000915090505481565b60095481565b60065481565b600560009054906101000a900473ffffffffffffffffffffffffffffffffffffffff1673ffffffffffffffffffffffffffffffffffffffff163373ffffffffffffffffffffffffffffffffffffffff16146126f557600080fd5b6000811180156127075750600b548111155b61271057600080fd5b80600a819055507f761a7db8d7cedddf18cc620d1e937eb8d70309bc674d35275fb9432059324e97816040516127469190613833565b60405180910390a150565b60025481565b600560009054906101000a900473ffffffffffffffffffffffffffffffffffffffff1673ffffffffffffffffffffffffffffffffffffffff163373ffffffffffffffffffffffffffffffffffffffff16146127b157600080fd5b6000600f60008981526020019081526020016000209050878160000154146127d857600080fd5b60011515601260008a815260200190815260200160002060009054906101000a900460ff1615151461280957600080fd5b6000600c5490506040518061010001604052808281526020018473ffffffffffffffffffffffffffffffffffffffff16815260200187815260200189815260200188815260200186815260200185815260200142815250600e60008381526020019081526020016000206000820151816000015560208201518160010160006101000a81548173ffffffffffffffffffffffffffffffffffffffff021916908373ffffffffffffffffffffffffffffffffffffffff1602179055506040820151816002015560608201518160030190805190602001906128ea92919061300e565b50608082015181600401908051906020019061290792919061300e565b5060a0820151816005019080519060200190612924929190612fc1565b5060c0820151816006019080519060200190612941929190612fc1565b5060e082015181600701559050506001601460008b815260200190815260200160002060006101000a81548160ff0219169083151502179055506129916001600c54612f8d90919063ffffffff16565b600c81905550600082600201549050612a148160116000600560009054906101000a900473ffffffffffffffffffffffffffffffffffffffff1673ffffffffffffffffffffffffffffffffffffffff1673ffffffffffffffffffffffffffffffffffffffff16815260200190815260200160002054612f8d90919063ffffffff16565b60116000600560009054906101000a900473ffffffffffffffffffffffffffffffffffffffff1673ffffffffffffffffffffffffffffffffffffffff1673ffffffffffffffffffffffffffffffffffffffff16815260200190815260200160002081905550612acb81601160003073ffffffffffffffffffffffffffffffffffffffff1673ffffffffffffffffffffffffffffffffffffffff16815260200190815260200160002054612fa390919063ffffffff16565b601160003073ffffffffffffffffffffffffffffffffffffffff1673ffffffffffffffffffffffffffffffffffffffff168152602001908152602001600020819055508a73ffffffffffffffffffffffffffffffffffffffff16635c21bc2c85848c6040518463ffffffff1660e01b8152600401612b4b9392919061377f565b602060405180830381600087803b158015612b6557600080fd5b505af1158015612b79573d6000803e3d6000fd5b505050506040513d601f19601f82011682018060405250810190612b9d9190613438565b612ba657600080fd5b8373ffffffffffffffffffffffffffffffffffffffff167f657248a13499ac2f9745544f304d5f5cd10c4690789f3036ecf4db442c699e91838c8a8d8d8c8c42604051612bfa989796959493929190613ab1565b60405180910390a25050505050505050505050565b600560009054906101000a900473ffffffffffffffffffffffffffffffffffffffff1673ffffffffffffffffffffffffffffffffffffffff163373ffffffffffffffffffffffffffffffffffffffff1614612c6957600080fd5b6000600f6000838152602001908152602001600020905081816000015414612c9057600080fd5b600015156013600084815260200190815260200160002060009054906101000a900460ff161515148015612ce85750600015156014600084815260200190815260200160002060009054906101000a900460ff161515145b612cf157600080fd5b60016012600084815260200190815260200160002060006101000a81548160ff0219169083151502179055508060010160009054906101000a900473ffffffffffffffffffffffffffffffffffffffff1673ffffffffffffffffffffffffffffffffffffffff167f30a8ec127d500fd2ce70a37e1e9f8b83679d53e1148ce5a68bc4c43c1de8cc02838360020154846003018560040154866005015442604051612da096959493929190613a49565b60405180910390a25050565b612db4612fb9565b73ffffffffffffffffffffffffffffffffffffffff16612dd2611b9c565b73ffffffffffffffffffffffffffffffffffffffff1614612e28576040517f08c379a0000000000000000000000000000000000000000000000000000000008152600401612e1f90613813565b60405180910390fd5b600073ffffffffffffffffffffffffffffffffffffffff168173ffffffffffffffffffffffffffffffffffffffff161415612e98576040517f08c379a0000000000000000000000000000000000000000000000000000000008152600401612e8f906137f3565b60405180910390fd5b8073ffffffffffffffffffffffffffffffffffffffff1660008054906101000a900473ffffffffffffffffffffffffffffffffffffffff1673ffffffffffffffffffffffffffffffffffffffff167f8be0079c531659141344cd1fd0a4f28419497f9722a3daafe3b4186f6b6457e060405160405180910390a3806000806101000a81548173ffffffffffffffffffffffffffffffffffffffff021916908373ffffffffffffffffffffffffffffffffffffffff16021790555050565b600b5481565b60075481565b60008183612f6f9190613d90565b905092915050565b60008183612f859190613d5f565b905092915050565b60008183612f9b9190613d09565b905092915050565b60008183612fb19190613dea565b905092915050565b600033905090565b828054828255906000526020600020908101928215612ffd579160200282015b82811115612ffc578251825591602001919060010190612fe1565b5b50905061300a9190613094565b5090565b82805461301a90613efa565b90600052602060002090601f01602090048101928261303c5760008555613083565b82601f1061305557805160ff1916838001178555613083565b82800160010185558215613083579182015b82811115613082578251825591602001919060010190613067565b5b5090506130909190613094565b5090565b5b808211156130ad576000816000905550600101613095565b5090565b60006130c46130bf84613c16565b613be5565b905080838252602082019050828560208602820111156130e357600080fd5b60005b8581101561311357816130f988826131d9565b8452602084019350602083019250506001810190506130e6565b5050509392505050565b600061313061312b84613c42565b613be5565b90508281526020810184848401111561314857600080fd5b613153848285613eb8565b509392505050565b60008135905061316a8161407c565b92915050565b600082601f83011261318157600080fd5b81356131918482602086016130b1565b91505092915050565b6000815190506131a981614093565b92915050565b600082601f8301126131c057600080fd5b81356131d084826020860161311d565b91505092915050565b6000813590506131e8816140aa565b92915050565b60006020828403121561320057600080fd5b600061320e8482850161315b565b91505092915050565b60008060006060848603121561322c57600080fd5b600061323a8682870161315b565b935050602084013567ffffffffffffffff81111561325757600080fd5b613263868287016131af565b925050604084013567ffffffffffffffff81111561328057600080fd5b61328c868287016131af565b9150509250925092565b600080604083850312156132a957600080fd5b60006132b78582860161315b565b92505060206132c8858286016131d9565b9150509250929050565b600080600080600080600080610100898b0312156132ef57600080fd5b60006132fd8b828c0161315b565b985050602061330e8b828c016131d9565b975050604089013567ffffffffffffffff81111561332b57600080fd5b6133378b828c016131af565b965050606089013567ffffffffffffffff81111561335457600080fd5b6133608b828c016131af565b95505060806133718b828c016131d9565b94505060a089013567ffffffffffffffff81111561338e57600080fd5b61339a8b828c01613170565b93505060c089013567ffffffffffffffff8111156133b757600080fd5b6133c38b828c01613170565b92505060e06133d48b828c0161315b565b9150509295985092959890939650565b600080604083850312156133f757600080fd5b600083013567ffffffffffffffff81111561341157600080fd5b61341d85828601613170565b925050602061342e858286016131d9565b9150509250929050565b60006020828403121561344a57600080fd5b60006134588482850161319a565b91505092915050565b60006020828403121561347357600080fd5b6000613481848285016131d9565b91505092915050565b6000613496838361370f565b60208301905092915050565b6134ab81613e28565b82525050565b60006134bc82613cac565b6134c68185613ce7565b93506134d183613c72565b8060005b838110156135025781516134e9888261348a565b97506134f483613ccd565b9250506001810190506134d5565b5085935050505092915050565b600061351a82613cb7565b6135248185613ce7565b935061352f83613c82565b8060005b83811015613567576135448261404b565b61354e888261348a565b975061355983613cda565b925050600181019050613533565b5085935050505092915050565b61357d81613e3a565b82525050565b61358c81613e70565b82525050565b61359b81613e94565b82525050565b6135aa81613ea6565b82525050565b60006135bb82613cc2565b6135c58185613cf8565b93506135d5818560208601613ec7565b6135de8161405e565b840191505092915050565b600081546135f681613efa565b6136008186613cf8565b9450600182166000811461361b576001811461362d57613660565b60ff1983168652602086019350613660565b61363685613c97565b60005b8381101561365857815481890152600182019150602081019050613639565b808801955050505b50505092915050565b6000613676602683613cf8565b91507f4f776e61626c653a206e6577206f776e657220697320746865207a65726f206160008301527f64647265737300000000000000000000000000000000000000000000000000006020830152604082019050919050565b60006136dc602083613cf8565b91507f4f776e61626c653a2063616c6c6572206973206e6f7420746865206f776e65726000830152602082019050919050565b61371881613e66565b82525050565b61372781613e66565b82525050565b600060208201905061374260008301846134a2565b92915050565b600060608201905061375d60008301866134a2565b61376a60208301856134a2565b613777604083018461371e565b949350505050565b600060608201905061379460008301866134a2565b6137a1602083018561371e565b81810360408301526137b381846135b0565b9050949350505050565b60006020820190506137d26000830184613574565b92915050565b60006020820190506137ed6000830184613583565b92915050565b6000602082019050818103600083015261380c81613669565b9050919050565b6000602082019050818103600083015261382c816136cf565b9050919050565b6000602082019050613848600083018461371e565b92915050565b600060c082019050613863600083018961371e565b61387060208301886134a2565b61387d604083018761371e565b818103606083015261388f81866135b0565b905081810360808301526138a381856135b0565b90506138b260a083018461371e565b979650505050505050565b600060c0820190506138d2600083018961371e565b6138df60208301886134a2565b6138ec604083018761371e565b6138f9606083018661371e565b613906608083018561371e565b61391360a083018461371e565b979650505050505050565b6000604082019050613933600083018561371e565b6139406020830184613592565b9392505050565b60006101008201905061395d600083018b61371e565b61396a602083018a6135a1565b6139776040830189613592565b818103606083015261398981886135b0565b9050818103608083015261399d81876135b0565b905081810360a08301526139b181866134b1565b905081810360c08301526139c581856134b1565b90506139d460e083018461371e565b9998505050505050505050565b600060c0820190506139f6600083018961371e565b613a03602083018861371e565b8181036040830152613a1581876134b1565b9050613a24606083018661371e565b613a31608083018561371e565b613a3e60a083018461371e565b979650505050505050565b600060c082019050613a5e600083018961371e565b613a6b602083018861371e565b8181036040830152613a7d818761350f565b9050613a8c606083018661371e565b613a99608083018561371e565b613aa660a083018461371e565b979650505050505050565b600061010082019050613ac7600083018b61371e565b613ad4602083018a61371e565b613ae1604083018961371e565b8181036060830152613af381886135b0565b90508181036080830152613b0781876135b0565b905081810360a0830152613b1b81866134b1565b905081810360c0830152613b2f81856134b1565b9050613b3e60e083018461371e565b9998505050505050505050565b600061010082019050613b61600083018b61371e565b613b6e602083018a61371e565b613b7b604083018961371e565b8181036060830152613b8d81886135e9565b90508181036080830152613ba181876135e9565b905081810360a0830152613bb5818661350f565b905081810360c0830152613bc9818561350f565b9050613bd860e083018461371e565b9998505050505050505050565b6000604051905081810181811067ffffffffffffffff82111715613c0c57613c0b61401c565b5b8060405250919050565b600067ffffffffffffffff821115613c3157613c3061401c565b5b602082029050602081019050919050565b600067ffffffffffffffff821115613c5d57613c5c61401c565b5b601f19601f8301169050602081019050919050565b6000819050602082019050919050565b60008190508160005260206000209050919050565b60008190508160005260206000209050919050565b600081519050919050565b600081549050919050565b600081519050919050565b6000602082019050919050565b6000600182019050919050565b600082825260208201905092915050565b600082825260208201905092915050565b6000613d1482613e66565b9150613d1f83613e66565b9250827fffffffffffffffffffffffffffffffffffffffffffffffffffffffffffffffff03821115613d5457613d53613f8f565b5b828201905092915050565b6000613d6a82613e66565b9150613d7583613e66565b925082613d8557613d84613fbe565b5b828204905092915050565b6000613d9b82613e66565b9150613da683613e66565b9250817fffffffffffffffffffffffffffffffffffffffffffffffffffffffffffffffff0483118215151615613ddf57613dde613f8f565b5b828202905092915050565b6000613df582613e66565b9150613e0083613e66565b925082821015613e1357613e12613f8f565b5b828203905092915050565b6000819050919050565b6000613e3382613e46565b9050919050565b60008115159050919050565b600073ffffffffffffffffffffffffffffffffffffffff82169050919050565b6000819050919050565b6000613e7b82613e82565b9050919050565b6000613e8d82613e46565b9050919050565b6000613e9f82613e66565b9050919050565b6000613eb182613e66565b9050919050565b82818337600083830152505050565b60005b83811015613ee5578082015181840152602081019050613eca565b83811115613ef4576000848401525b50505050565b60006002820490506001821680613f1257607f821691505b60208210811415613f2657613f25613fed565b5b50919050565b6000613f3f613f3a8361406f565b613e1e565b9050919050565b6000613f5182613e66565b91507fffffffffffffffffffffffffffffffffffffffffffffffffffffffffffffffff821415613f8457613f83613f8f565b5b600182019050919050565b7f4e487b7100000000000000000000000000000000000000000000000000000000600052601160045260246000fd5b7f4e487b7100000000000000000000000000000000000000000000000000000000600052601260045260246000fd5b7f4e487b7100000000000000000000000000000000000000000000000000000000600052602260045260246000fd5b7f4e487b7100000000000000000000000000000000000000000000000000000000600052604160045260246000fd5b60006140578254613f2c565b9050919050565b6000601f19601f8301169050919050565b60008160001c9050919050565b61408581613e28565b811461409057600080fd5b50565b61409c81613e3a565b81146140a757600080fd5b50565b6140b381613e66565b81146140be57600080fd5b5056fea2646970667358221220365511a6a1292516666d6bf1c25e533a47d96220597b9314447c304a0f7e802864736f6c63430008000033",
  "immutableReferences": {},
  "source": "// SPDX-License-Identifier: MIT\npragma solidity >=0.4.22 <0.9.0;\n\nimport './Tokens.sol';\nimport \"@openzeppelin/contracts/access/Ownable.sol\";\nimport \"@openzeppelin/contracts/token/ERC721/extensions/ERC721URIStorage.sol\";\nimport \"@openzeppelin/contracts/utils/math/SafeMath.sol\";\n\n// TODO: \n// TODO: fix tests where artist is buyer\n// TODO: tests for rejects order if filled or cancelled\n// TODO: tests for purchase if from artist or not\n// TODO: test for events for settings both constructor and updates\n// TODO: test withdraw events\n// TODO: remove non used features, functions, etc.\n\ncontract ArtFactory is Ownable {\n\n  using SafeMath for uint256;\n\n  Tokens public tokens;\n  \n  uint256 public contractFeePercentage; // percentage out of 100\n  address public contractFeeAccount;\n  uint256 public artistFeePercentage; // percentage out of 100\n  address public artistFeeAccount;\n  uint256 public baseArtPrice; // in wei\n  uint256 public parentMultiplierPercentage; // percentage out of 100\n  uint256 public minParents;\n  uint256 public maxParents;\n  uint256 public minLegacies;\n  uint256 public maxLegacies;\n  uint256 public artworkCount;\n  uint256 public orderCount;\n\n  mapping(uint256 => Art) public artworks;\n  mapping(uint256 => _Order) public orders;\n  mapping(uint256 => uint256) public prices;\n  mapping(address => uint256) public balances;\n  mapping(uint256 => bool) public acceptedOrders;\n  mapping(uint256 => bool) public cancelledOrders;\n  mapping(uint256 => bool) public filledOrders;\n\n  struct Art {\n    uint256 id;\n    address owner;\n    uint256 gen;\n    string tokenURI;\n    string name;\n    uint256[] parents;\n    uint256[] siblings;\n    uint256 timestamp;\n  }\n\n  struct _Order {\n    uint256 id;\n    address buyer;\n    uint256 price;\n    uint256[] parentIDS;\n    uint256 numLegacies;\n    uint256 gen;\n    uint256 timestamp;\n  }\n\n  event NewArt(uint256 id, uint256 orderID, address indexed owner, uint256 gen, string tokenURI, string name, uint256[] parents, uint256[] siblings, uint256 timestamp);\n  event Order(uint256 id, address indexed buyer, uint256 price, uint256[] parentIDS, uint256 numLegacies, uint256 gen, uint256 timestamp);\n  event Accept(uint256 id, address indexed buyer, uint256 price, uint256[] parentIDS, uint256 numLegacies, uint256 gen, uint256 timestamp);\n  event Cancel(uint256 id, address indexed buyer, uint256 price, uint256[] parentIDS, uint256 numLegacies, uint256 gen, uint256 timestamp);\n  event ArtForSale(uint256 id, uint256 price, address indexed owner, uint256 gen, string tokenURI, string name, uint256[] parents, uint256[] siblings, uint256 timestamp);\n  event SaleCancel(uint256 id, address indexed owner, uint256 gen, string tokenURI, string name, uint256[] parents, uint256[] siblings, uint256 timestamp);\n  event Purchase(uint256 id, uint256 price, address indexed buyer, uint256 gen, string tokenURI, string name, uint256[] parents, uint256[] siblings, uint256 timestamp);\n  event ContractFeeAccount(address newAddress);\n  event ArtistFeeAccount(address newAddress);\n  event ContractFeePercentage(uint256 newAmount);\n  event ArtistFeePercentage(uint256 newAmount);\n  event BaseArtPrice(uint256 newAmount);\n  event ParentMultiplierPercentage(uint256 newAmount);\n  event MinParents(uint256 newAmount);\n  event MaxParents(uint256 newAmount);\n  event MinLegacies(uint256 newAmount);\n  event MaxLegacies(uint256 newAmount);\n  event Withdraw(address indexed user, uint256 amount, uint256 balance);\n\n\n  constructor(\n    address _artistFeeAccount,\n    uint256 _artistFeePercentage,\n    uint256 _baseArtPrice,\n    uint256 _parentMultiplierPercentage,\n    uint256 _minParents,\n    uint256 _maxParents,\n    uint256 _minLegacies,\n    uint256 _maxLegacies\n    ){\n    \n    artworkCount = 0;\n    orderCount = 0;\n    contractFeePercentage = 1;\n    contractFeeAccount = msg.sender;\n\n    artistFeeAccount = _artistFeeAccount;\n    artistFeePercentage = _artistFeePercentage;\n    baseArtPrice = _baseArtPrice;\n    parentMultiplierPercentage = _parentMultiplierPercentage;\n    minParents = _minParents;\n    maxParents = _maxParents;\n    minLegacies = _minLegacies;\n    maxLegacies = _maxLegacies;\n\n    emit ContractFeeAccount(msg.sender);\n    emit ArtistFeeAccount(_artistFeeAccount);\n    emit ContractFeePercentage(contractFeePercentage);\n    emit ArtistFeePercentage(_artistFeePercentage);\n    emit BaseArtPrice(_baseArtPrice);\n    emit ParentMultiplierPercentage(_parentMultiplierPercentage);\n    emit MinParents(_minParents);\n    emit MaxParents(_maxParents);\n    emit MinLegacies(_minLegacies);\n    emit MaxLegacies(_maxLegacies);\n  }\n\n  modifier onlyArtist() {\n    require(msg.sender == artistFeeAccount);\n    _;\n  }\n\n  function changeContractFeeAccount(address _contractFeeAccount) public onlyOwner {\n    contractFeeAccount = _contractFeeAccount;\n    emit ContractFeeAccount(_contractFeeAccount);\n  }\n\n  function changeArtistFeeAccount(address _artistFeeAccount) public onlyArtist {\n    artistFeeAccount = _artistFeeAccount;\n    emit ArtistFeeAccount(_artistFeeAccount);\n  }\n\n  function changeArtistFeePercentage(uint256 _artistFeePercentage) public onlyArtist {\n    require(_artistFeePercentage > 0 && _artistFeePercentage < 100);\n    artistFeePercentage = _artistFeePercentage;\n    emit ArtistFeePercentage(_artistFeePercentage);\n  }\n\n  function changeBaseArtPrice(uint256 _baseArtPrice) public onlyArtist {\n    baseArtPrice = _baseArtPrice;\n    emit BaseArtPrice(_baseArtPrice);\n  }\n\n  function changeParentMultiplierPercentage(uint256 _parentMultiplierPercentage) public onlyArtist {\n    require(_parentMultiplierPercentage > 0 && _parentMultiplierPercentage < 100);\n    parentMultiplierPercentage = _parentMultiplierPercentage;\n    emit ParentMultiplierPercentage(_parentMultiplierPercentage);\n  }\n\n  function changeMinParents(uint256 _minParents) public onlyArtist {\n    require(_minParents > 0 && _minParents <= maxParents);\n    minParents = _minParents;\n    emit MinParents(_minParents);\n  }\n\n  function changeMaxParents(uint256 _maxParents) public onlyArtist {\n    require(_maxParents >= minParents);\n    maxParents = _maxParents;\n    emit MaxParents(_maxParents);\n  }\n\n  function changeMinLegacies(uint256 _minLegacies) public onlyArtist {\n    require(_minLegacies > 0 && _minLegacies <= maxLegacies);\n    minLegacies = _minLegacies;\n    emit MinLegacies(_minLegacies);\n  }\n\n  function changeMaxLegacies(uint256 _maxLegacies) public onlyArtist {\n    require(_maxLegacies >= minLegacies);\n    maxLegacies = _maxLegacies;\n    emit MaxLegacies(_maxLegacies);\n  }\n\n  function createArtGen0(address _tokensAddress, string memory _tokenURI, string memory _name) public onlyArtist {\n    uint256 _id = artworkCount;\n    uint256[] memory arr;\n\n    artworks[_id] = Art(_id, msg.sender, 0, _tokenURI, _name, arr, arr, block.timestamp);\n    artworkCount = artworkCount.add(1);\n    prices[_id] = baseArtPrice;\n\n    require(Tokens(_tokensAddress).createToken(msg.sender, _id, _tokenURI));\n    \n    emit NewArt(_id, 999999,msg.sender, 0, _tokenURI, _name, arr, arr, block.timestamp);\n  }\n\n  function createArtFromOrder(address _tokensAddress, uint256 _orderID, string memory _tokenURI, string memory _name, uint256 _gen, uint256[] memory _parents, uint256[] memory _siblings, address _buyer) public onlyArtist {\n    _Order storage _order = orders[_orderID];\n    require(_order.id == _orderID);\n    require(acceptedOrders[_orderID] == true);\n    \n    uint256 _id = artworkCount;\n    artworks[_id] = Art(_id, _buyer, _gen, _tokenURI, _name, _parents, _siblings, block.timestamp);\n    \n    filledOrders[_orderID] = true;\n    artworkCount = artworkCount.add(1);\n\n    uint256 _price = _order.price;\n    balances[artistFeeAccount] = balances[artistFeeAccount].add(_price);\n    balances[address(this)] = balances[address(this)].sub(_price);\n\n    require(Tokens(_tokensAddress).createToken(_buyer, _id, _tokenURI));\n    \n    emit NewArt(_id, _orderID, _buyer, _gen, _tokenURI, _name, _parents, _siblings, block.timestamp);\n  }\n\n  function purchase(address _tokenAddress, uint256 _id) public payable {\n    Art storage _art = artworks[_id];\n    require(_art.id == _id);\n    require(msg.sender != _art.owner);\n    uint256 _price = prices[_id];\n    require(_price > 0);\n\n    uint256 totalPrice;\n    uint256 artistCut;\n    uint256 contractCut = _price.mul(contractFeePercentage).div(100);\n    \n    if(_art.owner == artistFeeAccount){\n      totalPrice = _price.add(contractCut);\n\n      balances[_art.owner] = balances[_art.owner].add(_price);\n      balances[contractFeeAccount] = balances[contractFeeAccount].add(contractCut);\n    } else {\n      artistCut = _price.mul(artistFeePercentage).div(100);\n      totalPrice = _price.add(artistCut).add(contractCut);\n\n      balances[_art.owner] = balances[_art.owner].add(_price);\n      balances[artistFeeAccount] = balances[artistFeeAccount].add(artistCut);\n      balances[contractFeeAccount] = balances[contractFeeAccount].add(contractCut);\n    }\n    require(msg.value == totalPrice);\n\n    prices[_id] = 0;\n\n    require(Tokens(_tokenAddress).transferToken(_art.owner, msg.sender, _id));\n\n    _art.owner = msg.sender;\n    \n    emit Purchase(_id, _price, _art.owner, _art.gen, _art.tokenURI, _art.name, _art.parents, _art.siblings, block.timestamp);\n  }\n\n  function createOrder(uint256[] memory _parentIDS, uint256 _numLegacies) public payable {\n    uint256 _numParents = _parentIDS.length;\n    require(_numParents >= minParents && _numParents <= maxParents);\n    require(_numLegacies >= minLegacies && _numLegacies <= maxLegacies);\n    \n    uint256 _id = orderCount;\n    \n    uint256 _gen = 1;\n    for(uint256 i=0;i<_numParents;i++) {\n      require(artworks[_parentIDS[i]].owner == msg.sender);\n      if (artworks[_parentIDS[i]].gen > _gen) {\n        _gen = artworks[_parentIDS[i]].gen;\n      }\n    }\n\n    uint256 _price = baseArtPrice + (baseArtPrice.mul(_numLegacies).mul(parentMultiplierPercentage).mul(_numParents).div(100));  // TODO: CHECK THIS\n    require(_price > 0);\n    uint256 _contractFee = _price.mul(contractFeePercentage).div(100);\n    require(msg.value == _price.add(_contractFee));\n    orders[_id] = _Order(_id, msg.sender, _price, _parentIDS, _numLegacies, _gen, block.timestamp);\n    \n    balances[address(this)] = balances[address(this)].add(_price);\n    balances[contractFeeAccount] = balances[contractFeeAccount].add(_contractFee);\n    orderCount = orderCount.add(1);\n    \n    emit Order(_id, msg.sender, _price, _parentIDS, _numLegacies, _gen, block.timestamp);\n  }\n\n  function acceptOrder(uint256 _id) public onlyArtist {\n    _Order storage _order = orders[_id];\n    require(_order.id == _id);\n    require(cancelledOrders[_id] == false && filledOrders[_id] == false);\n    acceptedOrders[_id] = true;\n    \n    emit Accept(_id, _order.buyer, _order.price, _order.parentIDS, _order.numLegacies, _order.gen, block.timestamp);\n  }\n\n  function cancelOrder(uint256 _id) public {\n    _Order storage _order = orders[_id];\n    require(_order.id == _id);\n    require(msg.sender == _order.buyer);\n    \n    cancelledOrders[_id] = true;\n    balances[msg.sender] = balances[msg.sender].add(_order.price); // TODO: need to test\n    balances[address(this)] = balances[address(this)].sub(_order.price); // TODO: need to test\n    \n    emit Cancel(_id, msg.sender, _order.price, _order.parentIDS, _order.numLegacies, _order.gen, block.timestamp);\n  }\n\n  function withdrawBalance() public {\n    address payable _account = payable(msg.sender);\n    uint256 _currentBalance = balances[_account];\n    require(_currentBalance > 0 );\n    \n    balances[_account] = 0;\n    _account.transfer(_currentBalance);\n    \n    emit Withdraw(msg.sender, _currentBalance, 0);\n  }\n}",
  "sourcePath": "/Users/andrewmlevy/Documents/blockchain/4_portfolio_projects/art-marketplace/src/contracts/ArtFactory.sol",
  "compiler": {
    "name": "solc",
    "version": "0.8.0+commit.c7dfd78e.Emscripten.clang"
  },
  "schemaVersion": "3.4.1",
  "updatedAt": "2021-07-13T18:35:57.799Z",
  "networkType": "ethereum",
  "devdoc": {
    "kind": "dev",
    "methods": {
      "owner()": {
        "details": "Returns the address of the current owner."
      },
      "renounceOwnership()": {
        "details": "Leaves the contract without owner. It will not be possible to call `onlyOwner` functions anymore. Can only be called by the current owner. NOTE: Renouncing ownership will leave the contract without an owner, thereby removing any functionality that is only available to the owner."
      },
      "transferOwnership(address)": {
        "details": "Transfers ownership of the contract to a new account (`newOwner`). Can only be called by the current owner."
      }
    },
    "version": 1
  },
  "userdoc": {
    "kind": "user",
    "methods": {},
    "version": 1
  }
}