{
  "contractName": "ArtFactory",
  "abi": [
    {
      "inputs": [
        {
          "internalType": "address",
          "name": "_artistFeeAccount",
          "type": "address"
        },
        {
          "internalType": "uint256",
          "name": "_artistFeePercentage",
          "type": "uint256"
        },
        {
          "internalType": "uint256",
          "name": "_baseArtPrice",
          "type": "uint256"
        },
        {
          "internalType": "uint256",
          "name": "_parentMultiplierPercentage",
          "type": "uint256"
        },
        {
          "internalType": "uint256",
          "name": "_minParents",
          "type": "uint256"
        },
        {
          "internalType": "uint256",
          "name": "_maxParents",
          "type": "uint256"
        },
        {
          "internalType": "uint256",
          "name": "_minLegacies",
          "type": "uint256"
        },
        {
          "internalType": "uint256",
          "name": "_maxLegacies",
          "type": "uint256"
        }
      ],
      "stateMutability": "nonpayable",
      "type": "constructor"
    },
    {
      "anonymous": false,
      "inputs": [
        {
          "indexed": false,
          "internalType": "uint256",
          "name": "id",
          "type": "uint256"
        },
        {
          "indexed": true,
          "internalType": "address",
          "name": "buyer",
          "type": "address"
        },
        {
          "indexed": false,
          "internalType": "uint256",
          "name": "price",
          "type": "uint256"
        },
        {
          "indexed": false,
          "internalType": "uint256[]",
          "name": "parentIDS",
          "type": "uint256[]"
        },
        {
          "indexed": false,
          "internalType": "uint256",
          "name": "numLegacies",
          "type": "uint256"
        },
        {
          "indexed": false,
          "internalType": "uint256",
          "name": "gen",
          "type": "uint256"
        }
      ],
      "name": "Accept",
      "type": "event"
    },
    {
      "anonymous": false,
      "inputs": [
        {
          "indexed": true,
          "internalType": "address",
          "name": "owner",
          "type": "address"
        },
        {
          "indexed": true,
          "internalType": "address",
          "name": "approved",
          "type": "address"
        },
        {
          "indexed": true,
          "internalType": "uint256",
          "name": "tokenId",
          "type": "uint256"
        }
      ],
      "name": "Approval",
      "type": "event"
    },
    {
      "anonymous": false,
      "inputs": [
        {
          "indexed": true,
          "internalType": "address",
          "name": "owner",
          "type": "address"
        },
        {
          "indexed": true,
          "internalType": "address",
          "name": "operator",
          "type": "address"
        },
        {
          "indexed": false,
          "internalType": "bool",
          "name": "approved",
          "type": "bool"
        }
      ],
      "name": "ApprovalForAll",
      "type": "event"
    },
    {
      "anonymous": false,
      "inputs": [
        {
          "indexed": false,
          "internalType": "uint256",
          "name": "id",
          "type": "uint256"
        },
        {
          "indexed": false,
          "internalType": "uint256",
          "name": "ordreID",
          "type": "uint256"
        },
        {
          "indexed": true,
          "internalType": "address",
          "name": "owner",
          "type": "address"
        },
        {
          "indexed": false,
          "internalType": "uint256",
          "name": "gen",
          "type": "uint256"
        },
        {
          "indexed": false,
          "internalType": "string",
          "name": "tokenURI",
          "type": "string"
        },
        {
          "indexed": false,
          "internalType": "string",
          "name": "name",
          "type": "string"
        },
        {
          "indexed": false,
          "internalType": "bool",
          "name": "legacyCreated",
          "type": "bool"
        },
        {
          "indexed": false,
          "internalType": "uint256[]",
          "name": "parents",
          "type": "uint256[]"
        },
        {
          "indexed": false,
          "internalType": "uint256[]",
          "name": "siblings",
          "type": "uint256[]"
        }
      ],
      "name": "ArtFromOrder",
      "type": "event"
    },
    {
      "anonymous": false,
      "inputs": [
        {
          "indexed": false,
          "internalType": "uint256",
          "name": "id",
          "type": "uint256"
        },
        {
          "indexed": true,
          "internalType": "address",
          "name": "owner",
          "type": "address"
        },
        {
          "indexed": false,
          "internalType": "uint256",
          "name": "gen",
          "type": "uint256"
        },
        {
          "indexed": false,
          "internalType": "string",
          "name": "tokenURI",
          "type": "string"
        },
        {
          "indexed": false,
          "internalType": "string",
          "name": "name",
          "type": "string"
        },
        {
          "indexed": false,
          "internalType": "bool",
          "name": "legacyCreated",
          "type": "bool"
        },
        {
          "indexed": false,
          "internalType": "uint256[]",
          "name": "parents",
          "type": "uint256[]"
        },
        {
          "indexed": false,
          "internalType": "uint256[]",
          "name": "siblings",
          "type": "uint256[]"
        }
      ],
      "name": "ArtGen0",
      "type": "event"
    },
    {
      "anonymous": false,
      "inputs": [
        {
          "indexed": false,
          "internalType": "uint256",
          "name": "id",
          "type": "uint256"
        },
        {
          "indexed": true,
          "internalType": "address",
          "name": "buyer",
          "type": "address"
        },
        {
          "indexed": false,
          "internalType": "uint256",
          "name": "price",
          "type": "uint256"
        },
        {
          "indexed": false,
          "internalType": "uint256[]",
          "name": "parentIDS",
          "type": "uint256[]"
        },
        {
          "indexed": false,
          "internalType": "uint256",
          "name": "numLegacies",
          "type": "uint256"
        },
        {
          "indexed": false,
          "internalType": "uint256",
          "name": "gen",
          "type": "uint256"
        }
      ],
      "name": "Cancel",
      "type": "event"
    },
    {
      "anonymous": false,
      "inputs": [
        {
          "indexed": false,
          "internalType": "uint256",
          "name": "id",
          "type": "uint256"
        },
        {
          "indexed": true,
          "internalType": "address",
          "name": "buyer",
          "type": "address"
        },
        {
          "indexed": false,
          "internalType": "uint256",
          "name": "price",
          "type": "uint256"
        },
        {
          "indexed": false,
          "internalType": "uint256[]",
          "name": "parentIDS",
          "type": "uint256[]"
        },
        {
          "indexed": false,
          "internalType": "uint256",
          "name": "numLegacies",
          "type": "uint256"
        },
        {
          "indexed": false,
          "internalType": "uint256",
          "name": "gen",
          "type": "uint256"
        }
      ],
      "name": "Order",
      "type": "event"
    },
    {
      "anonymous": false,
      "inputs": [
        {
          "indexed": true,
          "internalType": "address",
          "name": "previousOwner",
          "type": "address"
        },
        {
          "indexed": true,
          "internalType": "address",
          "name": "newOwner",
          "type": "address"
        }
      ],
      "name": "OwnershipTransferred",
      "type": "event"
    },
    {
      "anonymous": false,
      "inputs": [
        {
          "indexed": true,
          "internalType": "address",
          "name": "from",
          "type": "address"
        },
        {
          "indexed": true,
          "internalType": "address",
          "name": "to",
          "type": "address"
        },
        {
          "indexed": true,
          "internalType": "uint256",
          "name": "tokenId",
          "type": "uint256"
        }
      ],
      "name": "Transfer",
      "type": "event"
    },
    {
      "inputs": [
        {
          "internalType": "uint256",
          "name": "",
          "type": "uint256"
        }
      ],
      "name": "acceptedOrders",
      "outputs": [
        {
          "internalType": "bool",
          "name": "",
          "type": "bool"
        }
      ],
      "stateMutability": "view",
      "type": "function",
      "constant": true
    },
    {
      "inputs": [
        {
          "internalType": "address",
          "name": "to",
          "type": "address"
        },
        {
          "internalType": "uint256",
          "name": "tokenId",
          "type": "uint256"
        }
      ],
      "name": "approve",
      "outputs": [],
      "stateMutability": "nonpayable",
      "type": "function"
    },
    {
      "inputs": [],
      "name": "artistFeeAccount",
      "outputs": [
        {
          "internalType": "address",
          "name": "",
          "type": "address"
        }
      ],
      "stateMutability": "view",
      "type": "function",
      "constant": true
    },
    {
      "inputs": [],
      "name": "artistFeePercentage",
      "outputs": [
        {
          "internalType": "uint256",
          "name": "",
          "type": "uint256"
        }
      ],
      "stateMutability": "view",
      "type": "function",
      "constant": true
    },
    {
      "inputs": [],
      "name": "artworkCount",
      "outputs": [
        {
          "internalType": "uint256",
          "name": "",
          "type": "uint256"
        }
      ],
      "stateMutability": "view",
      "type": "function",
      "constant": true
    },
    {
      "inputs": [
        {
          "internalType": "uint256",
          "name": "",
          "type": "uint256"
        }
      ],
      "name": "artworks",
      "outputs": [
        {
          "internalType": "uint256",
          "name": "id",
          "type": "uint256"
        },
        {
          "internalType": "address",
          "name": "owner",
          "type": "address"
        },
        {
          "internalType": "uint256",
          "name": "gen",
          "type": "uint256"
        },
        {
          "internalType": "string",
          "name": "tokenURI",
          "type": "string"
        },
        {
          "internalType": "string",
          "name": "name",
          "type": "string"
        },
        {
          "internalType": "bool",
          "name": "legacyCreated",
          "type": "bool"
        }
      ],
      "stateMutability": "view",
      "type": "function",
      "constant": true
    },
    {
      "inputs": [
        {
          "internalType": "address",
          "name": "owner",
          "type": "address"
        }
      ],
      "name": "balanceOf",
      "outputs": [
        {
          "internalType": "uint256",
          "name": "",
          "type": "uint256"
        }
      ],
      "stateMutability": "view",
      "type": "function",
      "constant": true
    },
    {
      "inputs": [
        {
          "internalType": "address",
          "name": "",
          "type": "address"
        }
      ],
      "name": "balances",
      "outputs": [
        {
          "internalType": "uint256",
          "name": "",
          "type": "uint256"
        }
      ],
      "stateMutability": "view",
      "type": "function",
      "constant": true
    },
    {
      "inputs": [],
      "name": "baseArtPrice",
      "outputs": [
        {
          "internalType": "uint256",
          "name": "",
          "type": "uint256"
        }
      ],
      "stateMutability": "view",
      "type": "function",
      "constant": true
    },
    {
      "inputs": [
        {
          "internalType": "uint256",
          "name": "",
          "type": "uint256"
        }
      ],
      "name": "cancelledOrders",
      "outputs": [
        {
          "internalType": "bool",
          "name": "",
          "type": "bool"
        }
      ],
      "stateMutability": "view",
      "type": "function",
      "constant": true
    },
    {
      "inputs": [],
      "name": "contractFeeAccount",
      "outputs": [
        {
          "internalType": "address",
          "name": "",
          "type": "address"
        }
      ],
      "stateMutability": "view",
      "type": "function",
      "constant": true
    },
    {
      "inputs": [],
      "name": "contractFeePercentage",
      "outputs": [
        {
          "internalType": "uint256",
          "name": "",
          "type": "uint256"
        }
      ],
      "stateMutability": "view",
      "type": "function",
      "constant": true
    },
    {
      "inputs": [
        {
          "internalType": "uint256",
          "name": "",
          "type": "uint256"
        }
      ],
      "name": "filledOrders",
      "outputs": [
        {
          "internalType": "bool",
          "name": "",
          "type": "bool"
        }
      ],
      "stateMutability": "view",
      "type": "function",
      "constant": true
    },
    {
      "inputs": [
        {
          "internalType": "uint256",
          "name": "tokenId",
          "type": "uint256"
        }
      ],
      "name": "getApproved",
      "outputs": [
        {
          "internalType": "address",
          "name": "",
          "type": "address"
        }
      ],
      "stateMutability": "view",
      "type": "function",
      "constant": true
    },
    {
      "inputs": [
        {
          "internalType": "address",
          "name": "owner",
          "type": "address"
        },
        {
          "internalType": "address",
          "name": "operator",
          "type": "address"
        }
      ],
      "name": "isApprovedForAll",
      "outputs": [
        {
          "internalType": "bool",
          "name": "",
          "type": "bool"
        }
      ],
      "stateMutability": "view",
      "type": "function",
      "constant": true
    },
    {
      "inputs": [],
      "name": "maxLegacies",
      "outputs": [
        {
          "internalType": "uint256",
          "name": "",
          "type": "uint256"
        }
      ],
      "stateMutability": "view",
      "type": "function",
      "constant": true
    },
    {
      "inputs": [],
      "name": "maxParents",
      "outputs": [
        {
          "internalType": "uint256",
          "name": "",
          "type": "uint256"
        }
      ],
      "stateMutability": "view",
      "type": "function",
      "constant": true
    },
    {
      "inputs": [],
      "name": "minLegacies",
      "outputs": [
        {
          "internalType": "uint256",
          "name": "",
          "type": "uint256"
        }
      ],
      "stateMutability": "view",
      "type": "function",
      "constant": true
    },
    {
      "inputs": [],
      "name": "minParents",
      "outputs": [
        {
          "internalType": "uint256",
          "name": "",
          "type": "uint256"
        }
      ],
      "stateMutability": "view",
      "type": "function",
      "constant": true
    },
    {
      "inputs": [],
      "name": "name",
      "outputs": [
        {
          "internalType": "string",
          "name": "",
          "type": "string"
        }
      ],
      "stateMutability": "view",
      "type": "function",
      "constant": true
    },
    {
      "inputs": [],
      "name": "orderCount",
      "outputs": [
        {
          "internalType": "uint256",
          "name": "",
          "type": "uint256"
        }
      ],
      "stateMutability": "view",
      "type": "function",
      "constant": true
    },
    {
      "inputs": [
        {
          "internalType": "uint256",
          "name": "",
          "type": "uint256"
        }
      ],
      "name": "orders",
      "outputs": [
        {
          "internalType": "uint256",
          "name": "id",
          "type": "uint256"
        },
        {
          "internalType": "address",
          "name": "buyer",
          "type": "address"
        },
        {
          "internalType": "uint256",
          "name": "price",
          "type": "uint256"
        },
        {
          "internalType": "uint256",
          "name": "numLegacies",
          "type": "uint256"
        },
        {
          "internalType": "uint256",
          "name": "gen",
          "type": "uint256"
        }
      ],
      "stateMutability": "view",
      "type": "function",
      "constant": true
    },
    {
      "inputs": [],
      "name": "owner",
      "outputs": [
        {
          "internalType": "address",
          "name": "",
          "type": "address"
        }
      ],
      "stateMutability": "view",
      "type": "function",
      "constant": true
    },
    {
      "inputs": [
        {
          "internalType": "uint256",
          "name": "tokenId",
          "type": "uint256"
        }
      ],
      "name": "ownerOf",
      "outputs": [
        {
          "internalType": "address",
          "name": "",
          "type": "address"
        }
      ],
      "stateMutability": "view",
      "type": "function",
      "constant": true
    },
    {
      "inputs": [],
      "name": "parentMultiplierPercentage",
      "outputs": [
        {
          "internalType": "uint256",
          "name": "",
          "type": "uint256"
        }
      ],
      "stateMutability": "view",
      "type": "function",
      "constant": true
    },
    {
      "inputs": [
        {
          "internalType": "uint256",
          "name": "",
          "type": "uint256"
        }
      ],
      "name": "prices",
      "outputs": [
        {
          "internalType": "uint256",
          "name": "",
          "type": "uint256"
        }
      ],
      "stateMutability": "view",
      "type": "function",
      "constant": true
    },
    {
      "inputs": [],
      "name": "renounceOwnership",
      "outputs": [],
      "stateMutability": "nonpayable",
      "type": "function"
    },
    {
      "inputs": [
        {
          "internalType": "address",
          "name": "from",
          "type": "address"
        },
        {
          "internalType": "address",
          "name": "to",
          "type": "address"
        },
        {
          "internalType": "uint256",
          "name": "tokenId",
          "type": "uint256"
        }
      ],
      "name": "safeTransferFrom",
      "outputs": [],
      "stateMutability": "nonpayable",
      "type": "function"
    },
    {
      "inputs": [
        {
          "internalType": "address",
          "name": "from",
          "type": "address"
        },
        {
          "internalType": "address",
          "name": "to",
          "type": "address"
        },
        {
          "internalType": "uint256",
          "name": "tokenId",
          "type": "uint256"
        },
        {
          "internalType": "bytes",
          "name": "_data",
          "type": "bytes"
        }
      ],
      "name": "safeTransferFrom",
      "outputs": [],
      "stateMutability": "nonpayable",
      "type": "function"
    },
    {
      "inputs": [
        {
          "internalType": "address",
          "name": "operator",
          "type": "address"
        },
        {
          "internalType": "bool",
          "name": "approved",
          "type": "bool"
        }
      ],
      "name": "setApprovalForAll",
      "outputs": [],
      "stateMutability": "nonpayable",
      "type": "function"
    },
    {
      "inputs": [
        {
          "internalType": "bytes4",
          "name": "interfaceId",
          "type": "bytes4"
        }
      ],
      "name": "supportsInterface",
      "outputs": [
        {
          "internalType": "bool",
          "name": "",
          "type": "bool"
        }
      ],
      "stateMutability": "view",
      "type": "function",
      "constant": true
    },
    {
      "inputs": [],
      "name": "symbol",
      "outputs": [
        {
          "internalType": "string",
          "name": "",
          "type": "string"
        }
      ],
      "stateMutability": "view",
      "type": "function",
      "constant": true
    },
    {
      "inputs": [
        {
          "internalType": "uint256",
          "name": "tokenId",
          "type": "uint256"
        }
      ],
      "name": "tokenURI",
      "outputs": [
        {
          "internalType": "string",
          "name": "",
          "type": "string"
        }
      ],
      "stateMutability": "view",
      "type": "function",
      "constant": true
    },
    {
      "inputs": [
        {
          "internalType": "address",
          "name": "from",
          "type": "address"
        },
        {
          "internalType": "address",
          "name": "to",
          "type": "address"
        },
        {
          "internalType": "uint256",
          "name": "tokenId",
          "type": "uint256"
        }
      ],
      "name": "transferFrom",
      "outputs": [],
      "stateMutability": "nonpayable",
      "type": "function"
    },
    {
      "inputs": [
        {
          "internalType": "address",
          "name": "newOwner",
          "type": "address"
        }
      ],
      "name": "transferOwnership",
      "outputs": [],
      "stateMutability": "nonpayable",
      "type": "function"
    },
    {
      "inputs": [
        {
          "internalType": "address",
          "name": "_contractFeeAccount",
          "type": "address"
        }
      ],
      "name": "changeContractFeeAccount",
      "outputs": [],
      "stateMutability": "nonpayable",
      "type": "function"
    },
    {
      "inputs": [
        {
          "internalType": "address",
          "name": "_artistFeeAccount",
          "type": "address"
        }
      ],
      "name": "changeArtistFeeAccount",
      "outputs": [],
      "stateMutability": "nonpayable",
      "type": "function"
    },
    {
      "inputs": [
        {
          "internalType": "uint256",
          "name": "_artistFeePercentage",
          "type": "uint256"
        }
      ],
      "name": "changeArtistFeePercentage",
      "outputs": [],
      "stateMutability": "nonpayable",
      "type": "function"
    },
    {
      "inputs": [
        {
          "internalType": "uint256",
          "name": "_baseArtPrice",
          "type": "uint256"
        }
      ],
      "name": "changeBaseArtPrice",
      "outputs": [],
      "stateMutability": "nonpayable",
      "type": "function"
    },
    {
      "inputs": [
        {
          "internalType": "uint256",
          "name": "_parentMultiplierPercentage",
          "type": "uint256"
        }
      ],
      "name": "changeParentMultiplierPercentage",
      "outputs": [],
      "stateMutability": "nonpayable",
      "type": "function"
    },
    {
      "inputs": [
        {
          "internalType": "uint256",
          "name": "_minParents",
          "type": "uint256"
        }
      ],
      "name": "changeMinParents",
      "outputs": [],
      "stateMutability": "nonpayable",
      "type": "function"
    },
    {
      "inputs": [
        {
          "internalType": "uint256",
          "name": "_maxParents",
          "type": "uint256"
        }
      ],
      "name": "changeMaxParents",
      "outputs": [],
      "stateMutability": "nonpayable",
      "type": "function"
    },
    {
      "inputs": [
        {
          "internalType": "uint256",
          "name": "_minLegacies",
          "type": "uint256"
        }
      ],
      "name": "changeMinLegacies",
      "outputs": [],
      "stateMutability": "nonpayable",
      "type": "function"
    },
    {
      "inputs": [
        {
          "internalType": "uint256",
          "name": "_maxLegacies",
          "type": "uint256"
        }
      ],
      "name": "changeMaxLegacies",
      "outputs": [],
      "stateMutability": "nonpayable",
      "type": "function"
    },
    {
      "inputs": [
        {
          "internalType": "string",
          "name": "_tokenURI",
          "type": "string"
        },
        {
          "internalType": "string",
          "name": "_name",
          "type": "string"
        }
      ],
      "name": "createArtGen0",
      "outputs": [],
      "stateMutability": "nonpayable",
      "type": "function"
    },
    {
      "inputs": [
        {
          "internalType": "uint256",
          "name": "_orderID",
          "type": "uint256"
        },
        {
          "internalType": "string",
          "name": "_tokenURI",
          "type": "string"
        },
        {
          "internalType": "string",
          "name": "_name",
          "type": "string"
        },
        {
          "internalType": "uint256",
          "name": "_gen",
          "type": "uint256"
        },
        {
          "internalType": "uint256[]",
          "name": "_parents",
          "type": "uint256[]"
        },
        {
          "internalType": "uint256[]",
          "name": "_siblings",
          "type": "uint256[]"
        },
        {
          "internalType": "address",
          "name": "_buyer",
          "type": "address"
        }
      ],
      "name": "createArtFromOrder",
      "outputs": [],
      "stateMutability": "nonpayable",
      "type": "function"
    },
    {
      "inputs": [
        {
          "internalType": "uint256[]",
          "name": "_parentIDS",
          "type": "uint256[]"
        },
        {
          "internalType": "uint256",
          "name": "_numLegacies",
          "type": "uint256"
        }
      ],
      "name": "createOrder",
      "outputs": [],
      "stateMutability": "payable",
      "type": "function",
      "payable": true
    },
    {
      "inputs": [
        {
          "internalType": "uint256",
          "name": "_id",
          "type": "uint256"
        }
      ],
      "name": "acceptOrder",
      "outputs": [],
      "stateMutability": "nonpayable",
      "type": "function"
    },
    {
      "inputs": [
        {
          "internalType": "uint256",
          "name": "_id",
          "type": "uint256"
        }
      ],
      "name": "cancelOrder",
      "outputs": [],
      "stateMutability": "nonpayable",
      "type": "function"
    }
  ],
  "bytecode": "0x60806040523480156200001157600080fd5b50604051620057fa380380620057fa833981810160405281019062000037919062000346565b6040518060400160405280600381526020017f41727400000000000000000000000000000000000000000000000000000000008152506040518060400160405280600381526020017f41525400000000000000000000000000000000000000000000000000000000008152506000620000b56200026060201b60201c565b9050806000806101000a81548173ffffffffffffffffffffffffffffffffffffffff021916908373ffffffffffffffffffffffffffffffffffffffff1602179055508073ffffffffffffffffffffffffffffffffffffffff16600073ffffffffffffffffffffffffffffffffffffffff167f8be0079c531659141344cd1fd0a4f28419497f9722a3daafe3b4186f6b6457e060405160405180910390a35081600190805190602001906200016b92919062000268565b5080600290805190602001906200018492919062000268565b50505060006012819055506000601381905550600160088190555033600960006101000a81548173ffffffffffffffffffffffffffffffffffffffff021916908373ffffffffffffffffffffffffffffffffffffffff16021790555087600b60006101000a81548173ffffffffffffffffffffffffffffffffffffffff021916908373ffffffffffffffffffffffffffffffffffffffff16021790555086600a8190555085600c8190555084600d8190555083600e8190555082600f8190555081601081905550806011819055505050505050505050620004e0565b600033905090565b828054620002769062000447565b90600052602060002090601f0160209004810192826200029a5760008555620002e6565b82601f10620002b557805160ff1916838001178555620002e6565b82800160010185558215620002e6579182015b82811115620002e5578251825591602001919060010190620002c8565b5b509050620002f59190620002f9565b5090565b5b8082111562000314576000816000905550600101620002fa565b5090565b6000815190506200032981620004ac565b92915050565b6000815190506200034081620004c6565b92915050565b600080600080600080600080610100898b0312156200036457600080fd5b6000620003748b828c0162000318565b9850506020620003878b828c016200032f565b97505060406200039a8b828c016200032f565b9650506060620003ad8b828c016200032f565b9550506080620003c08b828c016200032f565b94505060a0620003d38b828c016200032f565b93505060c0620003e68b828c016200032f565b92505060e0620003f98b828c016200032f565b9150509295985092959890939650565b600062000416826200041d565b9050919050565b600073ffffffffffffffffffffffffffffffffffffffff82169050919050565b6000819050919050565b600060028204905060018216806200046057607f821691505b602082108114156200047757620004766200047d565b5b50919050565b7f4e487b7100000000000000000000000000000000000000000000000000000000600052602260045260246000fd5b620004b78162000409565b8114620004c357600080fd5b50565b620004d1816200043d565b8114620004dd57600080fd5b50565b61530a80620004f06000396000f3fe6080604052600436106102ae5760003560e01c80638da5cb5b11610175578063bc31c1c1116100dc578063e3cd230411610095578063f2fde38b1161006f578063f2fde38b14610af0578063f5b655bf14610b19578063fc3fa70f14610b42578063feb2169914610b6d576102ae565b8063e3cd230414610a61578063e985e9c514610a8a578063ef18e9ed14610ac7576102ae565b8063bc31c1c11461093d578063c4a3df101461097a578063c87b56dd146109a5578063ccfc1fc9146109e2578063d45fc36b14610a0d578063dbd8987c14610a36576102ae565b8063a22cb4651161012e578063a22cb4651461081b578063a85c38ef14610844578063af77370914610885578063b88d4fde146108ae578063ba1c2a16146108d7578063bc15e60114610900576102ae565b80638da5cb5b1461070957806392bfdccb1461073457806395d4b2df1461075f57806395d89b411461079c5780639e029fbc146107c7578063a0876445146107f0576102ae565b80634b6026731161021957806369edcd5b116101d257806369edcd5b1461060d57806370a0823114610636578063715018a614610673578063808b0a041461068a578063873775ad146106b55780638a29d0e4146106de576102ae565b80634b602673146104e8578063514fcac71461052a5780635c717fb8146105535780636257dcc51461057e57806363111b65146105a75780636352211e146105d0576102ae565b80632453ffa81161026b5780632453ffa8146103e757806327e235e3146104125780632a80805b1461044f5780632f12616d146104785780633c00a96a146104a357806342842e0e146104bf576102ae565b806301ffc9a7146102b357806306fdde03146102f0578063081812fc1461031b578063095ea7b31461035857806316eea7d51461038157806323b872dd146103be575b600080fd5b3480156102bf57600080fd5b506102da60048036038101906102d59190613e12565b610b98565b6040516102e791906148df565b60405180910390f35b3480156102fc57600080fd5b50610305610c7a565b60405161031291906148fa565b60405180910390f35b34801561032757600080fd5b50610342600480360381019061033d9190613ed0565b610d0c565b60405161034f9190614878565b60405180910390f35b34801561036457600080fd5b5061037f600480360381019061037a9190613d82565b610d91565b005b34801561038d57600080fd5b506103a860048036038101906103a39190613ed0565b610ea9565b6040516103b591906148df565b60405180910390f35b3480156103ca57600080fd5b506103e560048036038101906103e09190613c7c565b610ec9565b005b3480156103f357600080fd5b506103fc610f29565b6040516104099190614b5c565b60405180910390f35b34801561041e57600080fd5b5061043960048036038101906104349190613c17565b610f2f565b6040516104469190614b5c565b60405180910390f35b34801561045b57600080fd5b5061047660048036038101906104719190613ed0565b610f47565b005b34801561048457600080fd5b5061048d610fc6565b60405161049a9190614b5c565b60405180910390f35b6104bd60048036038101906104b89190613dbe565b610fcc565b005b3480156104cb57600080fd5b506104e660048036038101906104e19190613c7c565b611566565b005b3480156104f457600080fd5b5061050f600480360381019061050a9190613ed0565b611586565b60405161052196959493929190614b77565b60405180910390f35b34801561053657600080fd5b50610551600480360381019061054c9190613ed0565b6116ff565b005b34801561055f57600080fd5b5061056861198d565b6040516105759190614878565b60405180910390f35b34801561058a57600080fd5b506105a560048036038101906105a09190613ed0565b6119b3565b005b3480156105b357600080fd5b506105ce60048036038101906105c99190613ed0565b611a26565b005b3480156105dc57600080fd5b506105f760048036038101906105f29190613ed0565b611a99565b6040516106049190614878565b60405180910390f35b34801561061957600080fd5b50610634600480360381019061062f9190613c17565b611b4b565b005b34801561064257600080fd5b5061065d60048036038101906106589190613c17565b611c0b565b60405161066a9190614b5c565b60405180910390f35b34801561067f57600080fd5b50610688611cc3565b005b34801561069657600080fd5b5061069f611dfd565b6040516106ac9190614b5c565b60405180910390f35b3480156106c157600080fd5b506106dc60048036038101906106d79190613ed0565b611e03565b005b3480156106ea57600080fd5b506106f3611e80565b6040516107009190614878565b60405180910390f35b34801561071557600080fd5b5061071e611ea6565b60405161072b9190614878565b60405180910390f35b34801561074057600080fd5b50610749611ecf565b6040516107569190614b5c565b60405180910390f35b34801561076b57600080fd5b5061078660048036038101906107819190613ed0565b611ed5565b60405161079391906148df565b60405180910390f35b3480156107a857600080fd5b506107b1611ef5565b6040516107be91906148fa565b60405180910390f35b3480156107d357600080fd5b506107ee60048036038101906107e99190613ed0565b611f87565b005b3480156107fc57600080fd5b50610805611feb565b6040516108129190614b5c565b60405180910390f35b34801561082757600080fd5b50610842600480360381019061083d9190613d46565b611ff1565b005b34801561085057600080fd5b5061086b60048036038101906108669190613ed0565b612172565b60405161087c959493929190614be6565b60405180910390f35b34801561089157600080fd5b506108ac60048036038101906108a79190613c17565b6121c8565b005b3480156108ba57600080fd5b506108d560048036038101906108d09190613ccb565b612266565b005b3480156108e357600080fd5b506108fe60048036038101906108f99190613ed0565b6122c8565b005b34801561090c57600080fd5b5061092760048036038101906109229190613ed0565b612345565b60405161093491906148df565b60405180910390f35b34801561094957600080fd5b50610964600480360381019061095f9190613ed0565b612365565b6040516109719190614b5c565b60405180910390f35b34801561098657600080fd5b5061098f61237d565b60405161099c9190614b5c565b60405180910390f35b3480156109b157600080fd5b506109cc60048036038101906109c79190613ed0565b612383565b6040516109d991906148fa565b60405180910390f35b3480156109ee57600080fd5b506109f76124d5565b604051610a049190614b5c565b60405180910390f35b348015610a1957600080fd5b50610a346004803603810190610a2f9190613ed0565b6124db565b005b348015610a4257600080fd5b50610a4b61255a565b604051610a589190614b5c565b60405180910390f35b348015610a6d57600080fd5b50610a886004803603810190610a839190613ef9565b612560565b005b348015610a9657600080fd5b50610ab16004803603810190610aac9190613c40565b612737565b604051610abe91906148df565b60405180910390f35b348015610ad357600080fd5b50610aee6004803603810190610ae99190613ed0565b6127cb565b005b348015610afc57600080fd5b50610b176004803603810190610b129190613c17565b6128e1565b005b348015610b2557600080fd5b50610b406004803603810190610b3b9190613e64565b612a8a565b005b348015610b4e57600080fd5b50610b57612cf2565b604051610b649190614b5c565b60405180910390f35b348015610b7957600080fd5b50610b82612cf8565b604051610b8f9190614b5c565b60405180910390f35b60007f80ac58cd000000000000000000000000000000000000000000000000000000007bffffffffffffffffffffffffffffffffffffffffffffffffffffffff1916827bffffffffffffffffffffffffffffffffffffffffffffffffffffffff19161480610c6357507f5b5e139f000000000000000000000000000000000000000000000000000000007bffffffffffffffffffffffffffffffffffffffffffffffffffffffff1916827bffffffffffffffffffffffffffffffffffffffffffffffffffffffff1916145b80610c735750610c7282612cfe565b5b9050919050565b606060018054610c89906150c5565b80601f0160208091040260200160405190810160405280929190818152602001828054610cb5906150c5565b8015610d025780601f10610cd757610100808354040283529160200191610d02565b820191906000526020600020905b815481529060010190602001808311610ce557829003601f168201915b5050505050905090565b6000610d1782612d68565b610d56576040517f08c379a0000000000000000000000000000000000000000000000000000000008152600401610d4d90614a9c565b60405180910390fd5b6005600083815260200190815260200160002060009054906101000a900473ffffffffffffffffffffffffffffffffffffffff169050919050565b6000610d9c82611a99565b90508073ffffffffffffffffffffffffffffffffffffffff168373ffffffffffffffffffffffffffffffffffffffff161415610e0d576040517f08c379a0000000000000000000000000000000000000000000000000000000008152600401610e0490614b1c565b60405180910390fd5b8073ffffffffffffffffffffffffffffffffffffffff16610e2c612dd4565b73ffffffffffffffffffffffffffffffffffffffff161480610e5b5750610e5a81610e55612dd4565b612737565b5b610e9a576040517f08c379a0000000000000000000000000000000000000000000000000000000008152600401610e91906149dc565b60405180910390fd5b610ea48383612ddc565b505050565b601a6020528060005260406000206000915054906101000a900460ff1681565b610eda610ed4612dd4565b82612e95565b610f19576040517f08c379a0000000000000000000000000000000000000000000000000000000008152600401610f1090614b3c565b60405180910390fd5b610f24838383612f73565b505050565b60135481565b60176020528060005260406000206000915090505481565b600b60009054906101000a900473ffffffffffffffffffffffffffffffffffffffff1673ffffffffffffffffffffffffffffffffffffffff163373ffffffffffffffffffffffffffffffffffffffff1614610fa157600080fd5b600081118015610fb35750600f548111155b610fbc57600080fd5b80600e8190555050565b60105481565b60008251905060006013549050600060019050600e548310158015610ff35750600f548311155b610ffc57600080fd5b601054841015801561101057506011548411155b61101957600080fd5b60005b8381101561119d573373ffffffffffffffffffffffffffffffffffffffff1660146000888481518110611078577f4e487b7100000000000000000000000000000000000000000000000000000000600052603260045260246000fd5b6020026020010151815260200190815260200160002060010160009054906101000a900473ffffffffffffffffffffffffffffffffffffffff1673ffffffffffffffffffffffffffffffffffffffff16146110d257600080fd5b8160146000888481518110611110577f4e487b7100000000000000000000000000000000000000000000000000000000600052603260045260246000fd5b6020026020010151815260200190815260200160002060020154111561118a576014600087838151811061116d577f4e487b7100000000000000000000000000000000000000000000000000000000600052603260045260246000fd5b602002602001015181526020019081526020016000206002015491505b808061119590615111565b91505061101c565b5060006111ee60646111e0866111d2600d546111c48b600c546131cf90919063ffffffff16565b6131cf90919063ffffffff16565b6131cf90919063ffffffff16565b6131e590919063ffffffff16565b600c546111fb9190614ede565b90506000811161120a57600080fd5b60006112346064611226600854856131cf90919063ffffffff16565b6131e590919063ffffffff16565b905061124981836131fb90919063ffffffff16565b341461125457600080fd5b6040518060c001604052808581526020013373ffffffffffffffffffffffffffffffffffffffff16815260200183815260200188815260200187815260200184815250601560008681526020019081526020016000206000820151816000015560208201518160010160006101000a81548173ffffffffffffffffffffffffffffffffffffffff021916908373ffffffffffffffffffffffffffffffffffffffff160217905550604082015181600201556060820151816003019080519060200190611321929190613958565b506080820151816004015560a082015181600501559050506113ad8260176000600b60009054906101000a900473ffffffffffffffffffffffffffffffffffffffff1673ffffffffffffffffffffffffffffffffffffffff1673ffffffffffffffffffffffffffffffffffffffff168152602001908152602001600020546131fb90919063ffffffff16565b60176000600b60009054906101000a900473ffffffffffffffffffffffffffffffffffffffff1673ffffffffffffffffffffffffffffffffffffffff1673ffffffffffffffffffffffffffffffffffffffff168152602001908152602001600020819055506114868160176000600960009054906101000a900473ffffffffffffffffffffffffffffffffffffffff1673ffffffffffffffffffffffffffffffffffffffff1673ffffffffffffffffffffffffffffffffffffffff168152602001908152602001600020546131fb90919063ffffffff16565b60176000600960009054906101000a900473ffffffffffffffffffffffffffffffffffffffff1673ffffffffffffffffffffffffffffffffffffffff1673ffffffffffffffffffffffffffffffffffffffff1681526020019081526020016000208190555061150160016013546131fb90919063ffffffff16565b6013819055503373ffffffffffffffffffffffffffffffffffffffff167f7b8553fd3c7e68edca43962e9bab9ff4c2098a62d976499e584d4272892a73af85848a8a88604051611555959493929190614cc4565b60405180910390a250505050505050565b61158183838360405180602001604052806000815250612266565b505050565b60146020528060005260406000206000915090508060000154908060010160009054906101000a900473ffffffffffffffffffffffffffffffffffffffff16908060020154908060030180546115db906150c5565b80601f0160208091040260200160405190810160405280929190818152602001828054611607906150c5565b80156116545780601f1061162957610100808354040283529160200191611654565b820191906000526020600020905b81548152906001019060200180831161163757829003601f168201915b505050505090806004018054611669906150c5565b80601f0160208091040260200160405190810160405280929190818152602001828054611695906150c5565b80156116e25780601f106116b7576101008083540402835291602001916116e2565b820191906000526020600020905b8154815290600101906020018083116116c557829003601f168201915b5050505050908060050160009054906101000a900460ff16905086565b60006015600083815260200190815260200160002090508181600001541461172657600080fd5b8060010160009054906101000a900473ffffffffffffffffffffffffffffffffffffffff1673ffffffffffffffffffffffffffffffffffffffff163373ffffffffffffffffffffffffffffffffffffffff161461178257600080fd5b60016019600084815260200190815260200160002060006101000a81548160ff0219169083151502179055506118048160020154601760003373ffffffffffffffffffffffffffffffffffffffff1673ffffffffffffffffffffffffffffffffffffffff168152602001908152602001600020546131fb90919063ffffffff16565b601760003373ffffffffffffffffffffffffffffffffffffffff1673ffffffffffffffffffffffffffffffffffffffff168152602001908152602001600020819055506118bf816002015460176000600b60009054906101000a900473ffffffffffffffffffffffffffffffffffffffff1673ffffffffffffffffffffffffffffffffffffffff1673ffffffffffffffffffffffffffffffffffffffff1681526020019081526020016000205461321190919063ffffffff16565b60176000600b60009054906101000a900473ffffffffffffffffffffffffffffffffffffffff1673ffffffffffffffffffffffffffffffffffffffff1673ffffffffffffffffffffffffffffffffffffffff168152602001908152602001600020819055503373ffffffffffffffffffffffffffffffffffffffff167f1aa7992f057072222c59373cdc4e6e37c776674a81b5c4d536266e7b79bc08518383600201548460030185600401548660050154604051611981959493929190614d1e565b60405180910390a25050565b600b60009054906101000a900473ffffffffffffffffffffffffffffffffffffffff1681565b600b60009054906101000a900473ffffffffffffffffffffffffffffffffffffffff1673ffffffffffffffffffffffffffffffffffffffff163373ffffffffffffffffffffffffffffffffffffffff1614611a0d57600080fd5b601054811015611a1c57600080fd5b8060118190555050565b600b60009054906101000a900473ffffffffffffffffffffffffffffffffffffffff1673ffffffffffffffffffffffffffffffffffffffff163373ffffffffffffffffffffffffffffffffffffffff1614611a8057600080fd5b600e54811015611a8f57600080fd5b80600f8190555050565b6000806003600084815260200190815260200160002060009054906101000a900473ffffffffffffffffffffffffffffffffffffffff169050600073ffffffffffffffffffffffffffffffffffffffff168173ffffffffffffffffffffffffffffffffffffffff161415611b42576040517f08c379a0000000000000000000000000000000000000000000000000000000008152600401611b3990614a1c565b60405180910390fd5b80915050919050565b611b53612dd4565b73ffffffffffffffffffffffffffffffffffffffff16611b71611ea6565b73ffffffffffffffffffffffffffffffffffffffff1614611bc7576040517f08c379a0000000000000000000000000000000000000000000000000000000008152600401611bbe90614abc565b60405180910390fd5b80600960006101000a81548173ffffffffffffffffffffffffffffffffffffffff021916908373ffffffffffffffffffffffffffffffffffffffff16021790555050565b60008073ffffffffffffffffffffffffffffffffffffffff168273ffffffffffffffffffffffffffffffffffffffff161415611c7c576040517f08c379a0000000000000000000000000000000000000000000000000000000008152600401611c73906149fc565b60405180910390fd5b600460008373ffffffffffffffffffffffffffffffffffffffff1673ffffffffffffffffffffffffffffffffffffffff168152602001908152602001600020549050919050565b611ccb612dd4565b73ffffffffffffffffffffffffffffffffffffffff16611ce9611ea6565b73ffffffffffffffffffffffffffffffffffffffff1614611d3f576040517f08c379a0000000000000000000000000000000000000000000000000000000008152600401611d3690614abc565b60405180910390fd5b600073ffffffffffffffffffffffffffffffffffffffff1660008054906101000a900473ffffffffffffffffffffffffffffffffffffffff1673ffffffffffffffffffffffffffffffffffffffff167f8be0079c531659141344cd1fd0a4f28419497f9722a3daafe3b4186f6b6457e060405160405180910390a360008060006101000a81548173ffffffffffffffffffffffffffffffffffffffff021916908373ffffffffffffffffffffffffffffffffffffffff160217905550565b600e5481565b600b60009054906101000a900473ffffffffffffffffffffffffffffffffffffffff1673ffffffffffffffffffffffffffffffffffffffff163373ffffffffffffffffffffffffffffffffffffffff1614611e5d57600080fd5b600081118015611e6d5750606481105b611e7657600080fd5b80600d8190555050565b600960009054906101000a900473ffffffffffffffffffffffffffffffffffffffff1681565b60008060009054906101000a900473ffffffffffffffffffffffffffffffffffffffff16905090565b600a5481565b60186020528060005260406000206000915054906101000a900460ff1681565b606060028054611f04906150c5565b80601f0160208091040260200160405190810160405280929190818152602001828054611f30906150c5565b8015611f7d5780601f10611f5257610100808354040283529160200191611f7d565b820191906000526020600020905b815481529060010190602001808311611f6057829003601f168201915b5050505050905090565b600b60009054906101000a900473ffffffffffffffffffffffffffffffffffffffff1673ffffffffffffffffffffffffffffffffffffffff163373ffffffffffffffffffffffffffffffffffffffff1614611fe157600080fd5b80600c8190555050565b60125481565b611ff9612dd4565b73ffffffffffffffffffffffffffffffffffffffff168273ffffffffffffffffffffffffffffffffffffffff161415612067576040517f08c379a000000000000000000000000000000000000000000000000000000000815260040161205e9061499c565b60405180910390fd5b8060066000612074612dd4565b73ffffffffffffffffffffffffffffffffffffffff1673ffffffffffffffffffffffffffffffffffffffff16815260200190815260200160002060008473ffffffffffffffffffffffffffffffffffffffff1673ffffffffffffffffffffffffffffffffffffffff16815260200190815260200160002060006101000a81548160ff0219169083151502179055508173ffffffffffffffffffffffffffffffffffffffff16612121612dd4565b73ffffffffffffffffffffffffffffffffffffffff167f17307eab39ab6107e8899845ad3d59bd9653f200f220920489ca2b5937696c318360405161216691906148df565b60405180910390a35050565b60156020528060005260406000206000915090508060000154908060010160009054906101000a900473ffffffffffffffffffffffffffffffffffffffff16908060020154908060040154908060050154905085565b600b60009054906101000a900473ffffffffffffffffffffffffffffffffffffffff1673ffffffffffffffffffffffffffffffffffffffff163373ffffffffffffffffffffffffffffffffffffffff161461222257600080fd5b80600b60006101000a81548173ffffffffffffffffffffffffffffffffffffffff021916908373ffffffffffffffffffffffffffffffffffffffff16021790555050565b612277612271612dd4565b83612e95565b6122b6576040517f08c379a00000000000000000000000000000000000000000000000000000000081526004016122ad90614b3c565b60405180910390fd5b6122c284848484613227565b50505050565b600b60009054906101000a900473ffffffffffffffffffffffffffffffffffffffff1673ffffffffffffffffffffffffffffffffffffffff163373ffffffffffffffffffffffffffffffffffffffff161461232257600080fd5b6000811180156123325750606481105b61233b57600080fd5b80600a8190555050565b60196020528060005260406000206000915054906101000a900460ff1681565b60166020528060005260406000206000915090505481565b600f5481565b606061238e82612d68565b6123cd576040517f08c379a00000000000000000000000000000000000000000000000000000000081526004016123c490614a7c565b60405180910390fd5b60006007600084815260200190815260200160002080546123ed906150c5565b80601f0160208091040260200160405190810160405280929190818152602001828054612419906150c5565b80156124665780601f1061243b57610100808354040283529160200191612466565b820191906000526020600020905b81548152906001019060200180831161244957829003601f168201915b505050505090506000612477613283565b905060008151141561248d5781925050506124d0565b6000825111156124c25780826040516020016124aa929190614854565b604051602081830303815290604052925050506124d0565b6124cb8461329a565b925050505b919050565b600c5481565b600b60009054906101000a900473ffffffffffffffffffffffffffffffffffffffff1673ffffffffffffffffffffffffffffffffffffffff163373ffffffffffffffffffffffffffffffffffffffff161461253557600080fd5b60008111801561254757506011548111155b61255057600080fd5b8060108190555050565b60085481565b600b60009054906101000a900473ffffffffffffffffffffffffffffffffffffffff1673ffffffffffffffffffffffffffffffffffffffff163373ffffffffffffffffffffffffffffffffffffffff16146125ba57600080fd5b600060125490506040518061010001604052808281526020018373ffffffffffffffffffffffffffffffffffffffff16815260200186815260200188815260200187815260200160001515815260200185815260200184815250601460008381526020019081526020016000206000820151816000015560208201518160010160006101000a81548173ffffffffffffffffffffffffffffffffffffffff021916908373ffffffffffffffffffffffffffffffffffffffff16021790555060408201518160020155606082015181600301908051906020019061269e9291906139a5565b5060808201518160040190805190602001906126bb9291906139a5565b5060a08201518160050160006101000a81548160ff02191690831515021790555060c08201518160060190805190602001906126f8929190613958565b5060e0820151816007019080519060200190612715929190613958565b509050506127238282613341565b61272d818861335f565b5050505050505050565b6000600660008473ffffffffffffffffffffffffffffffffffffffff1673ffffffffffffffffffffffffffffffffffffffff16815260200190815260200160002060008373ffffffffffffffffffffffffffffffffffffffff1673ffffffffffffffffffffffffffffffffffffffff16815260200190815260200160002060009054906101000a900460ff16905092915050565b600b60009054906101000a900473ffffffffffffffffffffffffffffffffffffffff1673ffffffffffffffffffffffffffffffffffffffff163373ffffffffffffffffffffffffffffffffffffffff161461282557600080fd5b60006015600083815260200190815260200160002090508181600001541461284c57600080fd5b60016018600084815260200190815260200160002060006101000a81548160ff0219169083151502179055503373ffffffffffffffffffffffffffffffffffffffff167fa5d00b463a784c4df6b0b63120ca3710402164ef0da5f2b01f8834bf9a531a9083836002015484600301856004015486600501546040516128d5959493929190614d1e565b60405180910390a25050565b6128e9612dd4565b73ffffffffffffffffffffffffffffffffffffffff16612907611ea6565b73ffffffffffffffffffffffffffffffffffffffff161461295d576040517f08c379a000000000000000000000000000000000000000000000000000000000815260040161295490614abc565b60405180910390fd5b600073ffffffffffffffffffffffffffffffffffffffff168173ffffffffffffffffffffffffffffffffffffffff1614156129cd576040517f08c379a00000000000000000000000000000000000000000000000000000000081526004016129c49061493c565b60405180910390fd5b8073ffffffffffffffffffffffffffffffffffffffff1660008054906101000a900473ffffffffffffffffffffffffffffffffffffffff1673ffffffffffffffffffffffffffffffffffffffff167f8be0079c531659141344cd1fd0a4f28419497f9722a3daafe3b4186f6b6457e060405160405180910390a3806000806101000a81548173ffffffffffffffffffffffffffffffffffffffff021916908373ffffffffffffffffffffffffffffffffffffffff16021790555050565b600b60009054906101000a900473ffffffffffffffffffffffffffffffffffffffff1673ffffffffffffffffffffffffffffffffffffffff163373ffffffffffffffffffffffffffffffffffffffff1614612ae457600080fd5b6000601254905060606040518061010001604052808381526020013373ffffffffffffffffffffffffffffffffffffffff1681526020016000815260200185815260200184815260200160001515815260200182815260200182815250601460008481526020019081526020016000206000820151816000015560208201518160010160006101000a81548173ffffffffffffffffffffffffffffffffffffffff021916908373ffffffffffffffffffffffffffffffffffffffff160217905550604082015181600201556060820151816003019080519060200190612bcb9291906139a5565b506080820151816004019080519060200190612be89291906139a5565b5060a08201518160050160006101000a81548160ff02191690831515021790555060c0820151816006019080519060200190612c25929190613958565b5060e0820151816007019080519060200190612c42929190613958565b50905050612c503383613341565b612c5a828561335f565b612c7060016012546131fb90919063ffffffff16565b601281905550600c5460166000848152602001908152602001600020819055503373ffffffffffffffffffffffffffffffffffffffff167f9ca856e2c173ffc5564e84f3c3777b416dc7017321170b523f7743a4e00e5194836000878760008788604051612ce49796959493929190614c39565b60405180910390a250505050565b60115481565b600d5481565b60007f01ffc9a7000000000000000000000000000000000000000000000000000000007bffffffffffffffffffffffffffffffffffffffffffffffffffffffff1916827bffffffffffffffffffffffffffffffffffffffffffffffffffffffff1916149050919050565b60008073ffffffffffffffffffffffffffffffffffffffff166003600084815260200190815260200160002060009054906101000a900473ffffffffffffffffffffffffffffffffffffffff1673ffffffffffffffffffffffffffffffffffffffff1614159050919050565b600033905090565b816005600083815260200190815260200160002060006101000a81548173ffffffffffffffffffffffffffffffffffffffff021916908373ffffffffffffffffffffffffffffffffffffffff160217905550808273ffffffffffffffffffffffffffffffffffffffff16612e4f83611a99565b73ffffffffffffffffffffffffffffffffffffffff167f8c5be1e5ebec7d5bd14f71427d1e84f3dd0314c0f7b2291e5b200ac8c7c3b92560405160405180910390a45050565b6000612ea082612d68565b612edf576040517f08c379a0000000000000000000000000000000000000000000000000000000008152600401612ed6906149bc565b60405180910390fd5b6000612eea83611a99565b90508073ffffffffffffffffffffffffffffffffffffffff168473ffffffffffffffffffffffffffffffffffffffff161480612f5957508373ffffffffffffffffffffffffffffffffffffffff16612f4184610d0c565b73ffffffffffffffffffffffffffffffffffffffff16145b80612f6a5750612f698185612737565b5b91505092915050565b8273ffffffffffffffffffffffffffffffffffffffff16612f9382611a99565b73ffffffffffffffffffffffffffffffffffffffff1614612fe9576040517f08c379a0000000000000000000000000000000000000000000000000000000008152600401612fe090614adc565b60405180910390fd5b600073ffffffffffffffffffffffffffffffffffffffff168273ffffffffffffffffffffffffffffffffffffffff161415613059576040517f08c379a00000000000000000000000000000000000000000000000000000000081526004016130509061497c565b60405180910390fd5b6130648383836133d3565b61306f600082612ddc565b6001600460008573ffffffffffffffffffffffffffffffffffffffff1673ffffffffffffffffffffffffffffffffffffffff16815260200190815260200160002060008282546130bf9190614fbf565b925050819055506001600460008473ffffffffffffffffffffffffffffffffffffffff1673ffffffffffffffffffffffffffffffffffffffff16815260200190815260200160002060008282546131169190614ede565b92505081905550816003600083815260200190815260200160002060006101000a81548173ffffffffffffffffffffffffffffffffffffffff021916908373ffffffffffffffffffffffffffffffffffffffff160217905550808273ffffffffffffffffffffffffffffffffffffffff168473ffffffffffffffffffffffffffffffffffffffff167fddf252ad1be2c89b69c2b068fc378daa952ba7f163c4a11628f55a4df523b3ef60405160405180910390a4505050565b600081836131dd9190614f65565b905092915050565b600081836131f39190614f34565b905092915050565b600081836132099190614ede565b905092915050565b6000818361321f9190614fbf565b905092915050565b613232848484612f73565b61323e848484846133d8565b61327d576040517f08c379a00000000000000000000000000000000000000000000000000000000081526004016132749061491c565b60405180910390fd5b50505050565b606060405180602001604052806000815250905090565b60606132a582612d68565b6132e4576040517f08c379a00000000000000000000000000000000000000000000000000000000081526004016132db90614afc565b60405180910390fd5b60006132ee613283565b9050600081511161330e5760405180602001604052806000815250613339565b806133188461356f565b604051602001613329929190614854565b6040516020818303038152906040525b915050919050565b61335b82826040518060200160405280600081525061371c565b5050565b61336882612d68565b6133a7576040517f08c379a000000000000000000000000000000000000000000000000000000000815260040161339e90614a3c565b60405180910390fd5b806007600084815260200190815260200160002090805190602001906133ce9291906139a5565b505050565b505050565b60006133f98473ffffffffffffffffffffffffffffffffffffffff16613777565b15613562578373ffffffffffffffffffffffffffffffffffffffff1663150b7a02613422612dd4565b8786866040518563ffffffff1660e01b81526004016134449493929190614893565b602060405180830381600087803b15801561345e57600080fd5b505af192505050801561348f57506040513d601f19601f8201168201806040525081019061348c9190613e3b565b60015b613512573d80600081146134bf576040519150601f19603f3d011682016040523d82523d6000602084013e6134c4565b606091505b5060008151141561350a576040517f08c379a00000000000000000000000000000000000000000000000000000000081526004016135019061491c565b60405180910390fd5b805181602001fd5b63150b7a0260e01b7bffffffffffffffffffffffffffffffffffffffffffffffffffffffff1916817bffffffffffffffffffffffffffffffffffffffffffffffffffffffff191614915050613567565b600190505b949350505050565b606060008214156135b7576040518060400160405280600181526020017f30000000000000000000000000000000000000000000000000000000000000008152509050613717565b600082905060005b600082146135e95780806135d290615111565b915050600a826135e29190614f34565b91506135bf565b60008167ffffffffffffffff81111561362b577f4e487b7100000000000000000000000000000000000000000000000000000000600052604160045260246000fd5b6040519080825280601f01601f19166020018201604052801561365d5781602001600182028036833780820191505090505b5090505b60008514613710576001826136769190614fbf565b9150600a85613685919061515a565b60306136919190614ede565b60f81b8183815181106136cd577f4e487b7100000000000000000000000000000000000000000000000000000000600052603260045260246000fd5b60200101907effffffffffffffffffffffffffffffffffffffffffffffffffffffffffffff1916908160001a905350600a856137099190614f34565b9450613661565b8093505050505b919050565b613726838361378a565b61373360008484846133d8565b613772576040517f08c379a00000000000000000000000000000000000000000000000000000000081526004016137699061491c565b60405180910390fd5b505050565b600080823b905060008111915050919050565b600073ffffffffffffffffffffffffffffffffffffffff168273ffffffffffffffffffffffffffffffffffffffff1614156137fa576040517f08c379a00000000000000000000000000000000000000000000000000000000081526004016137f190614a5c565b60405180910390fd5b61380381612d68565b15613843576040517f08c379a000000000000000000000000000000000000000000000000000000000815260040161383a9061495c565b60405180910390fd5b61384f600083836133d3565b6001600460008473ffffffffffffffffffffffffffffffffffffffff1673ffffffffffffffffffffffffffffffffffffffff168152602001908152602001600020600082825461389f9190614ede565b92505081905550816003600083815260200190815260200160002060006101000a81548173ffffffffffffffffffffffffffffffffffffffff021916908373ffffffffffffffffffffffffffffffffffffffff160217905550808273ffffffffffffffffffffffffffffffffffffffff16600073ffffffffffffffffffffffffffffffffffffffff167fddf252ad1be2c89b69c2b068fc378daa952ba7f163c4a11628f55a4df523b3ef60405160405180910390a45050565b828054828255906000526020600020908101928215613994579160200282015b82811115613993578251825591602001919060010190613978565b5b5090506139a19190613a2b565b5090565b8280546139b1906150c5565b90600052602060002090601f0160209004810192826139d35760008555613a1a565b82601f106139ec57805160ff1916838001178555613a1a565b82800160010185558215613a1a579182015b82811115613a195782518255916020019190600101906139fe565b5b509050613a279190613a2b565b5090565b5b80821115613a44576000816000905550600101613a2c565b5090565b6000613a5b613a5684614da9565b614d78565b90508083825260208201905082856020860282011115613a7a57600080fd5b60005b85811015613aaa5781613a908882613c02565b845260208401935060208301925050600181019050613a7d565b5050509392505050565b6000613ac7613ac284614dd5565b614d78565b905082815260208101848484011115613adf57600080fd5b613aea848285615083565b509392505050565b6000613b05613b0084614e05565b614d78565b905082815260208101848484011115613b1d57600080fd5b613b28848285615083565b509392505050565b600081359050613b3f81615278565b92915050565b600082601f830112613b5657600080fd5b8135613b66848260208601613a48565b91505092915050565b600081359050613b7e8161528f565b92915050565b600081359050613b93816152a6565b92915050565b600081519050613ba8816152a6565b92915050565b600082601f830112613bbf57600080fd5b8135613bcf848260208601613ab4565b91505092915050565b600082601f830112613be957600080fd5b8135613bf9848260208601613af2565b91505092915050565b600081359050613c11816152bd565b92915050565b600060208284031215613c2957600080fd5b6000613c3784828501613b30565b91505092915050565b60008060408385031215613c5357600080fd5b6000613c6185828601613b30565b9250506020613c7285828601613b30565b9150509250929050565b600080600060608486031215613c9157600080fd5b6000613c9f86828701613b30565b9350506020613cb086828701613b30565b9250506040613cc186828701613c02565b9150509250925092565b60008060008060808587031215613ce157600080fd5b6000613cef87828801613b30565b9450506020613d0087828801613b30565b9350506040613d1187828801613c02565b925050606085013567ffffffffffffffff811115613d2e57600080fd5b613d3a87828801613bae565b91505092959194509250565b60008060408385031215613d5957600080fd5b6000613d6785828601613b30565b9250506020613d7885828601613b6f565b9150509250929050565b60008060408385031215613d9557600080fd5b6000613da385828601613b30565b9250506020613db485828601613c02565b9150509250929050565b60008060408385031215613dd157600080fd5b600083013567ffffffffffffffff811115613deb57600080fd5b613df785828601613b45565b9250506020613e0885828601613c02565b9150509250929050565b600060208284031215613e2457600080fd5b6000613e3284828501613b84565b91505092915050565b600060208284031215613e4d57600080fd5b6000613e5b84828501613b99565b91505092915050565b60008060408385031215613e7757600080fd5b600083013567ffffffffffffffff811115613e9157600080fd5b613e9d85828601613bd8565b925050602083013567ffffffffffffffff811115613eba57600080fd5b613ec685828601613bd8565b9150509250929050565b600060208284031215613ee257600080fd5b6000613ef084828501613c02565b91505092915050565b600080600080600080600060e0888a031215613f1457600080fd5b6000613f228a828b01613c02565b975050602088013567ffffffffffffffff811115613f3f57600080fd5b613f4b8a828b01613bd8565b965050604088013567ffffffffffffffff811115613f6857600080fd5b613f748a828b01613bd8565b9550506060613f858a828b01613c02565b945050608088013567ffffffffffffffff811115613fa257600080fd5b613fae8a828b01613b45565b93505060a088013567ffffffffffffffff811115613fcb57600080fd5b613fd78a828b01613b45565b92505060c0613fe88a828b01613b30565b91505092959891949750929550565b60006140038383614836565b60208301905092915050565b61401881614ffd565b82525050565b600061402982614e5a565b6140338185614ea0565b935061403e83614e35565b8060005b8381101561406f5781516140568882613ff7565b975061406183614e86565b925050600181019050614042565b5085935050505092915050565b600061408782614e65565b6140918185614ea0565b935061409c83614e45565b8060005b838110156140d4576140b182615247565b6140bb8882613ff7565b97506140c683614e93565b9250506001810190506140a0565b5085935050505092915050565b6140ea8161500f565b82525050565b60006140fb82614e70565b6141058185614eb1565b9350614115818560208601615092565b61411e8161525a565b840191505092915050565b61413281615071565b82525050565b600061414382614e7b565b61414d8185614ec2565b935061415d818560208601615092565b6141668161525a565b840191505092915050565b600061417c82614e7b565b6141868185614ed3565b9350614196818560208601615092565b80840191505092915050565b60006141af603283614ec2565b91507f4552433732313a207472616e7366657220746f206e6f6e20455243373231526560008301527f63656976657220696d706c656d656e74657200000000000000000000000000006020830152604082019050919050565b6000614215602683614ec2565b91507f4f776e61626c653a206e6577206f776e657220697320746865207a65726f206160008301527f64647265737300000000000000000000000000000000000000000000000000006020830152604082019050919050565b600061427b601c83614ec2565b91507f4552433732313a20746f6b656e20616c7265616479206d696e746564000000006000830152602082019050919050565b60006142bb602483614ec2565b91507f4552433732313a207472616e7366657220746f20746865207a65726f2061646460008301527f72657373000000000000000000000000000000000000000000000000000000006020830152604082019050919050565b6000614321601983614ec2565b91507f4552433732313a20617070726f766520746f2063616c6c6572000000000000006000830152602082019050919050565b6000614361602c83614ec2565b91507f4552433732313a206f70657261746f7220717565727920666f72206e6f6e657860008301527f697374656e7420746f6b656e00000000000000000000000000000000000000006020830152604082019050919050565b60006143c7603883614ec2565b91507f4552433732313a20617070726f76652063616c6c6572206973206e6f74206f7760008301527f6e6572206e6f7220617070726f76656420666f7220616c6c00000000000000006020830152604082019050919050565b600061442d602a83614ec2565b91507f4552433732313a2062616c616e636520717565727920666f7220746865207a6560008301527f726f2061646472657373000000000000000000000000000000000000000000006020830152604082019050919050565b6000614493602983614ec2565b91507f4552433732313a206f776e657220717565727920666f72206e6f6e657869737460008301527f656e7420746f6b656e00000000000000000000000000000000000000000000006020830152604082019050919050565b60006144f9602e83614ec2565b91507f45524337323155524953746f726167653a2055524920736574206f66206e6f6e60008301527f6578697374656e7420746f6b656e0000000000000000000000000000000000006020830152604082019050919050565b600061455f602083614ec2565b91507f4552433732313a206d696e7420746f20746865207a65726f20616464726573736000830152602082019050919050565b600061459f603183614ec2565b91507f45524337323155524953746f726167653a2055524920717565727920666f722060008301527f6e6f6e6578697374656e7420746f6b656e0000000000000000000000000000006020830152604082019050919050565b6000614605602c83614ec2565b91507f4552433732313a20617070726f76656420717565727920666f72206e6f6e657860008301527f697374656e7420746f6b656e00000000000000000000000000000000000000006020830152604082019050919050565b600061466b602083614ec2565b91507f4f776e61626c653a2063616c6c6572206973206e6f7420746865206f776e65726000830152602082019050919050565b60006146ab602983614ec2565b91507f4552433732313a207472616e73666572206f6620746f6b656e2074686174206960008301527f73206e6f74206f776e00000000000000000000000000000000000000000000006020830152604082019050919050565b6000614711602f83614ec2565b91507f4552433732314d657461646174613a2055524920717565727920666f72206e6f60008301527f6e6578697374656e7420746f6b656e00000000000000000000000000000000006020830152604082019050919050565b6000614777602183614ec2565b91507f4552433732313a20617070726f76616c20746f2063757272656e74206f776e6560008301527f72000000000000000000000000000000000000000000000000000000000000006020830152604082019050919050565b60006147dd603183614ec2565b91507f4552433732313a207472616e736665722063616c6c6572206973206e6f74206f60008301527f776e6572206e6f7220617070726f7665640000000000000000000000000000006020830152604082019050919050565b61483f81615067565b82525050565b61484e81615067565b82525050565b60006148608285614171565b915061486c8284614171565b91508190509392505050565b600060208201905061488d600083018461400f565b92915050565b60006080820190506148a8600083018761400f565b6148b5602083018661400f565b6148c26040830185614845565b81810360608301526148d481846140f0565b905095945050505050565b60006020820190506148f460008301846140e1565b92915050565b600060208201905081810360008301526149148184614138565b905092915050565b60006020820190508181036000830152614935816141a2565b9050919050565b6000602082019050818103600083015261495581614208565b9050919050565b600060208201905081810360008301526149758161426e565b9050919050565b60006020820190508181036000830152614995816142ae565b9050919050565b600060208201905081810360008301526149b581614314565b9050919050565b600060208201905081810360008301526149d581614354565b9050919050565b600060208201905081810360008301526149f5816143ba565b9050919050565b60006020820190508181036000830152614a1581614420565b9050919050565b60006020820190508181036000830152614a3581614486565b9050919050565b60006020820190508181036000830152614a55816144ec565b9050919050565b60006020820190508181036000830152614a7581614552565b9050919050565b60006020820190508181036000830152614a9581614592565b9050919050565b60006020820190508181036000830152614ab5816145f8565b9050919050565b60006020820190508181036000830152614ad58161465e565b9050919050565b60006020820190508181036000830152614af58161469e565b9050919050565b60006020820190508181036000830152614b1581614704565b9050919050565b60006020820190508181036000830152614b358161476a565b9050919050565b60006020820190508181036000830152614b55816147d0565b9050919050565b6000602082019050614b716000830184614845565b92915050565b600060c082019050614b8c6000830189614845565b614b99602083018861400f565b614ba66040830187614845565b8181036060830152614bb88186614138565b90508181036080830152614bcc8185614138565b9050614bdb60a08301846140e1565b979650505050505050565b600060a082019050614bfb6000830188614845565b614c08602083018761400f565b614c156040830186614845565b614c226060830185614845565b614c2f6080830184614845565b9695505050505050565b600060e082019050614c4e600083018a614845565b614c5b6020830189614129565b8181036040830152614c6d8188614138565b90508181036060830152614c818187614138565b9050614c9060808301866140e1565b81810360a0830152614ca2818561401e565b905081810360c0830152614cb6818461401e565b905098975050505050505050565b600060a082019050614cd96000830188614845565b614ce66020830187614845565b8181036040830152614cf8818661401e565b9050614d076060830185614845565b614d146080830184614845565b9695505050505050565b600060a082019050614d336000830188614845565b614d406020830187614845565b8181036040830152614d52818661407c565b9050614d616060830185614845565b614d6e6080830184614845565b9695505050505050565b6000604051905081810181811067ffffffffffffffff82111715614d9f57614d9e615218565b5b8060405250919050565b600067ffffffffffffffff821115614dc457614dc3615218565b5b602082029050602081019050919050565b600067ffffffffffffffff821115614df057614def615218565b5b601f19601f8301169050602081019050919050565b600067ffffffffffffffff821115614e2057614e1f615218565b5b601f19601f8301169050602081019050919050565b6000819050602082019050919050565b60008190508160005260206000209050919050565b600081519050919050565b600081549050919050565b600081519050919050565b600081519050919050565b6000602082019050919050565b6000600182019050919050565b600082825260208201905092915050565b600082825260208201905092915050565b600082825260208201905092915050565b600081905092915050565b6000614ee982615067565b9150614ef483615067565b9250827fffffffffffffffffffffffffffffffffffffffffffffffffffffffffffffffff03821115614f2957614f2861518b565b5b828201905092915050565b6000614f3f82615067565b9150614f4a83615067565b925082614f5a57614f596151ba565b5b828204905092915050565b6000614f7082615067565b9150614f7b83615067565b9250817fffffffffffffffffffffffffffffffffffffffffffffffffffffffffffffffff0483118215151615614fb457614fb361518b565b5b828202905092915050565b6000614fca82615067565b9150614fd583615067565b925082821015614fe857614fe761518b565b5b828203905092915050565b6000819050919050565b600061500882615047565b9050919050565b60008115159050919050565b60007fffffffff0000000000000000000000000000000000000000000000000000000082169050919050565b600073ffffffffffffffffffffffffffffffffffffffff82169050919050565b6000819050919050565b600061507c82615067565b9050919050565b82818337600083830152505050565b60005b838110156150b0578082015181840152602081019050615095565b838111156150bf576000848401525b50505050565b600060028204905060018216806150dd57607f821691505b602082108114156150f1576150f06151e9565b5b50919050565b600061510a6151058361526b565b614ff3565b9050919050565b600061511c82615067565b91507fffffffffffffffffffffffffffffffffffffffffffffffffffffffffffffffff82141561514f5761514e61518b565b5b600182019050919050565b600061516582615067565b915061517083615067565b9250826151805761517f6151ba565b5b828206905092915050565b7f4e487b7100000000000000000000000000000000000000000000000000000000600052601160045260246000fd5b7f4e487b7100000000000000000000000000000000000000000000000000000000600052601260045260246000fd5b7f4e487b7100000000000000000000000000000000000000000000000000000000600052602260045260246000fd5b7f4e487b7100000000000000000000000000000000000000000000000000000000600052604160045260246000fd5b600061525382546150f7565b9050919050565b6000601f19601f8301169050919050565b60008160001c9050919050565b61528181614ffd565b811461528c57600080fd5b50565b6152988161500f565b81146152a357600080fd5b50565b6152af8161501b565b81146152ba57600080fd5b50565b6152c681615067565b81146152d157600080fd5b5056fea2646970667358221220066865ab4bdbfb6beaf5af044b8bc4264fa6c2f94770e3ddf609312a3b56953d64736f6c63430008000033",
  "immutableReferences": {},
  "source": "// SPDX-License-Identifier: MIT\npragma solidity >=0.4.22 <0.9.0;\n\nimport \"@openzeppelin/contracts/access/Ownable.sol\";\nimport \"@openzeppelin/contracts/token/ERC721/extensions/ERC721URIStorage.sol\";\nimport \"@openzeppelin/contracts/utils/math/SafeMath.sol\";\n\n// todo\n// art needs timestamps\n// orders need timestamps\n\ncontract ArtFactory is Ownable, ERC721URIStorage {\n\n  using SafeMath for uint256;\n  \n  uint256 public contractFeePercentage; // percentage out of 100\n  address public contractFeeAccount;\n  uint256 public artistFeePercentage; // percentage out of 100\n  address public artistFeeAccount;\n  uint256 public baseArtPrice; // in wei\n  uint256 public parentMultiplierPercentage; // percentage out of 100\n  uint256 public minParents;\n  uint256 public maxParents;\n  uint256 public minLegacies;\n  uint256 public maxLegacies;\n  uint256 public artworkCount;\n  uint256 public orderCount;\n\n  mapping(uint256 => Art) public artworks;\n  mapping(uint256 => _Order) public orders;\n  mapping(uint256 => uint256) public prices;\n  mapping(address => uint256) public balances;\n  mapping(uint256 => bool) public acceptedOrders;\n  mapping(uint256 => bool) public cancelledOrders;\n  mapping(uint256 => bool) public filledOrders;\n\n  struct Art {\n    uint256 id;\n    address owner;\n    uint256 gen;\n    string tokenURI;\n    string name;\n    bool legacyCreated;\n    uint256[] parents;\n    uint256[] siblings;\n  }\n\n  struct _Order {\n    uint256 id;\n    address buyer;\n    uint256 price;\n    uint256[] parentIDS;\n    uint256 numLegacies;\n    uint256 gen;\n  }\n\n  event ArtGen0(uint256 id, address indexed owner, uint256 gen, string tokenURI, string name, bool legacyCreated, uint256[] parents, uint256[] siblings);\n  event ArtFromOrder(uint256 id, uint256 ordreID, address indexed owner, uint256 gen, string tokenURI, string name, bool legacyCreated, uint256[] parents, uint256[] siblings);\n  event Order(uint256 id, address indexed buyer, uint256 price, uint256[] parentIDS, uint256 numLegacies, uint256 gen);\n  event Accept(uint256 id, address indexed buyer, uint256 price, uint256[] parentIDS, uint256 numLegacies, uint256 gen);\n  event Cancel(uint256 id, address indexed buyer, uint256 price, uint256[] parentIDS, uint256 numLegacies, uint256 gen);\n\n  constructor(\n    address _artistFeeAccount,\n    uint256 _artistFeePercentage,\n    uint256 _baseArtPrice,\n    uint256 _parentMultiplierPercentage,\n    uint256 _minParents,\n    uint256 _maxParents,\n    uint256 _minLegacies,\n    uint256 _maxLegacies\n    ) ERC721(\"Art\", \"ART\") {\n    \n    artworkCount = 0;\n    orderCount = 0;\n    contractFeePercentage = 1;\n    contractFeeAccount = msg.sender;\n\n    artistFeeAccount = _artistFeeAccount;\n    artistFeePercentage = _artistFeePercentage;\n    baseArtPrice = _baseArtPrice;\n    parentMultiplierPercentage = _parentMultiplierPercentage;\n    minParents = _minParents;\n    maxParents = _maxParents;\n    minLegacies = _minLegacies;\n    maxLegacies = _maxLegacies;\n  }\n\n  modifier onlyArtist() {\n    require(msg.sender == artistFeeAccount);\n    _;\n  }\n\n  function changeContractFeeAccount(address _contractFeeAccount) public onlyOwner {\n    contractFeeAccount = _contractFeeAccount;\n  }\n\n  function changeArtistFeeAccount(address _artistFeeAccount) public onlyArtist {\n    artistFeeAccount = _artistFeeAccount;\n  }\n\n  function changeArtistFeePercentage(uint256 _artistFeePercentage) public onlyArtist {\n    require(_artistFeePercentage > 0 && _artistFeePercentage < 100);\n    artistFeePercentage = _artistFeePercentage;\n  }\n\n  function changeBaseArtPrice(uint256 _baseArtPrice) public onlyArtist {\n    baseArtPrice = _baseArtPrice;\n  }\n\n  function changeParentMultiplierPercentage(uint256 _parentMultiplierPercentage) public onlyArtist {\n    require(_parentMultiplierPercentage > 0 && _parentMultiplierPercentage < 100);\n    parentMultiplierPercentage = _parentMultiplierPercentage;\n  }\n\n  function changeMinParents(uint256 _minParents) public onlyArtist {\n    require(_minParents > 0 && _minParents <= maxParents);\n    minParents = _minParents;\n  }\n\n  function changeMaxParents(uint256 _maxParents) public onlyArtist {\n    require(_maxParents >= minParents);\n    maxParents = _maxParents;\n  }\n\n  function changeMinLegacies(uint256 _minLegacies) public onlyArtist {\n    require(_minLegacies > 0 && _minLegacies <= maxLegacies);\n    minLegacies = _minLegacies;\n  }\n\n  function changeMaxLegacies(uint256 _maxLegacies) public onlyArtist {\n    require(_maxLegacies >= minLegacies);\n    maxLegacies = _maxLegacies;\n  }\n\n  function createArtGen0(string memory _tokenURI, string memory _name) public onlyArtist {\n    uint256 _id = artworkCount;\n    uint256[] memory arr;\n    artworks[_id] = Art(_id, msg.sender, 0, _tokenURI, _name, false, arr, arr);\n    \n    _safeMint(msg.sender, _id);\n    _setTokenURI(_id, _tokenURI);\n    \n    artworkCount = artworkCount.add(1);\n    prices[_id] = baseArtPrice;\n    \n    emit ArtGen0(_id, msg.sender, 0, _tokenURI, _name, false, arr, arr);\n  }\n\n  function createArtFromOrder(uint256 _orderID, string memory _tokenURI, string memory _name, uint256 _gen, uint256[] memory _parents, uint256[] memory _siblings, address _buyer) public onlyArtist {\n    // order id must exist\n    \n    uint256 _id = artworkCount;\n    artworks[_id] = Art(_id, _buyer, _gen, _tokenURI, _name, false, _parents, _siblings);\n    \n    _safeMint(_buyer, _id);\n    _setTokenURI(_id, _tokenURI);\n    \n    // artworkCount = artworkCount.add(1);\n    // filledOrders[_orderID] = true;\n    // for(uint i=0;i<_parents.length;i++) {\n    //   if(artworks[_parents[i]].legacyCreated == false) {\n    //     artworks[_parents[i]].legacyCreated = true;\n    //   }\n    // }\n    \n    // emit ArtFromOrder(_id, _orderID, msg.sender, 0, _tokenURI, _name, false, _parents, _siblings);\n  }\n\n  function createOrder(uint256[] memory _parentIDS, uint256 _numLegacies) public payable {\n    uint256 _numParents = _parentIDS.length;\n    uint256 _id = orderCount;\n    uint256 _gen = 1;\n    \n    require(_numParents >= minParents && _numParents <= maxParents);\n    require(_numLegacies >= minLegacies && _numLegacies <= maxLegacies);\n    \n    for(uint256 i=0;i<_numParents;i++) {\n      require(artworks[_parentIDS[i]].owner == msg.sender);\n      if (artworks[_parentIDS[i]].gen > _gen) {\n        _gen = artworks[_parentIDS[i]].gen;\n      }\n    }\n\n    uint256 _price = baseArtPrice + (baseArtPrice.mul(_numLegacies).mul(parentMultiplierPercentage).mul(_numParents).div(100));  // TODO: CHECK THIS\n    require(_price > 0);\n    uint256 _contractFee = _price.mul(contractFeePercentage).div(100);\n    require(msg.value == _price.add(_contractFee));\n    orders[_id] = _Order(_id, msg.sender, _price, _parentIDS, _numLegacies, _gen);\n    \n    balances[artistFeeAccount] = balances[artistFeeAccount].add(_price);\n    balances[contractFeeAccount] = balances[contractFeeAccount].add(_contractFee);\n    orderCount = orderCount.add(1);\n    \n    emit Order(_id, msg.sender, _price, _parentIDS, _numLegacies, _gen);\n  }\n\n  function acceptOrder(uint256 _id) public onlyArtist {\n    _Order storage _order = orders[_id];\n    require(_order.id == _id);\n    acceptedOrders[_id] = true;\n    \n    emit Accept(_id, msg.sender, _order.price, _order.parentIDS, _order.numLegacies, _order.gen);\n  }\n\n  function cancelOrder(uint256 _id) public {\n    _Order storage _order = orders[_id];\n    require(_order.id == _id);\n    require(msg.sender == _order.buyer);\n    \n    cancelledOrders[_id] = true;\n    balances[msg.sender] = balances[msg.sender].add(_order.price); // need to test\n    balances[artistFeeAccount] = balances[artistFeeAccount].sub(_order.price); // need to test\n    \n    emit Cancel(_id, msg.sender, _order.price, _order.parentIDS, _order.numLegacies, _order.gen);\n  }\n}",
  "sourcePath": "/Users/andrewmlevy/Documents/blockchain/4_portfolio_projects/art-marketplace/src/contracts/ArtFactory.sol",
  "compiler": {
    "name": "solc",
    "version": "0.8.0+commit.c7dfd78e.Emscripten.clang"
  },
  "schemaVersion": "3.4.1",
  "updatedAt": "2021-06-03T19:10:57.371Z",
  "networkType": "ethereum",
  "devdoc": {
    "kind": "dev",
    "methods": {
      "approve(address,uint256)": {
        "details": "See {IERC721-approve}."
      },
      "balanceOf(address)": {
        "details": "See {IERC721-balanceOf}."
      },
      "getApproved(uint256)": {
        "details": "See {IERC721-getApproved}."
      },
      "isApprovedForAll(address,address)": {
        "details": "See {IERC721-isApprovedForAll}."
      },
      "name()": {
        "details": "See {IERC721Metadata-name}."
      },
      "owner()": {
        "details": "Returns the address of the current owner."
      },
      "ownerOf(uint256)": {
        "details": "See {IERC721-ownerOf}."
      },
      "renounceOwnership()": {
        "details": "Leaves the contract without owner. It will not be possible to call `onlyOwner` functions anymore. Can only be called by the current owner. NOTE: Renouncing ownership will leave the contract without an owner, thereby removing any functionality that is only available to the owner."
      },
      "safeTransferFrom(address,address,uint256)": {
        "details": "See {IERC721-safeTransferFrom}."
      },
      "safeTransferFrom(address,address,uint256,bytes)": {
        "details": "See {IERC721-safeTransferFrom}."
      },
      "setApprovalForAll(address,bool)": {
        "details": "See {IERC721-setApprovalForAll}."
      },
      "supportsInterface(bytes4)": {
        "details": "See {IERC165-supportsInterface}."
      },
      "symbol()": {
        "details": "See {IERC721Metadata-symbol}."
      },
      "tokenURI(uint256)": {
        "details": "See {IERC721Metadata-tokenURI}."
      },
      "transferFrom(address,address,uint256)": {
        "details": "See {IERC721-transferFrom}."
      },
      "transferOwnership(address)": {
        "details": "Transfers ownership of the contract to a new account (`newOwner`). Can only be called by the current owner."
      }
    },
    "version": 1
  },
  "userdoc": {
    "kind": "user",
    "methods": {},
    "version": 1
  }
}