{
  "contractName": "ArtFactory",
  "abi": [
    {
      "inputs": [
        {
          "internalType": "address",
          "name": "_artistFeeAccount",
          "type": "address"
        },
        {
          "internalType": "uint256",
          "name": "_artistFeePercentage",
          "type": "uint256"
        },
        {
          "internalType": "uint256",
          "name": "_baseArtPrice",
          "type": "uint256"
        },
        {
          "internalType": "uint256",
          "name": "_parentMultiplierPercentage",
          "type": "uint256"
        },
        {
          "internalType": "uint256",
          "name": "_minParents",
          "type": "uint256"
        },
        {
          "internalType": "uint256",
          "name": "_maxParents",
          "type": "uint256"
        },
        {
          "internalType": "uint256",
          "name": "_minLegacies",
          "type": "uint256"
        },
        {
          "internalType": "uint256",
          "name": "_maxLegacies",
          "type": "uint256"
        }
      ],
      "stateMutability": "nonpayable",
      "type": "constructor"
    },
    {
      "anonymous": false,
      "inputs": [
        {
          "indexed": true,
          "internalType": "address",
          "name": "owner",
          "type": "address"
        },
        {
          "indexed": true,
          "internalType": "address",
          "name": "approved",
          "type": "address"
        },
        {
          "indexed": true,
          "internalType": "uint256",
          "name": "tokenId",
          "type": "uint256"
        }
      ],
      "name": "Approval",
      "type": "event"
    },
    {
      "anonymous": false,
      "inputs": [
        {
          "indexed": true,
          "internalType": "address",
          "name": "owner",
          "type": "address"
        },
        {
          "indexed": true,
          "internalType": "address",
          "name": "operator",
          "type": "address"
        },
        {
          "indexed": false,
          "internalType": "bool",
          "name": "approved",
          "type": "bool"
        }
      ],
      "name": "ApprovalForAll",
      "type": "event"
    },
    {
      "anonymous": false,
      "inputs": [
        {
          "indexed": false,
          "internalType": "uint256",
          "name": "id",
          "type": "uint256"
        },
        {
          "indexed": false,
          "internalType": "address",
          "name": "owner",
          "type": "address"
        },
        {
          "indexed": false,
          "internalType": "uint256",
          "name": "gen",
          "type": "uint256"
        },
        {
          "indexed": false,
          "internalType": "uint256",
          "name": "dna",
          "type": "uint256"
        },
        {
          "indexed": false,
          "internalType": "string",
          "name": "tokenURI",
          "type": "string"
        },
        {
          "indexed": false,
          "internalType": "string",
          "name": "name",
          "type": "string"
        },
        {
          "indexed": false,
          "internalType": "bool",
          "name": "legacyCreated",
          "type": "bool"
        },
        {
          "indexed": false,
          "internalType": "uint256[]",
          "name": "parents",
          "type": "uint256[]"
        },
        {
          "indexed": false,
          "internalType": "uint256[]",
          "name": "siblings",
          "type": "uint256[]"
        }
      ],
      "name": "ArtGen0",
      "type": "event"
    },
    {
      "anonymous": false,
      "inputs": [
        {
          "indexed": true,
          "internalType": "address",
          "name": "previousOwner",
          "type": "address"
        },
        {
          "indexed": true,
          "internalType": "address",
          "name": "newOwner",
          "type": "address"
        }
      ],
      "name": "OwnershipTransferred",
      "type": "event"
    },
    {
      "anonymous": false,
      "inputs": [
        {
          "indexed": true,
          "internalType": "address",
          "name": "from",
          "type": "address"
        },
        {
          "indexed": true,
          "internalType": "address",
          "name": "to",
          "type": "address"
        },
        {
          "indexed": true,
          "internalType": "uint256",
          "name": "tokenId",
          "type": "uint256"
        }
      ],
      "name": "Transfer",
      "type": "event"
    },
    {
      "inputs": [
        {
          "internalType": "address",
          "name": "to",
          "type": "address"
        },
        {
          "internalType": "uint256",
          "name": "tokenId",
          "type": "uint256"
        }
      ],
      "name": "approve",
      "outputs": [],
      "stateMutability": "nonpayable",
      "type": "function"
    },
    {
      "inputs": [],
      "name": "artistFeeAccount",
      "outputs": [
        {
          "internalType": "address",
          "name": "",
          "type": "address"
        }
      ],
      "stateMutability": "view",
      "type": "function"
    },
    {
      "inputs": [],
      "name": "artistFeePercentage",
      "outputs": [
        {
          "internalType": "uint256",
          "name": "",
          "type": "uint256"
        }
      ],
      "stateMutability": "view",
      "type": "function"
    },
    {
      "inputs": [
        {
          "internalType": "uint256",
          "name": "",
          "type": "uint256"
        }
      ],
      "name": "artworks",
      "outputs": [
        {
          "internalType": "uint256",
          "name": "id",
          "type": "uint256"
        },
        {
          "internalType": "address",
          "name": "owner",
          "type": "address"
        },
        {
          "internalType": "uint256",
          "name": "gen",
          "type": "uint256"
        },
        {
          "internalType": "string",
          "name": "tokenURI",
          "type": "string"
        },
        {
          "internalType": "string",
          "name": "name",
          "type": "string"
        },
        {
          "internalType": "bool",
          "name": "legacyCreated",
          "type": "bool"
        }
      ],
      "stateMutability": "view",
      "type": "function"
    },
    {
      "inputs": [
        {
          "internalType": "address",
          "name": "owner",
          "type": "address"
        }
      ],
      "name": "balanceOf",
      "outputs": [
        {
          "internalType": "uint256",
          "name": "",
          "type": "uint256"
        }
      ],
      "stateMutability": "view",
      "type": "function"
    },
    {
      "inputs": [
        {
          "internalType": "address",
          "name": "",
          "type": "address"
        }
      ],
      "name": "balances",
      "outputs": [
        {
          "internalType": "uint256",
          "name": "",
          "type": "uint256"
        }
      ],
      "stateMutability": "view",
      "type": "function"
    },
    {
      "inputs": [],
      "name": "baseArtPrice",
      "outputs": [
        {
          "internalType": "uint256",
          "name": "",
          "type": "uint256"
        }
      ],
      "stateMutability": "view",
      "type": "function"
    },
    {
      "inputs": [],
      "name": "contractFeeAccount",
      "outputs": [
        {
          "internalType": "address",
          "name": "",
          "type": "address"
        }
      ],
      "stateMutability": "view",
      "type": "function"
    },
    {
      "inputs": [],
      "name": "contractFeePercentage",
      "outputs": [
        {
          "internalType": "uint256",
          "name": "",
          "type": "uint256"
        }
      ],
      "stateMutability": "view",
      "type": "function"
    },
    {
      "inputs": [],
      "name": "critterCount",
      "outputs": [
        {
          "internalType": "uint256",
          "name": "",
          "type": "uint256"
        }
      ],
      "stateMutability": "view",
      "type": "function"
    },
    {
      "inputs": [
        {
          "internalType": "uint256",
          "name": "tokenId",
          "type": "uint256"
        }
      ],
      "name": "getApproved",
      "outputs": [
        {
          "internalType": "address",
          "name": "",
          "type": "address"
        }
      ],
      "stateMutability": "view",
      "type": "function"
    },
    {
      "inputs": [
        {
          "internalType": "address",
          "name": "owner",
          "type": "address"
        },
        {
          "internalType": "address",
          "name": "operator",
          "type": "address"
        }
      ],
      "name": "isApprovedForAll",
      "outputs": [
        {
          "internalType": "bool",
          "name": "",
          "type": "bool"
        }
      ],
      "stateMutability": "view",
      "type": "function"
    },
    {
      "inputs": [],
      "name": "maxLegacies",
      "outputs": [
        {
          "internalType": "uint256",
          "name": "",
          "type": "uint256"
        }
      ],
      "stateMutability": "view",
      "type": "function"
    },
    {
      "inputs": [],
      "name": "maxParents",
      "outputs": [
        {
          "internalType": "uint256",
          "name": "",
          "type": "uint256"
        }
      ],
      "stateMutability": "view",
      "type": "function"
    },
    {
      "inputs": [],
      "name": "minLegacies",
      "outputs": [
        {
          "internalType": "uint256",
          "name": "",
          "type": "uint256"
        }
      ],
      "stateMutability": "view",
      "type": "function"
    },
    {
      "inputs": [],
      "name": "minParents",
      "outputs": [
        {
          "internalType": "uint256",
          "name": "",
          "type": "uint256"
        }
      ],
      "stateMutability": "view",
      "type": "function"
    },
    {
      "inputs": [],
      "name": "name",
      "outputs": [
        {
          "internalType": "string",
          "name": "",
          "type": "string"
        }
      ],
      "stateMutability": "view",
      "type": "function"
    },
    {
      "inputs": [],
      "name": "orderCount",
      "outputs": [
        {
          "internalType": "uint256",
          "name": "",
          "type": "uint256"
        }
      ],
      "stateMutability": "view",
      "type": "function"
    },
    {
      "inputs": [],
      "name": "owner",
      "outputs": [
        {
          "internalType": "address",
          "name": "",
          "type": "address"
        }
      ],
      "stateMutability": "view",
      "type": "function"
    },
    {
      "inputs": [
        {
          "internalType": "uint256",
          "name": "tokenId",
          "type": "uint256"
        }
      ],
      "name": "ownerOf",
      "outputs": [
        {
          "internalType": "address",
          "name": "",
          "type": "address"
        }
      ],
      "stateMutability": "view",
      "type": "function"
    },
    {
      "inputs": [],
      "name": "parentMultiplierPercentage",
      "outputs": [
        {
          "internalType": "uint256",
          "name": "",
          "type": "uint256"
        }
      ],
      "stateMutability": "view",
      "type": "function"
    },
    {
      "inputs": [
        {
          "internalType": "uint256",
          "name": "",
          "type": "uint256"
        }
      ],
      "name": "prices",
      "outputs": [
        {
          "internalType": "uint256",
          "name": "",
          "type": "uint256"
        }
      ],
      "stateMutability": "view",
      "type": "function"
    },
    {
      "inputs": [],
      "name": "renounceOwnership",
      "outputs": [],
      "stateMutability": "nonpayable",
      "type": "function"
    },
    {
      "inputs": [
        {
          "internalType": "address",
          "name": "from",
          "type": "address"
        },
        {
          "internalType": "address",
          "name": "to",
          "type": "address"
        },
        {
          "internalType": "uint256",
          "name": "tokenId",
          "type": "uint256"
        }
      ],
      "name": "safeTransferFrom",
      "outputs": [],
      "stateMutability": "nonpayable",
      "type": "function"
    },
    {
      "inputs": [
        {
          "internalType": "address",
          "name": "from",
          "type": "address"
        },
        {
          "internalType": "address",
          "name": "to",
          "type": "address"
        },
        {
          "internalType": "uint256",
          "name": "tokenId",
          "type": "uint256"
        },
        {
          "internalType": "bytes",
          "name": "_data",
          "type": "bytes"
        }
      ],
      "name": "safeTransferFrom",
      "outputs": [],
      "stateMutability": "nonpayable",
      "type": "function"
    },
    {
      "inputs": [
        {
          "internalType": "address",
          "name": "operator",
          "type": "address"
        },
        {
          "internalType": "bool",
          "name": "approved",
          "type": "bool"
        }
      ],
      "name": "setApprovalForAll",
      "outputs": [],
      "stateMutability": "nonpayable",
      "type": "function"
    },
    {
      "inputs": [
        {
          "internalType": "bytes4",
          "name": "interfaceId",
          "type": "bytes4"
        }
      ],
      "name": "supportsInterface",
      "outputs": [
        {
          "internalType": "bool",
          "name": "",
          "type": "bool"
        }
      ],
      "stateMutability": "view",
      "type": "function"
    },
    {
      "inputs": [],
      "name": "symbol",
      "outputs": [
        {
          "internalType": "string",
          "name": "",
          "type": "string"
        }
      ],
      "stateMutability": "view",
      "type": "function"
    },
    {
      "inputs": [
        {
          "internalType": "uint256",
          "name": "tokenId",
          "type": "uint256"
        }
      ],
      "name": "tokenURI",
      "outputs": [
        {
          "internalType": "string",
          "name": "",
          "type": "string"
        }
      ],
      "stateMutability": "view",
      "type": "function"
    },
    {
      "inputs": [
        {
          "internalType": "address",
          "name": "from",
          "type": "address"
        },
        {
          "internalType": "address",
          "name": "to",
          "type": "address"
        },
        {
          "internalType": "uint256",
          "name": "tokenId",
          "type": "uint256"
        }
      ],
      "name": "transferFrom",
      "outputs": [],
      "stateMutability": "nonpayable",
      "type": "function"
    },
    {
      "inputs": [
        {
          "internalType": "address",
          "name": "newOwner",
          "type": "address"
        }
      ],
      "name": "transferOwnership",
      "outputs": [],
      "stateMutability": "nonpayable",
      "type": "function"
    },
    {
      "inputs": [
        {
          "internalType": "address",
          "name": "_contractFeeAccount",
          "type": "address"
        }
      ],
      "name": "changeContractFeeAccount",
      "outputs": [],
      "stateMutability": "nonpayable",
      "type": "function"
    },
    {
      "inputs": [
        {
          "internalType": "address",
          "name": "_artistFeeAccount",
          "type": "address"
        }
      ],
      "name": "changeArtistFeeAccount",
      "outputs": [],
      "stateMutability": "nonpayable",
      "type": "function"
    },
    {
      "inputs": [
        {
          "internalType": "uint256",
          "name": "_artistFeePercentage",
          "type": "uint256"
        }
      ],
      "name": "changeArtistFeePercentage",
      "outputs": [],
      "stateMutability": "nonpayable",
      "type": "function"
    },
    {
      "inputs": [
        {
          "internalType": "uint256",
          "name": "_baseArtPrice",
          "type": "uint256"
        }
      ],
      "name": "changeBaseArtPrice",
      "outputs": [],
      "stateMutability": "nonpayable",
      "type": "function"
    },
    {
      "inputs": [
        {
          "internalType": "uint256",
          "name": "_parentMultiplierPercentage",
          "type": "uint256"
        }
      ],
      "name": "changeParentMultiplierPercentage",
      "outputs": [],
      "stateMutability": "nonpayable",
      "type": "function"
    },
    {
      "inputs": [
        {
          "internalType": "uint256",
          "name": "_minParents",
          "type": "uint256"
        }
      ],
      "name": "changeMinParents",
      "outputs": [],
      "stateMutability": "nonpayable",
      "type": "function"
    },
    {
      "inputs": [
        {
          "internalType": "uint256",
          "name": "_maxParents",
          "type": "uint256"
        }
      ],
      "name": "changeMaxParents",
      "outputs": [],
      "stateMutability": "nonpayable",
      "type": "function"
    },
    {
      "inputs": [
        {
          "internalType": "uint256",
          "name": "_minLegacies",
          "type": "uint256"
        }
      ],
      "name": "changeMinLegacies",
      "outputs": [],
      "stateMutability": "nonpayable",
      "type": "function"
    },
    {
      "inputs": [
        {
          "internalType": "uint256",
          "name": "_maxLegacies",
          "type": "uint256"
        }
      ],
      "name": "changeMaxLegacies",
      "outputs": [],
      "stateMutability": "nonpayable",
      "type": "function"
    },
    {
      "inputs": [
        {
          "internalType": "string",
          "name": "_tokenURI",
          "type": "string"
        },
        {
          "internalType": "string",
          "name": "_name",
          "type": "string"
        }
      ],
      "name": "createArtGen0",
      "outputs": [],
      "stateMutability": "nonpayable",
      "type": "function"
    }
  ],
  "bytecode": "0x60806040523480156200001157600080fd5b5060405162004d4938038062004d49833981810160405281019062000037919062000b4d565b6040518060400160405280600381526020017f41727400000000000000000000000000000000000000000000000000000000008152506040518060400160405280600381526020017f41525400000000000000000000000000000000000000000000000000000000008152506000620000b56200029b60201b60201c565b9050806000806101000a81548173ffffffffffffffffffffffffffffffffffffffff021916908373ffffffffffffffffffffffffffffffffffffffff1602179055508073ffffffffffffffffffffffffffffffffffffffff16600073ffffffffffffffffffffffffffffffffffffffff167f8be0079c531659141344cd1fd0a4f28419497f9722a3daafe3b4186f6b6457e060405160405180910390a35081600190805190602001906200016b92919062000a06565b5080600290805190602001906200018492919062000a06565b50505060006012819055506000601381905550600160088190555087600b60006101000a81548173ffffffffffffffffffffffffffffffffffffffff021916908373ffffffffffffffffffffffffffffffffffffffff16021790555086600a8190555085600c8190555084600d8190555083600e8190555082600f8190555081601081905550806011819055506200028d6040518060400160405280600381526020017f30783000000000000000000000000000000000000000000000000000000000008152506040518060400160405280600a81526020017f47656e6573697341727400000000000000000000000000000000000000000000815250620002a360201b60201c565b5050505050505050620010ec565b600033905090565b600b60009054906101000a900473ffffffffffffffffffffffffffffffffffffffff1673ffffffffffffffffffffffffffffffffffffffff163373ffffffffffffffffffffffffffffffffffffffff1614620002fe57600080fd5b6000601254905060606040518061010001604052808381526020013373ffffffffffffffffffffffffffffffffffffffff1681526020016000815260200185815260200184815260200160001515815260200182815260200182815250601460008481526020019081526020016000206000820151816000015560208201518160010160006101000a81548173ffffffffffffffffffffffffffffffffffffffff021916908373ffffffffffffffffffffffffffffffffffffffff160217905550604082015181600201556060820151816003019080519060200190620003e792919062000a06565b5060808201518160040190805190602001906200040692919062000a06565b5060a08201518160050160006101000a81548160ff02191690831515021790555060c08201518160060190805190602001906200044592919062000a97565b5060e08201518160070190805190602001906200046492919062000a97565b509050506200047a3383620004b560201b60201c565b6200048c8285620004db60201b60201c565b620004a960016012546200055c60201b62001c381790919060201c565b60128190555050505050565b620004d78282604051806020016040528060008152506200057460201b60201c565b5050565b620004ec82620005e260201b60201c565b6200052e576040517f08c379a0000000000000000000000000000000000000000000000000000000008152600401620005259062000e8b565b60405180910390fd5b806007600084815260200190815260200160002090805190602001906200055792919062000a06565b505050565b600081836200056c919062000efc565b905092915050565b6200058683836200064e60201b60201c565b6200059b60008484846200083460201b60201c565b620005dd576040517f08c379a0000000000000000000000000000000000000000000000000000000008152600401620005d49062000e47565b60405180910390fd5b505050565b60008073ffffffffffffffffffffffffffffffffffffffff166003600084815260200190815260200160002060009054906101000a900473ffffffffffffffffffffffffffffffffffffffff1673ffffffffffffffffffffffffffffffffffffffff1614159050919050565b600073ffffffffffffffffffffffffffffffffffffffff168273ffffffffffffffffffffffffffffffffffffffff161415620006c1576040517f08c379a0000000000000000000000000000000000000000000000000000000008152600401620006b89062000ead565b60405180910390fd5b620006d281620005e260201b60201c565b1562000715576040517f08c379a00000000000000000000000000000000000000000000000000000000081526004016200070c9062000e69565b60405180910390fd5b6200072960008383620009ee60201b60201c565b6001600460008473ffffffffffffffffffffffffffffffffffffffff1673ffffffffffffffffffffffffffffffffffffffff16815260200190815260200160002060008282546200077b919062000efc565b92505081905550816003600083815260200190815260200160002060006101000a81548173ffffffffffffffffffffffffffffffffffffffff021916908373ffffffffffffffffffffffffffffffffffffffff160217905550808273ffffffffffffffffffffffffffffffffffffffff16600073ffffffffffffffffffffffffffffffffffffffff167fddf252ad1be2c89b69c2b068fc378daa952ba7f163c4a11628f55a4df523b3ef60405160405180910390a45050565b6000620008628473ffffffffffffffffffffffffffffffffffffffff16620009f360201b62001c4e1760201c565b15620009e1578373ffffffffffffffffffffffffffffffffffffffff1663150b7a02620008946200029b60201b60201c565b8786866040518563ffffffff1660e01b8152600401620008b8949392919062000df3565b602060405180830381600087803b158015620008d357600080fd5b505af19250505080156200090757506040513d601f19601f8201168201806040525081019062000904919062000c10565b60015b62000990573d80600081146200093a576040519150601f19603f3d011682016040523d82523d6000602084013e6200093f565b606091505b5060008151141562000988576040517f08c379a00000000000000000000000000000000000000000000000000000000081526004016200097f9062000e47565b60405180910390fd5b805181602001fd5b63150b7a0260e01b7bffffffffffffffffffffffffffffffffffffffffffffffffffffffff1916817bffffffffffffffffffffffffffffffffffffffffffffffffffffffff191614915050620009e6565b600190505b949350505050565b505050565b600080823b905060008111915050919050565b82805462000a149062000ff9565b90600052602060002090601f01602090048101928262000a38576000855562000a84565b82601f1062000a5357805160ff191683800117855562000a84565b8280016001018555821562000a84579182015b8281111562000a8357825182559160200191906001019062000a66565b5b50905062000a93919062000ae9565b5090565b82805482825590600052602060002090810192821562000ad6579160200282015b8281111562000ad557825182559160200191906001019062000ab8565b5b50905062000ae5919062000ae9565b5090565b5b8082111562000b0457600081600090555060010162000aea565b5090565b60008151905062000b19816200109e565b92915050565b60008151905062000b3081620010b8565b92915050565b60008151905062000b4781620010d2565b92915050565b600080600080600080600080610100898b03121562000b6b57600080fd5b600062000b7b8b828c0162000b08565b985050602062000b8e8b828c0162000b36565b975050604062000ba18b828c0162000b36565b965050606062000bb48b828c0162000b36565b955050608062000bc78b828c0162000b36565b94505060a062000bda8b828c0162000b36565b93505060c062000bed8b828c0162000b36565b92505060e062000c008b828c0162000b36565b9150509295985092959890939650565b60006020828403121562000c2357600080fd5b600062000c338482850162000b1f565b91505092915050565b62000c478162000f59565b82525050565b600062000c5a8262000ecf565b62000c66818562000eda565b935062000c7881856020860162000fc3565b62000c83816200108d565b840191505092915050565b600062000c9d60328362000eeb565b91507f4552433732313a207472616e7366657220746f206e6f6e20455243373231526560008301527f63656976657220696d706c656d656e74657200000000000000000000000000006020830152604082019050919050565b600062000d05601c8362000eeb565b91507f4552433732313a20746f6b656e20616c7265616479206d696e746564000000006000830152602082019050919050565b600062000d47602e8362000eeb565b91507f45524337323155524953746f726167653a2055524920736574206f66206e6f6e60008301527f6578697374656e7420746f6b656e0000000000000000000000000000000000006020830152604082019050919050565b600062000daf60208362000eeb565b91507f4552433732313a206d696e7420746f20746865207a65726f20616464726573736000830152602082019050919050565b62000ded8162000fb9565b82525050565b600060808201905062000e0a600083018762000c3c565b62000e19602083018662000c3c565b62000e28604083018562000de2565b818103606083015262000e3c818462000c4d565b905095945050505050565b6000602082019050818103600083015262000e628162000c8e565b9050919050565b6000602082019050818103600083015262000e848162000cf6565b9050919050565b6000602082019050818103600083015262000ea68162000d38565b9050919050565b6000602082019050818103600083015262000ec88162000da0565b9050919050565b600081519050919050565b600082825260208201905092915050565b600082825260208201905092915050565b600062000f098262000fb9565b915062000f168362000fb9565b9250827fffffffffffffffffffffffffffffffffffffffffffffffffffffffffffffffff0382111562000f4e5762000f4d6200102f565b5b828201905092915050565b600062000f668262000f99565b9050919050565b60007fffffffff0000000000000000000000000000000000000000000000000000000082169050919050565b600073ffffffffffffffffffffffffffffffffffffffff82169050919050565b6000819050919050565b60005b8381101562000fe357808201518184015260208101905062000fc6565b8381111562000ff3576000848401525b50505050565b600060028204905060018216806200101257607f821691505b602082108114156200102957620010286200105e565b5b50919050565b7f4e487b7100000000000000000000000000000000000000000000000000000000600052601160045260246000fd5b7f4e487b7100000000000000000000000000000000000000000000000000000000600052602260045260246000fd5b6000601f19601f8301169050919050565b620010a98162000f59565b8114620010b557600080fd5b50565b620010c38162000f6d565b8114620010cf57600080fd5b50565b620010dd8162000fb9565b8114620010e957600080fd5b50565b613c4d80620010fc6000396000f3fe608060405234801561001057600080fd5b50600436106102535760003560e01c80638a29d0e411610146578063c4a3df10116100c3578063e985e9c511610087578063e985e9c5146106d7578063f2fde38b14610707578063f5b655bf14610723578063fc3fa70f1461073f578063feb216991461075d578063ff20deb31461077b57610253565b8063c4a3df1014610631578063c87b56dd1461064f578063ccfc1fc91461067f578063d45fc36b1461069d578063dbd8987c146106b957610253565b8063a22cb4651161010a578063a22cb46514610591578063af773709146105ad578063b88d4fde146105c9578063ba1c2a16146105e5578063bc31c1c11461060157610253565b80638a29d0e4146104fd5780638da5cb5b1461051b57806392bfdccb1461053957806395d89b41146105575780639e029fbc1461057557610253565b80634b602673116101d457806369edcd5b1161019857806369edcd5b1461046d57806370a0823114610489578063715018a6146104b9578063808b0a04146104c3578063873775ad146104e157610253565b80634b602673146103b25780635c717fb8146103e75780636257dcc51461040557806363111b65146104215780636352211e1461043d57610253565b80632453ffa81161021b5780632453ffa81461030e57806327e235e31461032c5780632a80805b1461035c5780632f12616d1461037857806342842e0e1461039657610253565b806301ffc9a71461025857806306fdde0314610288578063081812fc146102a6578063095ea7b3146102d657806323b872dd146102f2575b600080fd5b610272600480360381019061026d9190612c20565b610799565b60405161027f91906134f6565b60405180910390f35b61029061087b565b60405161029d9190613511565b60405180910390f35b6102c060048036038101906102bb9190612cde565b61090d565b6040516102cd919061348f565b60405180910390f35b6102f060048036038101906102eb9190612be4565b610992565b005b61030c60048036038101906103079190612ade565b610aaa565b005b610316610b0a565b6040516103239190613773565b60405180910390f35b61034660048036038101906103419190612a79565b610b10565b6040516103539190613773565b60405180910390f35b61037660048036038101906103719190612cde565b610b28565b005b610380610b8c565b60405161038d9190613773565b60405180910390f35b6103b060048036038101906103ab9190612ade565b610b92565b005b6103cc60048036038101906103c79190612cde565b610bb2565b6040516103de9695949392919061378e565b60405180910390f35b6103ef610d2b565b6040516103fc919061348f565b60405180910390f35b61041f600480360381019061041a9190612cde565b610d51565b005b61043b60048036038101906104369190612cde565b610db5565b005b61045760048036038101906104529190612cde565b610e19565b604051610464919061348f565b60405180910390f35b61048760048036038101906104829190612a79565b610ecb565b005b6104a3600480360381019061049e9190612a79565b610f8b565b6040516104b09190613773565b60405180910390f35b6104c1611043565b005b6104cb61117d565b6040516104d89190613773565b60405180910390f35b6104fb60048036038101906104f69190612cde565b611183565b005b6105056111e7565b604051610512919061348f565b60405180910390f35b61052361120d565b604051610530919061348f565b60405180910390f35b610541611236565b60405161054e9190613773565b60405180910390f35b61055f61123c565b60405161056c9190613511565b60405180910390f35b61058f600480360381019061058a9190612cde565b6112ce565b005b6105ab60048036038101906105a69190612ba8565b611332565b005b6105c760048036038101906105c29190612a79565b6114b3565b005b6105e360048036038101906105de9190612b2d565b611551565b005b6105ff60048036038101906105fa9190612cde565b6115b3565b005b61061b60048036038101906106169190612cde565b611617565b6040516106289190613773565b60405180910390f35b61063961162f565b6040516106469190613773565b60405180910390f35b61066960048036038101906106649190612cde565b611635565b6040516106769190613511565b60405180910390f35b610687611787565b6040516106949190613773565b60405180910390f35b6106b760048036038101906106b29190612cde565b61178d565b005b6106c16117f1565b6040516106ce9190613773565b60405180910390f35b6106f160048036038101906106ec9190612aa2565b6117f7565b6040516106fe91906134f6565b60405180910390f35b610721600480360381019061071c9190612a79565b61188b565b005b61073d60048036038101906107389190612c72565b611a34565b005b610747611c26565b6040516107549190613773565b60405180910390f35b610765611c2c565b6040516107729190613773565b60405180910390f35b610783611c32565b6040516107909190613773565b60405180910390f35b60007f80ac58cd000000000000000000000000000000000000000000000000000000007bffffffffffffffffffffffffffffffffffffffffffffffffffffffff1916827bffffffffffffffffffffffffffffffffffffffffffffffffffffffff1916148061086457507f5b5e139f000000000000000000000000000000000000000000000000000000007bffffffffffffffffffffffffffffffffffffffffffffffffffffffff1916827bffffffffffffffffffffffffffffffffffffffffffffffffffffffff1916145b80610874575061087382611c61565b5b9050919050565b60606001805461088a90613a42565b80601f01602080910402602001604051908101604052809291908181526020018280546108b690613a42565b80156109035780601f106108d857610100808354040283529160200191610903565b820191906000526020600020905b8154815290600101906020018083116108e657829003601f168201915b5050505050905090565b600061091882611ccb565b610957576040517f08c379a000000000000000000000000000000000000000000000000000000000815260040161094e906136b3565b60405180910390fd5b6005600083815260200190815260200160002060009054906101000a900473ffffffffffffffffffffffffffffffffffffffff169050919050565b600061099d82610e19565b90508073ffffffffffffffffffffffffffffffffffffffff168373ffffffffffffffffffffffffffffffffffffffff161415610a0e576040517f08c379a0000000000000000000000000000000000000000000000000000000008152600401610a0590613733565b60405180910390fd5b8073ffffffffffffffffffffffffffffffffffffffff16610a2d611d37565b73ffffffffffffffffffffffffffffffffffffffff161480610a5c5750610a5b81610a56611d37565b6117f7565b5b610a9b576040517f08c379a0000000000000000000000000000000000000000000000000000000008152600401610a92906135f3565b60405180910390fd5b610aa58383611d3f565b505050565b610abb610ab5611d37565b82611df8565b610afa576040517f08c379a0000000000000000000000000000000000000000000000000000000008152600401610af190613753565b60405180910390fd5b610b05838383611ed6565b505050565b60135481565b60166020528060005260406000206000915090505481565b600b60009054906101000a900473ffffffffffffffffffffffffffffffffffffffff1673ffffffffffffffffffffffffffffffffffffffff163373ffffffffffffffffffffffffffffffffffffffff1614610b8257600080fd5b80600e8190555050565b60105481565b610bad83838360405180602001604052806000815250611551565b505050565b60146020528060005260406000206000915090508060000154908060010160009054906101000a900473ffffffffffffffffffffffffffffffffffffffff1690806002015490806003018054610c0790613a42565b80601f0160208091040260200160405190810160405280929190818152602001828054610c3390613a42565b8015610c805780601f10610c5557610100808354040283529160200191610c80565b820191906000526020600020905b815481529060010190602001808311610c6357829003601f168201915b505050505090806004018054610c9590613a42565b80601f0160208091040260200160405190810160405280929190818152602001828054610cc190613a42565b8015610d0e5780601f10610ce357610100808354040283529160200191610d0e565b820191906000526020600020905b815481529060010190602001808311610cf157829003601f168201915b5050505050908060050160009054906101000a900460ff16905086565b600b60009054906101000a900473ffffffffffffffffffffffffffffffffffffffff1681565b600b60009054906101000a900473ffffffffffffffffffffffffffffffffffffffff1673ffffffffffffffffffffffffffffffffffffffff163373ffffffffffffffffffffffffffffffffffffffff1614610dab57600080fd5b8060118190555050565b600b60009054906101000a900473ffffffffffffffffffffffffffffffffffffffff1673ffffffffffffffffffffffffffffffffffffffff163373ffffffffffffffffffffffffffffffffffffffff1614610e0f57600080fd5b80600f8190555050565b6000806003600084815260200190815260200160002060009054906101000a900473ffffffffffffffffffffffffffffffffffffffff169050600073ffffffffffffffffffffffffffffffffffffffff168173ffffffffffffffffffffffffffffffffffffffff161415610ec2576040517f08c379a0000000000000000000000000000000000000000000000000000000008152600401610eb990613633565b60405180910390fd5b80915050919050565b610ed3611d37565b73ffffffffffffffffffffffffffffffffffffffff16610ef161120d565b73ffffffffffffffffffffffffffffffffffffffff1614610f47576040517f08c379a0000000000000000000000000000000000000000000000000000000008152600401610f3e906136d3565b60405180910390fd5b80600960006101000a81548173ffffffffffffffffffffffffffffffffffffffff021916908373ffffffffffffffffffffffffffffffffffffffff16021790555050565b60008073ffffffffffffffffffffffffffffffffffffffff168273ffffffffffffffffffffffffffffffffffffffff161415610ffc576040517f08c379a0000000000000000000000000000000000000000000000000000000008152600401610ff390613613565b60405180910390fd5b600460008373ffffffffffffffffffffffffffffffffffffffff1673ffffffffffffffffffffffffffffffffffffffff168152602001908152602001600020549050919050565b61104b611d37565b73ffffffffffffffffffffffffffffffffffffffff1661106961120d565b73ffffffffffffffffffffffffffffffffffffffff16146110bf576040517f08c379a00000000000000000000000000000000000000000000000000000000081526004016110b6906136d3565b60405180910390fd5b600073ffffffffffffffffffffffffffffffffffffffff1660008054906101000a900473ffffffffffffffffffffffffffffffffffffffff1673ffffffffffffffffffffffffffffffffffffffff167f8be0079c531659141344cd1fd0a4f28419497f9722a3daafe3b4186f6b6457e060405160405180910390a360008060006101000a81548173ffffffffffffffffffffffffffffffffffffffff021916908373ffffffffffffffffffffffffffffffffffffffff160217905550565b600e5481565b600b60009054906101000a900473ffffffffffffffffffffffffffffffffffffffff1673ffffffffffffffffffffffffffffffffffffffff163373ffffffffffffffffffffffffffffffffffffffff16146111dd57600080fd5b80600d8190555050565b600960009054906101000a900473ffffffffffffffffffffffffffffffffffffffff1681565b60008060009054906101000a900473ffffffffffffffffffffffffffffffffffffffff16905090565b600a5481565b60606002805461124b90613a42565b80601f016020809104026020016040519081016040528092919081815260200182805461127790613a42565b80156112c45780601f10611299576101008083540402835291602001916112c4565b820191906000526020600020905b8154815290600101906020018083116112a757829003601f168201915b5050505050905090565b600b60009054906101000a900473ffffffffffffffffffffffffffffffffffffffff1673ffffffffffffffffffffffffffffffffffffffff163373ffffffffffffffffffffffffffffffffffffffff161461132857600080fd5b80600c8190555050565b61133a611d37565b73ffffffffffffffffffffffffffffffffffffffff168273ffffffffffffffffffffffffffffffffffffffff1614156113a8576040517f08c379a000000000000000000000000000000000000000000000000000000000815260040161139f906135b3565b60405180910390fd5b80600660006113b5611d37565b73ffffffffffffffffffffffffffffffffffffffff1673ffffffffffffffffffffffffffffffffffffffff16815260200190815260200160002060008473ffffffffffffffffffffffffffffffffffffffff1673ffffffffffffffffffffffffffffffffffffffff16815260200190815260200160002060006101000a81548160ff0219169083151502179055508173ffffffffffffffffffffffffffffffffffffffff16611462611d37565b73ffffffffffffffffffffffffffffffffffffffff167f17307eab39ab6107e8899845ad3d59bd9653f200f220920489ca2b5937696c31836040516114a791906134f6565b60405180910390a35050565b600b60009054906101000a900473ffffffffffffffffffffffffffffffffffffffff1673ffffffffffffffffffffffffffffffffffffffff163373ffffffffffffffffffffffffffffffffffffffff161461150d57600080fd5b80600b60006101000a81548173ffffffffffffffffffffffffffffffffffffffff021916908373ffffffffffffffffffffffffffffffffffffffff16021790555050565b61156261155c611d37565b83611df8565b6115a1576040517f08c379a000000000000000000000000000000000000000000000000000000000815260040161159890613753565b60405180910390fd5b6115ad84848484612132565b50505050565b600b60009054906101000a900473ffffffffffffffffffffffffffffffffffffffff1673ffffffffffffffffffffffffffffffffffffffff163373ffffffffffffffffffffffffffffffffffffffff161461160d57600080fd5b80600a8190555050565b60156020528060005260406000206000915090505481565b600f5481565b606061164082611ccb565b61167f576040517f08c379a000000000000000000000000000000000000000000000000000000000815260040161167690613693565b60405180910390fd5b600060076000848152602001908152602001600020805461169f90613a42565b80601f01602080910402602001604051908101604052809291908181526020018280546116cb90613a42565b80156117185780601f106116ed57610100808354040283529160200191611718565b820191906000526020600020905b8154815290600101906020018083116116fb57829003601f168201915b50505050509050600061172961218e565b905060008151141561173f578192505050611782565b60008251111561177457808260405160200161175c92919061346b565b60405160208183030381529060405292505050611782565b61177d846121a5565b925050505b919050565b600c5481565b600b60009054906101000a900473ffffffffffffffffffffffffffffffffffffffff1673ffffffffffffffffffffffffffffffffffffffff163373ffffffffffffffffffffffffffffffffffffffff16146117e757600080fd5b8060108190555050565b60085481565b6000600660008473ffffffffffffffffffffffffffffffffffffffff1673ffffffffffffffffffffffffffffffffffffffff16815260200190815260200160002060008373ffffffffffffffffffffffffffffffffffffffff1673ffffffffffffffffffffffffffffffffffffffff16815260200190815260200160002060009054906101000a900460ff16905092915050565b611893611d37565b73ffffffffffffffffffffffffffffffffffffffff166118b161120d565b73ffffffffffffffffffffffffffffffffffffffff1614611907576040517f08c379a00000000000000000000000000000000000000000000000000000000081526004016118fe906136d3565b60405180910390fd5b600073ffffffffffffffffffffffffffffffffffffffff168173ffffffffffffffffffffffffffffffffffffffff161415611977576040517f08c379a000000000000000000000000000000000000000000000000000000000815260040161196e90613553565b60405180910390fd5b8073ffffffffffffffffffffffffffffffffffffffff1660008054906101000a900473ffffffffffffffffffffffffffffffffffffffff1673ffffffffffffffffffffffffffffffffffffffff167f8be0079c531659141344cd1fd0a4f28419497f9722a3daafe3b4186f6b6457e060405160405180910390a3806000806101000a81548173ffffffffffffffffffffffffffffffffffffffff021916908373ffffffffffffffffffffffffffffffffffffffff16021790555050565b600b60009054906101000a900473ffffffffffffffffffffffffffffffffffffffff1673ffffffffffffffffffffffffffffffffffffffff163373ffffffffffffffffffffffffffffffffffffffff1614611a8e57600080fd5b6000601254905060606040518061010001604052808381526020013373ffffffffffffffffffffffffffffffffffffffff1681526020016000815260200185815260200184815260200160001515815260200182815260200182815250601460008481526020019081526020016000206000820151816000015560208201518160010160006101000a81548173ffffffffffffffffffffffffffffffffffffffff021916908373ffffffffffffffffffffffffffffffffffffffff160217905550604082015181600201556060820151816003019080519060200190611b75929190612850565b506080820151816004019080519060200190611b92929190612850565b5060a08201518160050160006101000a81548160ff02191690831515021790555060c0820151816006019080519060200190611bcf9291906128d6565b5060e0820151816007019080519060200190611bec9291906128d6565b50905050611bfa338361224c565b611c04828561226a565b611c1a6001601254611c3890919063ffffffff16565b60128190555050505050565b60115481565b600d5481565b60125481565b60008183611c4691906138d1565b905092915050565b600080823b905060008111915050919050565b60007f01ffc9a7000000000000000000000000000000000000000000000000000000007bffffffffffffffffffffffffffffffffffffffffffffffffffffffff1916827bffffffffffffffffffffffffffffffffffffffffffffffffffffffff1916149050919050565b60008073ffffffffffffffffffffffffffffffffffffffff166003600084815260200190815260200160002060009054906101000a900473ffffffffffffffffffffffffffffffffffffffff1673ffffffffffffffffffffffffffffffffffffffff1614159050919050565b600033905090565b816005600083815260200190815260200160002060006101000a81548173ffffffffffffffffffffffffffffffffffffffff021916908373ffffffffffffffffffffffffffffffffffffffff160217905550808273ffffffffffffffffffffffffffffffffffffffff16611db283610e19565b73ffffffffffffffffffffffffffffffffffffffff167f8c5be1e5ebec7d5bd14f71427d1e84f3dd0314c0f7b2291e5b200ac8c7c3b92560405160405180910390a45050565b6000611e0382611ccb565b611e42576040517f08c379a0000000000000000000000000000000000000000000000000000000008152600401611e39906135d3565b60405180910390fd5b6000611e4d83610e19565b90508073ffffffffffffffffffffffffffffffffffffffff168473ffffffffffffffffffffffffffffffffffffffff161480611ebc57508373ffffffffffffffffffffffffffffffffffffffff16611ea48461090d565b73ffffffffffffffffffffffffffffffffffffffff16145b80611ecd5750611ecc81856117f7565b5b91505092915050565b8273ffffffffffffffffffffffffffffffffffffffff16611ef682610e19565b73ffffffffffffffffffffffffffffffffffffffff1614611f4c576040517f08c379a0000000000000000000000000000000000000000000000000000000008152600401611f43906136f3565b60405180910390fd5b600073ffffffffffffffffffffffffffffffffffffffff168273ffffffffffffffffffffffffffffffffffffffff161415611fbc576040517f08c379a0000000000000000000000000000000000000000000000000000000008152600401611fb390613593565b60405180910390fd5b611fc78383836122de565b611fd2600082611d3f565b6001600460008573ffffffffffffffffffffffffffffffffffffffff1673ffffffffffffffffffffffffffffffffffffffff16815260200190815260200160002060008282546120229190613958565b925050819055506001600460008473ffffffffffffffffffffffffffffffffffffffff1673ffffffffffffffffffffffffffffffffffffffff168152602001908152602001600020600082825461207991906138d1565b92505081905550816003600083815260200190815260200160002060006101000a81548173ffffffffffffffffffffffffffffffffffffffff021916908373ffffffffffffffffffffffffffffffffffffffff160217905550808273ffffffffffffffffffffffffffffffffffffffff168473ffffffffffffffffffffffffffffffffffffffff167fddf252ad1be2c89b69c2b068fc378daa952ba7f163c4a11628f55a4df523b3ef60405160405180910390a4505050565b61213d848484611ed6565b612149848484846122e3565b612188576040517f08c379a000000000000000000000000000000000000000000000000000000000815260040161217f90613533565b60405180910390fd5b50505050565b606060405180602001604052806000815250905090565b60606121b082611ccb565b6121ef576040517f08c379a00000000000000000000000000000000000000000000000000000000081526004016121e690613713565b60405180910390fd5b60006121f961218e565b905060008151116122195760405180602001604052806000815250612244565b806122238461247a565b60405160200161223492919061346b565b6040516020818303038152906040525b915050919050565b612266828260405180602001604052806000815250612627565b5050565b61227382611ccb565b6122b2576040517f08c379a00000000000000000000000000000000000000000000000000000000081526004016122a990613653565b60405180910390fd5b806007600084815260200190815260200160002090805190602001906122d9929190612850565b505050565b505050565b60006123048473ffffffffffffffffffffffffffffffffffffffff16611c4e565b1561246d578373ffffffffffffffffffffffffffffffffffffffff1663150b7a0261232d611d37565b8786866040518563ffffffff1660e01b815260040161234f94939291906134aa565b602060405180830381600087803b15801561236957600080fd5b505af192505050801561239a57506040513d601f19601f820116820180604052508101906123979190612c49565b60015b61241d573d80600081146123ca576040519150601f19603f3d011682016040523d82523d6000602084013e6123cf565b606091505b50600081511415612415576040517f08c379a000000000000000000000000000000000000000000000000000000000815260040161240c90613533565b60405180910390fd5b805181602001fd5b63150b7a0260e01b7bffffffffffffffffffffffffffffffffffffffffffffffffffffffff1916817bffffffffffffffffffffffffffffffffffffffffffffffffffffffff191614915050612472565b600190505b949350505050565b606060008214156124c2576040518060400160405280600181526020017f30000000000000000000000000000000000000000000000000000000000000008152509050612622565b600082905060005b600082146124f45780806124dd90613a74565b915050600a826124ed9190613927565b91506124ca565b60008167ffffffffffffffff811115612536577f4e487b7100000000000000000000000000000000000000000000000000000000600052604160045260246000fd5b6040519080825280601f01601f1916602001820160405280156125685781602001600182028036833780820191505090505b5090505b6000851461261b576001826125819190613958565b9150600a856125909190613abd565b603061259c91906138d1565b60f81b8183815181106125d8577f4e487b7100000000000000000000000000000000000000000000000000000000600052603260045260246000fd5b60200101907effffffffffffffffffffffffffffffffffffffffffffffffffffffffffffff1916908160001a905350600a856126149190613927565b945061256c565b8093505050505b919050565b6126318383612682565b61263e60008484846122e3565b61267d576040517f08c379a000000000000000000000000000000000000000000000000000000000815260040161267490613533565b60405180910390fd5b505050565b600073ffffffffffffffffffffffffffffffffffffffff168273ffffffffffffffffffffffffffffffffffffffff1614156126f2576040517f08c379a00000000000000000000000000000000000000000000000000000000081526004016126e990613673565b60405180910390fd5b6126fb81611ccb565b1561273b576040517f08c379a000000000000000000000000000000000000000000000000000000000815260040161273290613573565b60405180910390fd5b612747600083836122de565b6001600460008473ffffffffffffffffffffffffffffffffffffffff1673ffffffffffffffffffffffffffffffffffffffff168152602001908152602001600020600082825461279791906138d1565b92505081905550816003600083815260200190815260200160002060006101000a81548173ffffffffffffffffffffffffffffffffffffffff021916908373ffffffffffffffffffffffffffffffffffffffff160217905550808273ffffffffffffffffffffffffffffffffffffffff16600073ffffffffffffffffffffffffffffffffffffffff167fddf252ad1be2c89b69c2b068fc378daa952ba7f163c4a11628f55a4df523b3ef60405160405180910390a45050565b82805461285c90613a42565b90600052602060002090601f01602090048101928261287e57600085556128c5565b82601f1061289757805160ff19168380011785556128c5565b828001600101855582156128c5579182015b828111156128c45782518255916020019190600101906128a9565b5b5090506128d29190612923565b5090565b828054828255906000526020600020908101928215612912579160200282015b828111156129115782518255916020019190600101906128f6565b5b50905061291f9190612923565b5090565b5b8082111561293c576000816000905550600101612924565b5090565b600061295361294e8461382e565b6137fd565b90508281526020810184848401111561296b57600080fd5b612976848285613a00565b509392505050565b600061299161298c8461385e565b6137fd565b9050828152602081018484840111156129a957600080fd5b6129b4848285613a00565b509392505050565b6000813590506129cb81613bbb565b92915050565b6000813590506129e081613bd2565b92915050565b6000813590506129f581613be9565b92915050565b600081519050612a0a81613be9565b92915050565b600082601f830112612a2157600080fd5b8135612a31848260208601612940565b91505092915050565b600082601f830112612a4b57600080fd5b8135612a5b84826020860161297e565b91505092915050565b600081359050612a7381613c00565b92915050565b600060208284031215612a8b57600080fd5b6000612a99848285016129bc565b91505092915050565b60008060408385031215612ab557600080fd5b6000612ac3858286016129bc565b9250506020612ad4858286016129bc565b9150509250929050565b600080600060608486031215612af357600080fd5b6000612b01868287016129bc565b9350506020612b12868287016129bc565b9250506040612b2386828701612a64565b9150509250925092565b60008060008060808587031215612b4357600080fd5b6000612b51878288016129bc565b9450506020612b62878288016129bc565b9350506040612b7387828801612a64565b925050606085013567ffffffffffffffff811115612b9057600080fd5b612b9c87828801612a10565b91505092959194509250565b60008060408385031215612bbb57600080fd5b6000612bc9858286016129bc565b9250506020612bda858286016129d1565b9150509250929050565b60008060408385031215612bf757600080fd5b6000612c05858286016129bc565b9250506020612c1685828601612a64565b9150509250929050565b600060208284031215612c3257600080fd5b6000612c40848285016129e6565b91505092915050565b600060208284031215612c5b57600080fd5b6000612c69848285016129fb565b91505092915050565b60008060408385031215612c8557600080fd5b600083013567ffffffffffffffff811115612c9f57600080fd5b612cab85828601612a3a565b925050602083013567ffffffffffffffff811115612cc857600080fd5b612cd485828601612a3a565b9150509250929050565b600060208284031215612cf057600080fd5b6000612cfe84828501612a64565b91505092915050565b612d108161398c565b82525050565b612d1f8161399e565b82525050565b6000612d308261388e565b612d3a81856138a4565b9350612d4a818560208601613a0f565b612d5381613baa565b840191505092915050565b6000612d6982613899565b612d7381856138b5565b9350612d83818560208601613a0f565b612d8c81613baa565b840191505092915050565b6000612da282613899565b612dac81856138c6565b9350612dbc818560208601613a0f565b80840191505092915050565b6000612dd56032836138b5565b91507f4552433732313a207472616e7366657220746f206e6f6e20455243373231526560008301527f63656976657220696d706c656d656e74657200000000000000000000000000006020830152604082019050919050565b6000612e3b6026836138b5565b91507f4f776e61626c653a206e6577206f776e657220697320746865207a65726f206160008301527f64647265737300000000000000000000000000000000000000000000000000006020830152604082019050919050565b6000612ea1601c836138b5565b91507f4552433732313a20746f6b656e20616c7265616479206d696e746564000000006000830152602082019050919050565b6000612ee16024836138b5565b91507f4552433732313a207472616e7366657220746f20746865207a65726f2061646460008301527f72657373000000000000000000000000000000000000000000000000000000006020830152604082019050919050565b6000612f476019836138b5565b91507f4552433732313a20617070726f766520746f2063616c6c6572000000000000006000830152602082019050919050565b6000612f87602c836138b5565b91507f4552433732313a206f70657261746f7220717565727920666f72206e6f6e657860008301527f697374656e7420746f6b656e00000000000000000000000000000000000000006020830152604082019050919050565b6000612fed6038836138b5565b91507f4552433732313a20617070726f76652063616c6c6572206973206e6f74206f7760008301527f6e6572206e6f7220617070726f76656420666f7220616c6c00000000000000006020830152604082019050919050565b6000613053602a836138b5565b91507f4552433732313a2062616c616e636520717565727920666f7220746865207a6560008301527f726f2061646472657373000000000000000000000000000000000000000000006020830152604082019050919050565b60006130b96029836138b5565b91507f4552433732313a206f776e657220717565727920666f72206e6f6e657869737460008301527f656e7420746f6b656e00000000000000000000000000000000000000000000006020830152604082019050919050565b600061311f602e836138b5565b91507f45524337323155524953746f726167653a2055524920736574206f66206e6f6e60008301527f6578697374656e7420746f6b656e0000000000000000000000000000000000006020830152604082019050919050565b60006131856020836138b5565b91507f4552433732313a206d696e7420746f20746865207a65726f20616464726573736000830152602082019050919050565b60006131c56031836138b5565b91507f45524337323155524953746f726167653a2055524920717565727920666f722060008301527f6e6f6e6578697374656e7420746f6b656e0000000000000000000000000000006020830152604082019050919050565b600061322b602c836138b5565b91507f4552433732313a20617070726f76656420717565727920666f72206e6f6e657860008301527f697374656e7420746f6b656e00000000000000000000000000000000000000006020830152604082019050919050565b60006132916020836138b5565b91507f4f776e61626c653a2063616c6c6572206973206e6f7420746865206f776e65726000830152602082019050919050565b60006132d16029836138b5565b91507f4552433732313a207472616e73666572206f6620746f6b656e2074686174206960008301527f73206e6f74206f776e00000000000000000000000000000000000000000000006020830152604082019050919050565b6000613337602f836138b5565b91507f4552433732314d657461646174613a2055524920717565727920666f72206e6f60008301527f6e6578697374656e7420746f6b656e00000000000000000000000000000000006020830152604082019050919050565b600061339d6021836138b5565b91507f4552433732313a20617070726f76616c20746f2063757272656e74206f776e6560008301527f72000000000000000000000000000000000000000000000000000000000000006020830152604082019050919050565b60006134036031836138b5565b91507f4552433732313a207472616e736665722063616c6c6572206973206e6f74206f60008301527f776e6572206e6f7220617070726f7665640000000000000000000000000000006020830152604082019050919050565b613465816139f6565b82525050565b60006134778285612d97565b91506134838284612d97565b91508190509392505050565b60006020820190506134a46000830184612d07565b92915050565b60006080820190506134bf6000830187612d07565b6134cc6020830186612d07565b6134d9604083018561345c565b81810360608301526134eb8184612d25565b905095945050505050565b600060208201905061350b6000830184612d16565b92915050565b6000602082019050818103600083015261352b8184612d5e565b905092915050565b6000602082019050818103600083015261354c81612dc8565b9050919050565b6000602082019050818103600083015261356c81612e2e565b9050919050565b6000602082019050818103600083015261358c81612e94565b9050919050565b600060208201905081810360008301526135ac81612ed4565b9050919050565b600060208201905081810360008301526135cc81612f3a565b9050919050565b600060208201905081810360008301526135ec81612f7a565b9050919050565b6000602082019050818103600083015261360c81612fe0565b9050919050565b6000602082019050818103600083015261362c81613046565b9050919050565b6000602082019050818103600083015261364c816130ac565b9050919050565b6000602082019050818103600083015261366c81613112565b9050919050565b6000602082019050818103600083015261368c81613178565b9050919050565b600060208201905081810360008301526136ac816131b8565b9050919050565b600060208201905081810360008301526136cc8161321e565b9050919050565b600060208201905081810360008301526136ec81613284565b9050919050565b6000602082019050818103600083015261370c816132c4565b9050919050565b6000602082019050818103600083015261372c8161332a565b9050919050565b6000602082019050818103600083015261374c81613390565b9050919050565b6000602082019050818103600083015261376c816133f6565b9050919050565b6000602082019050613788600083018461345c565b92915050565b600060c0820190506137a3600083018961345c565b6137b06020830188612d07565b6137bd604083018761345c565b81810360608301526137cf8186612d5e565b905081810360808301526137e38185612d5e565b90506137f260a0830184612d16565b979650505050505050565b6000604051905081810181811067ffffffffffffffff8211171561382457613823613b7b565b5b8060405250919050565b600067ffffffffffffffff82111561384957613848613b7b565b5b601f19601f8301169050602081019050919050565b600067ffffffffffffffff82111561387957613878613b7b565b5b601f19601f8301169050602081019050919050565b600081519050919050565b600081519050919050565b600082825260208201905092915050565b600082825260208201905092915050565b600081905092915050565b60006138dc826139f6565b91506138e7836139f6565b9250827fffffffffffffffffffffffffffffffffffffffffffffffffffffffffffffffff0382111561391c5761391b613aee565b5b828201905092915050565b6000613932826139f6565b915061393d836139f6565b92508261394d5761394c613b1d565b5b828204905092915050565b6000613963826139f6565b915061396e836139f6565b92508282101561398157613980613aee565b5b828203905092915050565b6000613997826139d6565b9050919050565b60008115159050919050565b60007fffffffff0000000000000000000000000000000000000000000000000000000082169050919050565b600073ffffffffffffffffffffffffffffffffffffffff82169050919050565b6000819050919050565b82818337600083830152505050565b60005b83811015613a2d578082015181840152602081019050613a12565b83811115613a3c576000848401525b50505050565b60006002820490506001821680613a5a57607f821691505b60208210811415613a6e57613a6d613b4c565b5b50919050565b6000613a7f826139f6565b91507fffffffffffffffffffffffffffffffffffffffffffffffffffffffffffffffff821415613ab257613ab1613aee565b5b600182019050919050565b6000613ac8826139f6565b9150613ad3836139f6565b925082613ae357613ae2613b1d565b5b828206905092915050565b7f4e487b7100000000000000000000000000000000000000000000000000000000600052601160045260246000fd5b7f4e487b7100000000000000000000000000000000000000000000000000000000600052601260045260246000fd5b7f4e487b7100000000000000000000000000000000000000000000000000000000600052602260045260246000fd5b7f4e487b7100000000000000000000000000000000000000000000000000000000600052604160045260246000fd5b6000601f19601f8301169050919050565b613bc48161398c565b8114613bcf57600080fd5b50565b613bdb8161399e565b8114613be657600080fd5b50565b613bf2816139aa565b8114613bfd57600080fd5b50565b613c09816139f6565b8114613c1457600080fd5b5056fea264697066735822122067952bff08abaef2b9cae0d24984a446ab156b266a3445fb0563d735b892088b64736f6c63430008000033",
  "immutableReferences": {},
  "source": "// SPDX-License-Identifier: MIT\npragma solidity >=0.4.22 <0.9.0;\n\nimport \"@openzeppelin/contracts/access/Ownable.sol\";\nimport \"@openzeppelin/contracts/token/ERC721/extensions/ERC721URIStorage.sol\";\nimport \"@openzeppelin/contracts/utils/math/SafeMath.sol\";\n\n// TODO:\n// max parents\n// max legacies\n\ncontract ArtFactory is Ownable, ERC721URIStorage {\n\n  using SafeMath for uint256;\n  \n  uint256 public contractFeePercentage; // percentage out of 100\n  address public contractFeeAccount;\n  uint256 public artistFeePercentage; // percentage out of 100\n  address public artistFeeAccount;\n  uint256 public baseArtPrice;\n  uint256 public parentMultiplierPercentage; // percentage out of 100\n  uint256 public minParents;\n  uint256 public maxParents;\n  uint256 public minLegacies;\n  uint256 public maxLegacies;\n  uint256 public critterCount;\n  uint256 public orderCount;\n\n  mapping(uint256 => Art) public artworks;\n  mapping(uint256 => uint256) public prices;\n  mapping (address => uint256) public balances;\n  //mapping(uint256 => Order) public orders;\n\n  struct Art {\n    uint256 id;\n    address owner;\n    uint256 gen;\n    string tokenURI;\n    string name;\n    bool legacyCreated;\n    uint256[] parents;\n    uint256[] siblings;\n  }\n\n  // struct Order {\n  //   uint256 id;\n  //   address buyer;\n  //   uint256[] artIDS;\n  //   uint256 numLegacies;\n  // }\n\n  event ArtGen0(uint256 id, address owner, uint256 gen, uint256 dna, string tokenURI, string name, bool legacyCreated, uint256[] parents, uint256[] siblings);\n  //event OrderCreated(uint256 id, address buyer, uint256[] artIDS, uint256 numLegacies);\n\n  constructor(\n    address _artistFeeAccount,\n    uint256 _artistFeePercentage,\n    uint256 _baseArtPrice,\n    uint256 _parentMultiplierPercentage,\n    uint256 _minParents,\n    uint256 _maxParents,\n    uint256 _minLegacies,\n    uint256 _maxLegacies\n    ) ERC721(\"Art\", \"ART\") {\n    \n    critterCount = 0;\n    orderCount = 0;\n    contractFeePercentage = 1;\n\n    artistFeeAccount = _artistFeeAccount;\n    artistFeePercentage = _artistFeePercentage;\n    baseArtPrice = _baseArtPrice;\n    parentMultiplierPercentage = _parentMultiplierPercentage;\n    minParents = _minParents;\n    maxParents = _maxParents;\n    minLegacies = _minLegacies;\n    maxLegacies = _maxLegacies;\n\n    createArtGen0(\"0x0\", \"GenesisArt\");\n  }\n\n  modifier onlyArtist() {\n    require(msg.sender == artistFeeAccount);\n    _;\n  }\n\n  function changeContractFeeAccount(address _contractFeeAccount) public onlyOwner {\n    contractFeeAccount = _contractFeeAccount;\n  }\n\n  function changeArtistFeeAccount(address _artistFeeAccount) public onlyArtist {\n    artistFeeAccount = _artistFeeAccount;\n  }\n\n  function changeArtistFeePercentage(uint256 _artistFeePercentage) public onlyArtist {\n    artistFeePercentage = _artistFeePercentage;\n  }\n\n  function changeBaseArtPrice(uint256 _baseArtPrice) public onlyArtist {\n    baseArtPrice = _baseArtPrice;\n  }\n\n  function changeParentMultiplierPercentage(uint256 _parentMultiplierPercentage) public onlyArtist {\n    parentMultiplierPercentage = _parentMultiplierPercentage;\n  }\n\n  function changeMinParents(uint256 _minParents) public onlyArtist {\n    minParents = _minParents;\n  }\n\n  function changeMaxParents(uint256 _maxParents) public onlyArtist {\n    maxParents = _maxParents;\n  }\n\n  function changeMinLegacies(uint256 _minLegacies) public onlyArtist {\n    minLegacies = _minLegacies;\n  }\n\n  function changeMaxLegacies(uint256 _maxLegacies) public onlyArtist {\n    maxLegacies = _maxLegacies;\n  }\n\n  function createArtGen0(string memory _tokenURI, string memory _name) public onlyArtist {\n    uint256 _id = critterCount;\n    uint256[] memory arr;\n    artworks[_id] = Art(_id, msg.sender, 0, _tokenURI, _name, false, arr, arr);\n    _safeMint(msg.sender, _id);\n    _setTokenURI(_id, _tokenURI);\n    critterCount = critterCount.add(1);\n    //emit ArtGen0(_id, msg.sender, 0, _tokenURI, _name);\n  }\n  \n/*\n  function createOrder(uint256[] memory _artIDS, uint256 _numLegacies) public payable {\n    uint256 _numParents = _artIDS.length;\n    \n    require(_numParents >= 2); // min 2 parents\n    require(_numLegacies >= 1); // min 1 legacy\n    require(parentPriceMultipliers[_numParents] != 0); // multiplier exists\n    require(legacyPriceMulipliers[_numLegacies] != 0); // multiplier exists\n\n    for(uint256 i=0;i<_numParents;i++) {\n      require(critters[i].owner == msg.sender); // msg.sender must own art\n    }\n\n    uint256 _artPrice = artPrice * parentPriceMultipliers[_numParents] * legacyPriceMulipliers[_numLegacies];\n    uint256 _contractFee = _artPrice * (contractFee / 100);\n    _artPrice = _artPrice.add(_contractFee);\n    require(_artPrice > 0); // price not zero - calculation error\n    require(msg.value == _artPrice); // correct payment\n\n    uint256 _id = orderCount;\n    orders[_id] = Order(_id, msg.sender, _artIDS, _numLegacies);\n    orderCount = orderCount.add(1);\n    emit OrderCreated(_id, msg.sender, _artIDS, _numLegacies);\n  }\n  */\n}",
  "sourcePath": "/Users/andrewmlevy/Documents/blockchain/4_portfolio_projects/art-marketplace/src/contracts/ArtFactory.sol",
  "compiler": {
    "name": "solc",
    "version": "0.8.0+commit.c7dfd78e.Emscripten.clang"
  },
  "schemaVersion": "3.4.1",
  "updatedAt": "2021-06-02T19:54:43.844Z",
  "devdoc": {
    "kind": "dev",
    "methods": {
      "approve(address,uint256)": {
        "details": "See {IERC721-approve}."
      },
      "balanceOf(address)": {
        "details": "See {IERC721-balanceOf}."
      },
      "getApproved(uint256)": {
        "details": "See {IERC721-getApproved}."
      },
      "isApprovedForAll(address,address)": {
        "details": "See {IERC721-isApprovedForAll}."
      },
      "name()": {
        "details": "See {IERC721Metadata-name}."
      },
      "owner()": {
        "details": "Returns the address of the current owner."
      },
      "ownerOf(uint256)": {
        "details": "See {IERC721-ownerOf}."
      },
      "renounceOwnership()": {
        "details": "Leaves the contract without owner. It will not be possible to call `onlyOwner` functions anymore. Can only be called by the current owner. NOTE: Renouncing ownership will leave the contract without an owner, thereby removing any functionality that is only available to the owner."
      },
      "safeTransferFrom(address,address,uint256)": {
        "details": "See {IERC721-safeTransferFrom}."
      },
      "safeTransferFrom(address,address,uint256,bytes)": {
        "details": "See {IERC721-safeTransferFrom}."
      },
      "setApprovalForAll(address,bool)": {
        "details": "See {IERC721-setApprovalForAll}."
      },
      "supportsInterface(bytes4)": {
        "details": "See {IERC165-supportsInterface}."
      },
      "symbol()": {
        "details": "See {IERC721Metadata-symbol}."
      },
      "tokenURI(uint256)": {
        "details": "See {IERC721Metadata-tokenURI}."
      },
      "transferFrom(address,address,uint256)": {
        "details": "See {IERC721-transferFrom}."
      },
      "transferOwnership(address)": {
        "details": "Transfers ownership of the contract to a new account (`newOwner`). Can only be called by the current owner."
      }
    },
    "version": 1
  },
  "userdoc": {
    "kind": "user",
    "methods": {},
    "version": 1
  }
}