{
  "contractName": "Tokens",
  "abi": [
    {
      "inputs": [],
      "stateMutability": "nonpayable",
      "type": "constructor"
    },
    {
      "anonymous": false,
      "inputs": [
        {
          "indexed": true,
          "internalType": "address",
          "name": "owner",
          "type": "address"
        },
        {
          "indexed": true,
          "internalType": "address",
          "name": "approved",
          "type": "address"
        },
        {
          "indexed": true,
          "internalType": "uint256",
          "name": "tokenId",
          "type": "uint256"
        }
      ],
      "name": "Approval",
      "type": "event"
    },
    {
      "anonymous": false,
      "inputs": [
        {
          "indexed": true,
          "internalType": "address",
          "name": "owner",
          "type": "address"
        },
        {
          "indexed": true,
          "internalType": "address",
          "name": "operator",
          "type": "address"
        },
        {
          "indexed": false,
          "internalType": "bool",
          "name": "approved",
          "type": "bool"
        }
      ],
      "name": "ApprovalForAll",
      "type": "event"
    },
    {
      "anonymous": false,
      "inputs": [
        {
          "indexed": true,
          "internalType": "address",
          "name": "from",
          "type": "address"
        },
        {
          "indexed": true,
          "internalType": "address",
          "name": "to",
          "type": "address"
        },
        {
          "indexed": true,
          "internalType": "uint256",
          "name": "tokenId",
          "type": "uint256"
        }
      ],
      "name": "Transfer",
      "type": "event"
    },
    {
      "inputs": [
        {
          "internalType": "address",
          "name": "to",
          "type": "address"
        },
        {
          "internalType": "uint256",
          "name": "tokenId",
          "type": "uint256"
        }
      ],
      "name": "approve",
      "outputs": [],
      "stateMutability": "nonpayable",
      "type": "function"
    },
    {
      "inputs": [
        {
          "internalType": "address",
          "name": "owner",
          "type": "address"
        }
      ],
      "name": "balanceOf",
      "outputs": [
        {
          "internalType": "uint256",
          "name": "",
          "type": "uint256"
        }
      ],
      "stateMutability": "view",
      "type": "function"
    },
    {
      "inputs": [
        {
          "internalType": "uint256",
          "name": "tokenId",
          "type": "uint256"
        }
      ],
      "name": "getApproved",
      "outputs": [
        {
          "internalType": "address",
          "name": "",
          "type": "address"
        }
      ],
      "stateMutability": "view",
      "type": "function"
    },
    {
      "inputs": [
        {
          "internalType": "address",
          "name": "owner",
          "type": "address"
        },
        {
          "internalType": "address",
          "name": "operator",
          "type": "address"
        }
      ],
      "name": "isApprovedForAll",
      "outputs": [
        {
          "internalType": "bool",
          "name": "",
          "type": "bool"
        }
      ],
      "stateMutability": "view",
      "type": "function"
    },
    {
      "inputs": [],
      "name": "name",
      "outputs": [
        {
          "internalType": "string",
          "name": "",
          "type": "string"
        }
      ],
      "stateMutability": "view",
      "type": "function"
    },
    {
      "inputs": [
        {
          "internalType": "uint256",
          "name": "tokenId",
          "type": "uint256"
        }
      ],
      "name": "ownerOf",
      "outputs": [
        {
          "internalType": "address",
          "name": "",
          "type": "address"
        }
      ],
      "stateMutability": "view",
      "type": "function"
    },
    {
      "inputs": [
        {
          "internalType": "address",
          "name": "from",
          "type": "address"
        },
        {
          "internalType": "address",
          "name": "to",
          "type": "address"
        },
        {
          "internalType": "uint256",
          "name": "tokenId",
          "type": "uint256"
        }
      ],
      "name": "safeTransferFrom",
      "outputs": [],
      "stateMutability": "nonpayable",
      "type": "function"
    },
    {
      "inputs": [
        {
          "internalType": "address",
          "name": "from",
          "type": "address"
        },
        {
          "internalType": "address",
          "name": "to",
          "type": "address"
        },
        {
          "internalType": "uint256",
          "name": "tokenId",
          "type": "uint256"
        },
        {
          "internalType": "bytes",
          "name": "_data",
          "type": "bytes"
        }
      ],
      "name": "safeTransferFrom",
      "outputs": [],
      "stateMutability": "nonpayable",
      "type": "function"
    },
    {
      "inputs": [
        {
          "internalType": "address",
          "name": "operator",
          "type": "address"
        },
        {
          "internalType": "bool",
          "name": "approved",
          "type": "bool"
        }
      ],
      "name": "setApprovalForAll",
      "outputs": [],
      "stateMutability": "nonpayable",
      "type": "function"
    },
    {
      "inputs": [
        {
          "internalType": "bytes4",
          "name": "interfaceId",
          "type": "bytes4"
        }
      ],
      "name": "supportsInterface",
      "outputs": [
        {
          "internalType": "bool",
          "name": "",
          "type": "bool"
        }
      ],
      "stateMutability": "view",
      "type": "function"
    },
    {
      "inputs": [],
      "name": "symbol",
      "outputs": [
        {
          "internalType": "string",
          "name": "",
          "type": "string"
        }
      ],
      "stateMutability": "view",
      "type": "function"
    },
    {
      "inputs": [
        {
          "internalType": "uint256",
          "name": "tokenId",
          "type": "uint256"
        }
      ],
      "name": "tokenURI",
      "outputs": [
        {
          "internalType": "string",
          "name": "",
          "type": "string"
        }
      ],
      "stateMutability": "view",
      "type": "function"
    },
    {
      "inputs": [
        {
          "internalType": "address",
          "name": "from",
          "type": "address"
        },
        {
          "internalType": "address",
          "name": "to",
          "type": "address"
        },
        {
          "internalType": "uint256",
          "name": "tokenId",
          "type": "uint256"
        }
      ],
      "name": "transferFrom",
      "outputs": [],
      "stateMutability": "nonpayable",
      "type": "function"
    },
    {
      "inputs": [
        {
          "internalType": "address",
          "name": "_to",
          "type": "address"
        },
        {
          "internalType": "uint256",
          "name": "_tokenId",
          "type": "uint256"
        },
        {
          "internalType": "string",
          "name": "_tokenURI",
          "type": "string"
        }
      ],
      "name": "createToken",
      "outputs": [
        {
          "internalType": "bool",
          "name": "success",
          "type": "bool"
        }
      ],
      "stateMutability": "nonpayable",
      "type": "function"
    }
  ],
  "bytecode": "0x60806040523480156200001157600080fd5b506040518060400160405280600381526020017f41727400000000000000000000000000000000000000000000000000000000008152506040518060400160405280600381526020017f4152540000000000000000000000000000000000000000000000000000000000815250816000908051906020019062000096929190620000b8565b508060019080519060200190620000af929190620000b8565b505050620001cd565b828054620000c69062000168565b90600052602060002090601f016020900481019282620000ea576000855562000136565b82601f106200010557805160ff191683800117855562000136565b8280016001018555821562000136579182015b828111156200013557825182559160200191906001019062000118565b5b50905062000145919062000149565b5090565b5b80821115620001645760008160009055506001016200014a565b5090565b600060028204905060018216806200018157607f821691505b602082108114156200019857620001976200019e565b5b50919050565b7f4e487b7100000000000000000000000000000000000000000000000000000000600052602260045260246000fd5b612ad680620001dd6000396000f3fe608060405234801561001057600080fd5b50600436106100ea5760003560e01c80636352211e1161008c578063a22cb46511610066578063a22cb4651461026f578063b88d4fde1461028b578063c87b56dd146102a7578063e985e9c5146102d7576100ea565b80636352211e146101f157806370a082311461022157806395d89b4114610251576100ea565b8063095ea7b3116100c8578063095ea7b31461016d57806323b872dd1461018957806342842e0e146101a55780635c21bc2c146101c1576100ea565b806301ffc9a7146100ef57806306fdde031461011f578063081812fc1461013d575b600080fd5b61010960048036038101906101049190611c6a565b610307565b604051610116919061242e565b60405180910390f35b6101276103e9565b6040516101349190612449565b60405180910390f35b61015760048036038101906101529190611cbc565b61047b565b60405161016491906123c7565b60405180910390f35b61018760048036038101906101829190611bc7565b610500565b005b6101a3600480360381019061019e9190611ac1565b610618565b005b6101bf60048036038101906101ba9190611ac1565b610678565b005b6101db60048036038101906101d69190611c03565b610698565b6040516101e8919061242e565b60405180910390f35b61020b60048036038101906102069190611cbc565b6106b9565b60405161021891906123c7565b60405180910390f35b61023b60048036038101906102369190611a5c565b61076b565b604051610248919061266b565b60405180910390f35b610259610823565b6040516102669190612449565b60405180910390f35b61028960048036038101906102849190611b8b565b6108b5565b005b6102a560048036038101906102a09190611b10565b610a36565b005b6102c160048036038101906102bc9190611cbc565b610a98565b6040516102ce9190612449565b60405180910390f35b6102f160048036038101906102ec9190611a85565b610bea565b6040516102fe919061242e565b60405180910390f35b60007f80ac58cd000000000000000000000000000000000000000000000000000000007bffffffffffffffffffffffffffffffffffffffffffffffffffffffff1916827bffffffffffffffffffffffffffffffffffffffffffffffffffffffff191614806103d257507f5b5e139f000000000000000000000000000000000000000000000000000000007bffffffffffffffffffffffffffffffffffffffffffffffffffffffff1916827bffffffffffffffffffffffffffffffffffffffffffffffffffffffff1916145b806103e257506103e182610c7e565b5b9050919050565b6060600080546103f8906128cb565b80601f0160208091040260200160405190810160405280929190818152602001828054610424906128cb565b80156104715780601f1061044657610100808354040283529160200191610471565b820191906000526020600020905b81548152906001019060200180831161045457829003601f168201915b5050505050905090565b600061048682610ce8565b6104c5576040517f08c379a00000000000000000000000000000000000000000000000000000000081526004016104bc906125cb565b60405180910390fd5b6004600083815260200190815260200160002060009054906101000a900473ffffffffffffffffffffffffffffffffffffffff169050919050565b600061050b826106b9565b90508073ffffffffffffffffffffffffffffffffffffffff168373ffffffffffffffffffffffffffffffffffffffff16141561057c576040517f08c379a00000000000000000000000000000000000000000000000000000000081526004016105739061262b565b60405180910390fd5b8073ffffffffffffffffffffffffffffffffffffffff1661059b610d54565b73ffffffffffffffffffffffffffffffffffffffff1614806105ca57506105c9816105c4610d54565b610bea565b5b610609576040517f08c379a00000000000000000000000000000000000000000000000000000000081526004016106009061250b565b60405180910390fd5b6106138383610d5c565b505050565b610629610623610d54565b82610e15565b610668576040517f08c379a000000000000000000000000000000000000000000000000000000000815260040161065f9061264b565b60405180910390fd5b610673838383610ef3565b505050565b61069383838360405180602001604052806000815250610a36565b505050565b60006106a4848461114f565b6106ae838361116d565b600190509392505050565b6000806002600084815260200190815260200160002060009054906101000a900473ffffffffffffffffffffffffffffffffffffffff169050600073ffffffffffffffffffffffffffffffffffffffff168173ffffffffffffffffffffffffffffffffffffffff161415610762576040517f08c379a00000000000000000000000000000000000000000000000000000000081526004016107599061254b565b60405180910390fd5b80915050919050565b60008073ffffffffffffffffffffffffffffffffffffffff168273ffffffffffffffffffffffffffffffffffffffff1614156107dc576040517f08c379a00000000000000000000000000000000000000000000000000000000081526004016107d39061252b565b60405180910390fd5b600360008373ffffffffffffffffffffffffffffffffffffffff1673ffffffffffffffffffffffffffffffffffffffff168152602001908152602001600020549050919050565b606060018054610832906128cb565b80601f016020809104026020016040519081016040528092919081815260200182805461085e906128cb565b80156108ab5780601f10610880576101008083540402835291602001916108ab565b820191906000526020600020905b81548152906001019060200180831161088e57829003601f168201915b5050505050905090565b6108bd610d54565b73ffffffffffffffffffffffffffffffffffffffff168273ffffffffffffffffffffffffffffffffffffffff16141561092b576040517f08c379a0000000000000000000000000000000000000000000000000000000008152600401610922906124cb565b60405180910390fd5b8060056000610938610d54565b73ffffffffffffffffffffffffffffffffffffffff1673ffffffffffffffffffffffffffffffffffffffff16815260200190815260200160002060008473ffffffffffffffffffffffffffffffffffffffff1673ffffffffffffffffffffffffffffffffffffffff16815260200190815260200160002060006101000a81548160ff0219169083151502179055508173ffffffffffffffffffffffffffffffffffffffff166109e5610d54565b73ffffffffffffffffffffffffffffffffffffffff167f17307eab39ab6107e8899845ad3d59bd9653f200f220920489ca2b5937696c3183604051610a2a919061242e565b60405180910390a35050565b610a47610a41610d54565b83610e15565b610a86576040517f08c379a0000000000000000000000000000000000000000000000000000000008152600401610a7d9061264b565b60405180910390fd5b610a92848484846111e1565b50505050565b6060610aa382610ce8565b610ae2576040517f08c379a0000000000000000000000000000000000000000000000000000000008152600401610ad9906125ab565b60405180910390fd5b6000600660008481526020019081526020016000208054610b02906128cb565b80601f0160208091040260200160405190810160405280929190818152602001828054610b2e906128cb565b8015610b7b5780601f10610b5057610100808354040283529160200191610b7b565b820191906000526020600020905b815481529060010190602001808311610b5e57829003601f168201915b505050505090506000610b8c61123d565b9050600081511415610ba2578192505050610be5565b600082511115610bd7578082604051602001610bbf9291906123a3565b60405160208183030381529060405292505050610be5565b610be084611254565b925050505b919050565b6000600560008473ffffffffffffffffffffffffffffffffffffffff1673ffffffffffffffffffffffffffffffffffffffff16815260200190815260200160002060008373ffffffffffffffffffffffffffffffffffffffff1673ffffffffffffffffffffffffffffffffffffffff16815260200190815260200160002060009054906101000a900460ff16905092915050565b60007f01ffc9a7000000000000000000000000000000000000000000000000000000007bffffffffffffffffffffffffffffffffffffffffffffffffffffffff1916827bffffffffffffffffffffffffffffffffffffffffffffffffffffffff1916149050919050565b60008073ffffffffffffffffffffffffffffffffffffffff166002600084815260200190815260200160002060009054906101000a900473ffffffffffffffffffffffffffffffffffffffff1673ffffffffffffffffffffffffffffffffffffffff1614159050919050565b600033905090565b816004600083815260200190815260200160002060006101000a81548173ffffffffffffffffffffffffffffffffffffffff021916908373ffffffffffffffffffffffffffffffffffffffff160217905550808273ffffffffffffffffffffffffffffffffffffffff16610dcf836106b9565b73ffffffffffffffffffffffffffffffffffffffff167f8c5be1e5ebec7d5bd14f71427d1e84f3dd0314c0f7b2291e5b200ac8c7c3b92560405160405180910390a45050565b6000610e2082610ce8565b610e5f576040517f08c379a0000000000000000000000000000000000000000000000000000000008152600401610e56906124eb565b60405180910390fd5b6000610e6a836106b9565b90508073ffffffffffffffffffffffffffffffffffffffff168473ffffffffffffffffffffffffffffffffffffffff161480610ed957508373ffffffffffffffffffffffffffffffffffffffff16610ec18461047b565b73ffffffffffffffffffffffffffffffffffffffff16145b80610eea5750610ee98185610bea565b5b91505092915050565b8273ffffffffffffffffffffffffffffffffffffffff16610f13826106b9565b73ffffffffffffffffffffffffffffffffffffffff1614610f69576040517f08c379a0000000000000000000000000000000000000000000000000000000008152600401610f60906125eb565b60405180910390fd5b600073ffffffffffffffffffffffffffffffffffffffff168273ffffffffffffffffffffffffffffffffffffffff161415610fd9576040517f08c379a0000000000000000000000000000000000000000000000000000000008152600401610fd0906124ab565b60405180910390fd5b610fe48383836112fb565b610fef600082610d5c565b6001600360008573ffffffffffffffffffffffffffffffffffffffff1673ffffffffffffffffffffffffffffffffffffffff168152602001908152602001600020600082825461103f91906127e1565b925050819055506001600360008473ffffffffffffffffffffffffffffffffffffffff1673ffffffffffffffffffffffffffffffffffffffff1681526020019081526020016000206000828254611096919061275a565b92505081905550816002600083815260200190815260200160002060006101000a81548173ffffffffffffffffffffffffffffffffffffffff021916908373ffffffffffffffffffffffffffffffffffffffff160217905550808273ffffffffffffffffffffffffffffffffffffffff168473ffffffffffffffffffffffffffffffffffffffff167fddf252ad1be2c89b69c2b068fc378daa952ba7f163c4a11628f55a4df523b3ef60405160405180910390a4505050565b611169828260405180602001604052806000815250611300565b5050565b61117682610ce8565b6111b5576040517f08c379a00000000000000000000000000000000000000000000000000000000081526004016111ac9061256b565b60405180910390fd5b806006600084815260200190815260200160002090805190602001906111dc929190611880565b505050565b6111ec848484610ef3565b6111f88484848461135b565b611237576040517f08c379a000000000000000000000000000000000000000000000000000000000815260040161122e9061246b565b60405180910390fd5b50505050565b606060405180602001604052806000815250905090565b606061125f82610ce8565b61129e576040517f08c379a00000000000000000000000000000000000000000000000000000000081526004016112959061260b565b60405180910390fd5b60006112a861123d565b905060008151116112c857604051806020016040528060008152506112f3565b806112d2846114f2565b6040516020016112e39291906123a3565b6040516020818303038152906040525b915050919050565b505050565b61130a838361169f565b611317600084848461135b565b611356576040517f08c379a000000000000000000000000000000000000000000000000000000000815260040161134d9061246b565b60405180910390fd5b505050565b600061137c8473ffffffffffffffffffffffffffffffffffffffff1661186d565b156114e5578373ffffffffffffffffffffffffffffffffffffffff1663150b7a026113a5610d54565b8786866040518563ffffffff1660e01b81526004016113c794939291906123e2565b602060405180830381600087803b1580156113e157600080fd5b505af192505050801561141257506040513d601f19601f8201168201806040525081019061140f9190611c93565b60015b611495573d8060008114611442576040519150601f19603f3d011682016040523d82523d6000602084013e611447565b606091505b5060008151141561148d576040517f08c379a00000000000000000000000000000000000000000000000000000000081526004016114849061246b565b60405180910390fd5b805181602001fd5b63150b7a0260e01b7bffffffffffffffffffffffffffffffffffffffffffffffffffffffff1916817bffffffffffffffffffffffffffffffffffffffffffffffffffffffff1916149150506114ea565b600190505b949350505050565b6060600082141561153a576040518060400160405280600181526020017f3000000000000000000000000000000000000000000000000000000000000000815250905061169a565b600082905060005b6000821461156c578080611555906128fd565b915050600a8261156591906127b0565b9150611542565b60008167ffffffffffffffff8111156115ae577f4e487b7100000000000000000000000000000000000000000000000000000000600052604160045260246000fd5b6040519080825280601f01601f1916602001820160405280156115e05781602001600182028036833780820191505090505b5090505b60008514611693576001826115f991906127e1565b9150600a856116089190612946565b6030611614919061275a565b60f81b818381518110611650577f4e487b7100000000000000000000000000000000000000000000000000000000600052603260045260246000fd5b60200101907effffffffffffffffffffffffffffffffffffffffffffffffffffffffffffff1916908160001a905350600a8561168c91906127b0565b94506115e4565b8093505050505b919050565b600073ffffffffffffffffffffffffffffffffffffffff168273ffffffffffffffffffffffffffffffffffffffff16141561170f576040517f08c379a00000000000000000000000000000000000000000000000000000000081526004016117069061258b565b60405180910390fd5b61171881610ce8565b15611758576040517f08c379a000000000000000000000000000000000000000000000000000000000815260040161174f9061248b565b60405180910390fd5b611764600083836112fb565b6001600360008473ffffffffffffffffffffffffffffffffffffffff1673ffffffffffffffffffffffffffffffffffffffff16815260200190815260200160002060008282546117b4919061275a565b92505081905550816002600083815260200190815260200160002060006101000a81548173ffffffffffffffffffffffffffffffffffffffff021916908373ffffffffffffffffffffffffffffffffffffffff160217905550808273ffffffffffffffffffffffffffffffffffffffff16600073ffffffffffffffffffffffffffffffffffffffff167fddf252ad1be2c89b69c2b068fc378daa952ba7f163c4a11628f55a4df523b3ef60405160405180910390a45050565b600080823b905060008111915050919050565b82805461188c906128cb565b90600052602060002090601f0160209004810192826118ae57600085556118f5565b82601f106118c757805160ff19168380011785556118f5565b828001600101855582156118f5579182015b828111156118f45782518255916020019190600101906118d9565b5b5090506119029190611906565b5090565b5b8082111561191f576000816000905550600101611907565b5090565b6000611936611931846126b7565b612686565b90508281526020810184848401111561194e57600080fd5b611959848285612889565b509392505050565b600061197461196f846126e7565b612686565b90508281526020810184848401111561198c57600080fd5b611997848285612889565b509392505050565b6000813590506119ae81612a44565b92915050565b6000813590506119c381612a5b565b92915050565b6000813590506119d881612a72565b92915050565b6000815190506119ed81612a72565b92915050565b600082601f830112611a0457600080fd5b8135611a14848260208601611923565b91505092915050565b600082601f830112611a2e57600080fd5b8135611a3e848260208601611961565b91505092915050565b600081359050611a5681612a89565b92915050565b600060208284031215611a6e57600080fd5b6000611a7c8482850161199f565b91505092915050565b60008060408385031215611a9857600080fd5b6000611aa68582860161199f565b9250506020611ab78582860161199f565b9150509250929050565b600080600060608486031215611ad657600080fd5b6000611ae48682870161199f565b9350506020611af58682870161199f565b9250506040611b0686828701611a47565b9150509250925092565b60008060008060808587031215611b2657600080fd5b6000611b348782880161199f565b9450506020611b458782880161199f565b9350506040611b5687828801611a47565b925050606085013567ffffffffffffffff811115611b7357600080fd5b611b7f878288016119f3565b91505092959194509250565b60008060408385031215611b9e57600080fd5b6000611bac8582860161199f565b9250506020611bbd858286016119b4565b9150509250929050565b60008060408385031215611bda57600080fd5b6000611be88582860161199f565b9250506020611bf985828601611a47565b9150509250929050565b600080600060608486031215611c1857600080fd5b6000611c268682870161199f565b9350506020611c3786828701611a47565b925050604084013567ffffffffffffffff811115611c5457600080fd5b611c6086828701611a1d565b9150509250925092565b600060208284031215611c7c57600080fd5b6000611c8a848285016119c9565b91505092915050565b600060208284031215611ca557600080fd5b6000611cb3848285016119de565b91505092915050565b600060208284031215611cce57600080fd5b6000611cdc84828501611a47565b91505092915050565b611cee81612815565b82525050565b611cfd81612827565b82525050565b6000611d0e82612717565b611d18818561272d565b9350611d28818560208601612898565b611d3181612a33565b840191505092915050565b6000611d4782612722565b611d51818561273e565b9350611d61818560208601612898565b611d6a81612a33565b840191505092915050565b6000611d8082612722565b611d8a818561274f565b9350611d9a818560208601612898565b80840191505092915050565b6000611db360328361273e565b91507f4552433732313a207472616e7366657220746f206e6f6e20455243373231526560008301527f63656976657220696d706c656d656e74657200000000000000000000000000006020830152604082019050919050565b6000611e19601c8361273e565b91507f4552433732313a20746f6b656e20616c7265616479206d696e746564000000006000830152602082019050919050565b6000611e5960248361273e565b91507f4552433732313a207472616e7366657220746f20746865207a65726f2061646460008301527f72657373000000000000000000000000000000000000000000000000000000006020830152604082019050919050565b6000611ebf60198361273e565b91507f4552433732313a20617070726f766520746f2063616c6c6572000000000000006000830152602082019050919050565b6000611eff602c8361273e565b91507f4552433732313a206f70657261746f7220717565727920666f72206e6f6e657860008301527f697374656e7420746f6b656e00000000000000000000000000000000000000006020830152604082019050919050565b6000611f6560388361273e565b91507f4552433732313a20617070726f76652063616c6c6572206973206e6f74206f7760008301527f6e6572206e6f7220617070726f76656420666f7220616c6c00000000000000006020830152604082019050919050565b6000611fcb602a8361273e565b91507f4552433732313a2062616c616e636520717565727920666f7220746865207a6560008301527f726f2061646472657373000000000000000000000000000000000000000000006020830152604082019050919050565b600061203160298361273e565b91507f4552433732313a206f776e657220717565727920666f72206e6f6e657869737460008301527f656e7420746f6b656e00000000000000000000000000000000000000000000006020830152604082019050919050565b6000612097602e8361273e565b91507f45524337323155524953746f726167653a2055524920736574206f66206e6f6e60008301527f6578697374656e7420746f6b656e0000000000000000000000000000000000006020830152604082019050919050565b60006120fd60208361273e565b91507f4552433732313a206d696e7420746f20746865207a65726f20616464726573736000830152602082019050919050565b600061213d60318361273e565b91507f45524337323155524953746f726167653a2055524920717565727920666f722060008301527f6e6f6e6578697374656e7420746f6b656e0000000000000000000000000000006020830152604082019050919050565b60006121a3602c8361273e565b91507f4552433732313a20617070726f76656420717565727920666f72206e6f6e657860008301527f697374656e7420746f6b656e00000000000000000000000000000000000000006020830152604082019050919050565b600061220960298361273e565b91507f4552433732313a207472616e73666572206f6620746f6b656e2074686174206960008301527f73206e6f74206f776e00000000000000000000000000000000000000000000006020830152604082019050919050565b600061226f602f8361273e565b91507f4552433732314d657461646174613a2055524920717565727920666f72206e6f60008301527f6e6578697374656e7420746f6b656e00000000000000000000000000000000006020830152604082019050919050565b60006122d560218361273e565b91507f4552433732313a20617070726f76616c20746f2063757272656e74206f776e6560008301527f72000000000000000000000000000000000000000000000000000000000000006020830152604082019050919050565b600061233b60318361273e565b91507f4552433732313a207472616e736665722063616c6c6572206973206e6f74206f60008301527f776e6572206e6f7220617070726f7665640000000000000000000000000000006020830152604082019050919050565b61239d8161287f565b82525050565b60006123af8285611d75565b91506123bb8284611d75565b91508190509392505050565b60006020820190506123dc6000830184611ce5565b92915050565b60006080820190506123f76000830187611ce5565b6124046020830186611ce5565b6124116040830185612394565b81810360608301526124238184611d03565b905095945050505050565b60006020820190506124436000830184611cf4565b92915050565b600060208201905081810360008301526124638184611d3c565b905092915050565b6000602082019050818103600083015261248481611da6565b9050919050565b600060208201905081810360008301526124a481611e0c565b9050919050565b600060208201905081810360008301526124c481611e4c565b9050919050565b600060208201905081810360008301526124e481611eb2565b9050919050565b6000602082019050818103600083015261250481611ef2565b9050919050565b6000602082019050818103600083015261252481611f58565b9050919050565b6000602082019050818103600083015261254481611fbe565b9050919050565b6000602082019050818103600083015261256481612024565b9050919050565b600060208201905081810360008301526125848161208a565b9050919050565b600060208201905081810360008301526125a4816120f0565b9050919050565b600060208201905081810360008301526125c481612130565b9050919050565b600060208201905081810360008301526125e481612196565b9050919050565b60006020820190508181036000830152612604816121fc565b9050919050565b6000602082019050818103600083015261262481612262565b9050919050565b60006020820190508181036000830152612644816122c8565b9050919050565b600060208201905081810360008301526126648161232e565b9050919050565b60006020820190506126806000830184612394565b92915050565b6000604051905081810181811067ffffffffffffffff821117156126ad576126ac612a04565b5b8060405250919050565b600067ffffffffffffffff8211156126d2576126d1612a04565b5b601f19601f8301169050602081019050919050565b600067ffffffffffffffff82111561270257612701612a04565b5b601f19601f8301169050602081019050919050565b600081519050919050565b600081519050919050565b600082825260208201905092915050565b600082825260208201905092915050565b600081905092915050565b60006127658261287f565b91506127708361287f565b9250827fffffffffffffffffffffffffffffffffffffffffffffffffffffffffffffffff038211156127a5576127a4612977565b5b828201905092915050565b60006127bb8261287f565b91506127c68361287f565b9250826127d6576127d56129a6565b5b828204905092915050565b60006127ec8261287f565b91506127f78361287f565b92508282101561280a57612809612977565b5b828203905092915050565b60006128208261285f565b9050919050565b60008115159050919050565b60007fffffffff0000000000000000000000000000000000000000000000000000000082169050919050565b600073ffffffffffffffffffffffffffffffffffffffff82169050919050565b6000819050919050565b82818337600083830152505050565b60005b838110156128b657808201518184015260208101905061289b565b838111156128c5576000848401525b50505050565b600060028204905060018216806128e357607f821691505b602082108114156128f7576128f66129d5565b5b50919050565b60006129088261287f565b91507fffffffffffffffffffffffffffffffffffffffffffffffffffffffffffffffff82141561293b5761293a612977565b5b600182019050919050565b60006129518261287f565b915061295c8361287f565b92508261296c5761296b6129a6565b5b828206905092915050565b7f4e487b7100000000000000000000000000000000000000000000000000000000600052601160045260246000fd5b7f4e487b7100000000000000000000000000000000000000000000000000000000600052601260045260246000fd5b7f4e487b7100000000000000000000000000000000000000000000000000000000600052602260045260246000fd5b7f4e487b7100000000000000000000000000000000000000000000000000000000600052604160045260246000fd5b6000601f19601f8301169050919050565b612a4d81612815565b8114612a5857600080fd5b50565b612a6481612827565b8114612a6f57600080fd5b50565b612a7b81612833565b8114612a8657600080fd5b50565b612a928161287f565b8114612a9d57600080fd5b5056fea2646970667358221220cc6a04c5c4e102cc8907a3dda946ebd0ddd8f5b91b18068582efdbef5d0695e464736f6c63430008000033",
  "immutableReferences": {},
  "source": "// SPDX-License-Identifier: MIT\npragma solidity >=0.4.22 <0.9.0;\n\nimport \"@openzeppelin/contracts/token/ERC721/extensions/ERC721URIStorage.sol\";\nimport \"@openzeppelin/contracts/utils/math/SafeMath.sol\";\n\ncontract Tokens is ERC721URIStorage {\n  using SafeMath for uint256;\n\n  constructor() ERC721(\"Art\", \"ART\") {\n  }\n\n  function createToken(address _to, uint256 _tokenId, string memory _tokenURI) public returns(bool success) {\n    _safeMint(_to, _tokenId);\n    _setTokenURI(_tokenId, _tokenURI);\n    return true;\n  }\n}",
  "sourcePath": "/Users/andrewmlevy/Documents/blockchain/4_portfolio_projects/art-marketplace/src/contracts/Tokens.sol",
  "compiler": {
    "name": "solc",
    "version": "0.8.0+commit.c7dfd78e.Emscripten.clang"
  },
  "schemaVersion": "3.4.1",
  "updatedAt": "2021-06-04T18:21:43.175Z",
  "devdoc": {
    "kind": "dev",
    "methods": {
      "approve(address,uint256)": {
        "details": "See {IERC721-approve}."
      },
      "balanceOf(address)": {
        "details": "See {IERC721-balanceOf}."
      },
      "getApproved(uint256)": {
        "details": "See {IERC721-getApproved}."
      },
      "isApprovedForAll(address,address)": {
        "details": "See {IERC721-isApprovedForAll}."
      },
      "name()": {
        "details": "See {IERC721Metadata-name}."
      },
      "ownerOf(uint256)": {
        "details": "See {IERC721-ownerOf}."
      },
      "safeTransferFrom(address,address,uint256)": {
        "details": "See {IERC721-safeTransferFrom}."
      },
      "safeTransferFrom(address,address,uint256,bytes)": {
        "details": "See {IERC721-safeTransferFrom}."
      },
      "setApprovalForAll(address,bool)": {
        "details": "See {IERC721-setApprovalForAll}."
      },
      "supportsInterface(bytes4)": {
        "details": "See {IERC165-supportsInterface}."
      },
      "symbol()": {
        "details": "See {IERC721Metadata-symbol}."
      },
      "tokenURI(uint256)": {
        "details": "See {IERC721Metadata-tokenURI}."
      },
      "transferFrom(address,address,uint256)": {
        "details": "See {IERC721-transferFrom}."
      }
    },
    "version": 1
  },
  "userdoc": {
    "kind": "user",
    "methods": {},
    "version": 1
  }
}