{
  "contractName": "Tokens",
  "abi": [
    {
      "inputs": [
        {
          "internalType": "string",
          "name": "_name",
          "type": "string"
        },
        {
          "internalType": "string",
          "name": "_symbol",
          "type": "string"
        }
      ],
      "stateMutability": "nonpayable",
      "type": "constructor"
    },
    {
      "anonymous": false,
      "inputs": [
        {
          "indexed": true,
          "internalType": "address",
          "name": "owner",
          "type": "address"
        },
        {
          "indexed": true,
          "internalType": "address",
          "name": "approved",
          "type": "address"
        },
        {
          "indexed": true,
          "internalType": "uint256",
          "name": "tokenId",
          "type": "uint256"
        }
      ],
      "name": "Approval",
      "type": "event"
    },
    {
      "anonymous": false,
      "inputs": [
        {
          "indexed": true,
          "internalType": "address",
          "name": "owner",
          "type": "address"
        },
        {
          "indexed": true,
          "internalType": "address",
          "name": "operator",
          "type": "address"
        },
        {
          "indexed": false,
          "internalType": "bool",
          "name": "approved",
          "type": "bool"
        }
      ],
      "name": "ApprovalForAll",
      "type": "event"
    },
    {
      "anonymous": false,
      "inputs": [
        {
          "indexed": true,
          "internalType": "address",
          "name": "previousOwner",
          "type": "address"
        },
        {
          "indexed": true,
          "internalType": "address",
          "name": "newOwner",
          "type": "address"
        }
      ],
      "name": "OwnershipTransferred",
      "type": "event"
    },
    {
      "anonymous": false,
      "inputs": [
        {
          "indexed": true,
          "internalType": "address",
          "name": "from",
          "type": "address"
        },
        {
          "indexed": true,
          "internalType": "address",
          "name": "to",
          "type": "address"
        },
        {
          "indexed": true,
          "internalType": "uint256",
          "name": "tokenId",
          "type": "uint256"
        }
      ],
      "name": "Transfer",
      "type": "event"
    },
    {
      "inputs": [
        {
          "internalType": "address",
          "name": "to",
          "type": "address"
        },
        {
          "internalType": "uint256",
          "name": "tokenId",
          "type": "uint256"
        }
      ],
      "name": "approve",
      "outputs": [],
      "stateMutability": "nonpayable",
      "type": "function"
    },
    {
      "inputs": [
        {
          "internalType": "address",
          "name": "owner",
          "type": "address"
        }
      ],
      "name": "balanceOf",
      "outputs": [
        {
          "internalType": "uint256",
          "name": "",
          "type": "uint256"
        }
      ],
      "stateMutability": "view",
      "type": "function",
      "constant": true
    },
    {
      "inputs": [
        {
          "internalType": "uint256",
          "name": "tokenId",
          "type": "uint256"
        }
      ],
      "name": "getApproved",
      "outputs": [
        {
          "internalType": "address",
          "name": "",
          "type": "address"
        }
      ],
      "stateMutability": "view",
      "type": "function",
      "constant": true
    },
    {
      "inputs": [
        {
          "internalType": "address",
          "name": "owner",
          "type": "address"
        },
        {
          "internalType": "address",
          "name": "operator",
          "type": "address"
        }
      ],
      "name": "isApprovedForAll",
      "outputs": [
        {
          "internalType": "bool",
          "name": "",
          "type": "bool"
        }
      ],
      "stateMutability": "view",
      "type": "function",
      "constant": true
    },
    {
      "inputs": [],
      "name": "marketplaceAddress",
      "outputs": [
        {
          "internalType": "address",
          "name": "",
          "type": "address"
        }
      ],
      "stateMutability": "view",
      "type": "function",
      "constant": true
    },
    {
      "inputs": [],
      "name": "name",
      "outputs": [
        {
          "internalType": "string",
          "name": "",
          "type": "string"
        }
      ],
      "stateMutability": "view",
      "type": "function",
      "constant": true
    },
    {
      "inputs": [],
      "name": "owner",
      "outputs": [
        {
          "internalType": "address",
          "name": "",
          "type": "address"
        }
      ],
      "stateMutability": "view",
      "type": "function",
      "constant": true
    },
    {
      "inputs": [
        {
          "internalType": "uint256",
          "name": "tokenId",
          "type": "uint256"
        }
      ],
      "name": "ownerOf",
      "outputs": [
        {
          "internalType": "address",
          "name": "",
          "type": "address"
        }
      ],
      "stateMutability": "view",
      "type": "function",
      "constant": true
    },
    {
      "inputs": [],
      "name": "renounceOwnership",
      "outputs": [],
      "stateMutability": "nonpayable",
      "type": "function"
    },
    {
      "inputs": [
        {
          "internalType": "address",
          "name": "from",
          "type": "address"
        },
        {
          "internalType": "address",
          "name": "to",
          "type": "address"
        },
        {
          "internalType": "uint256",
          "name": "tokenId",
          "type": "uint256"
        }
      ],
      "name": "safeTransferFrom",
      "outputs": [],
      "stateMutability": "nonpayable",
      "type": "function"
    },
    {
      "inputs": [
        {
          "internalType": "address",
          "name": "from",
          "type": "address"
        },
        {
          "internalType": "address",
          "name": "to",
          "type": "address"
        },
        {
          "internalType": "uint256",
          "name": "tokenId",
          "type": "uint256"
        },
        {
          "internalType": "bytes",
          "name": "_data",
          "type": "bytes"
        }
      ],
      "name": "safeTransferFrom",
      "outputs": [],
      "stateMutability": "nonpayable",
      "type": "function"
    },
    {
      "inputs": [
        {
          "internalType": "address",
          "name": "operator",
          "type": "address"
        },
        {
          "internalType": "bool",
          "name": "approved",
          "type": "bool"
        }
      ],
      "name": "setApprovalForAll",
      "outputs": [],
      "stateMutability": "nonpayable",
      "type": "function"
    },
    {
      "inputs": [
        {
          "internalType": "bytes4",
          "name": "interfaceId",
          "type": "bytes4"
        }
      ],
      "name": "supportsInterface",
      "outputs": [
        {
          "internalType": "bool",
          "name": "",
          "type": "bool"
        }
      ],
      "stateMutability": "view",
      "type": "function",
      "constant": true
    },
    {
      "inputs": [],
      "name": "symbol",
      "outputs": [
        {
          "internalType": "string",
          "name": "",
          "type": "string"
        }
      ],
      "stateMutability": "view",
      "type": "function",
      "constant": true
    },
    {
      "inputs": [
        {
          "internalType": "uint256",
          "name": "tokenId",
          "type": "uint256"
        }
      ],
      "name": "tokenURI",
      "outputs": [
        {
          "internalType": "string",
          "name": "",
          "type": "string"
        }
      ],
      "stateMutability": "view",
      "type": "function",
      "constant": true
    },
    {
      "inputs": [
        {
          "internalType": "address",
          "name": "from",
          "type": "address"
        },
        {
          "internalType": "address",
          "name": "to",
          "type": "address"
        },
        {
          "internalType": "uint256",
          "name": "tokenId",
          "type": "uint256"
        }
      ],
      "name": "transferFrom",
      "outputs": [],
      "stateMutability": "nonpayable",
      "type": "function"
    },
    {
      "inputs": [
        {
          "internalType": "address",
          "name": "newOwner",
          "type": "address"
        }
      ],
      "name": "transferOwnership",
      "outputs": [],
      "stateMutability": "nonpayable",
      "type": "function"
    },
    {
      "inputs": [
        {
          "internalType": "address",
          "name": "_marketplaceAddress",
          "type": "address"
        }
      ],
      "name": "setMarketplaceAddress",
      "outputs": [],
      "stateMutability": "nonpayable",
      "type": "function"
    },
    {
      "inputs": [
        {
          "internalType": "address",
          "name": "_to",
          "type": "address"
        },
        {
          "internalType": "uint256",
          "name": "_tokenId",
          "type": "uint256"
        },
        {
          "internalType": "string",
          "name": "_tokenURI",
          "type": "string"
        }
      ],
      "name": "createToken",
      "outputs": [
        {
          "internalType": "bool",
          "name": "success",
          "type": "bool"
        }
      ],
      "stateMutability": "nonpayable",
      "type": "function"
    },
    {
      "inputs": [
        {
          "internalType": "address",
          "name": "_operator",
          "type": "address"
        },
        {
          "internalType": "bool",
          "name": "_approved",
          "type": "bool"
        }
      ],
      "name": "approveMarketplace",
      "outputs": [
        {
          "internalType": "bool",
          "name": "success",
          "type": "bool"
        }
      ],
      "stateMutability": "nonpayable",
      "type": "function"
    },
    {
      "inputs": [
        {
          "internalType": "address",
          "name": "_from",
          "type": "address"
        },
        {
          "internalType": "address",
          "name": "_to",
          "type": "address"
        },
        {
          "internalType": "uint256",
          "name": "_tokenId",
          "type": "uint256"
        }
      ],
      "name": "transferToken",
      "outputs": [
        {
          "internalType": "bool",
          "name": "success",
          "type": "bool"
        }
      ],
      "stateMutability": "nonpayable",
      "type": "function"
    }
  ],
  "bytecode": "0x60806040523480156200001157600080fd5b50604051620035643803806200356483398181016040528101906200003791906200024f565b818160006200004b6200012560201b60201c565b9050806000806101000a81548173ffffffffffffffffffffffffffffffffffffffff021916908373ffffffffffffffffffffffffffffffffffffffff1602179055508073ffffffffffffffffffffffffffffffffffffffff16600073ffffffffffffffffffffffffffffffffffffffff167f8be0079c531659141344cd1fd0a4f28419497f9722a3daafe3b4186f6b6457e060405160405180910390a3508160019080519060200190620001019291906200012d565b5080600290805190602001906200011a9291906200012d565b5050505050620003f3565b600033905090565b8280546200013b906200035f565b90600052602060002090601f0160209004810192826200015f5760008555620001ab565b82601f106200017a57805160ff1916838001178555620001ab565b82800160010185558215620001ab579182015b82811115620001aa5782518255916020019190600101906200018d565b5b509050620001ba9190620001be565b5090565b5b80821115620001d9576000816000905550600101620001bf565b5090565b6000620001f4620001ee84620002f6565b620002c2565b9050828152602081018484840111156200020d57600080fd5b6200021a84828562000329565b509392505050565b600082601f8301126200023457600080fd5b815162000246848260208601620001dd565b91505092915050565b600080604083850312156200026357600080fd5b600083015167ffffffffffffffff8111156200027e57600080fd5b6200028c8582860162000222565b925050602083015167ffffffffffffffff811115620002aa57600080fd5b620002b88582860162000222565b9150509250929050565b6000604051905081810181811067ffffffffffffffff82111715620002ec57620002eb620003c4565b5b8060405250919050565b600067ffffffffffffffff821115620003145762000313620003c4565b5b601f19601f8301169050602081019050919050565b60005b83811015620003495780820151818401526020810190506200032c565b8381111562000359576000848401525b50505050565b600060028204905060018216806200037857607f821691505b602082108114156200038f576200038e62000395565b5b50919050565b7f4e487b7100000000000000000000000000000000000000000000000000000000600052602260045260246000fd5b7f4e487b7100000000000000000000000000000000000000000000000000000000600052604160045260246000fd5b61316180620004036000396000f3fe608060405234801561001057600080fd5b50600436106101375760003560e01c80638da5cb5b116100b8578063bb4dc10a1161007c578063bb4dc10a14610338578063c87b56dd14610368578063daa17f4914610398578063e985e9c5146103b6578063f2fde38b146103e6578063f5537ede1461040257610137565b80638da5cb5b146102a857806395d89b41146102c6578063a22cb465146102e4578063b47cc55614610300578063b88d4fde1461031c57610137565b806342842e0e116100ff57806342842e0e146101f25780635c21bc2c1461020e5780636352211e1461023e57806370a082311461026e578063715018a61461029e57610137565b806301ffc9a71461013c57806306fdde031461016c578063081812fc1461018a578063095ea7b3146101ba57806323b872dd146101d6575b600080fd5b6101566004803603810190610151919061220f565b610432565b6040516101639190612a79565b60405180910390f35b610174610514565b6040516101819190612a94565b60405180910390f35b6101a4600480360381019061019f9190612261565b6105a6565b6040516101b19190612a12565b60405180910390f35b6101d460048036038101906101cf919061216c565b61062b565b005b6101f060048036038101906101eb9190612066565b610743565b005b61020c60048036038101906102079190612066565b6107a3565b005b610228600480360381019061022391906121a8565b6107c3565b6040516102359190612a79565b60405180910390f35b61025860048036038101906102539190612261565b61083e565b6040516102659190612a12565b60405180910390f35b61028860048036038101906102839190612001565b6108f0565b6040516102959190612cf6565b60405180910390f35b6102a66109a8565b005b6102b0610ae2565b6040516102bd9190612a12565b60405180910390f35b6102ce610b0b565b6040516102db9190612a94565b60405180910390f35b6102fe60048036038101906102f99190612130565b610b9d565b005b61031a60048036038101906103159190612001565b610d1e565b005b610336600480360381019061033191906120b5565b610dde565b005b610352600480360381019061034d9190612130565b610e40565b60405161035f9190612a79565b60405180910390f35b610382600480360381019061037d9190612261565b610e56565b60405161038f9190612a94565b60405180910390f35b6103a0610fa8565b6040516103ad9190612a12565b60405180910390f35b6103d060048036038101906103cb919061202a565b610fce565b6040516103dd9190612a79565b60405180910390f35b61040060048036038101906103fb9190612001565b611062565b005b61041c60048036038101906104179190612066565b61120b565b6040516104299190612a79565b60405180910390f35b60007f80ac58cd000000000000000000000000000000000000000000000000000000007bffffffffffffffffffffffffffffffffffffffffffffffffffffffff1916827bffffffffffffffffffffffffffffffffffffffffffffffffffffffff191614806104fd57507f5b5e139f000000000000000000000000000000000000000000000000000000007bffffffffffffffffffffffffffffffffffffffffffffffffffffffff1916827bffffffffffffffffffffffffffffffffffffffffffffffffffffffff1916145b8061050d575061050c82611223565b5b9050919050565b60606001805461052390612f56565b80601f016020809104026020016040519081016040528092919081815260200182805461054f90612f56565b801561059c5780601f106105715761010080835404028352916020019161059c565b820191906000526020600020905b81548152906001019060200180831161057f57829003601f168201915b5050505050905090565b60006105b18261128d565b6105f0576040517f08c379a00000000000000000000000000000000000000000000000000000000081526004016105e790612c36565b60405180910390fd5b6005600083815260200190815260200160002060009054906101000a900473ffffffffffffffffffffffffffffffffffffffff169050919050565b60006106368261083e565b90508073ffffffffffffffffffffffffffffffffffffffff168373ffffffffffffffffffffffffffffffffffffffff1614156106a7576040517f08c379a000000000000000000000000000000000000000000000000000000000815260040161069e90612cb6565b60405180910390fd5b8073ffffffffffffffffffffffffffffffffffffffff166106c66112f9565b73ffffffffffffffffffffffffffffffffffffffff1614806106f557506106f4816106ef6112f9565b610fce565b5b610734576040517f08c379a000000000000000000000000000000000000000000000000000000000815260040161072b90612b76565b60405180910390fd5b61073e8383611301565b505050565b61075461074e6112f9565b826113ba565b610793576040517f08c379a000000000000000000000000000000000000000000000000000000000815260040161078a90612cd6565b60405180910390fd5b61079e838383611498565b505050565b6107be83838360405180602001604052806000815250610dde565b505050565b6000600860009054906101000a900473ffffffffffffffffffffffffffffffffffffffff1673ffffffffffffffffffffffffffffffffffffffff163373ffffffffffffffffffffffffffffffffffffffff161461081f57600080fd5b61082984846116f4565b6108338383611712565b600190509392505050565b6000806003600084815260200190815260200160002060009054906101000a900473ffffffffffffffffffffffffffffffffffffffff169050600073ffffffffffffffffffffffffffffffffffffffff168173ffffffffffffffffffffffffffffffffffffffff1614156108e7576040517f08c379a00000000000000000000000000000000000000000000000000000000081526004016108de90612bb6565b60405180910390fd5b80915050919050565b60008073ffffffffffffffffffffffffffffffffffffffff168273ffffffffffffffffffffffffffffffffffffffff161415610961576040517f08c379a000000000000000000000000000000000000000000000000000000000815260040161095890612b96565b60405180910390fd5b600460008373ffffffffffffffffffffffffffffffffffffffff1673ffffffffffffffffffffffffffffffffffffffff168152602001908152602001600020549050919050565b6109b06112f9565b73ffffffffffffffffffffffffffffffffffffffff166109ce610ae2565b73ffffffffffffffffffffffffffffffffffffffff1614610a24576040517f08c379a0000000000000000000000000000000000000000000000000000000008152600401610a1b90612c56565b60405180910390fd5b600073ffffffffffffffffffffffffffffffffffffffff1660008054906101000a900473ffffffffffffffffffffffffffffffffffffffff1673ffffffffffffffffffffffffffffffffffffffff167f8be0079c531659141344cd1fd0a4f28419497f9722a3daafe3b4186f6b6457e060405160405180910390a360008060006101000a81548173ffffffffffffffffffffffffffffffffffffffff021916908373ffffffffffffffffffffffffffffffffffffffff160217905550565b60008060009054906101000a900473ffffffffffffffffffffffffffffffffffffffff16905090565b606060028054610b1a90612f56565b80601f0160208091040260200160405190810160405280929190818152602001828054610b4690612f56565b8015610b935780601f10610b6857610100808354040283529160200191610b93565b820191906000526020600020905b815481529060010190602001808311610b7657829003601f168201915b5050505050905090565b610ba56112f9565b73ffffffffffffffffffffffffffffffffffffffff168273ffffffffffffffffffffffffffffffffffffffff161415610c13576040517f08c379a0000000000000000000000000000000000000000000000000000000008152600401610c0a90612b36565b60405180910390fd5b8060066000610c206112f9565b73ffffffffffffffffffffffffffffffffffffffff1673ffffffffffffffffffffffffffffffffffffffff16815260200190815260200160002060008473ffffffffffffffffffffffffffffffffffffffff1673ffffffffffffffffffffffffffffffffffffffff16815260200190815260200160002060006101000a81548160ff0219169083151502179055508173ffffffffffffffffffffffffffffffffffffffff16610ccd6112f9565b73ffffffffffffffffffffffffffffffffffffffff167f17307eab39ab6107e8899845ad3d59bd9653f200f220920489ca2b5937696c3183604051610d129190612a79565b60405180910390a35050565b610d266112f9565b73ffffffffffffffffffffffffffffffffffffffff16610d44610ae2565b73ffffffffffffffffffffffffffffffffffffffff1614610d9a576040517f08c379a0000000000000000000000000000000000000000000000000000000008152600401610d9190612c56565b60405180910390fd5b80600860006101000a81548173ffffffffffffffffffffffffffffffffffffffff021916908373ffffffffffffffffffffffffffffffffffffffff16021790555050565b610def610de96112f9565b836113ba565b610e2e576040517f08c379a0000000000000000000000000000000000000000000000000000000008152600401610e2590612cd6565b60405180910390fd5b610e3a84848484611786565b50505050565b6000610e4c8383610b9d565b6001905092915050565b6060610e618261128d565b610ea0576040517f08c379a0000000000000000000000000000000000000000000000000000000008152600401610e9790612c16565b60405180910390fd5b6000600760008481526020019081526020016000208054610ec090612f56565b80601f0160208091040260200160405190810160405280929190818152602001828054610eec90612f56565b8015610f395780601f10610f0e57610100808354040283529160200191610f39565b820191906000526020600020905b815481529060010190602001808311610f1c57829003601f168201915b505050505090506000610f4a6117e2565b9050600081511415610f60578192505050610fa3565b600082511115610f95578082604051602001610f7d9291906129ee565b60405160208183030381529060405292505050610fa3565b610f9e846117f9565b925050505b919050565b600860009054906101000a900473ffffffffffffffffffffffffffffffffffffffff1681565b6000600660008473ffffffffffffffffffffffffffffffffffffffff1673ffffffffffffffffffffffffffffffffffffffff16815260200190815260200160002060008373ffffffffffffffffffffffffffffffffffffffff1673ffffffffffffffffffffffffffffffffffffffff16815260200190815260200160002060009054906101000a900460ff16905092915050565b61106a6112f9565b73ffffffffffffffffffffffffffffffffffffffff16611088610ae2565b73ffffffffffffffffffffffffffffffffffffffff16146110de576040517f08c379a00000000000000000000000000000000000000000000000000000000081526004016110d590612c56565b60405180910390fd5b600073ffffffffffffffffffffffffffffffffffffffff168173ffffffffffffffffffffffffffffffffffffffff16141561114e576040517f08c379a000000000000000000000000000000000000000000000000000000000815260040161114590612ad6565b60405180910390fd5b8073ffffffffffffffffffffffffffffffffffffffff1660008054906101000a900473ffffffffffffffffffffffffffffffffffffffff1673ffffffffffffffffffffffffffffffffffffffff167f8be0079c531659141344cd1fd0a4f28419497f9722a3daafe3b4186f6b6457e060405160405180910390a3806000806101000a81548173ffffffffffffffffffffffffffffffffffffffff021916908373ffffffffffffffffffffffffffffffffffffffff16021790555050565b60006112188484846107a3565b600190509392505050565b60007f01ffc9a7000000000000000000000000000000000000000000000000000000007bffffffffffffffffffffffffffffffffffffffffffffffffffffffff1916827bffffffffffffffffffffffffffffffffffffffffffffffffffffffff1916149050919050565b60008073ffffffffffffffffffffffffffffffffffffffff166003600084815260200190815260200160002060009054906101000a900473ffffffffffffffffffffffffffffffffffffffff1673ffffffffffffffffffffffffffffffffffffffff1614159050919050565b600033905090565b816005600083815260200190815260200160002060006101000a81548173ffffffffffffffffffffffffffffffffffffffff021916908373ffffffffffffffffffffffffffffffffffffffff160217905550808273ffffffffffffffffffffffffffffffffffffffff166113748361083e565b73ffffffffffffffffffffffffffffffffffffffff167f8c5be1e5ebec7d5bd14f71427d1e84f3dd0314c0f7b2291e5b200ac8c7c3b92560405160405180910390a45050565b60006113c58261128d565b611404576040517f08c379a00000000000000000000000000000000000000000000000000000000081526004016113fb90612b56565b60405180910390fd5b600061140f8361083e565b90508073ffffffffffffffffffffffffffffffffffffffff168473ffffffffffffffffffffffffffffffffffffffff16148061147e57508373ffffffffffffffffffffffffffffffffffffffff16611466846105a6565b73ffffffffffffffffffffffffffffffffffffffff16145b8061148f575061148e8185610fce565b5b91505092915050565b8273ffffffffffffffffffffffffffffffffffffffff166114b88261083e565b73ffffffffffffffffffffffffffffffffffffffff161461150e576040517f08c379a000000000000000000000000000000000000000000000000000000000815260040161150590612c76565b60405180910390fd5b600073ffffffffffffffffffffffffffffffffffffffff168273ffffffffffffffffffffffffffffffffffffffff16141561157e576040517f08c379a000000000000000000000000000000000000000000000000000000000815260040161157590612b16565b60405180910390fd5b6115898383836118a0565b611594600082611301565b6001600460008573ffffffffffffffffffffffffffffffffffffffff1673ffffffffffffffffffffffffffffffffffffffff16815260200190815260200160002060008282546115e49190612e6c565b925050819055506001600460008473ffffffffffffffffffffffffffffffffffffffff1673ffffffffffffffffffffffffffffffffffffffff168152602001908152602001600020600082825461163b9190612de5565b92505081905550816003600083815260200190815260200160002060006101000a81548173ffffffffffffffffffffffffffffffffffffffff021916908373ffffffffffffffffffffffffffffffffffffffff160217905550808273ffffffffffffffffffffffffffffffffffffffff168473ffffffffffffffffffffffffffffffffffffffff167fddf252ad1be2c89b69c2b068fc378daa952ba7f163c4a11628f55a4df523b3ef60405160405180910390a4505050565b61170e8282604051806020016040528060008152506118a5565b5050565b61171b8261128d565b61175a576040517f08c379a000000000000000000000000000000000000000000000000000000000815260040161175190612bd6565b60405180910390fd5b80600760008481526020019081526020016000209080519060200190611781929190611e25565b505050565b611791848484611498565b61179d84848484611900565b6117dc576040517f08c379a00000000000000000000000000000000000000000000000000000000081526004016117d390612ab6565b60405180910390fd5b50505050565b606060405180602001604052806000815250905090565b60606118048261128d565b611843576040517f08c379a000000000000000000000000000000000000000000000000000000000815260040161183a90612c96565b60405180910390fd5b600061184d6117e2565b9050600081511161186d5760405180602001604052806000815250611898565b8061187784611a97565b6040516020016118889291906129ee565b6040516020818303038152906040525b915050919050565b505050565b6118af8383611c44565b6118bc6000848484611900565b6118fb576040517f08c379a00000000000000000000000000000000000000000000000000000000081526004016118f290612ab6565b60405180910390fd5b505050565b60006119218473ffffffffffffffffffffffffffffffffffffffff16611e12565b15611a8a578373ffffffffffffffffffffffffffffffffffffffff1663150b7a0261194a6112f9565b8786866040518563ffffffff1660e01b815260040161196c9493929190612a2d565b602060405180830381600087803b15801561198657600080fd5b505af19250505080156119b757506040513d601f19601f820116820180604052508101906119b49190612238565b60015b611a3a573d80600081146119e7576040519150601f19603f3d011682016040523d82523d6000602084013e6119ec565b606091505b50600081511415611a32576040517f08c379a0000000000000000000000000000000000000000000000000000000008152600401611a2990612ab6565b60405180910390fd5b805181602001fd5b63150b7a0260e01b7bffffffffffffffffffffffffffffffffffffffffffffffffffffffff1916817bffffffffffffffffffffffffffffffffffffffffffffffffffffffff191614915050611a8f565b600190505b949350505050565b60606000821415611adf576040518060400160405280600181526020017f30000000000000000000000000000000000000000000000000000000000000008152509050611c3f565b600082905060005b60008214611b11578080611afa90612f88565b915050600a82611b0a9190612e3b565b9150611ae7565b60008167ffffffffffffffff811115611b53577f4e487b7100000000000000000000000000000000000000000000000000000000600052604160045260246000fd5b6040519080825280601f01601f191660200182016040528015611b855781602001600182028036833780820191505090505b5090505b60008514611c3857600182611b9e9190612e6c565b9150600a85611bad9190612fd1565b6030611bb99190612de5565b60f81b818381518110611bf5577f4e487b7100000000000000000000000000000000000000000000000000000000600052603260045260246000fd5b60200101907effffffffffffffffffffffffffffffffffffffffffffffffffffffffffffff1916908160001a905350600a85611c319190612e3b565b9450611b89565b8093505050505b919050565b600073ffffffffffffffffffffffffffffffffffffffff168273ffffffffffffffffffffffffffffffffffffffff161415611cb4576040517f08c379a0000000000000000000000000000000000000000000000000000000008152600401611cab90612bf6565b60405180910390fd5b611cbd8161128d565b15611cfd576040517f08c379a0000000000000000000000000000000000000000000000000000000008152600401611cf490612af6565b60405180910390fd5b611d09600083836118a0565b6001600460008473ffffffffffffffffffffffffffffffffffffffff1673ffffffffffffffffffffffffffffffffffffffff1681526020019081526020016000206000828254611d599190612de5565b92505081905550816003600083815260200190815260200160002060006101000a81548173ffffffffffffffffffffffffffffffffffffffff021916908373ffffffffffffffffffffffffffffffffffffffff160217905550808273ffffffffffffffffffffffffffffffffffffffff16600073ffffffffffffffffffffffffffffffffffffffff167fddf252ad1be2c89b69c2b068fc378daa952ba7f163c4a11628f55a4df523b3ef60405160405180910390a45050565b600080823b905060008111915050919050565b828054611e3190612f56565b90600052602060002090601f016020900481019282611e535760008555611e9a565b82601f10611e6c57805160ff1916838001178555611e9a565b82800160010185558215611e9a579182015b82811115611e99578251825591602001919060010190611e7e565b5b509050611ea79190611eab565b5090565b5b80821115611ec4576000816000905550600101611eac565b5090565b6000611edb611ed684612d42565b612d11565b905082815260208101848484011115611ef357600080fd5b611efe848285612f14565b509392505050565b6000611f19611f1484612d72565b612d11565b905082815260208101848484011115611f3157600080fd5b611f3c848285612f14565b509392505050565b600081359050611f53816130cf565b92915050565b600081359050611f68816130e6565b92915050565b600081359050611f7d816130fd565b92915050565b600081519050611f92816130fd565b92915050565b600082601f830112611fa957600080fd5b8135611fb9848260208601611ec8565b91505092915050565b600082601f830112611fd357600080fd5b8135611fe3848260208601611f06565b91505092915050565b600081359050611ffb81613114565b92915050565b60006020828403121561201357600080fd5b600061202184828501611f44565b91505092915050565b6000806040838503121561203d57600080fd5b600061204b85828601611f44565b925050602061205c85828601611f44565b9150509250929050565b60008060006060848603121561207b57600080fd5b600061208986828701611f44565b935050602061209a86828701611f44565b92505060406120ab86828701611fec565b9150509250925092565b600080600080608085870312156120cb57600080fd5b60006120d987828801611f44565b94505060206120ea87828801611f44565b93505060406120fb87828801611fec565b925050606085013567ffffffffffffffff81111561211857600080fd5b61212487828801611f98565b91505092959194509250565b6000806040838503121561214357600080fd5b600061215185828601611f44565b925050602061216285828601611f59565b9150509250929050565b6000806040838503121561217f57600080fd5b600061218d85828601611f44565b925050602061219e85828601611fec565b9150509250929050565b6000806000606084860312156121bd57600080fd5b60006121cb86828701611f44565b93505060206121dc86828701611fec565b925050604084013567ffffffffffffffff8111156121f957600080fd5b61220586828701611fc2565b9150509250925092565b60006020828403121561222157600080fd5b600061222f84828501611f6e565b91505092915050565b60006020828403121561224a57600080fd5b600061225884828501611f83565b91505092915050565b60006020828403121561227357600080fd5b600061228184828501611fec565b91505092915050565b61229381612ea0565b82525050565b6122a281612eb2565b82525050565b60006122b382612da2565b6122bd8185612db8565b93506122cd818560208601612f23565b6122d6816130be565b840191505092915050565b60006122ec82612dad565b6122f68185612dc9565b9350612306818560208601612f23565b61230f816130be565b840191505092915050565b600061232582612dad565b61232f8185612dda565b935061233f818560208601612f23565b80840191505092915050565b6000612358603283612dc9565b91507f4552433732313a207472616e7366657220746f206e6f6e20455243373231526560008301527f63656976657220696d706c656d656e74657200000000000000000000000000006020830152604082019050919050565b60006123be602683612dc9565b91507f4f776e61626c653a206e6577206f776e657220697320746865207a65726f206160008301527f64647265737300000000000000000000000000000000000000000000000000006020830152604082019050919050565b6000612424601c83612dc9565b91507f4552433732313a20746f6b656e20616c7265616479206d696e746564000000006000830152602082019050919050565b6000612464602483612dc9565b91507f4552433732313a207472616e7366657220746f20746865207a65726f2061646460008301527f72657373000000000000000000000000000000000000000000000000000000006020830152604082019050919050565b60006124ca601983612dc9565b91507f4552433732313a20617070726f766520746f2063616c6c6572000000000000006000830152602082019050919050565b600061250a602c83612dc9565b91507f4552433732313a206f70657261746f7220717565727920666f72206e6f6e657860008301527f697374656e7420746f6b656e00000000000000000000000000000000000000006020830152604082019050919050565b6000612570603883612dc9565b91507f4552433732313a20617070726f76652063616c6c6572206973206e6f74206f7760008301527f6e6572206e6f7220617070726f76656420666f7220616c6c00000000000000006020830152604082019050919050565b60006125d6602a83612dc9565b91507f4552433732313a2062616c616e636520717565727920666f7220746865207a6560008301527f726f2061646472657373000000000000000000000000000000000000000000006020830152604082019050919050565b600061263c602983612dc9565b91507f4552433732313a206f776e657220717565727920666f72206e6f6e657869737460008301527f656e7420746f6b656e00000000000000000000000000000000000000000000006020830152604082019050919050565b60006126a2602e83612dc9565b91507f45524337323155524953746f726167653a2055524920736574206f66206e6f6e60008301527f6578697374656e7420746f6b656e0000000000000000000000000000000000006020830152604082019050919050565b6000612708602083612dc9565b91507f4552433732313a206d696e7420746f20746865207a65726f20616464726573736000830152602082019050919050565b6000612748603183612dc9565b91507f45524337323155524953746f726167653a2055524920717565727920666f722060008301527f6e6f6e6578697374656e7420746f6b656e0000000000000000000000000000006020830152604082019050919050565b60006127ae602c83612dc9565b91507f4552433732313a20617070726f76656420717565727920666f72206e6f6e657860008301527f697374656e7420746f6b656e00000000000000000000000000000000000000006020830152604082019050919050565b6000612814602083612dc9565b91507f4f776e61626c653a2063616c6c6572206973206e6f7420746865206f776e65726000830152602082019050919050565b6000612854602983612dc9565b91507f4552433732313a207472616e73666572206f6620746f6b656e2074686174206960008301527f73206e6f74206f776e00000000000000000000000000000000000000000000006020830152604082019050919050565b60006128ba602f83612dc9565b91507f4552433732314d657461646174613a2055524920717565727920666f72206e6f60008301527f6e6578697374656e7420746f6b656e00000000000000000000000000000000006020830152604082019050919050565b6000612920602183612dc9565b91507f4552433732313a20617070726f76616c20746f2063757272656e74206f776e6560008301527f72000000000000000000000000000000000000000000000000000000000000006020830152604082019050919050565b6000612986603183612dc9565b91507f4552433732313a207472616e736665722063616c6c6572206973206e6f74206f60008301527f776e6572206e6f7220617070726f7665640000000000000000000000000000006020830152604082019050919050565b6129e881612f0a565b82525050565b60006129fa828561231a565b9150612a06828461231a565b91508190509392505050565b6000602082019050612a27600083018461228a565b92915050565b6000608082019050612a42600083018761228a565b612a4f602083018661228a565b612a5c60408301856129df565b8181036060830152612a6e81846122a8565b905095945050505050565b6000602082019050612a8e6000830184612299565b92915050565b60006020820190508181036000830152612aae81846122e1565b905092915050565b60006020820190508181036000830152612acf8161234b565b9050919050565b60006020820190508181036000830152612aef816123b1565b9050919050565b60006020820190508181036000830152612b0f81612417565b9050919050565b60006020820190508181036000830152612b2f81612457565b9050919050565b60006020820190508181036000830152612b4f816124bd565b9050919050565b60006020820190508181036000830152612b6f816124fd565b9050919050565b60006020820190508181036000830152612b8f81612563565b9050919050565b60006020820190508181036000830152612baf816125c9565b9050919050565b60006020820190508181036000830152612bcf8161262f565b9050919050565b60006020820190508181036000830152612bef81612695565b9050919050565b60006020820190508181036000830152612c0f816126fb565b9050919050565b60006020820190508181036000830152612c2f8161273b565b9050919050565b60006020820190508181036000830152612c4f816127a1565b9050919050565b60006020820190508181036000830152612c6f81612807565b9050919050565b60006020820190508181036000830152612c8f81612847565b9050919050565b60006020820190508181036000830152612caf816128ad565b9050919050565b60006020820190508181036000830152612ccf81612913565b9050919050565b60006020820190508181036000830152612cef81612979565b9050919050565b6000602082019050612d0b60008301846129df565b92915050565b6000604051905081810181811067ffffffffffffffff82111715612d3857612d3761308f565b5b8060405250919050565b600067ffffffffffffffff821115612d5d57612d5c61308f565b5b601f19601f8301169050602081019050919050565b600067ffffffffffffffff821115612d8d57612d8c61308f565b5b601f19601f8301169050602081019050919050565b600081519050919050565b600081519050919050565b600082825260208201905092915050565b600082825260208201905092915050565b600081905092915050565b6000612df082612f0a565b9150612dfb83612f0a565b9250827fffffffffffffffffffffffffffffffffffffffffffffffffffffffffffffffff03821115612e3057612e2f613002565b5b828201905092915050565b6000612e4682612f0a565b9150612e5183612f0a565b925082612e6157612e60613031565b5b828204905092915050565b6000612e7782612f0a565b9150612e8283612f0a565b925082821015612e9557612e94613002565b5b828203905092915050565b6000612eab82612eea565b9050919050565b60008115159050919050565b60007fffffffff0000000000000000000000000000000000000000000000000000000082169050919050565b600073ffffffffffffffffffffffffffffffffffffffff82169050919050565b6000819050919050565b82818337600083830152505050565b60005b83811015612f41578082015181840152602081019050612f26565b83811115612f50576000848401525b50505050565b60006002820490506001821680612f6e57607f821691505b60208210811415612f8257612f81613060565b5b50919050565b6000612f9382612f0a565b91507fffffffffffffffffffffffffffffffffffffffffffffffffffffffffffffffff821415612fc657612fc5613002565b5b600182019050919050565b6000612fdc82612f0a565b9150612fe783612f0a565b925082612ff757612ff6613031565b5b828206905092915050565b7f4e487b7100000000000000000000000000000000000000000000000000000000600052601160045260246000fd5b7f4e487b7100000000000000000000000000000000000000000000000000000000600052601260045260246000fd5b7f4e487b7100000000000000000000000000000000000000000000000000000000600052602260045260246000fd5b7f4e487b7100000000000000000000000000000000000000000000000000000000600052604160045260246000fd5b6000601f19601f8301169050919050565b6130d881612ea0565b81146130e357600080fd5b50565b6130ef81612eb2565b81146130fa57600080fd5b50565b61310681612ebe565b811461311157600080fd5b50565b61311d81612f0a565b811461312857600080fd5b5056fea264697066735822122061e575e95cdbf3911c0ca8c1546b9e326266958196d0530606d705322c3073ae64736f6c63430008000033",
  "immutableReferences": {},
  "source": "// SPDX-License-Identifier: MIT\npragma solidity >=0.4.22 <0.9.0;\n\nimport \"@openzeppelin/contracts/access/Ownable.sol\";\nimport \"@openzeppelin/contracts/token/ERC721/extensions/ERC721URIStorage.sol\";\nimport \"@openzeppelin/contracts/utils/math/SafeMath.sol\";\n\ncontract Tokens is Ownable, ERC721URIStorage {\n  using SafeMath for uint256;\n\n  address public marketplaceAddress;\n\n  constructor(string memory _name, string memory _symbol) ERC721(_name, _symbol) {\n  }\n\n  function setMarketplaceAddress(address _marketplaceAddress) public onlyOwner {\n    marketplaceAddress = _marketplaceAddress;\n  }\n\n  modifier onlyMarketplaceAddress() {\n    require(msg.sender == marketplaceAddress);\n    _;\n  }\n\n  function createToken(address _to, uint256 _tokenId, string memory _tokenURI) public onlyMarketplaceAddress returns(bool success) {\n    _safeMint(_to, _tokenId);\n    _setTokenURI(_tokenId, _tokenURI);\n    return true;\n  }\n\n  function approveMarketplace(address _operator, bool _approved) public returns(bool success) {\n    setApprovalForAll(_operator, _approved);\n    return true;\n  }\n\n  function transferToken(address _from, address _to, uint256 _tokenId) public returns(bool success) {\n    safeTransferFrom(_from, _to, _tokenId);\n    return true;\n  }\n}",
  "sourcePath": "/Users/andrewmlevy/Documents/blockchain/4_portfolio_projects/art-marketplace/src/contracts/Tokens.sol",
  "compiler": {
    "name": "solc",
    "version": "0.8.0+commit.c7dfd78e.Emscripten.clang"
  },
  "schemaVersion": "3.4.1",
  "updatedAt": "2021-06-20T15:04:06.146Z",
  "networkType": "ethereum",
  "devdoc": {
    "kind": "dev",
    "methods": {
      "approve(address,uint256)": {
        "details": "See {IERC721-approve}."
      },
      "balanceOf(address)": {
        "details": "See {IERC721-balanceOf}."
      },
      "getApproved(uint256)": {
        "details": "See {IERC721-getApproved}."
      },
      "isApprovedForAll(address,address)": {
        "details": "See {IERC721-isApprovedForAll}."
      },
      "name()": {
        "details": "See {IERC721Metadata-name}."
      },
      "owner()": {
        "details": "Returns the address of the current owner."
      },
      "ownerOf(uint256)": {
        "details": "See {IERC721-ownerOf}."
      },
      "renounceOwnership()": {
        "details": "Leaves the contract without owner. It will not be possible to call `onlyOwner` functions anymore. Can only be called by the current owner. NOTE: Renouncing ownership will leave the contract without an owner, thereby removing any functionality that is only available to the owner."
      },
      "safeTransferFrom(address,address,uint256)": {
        "details": "See {IERC721-safeTransferFrom}."
      },
      "safeTransferFrom(address,address,uint256,bytes)": {
        "details": "See {IERC721-safeTransferFrom}."
      },
      "setApprovalForAll(address,bool)": {
        "details": "See {IERC721-setApprovalForAll}."
      },
      "supportsInterface(bytes4)": {
        "details": "See {IERC165-supportsInterface}."
      },
      "symbol()": {
        "details": "See {IERC721Metadata-symbol}."
      },
      "tokenURI(uint256)": {
        "details": "See {IERC721Metadata-tokenURI}."
      },
      "transferFrom(address,address,uint256)": {
        "details": "See {IERC721-transferFrom}."
      },
      "transferOwnership(address)": {
        "details": "Transfers ownership of the contract to a new account (`newOwner`). Can only be called by the current owner."
      }
    },
    "version": 1
  },
  "userdoc": {
    "kind": "user",
    "methods": {},
    "version": 1
  }
}