{
  "contractName": "Art",
  "abi": [
    {
      "inputs": [
        {
          "internalType": "address",
          "name": "_artistFeeAccount",
          "type": "address"
        },
        {
          "internalType": "uint256",
          "name": "_artistFee",
          "type": "uint256"
        }
      ],
      "stateMutability": "nonpayable",
      "type": "constructor"
    },
    {
      "anonymous": false,
      "inputs": [
        {
          "indexed": true,
          "internalType": "address",
          "name": "owner",
          "type": "address"
        },
        {
          "indexed": true,
          "internalType": "address",
          "name": "approved",
          "type": "address"
        },
        {
          "indexed": true,
          "internalType": "uint256",
          "name": "tokenId",
          "type": "uint256"
        }
      ],
      "name": "Approval",
      "type": "event"
    },
    {
      "anonymous": false,
      "inputs": [
        {
          "indexed": true,
          "internalType": "address",
          "name": "owner",
          "type": "address"
        },
        {
          "indexed": true,
          "internalType": "address",
          "name": "operator",
          "type": "address"
        },
        {
          "indexed": false,
          "internalType": "bool",
          "name": "approved",
          "type": "bool"
        }
      ],
      "name": "ApprovalForAll",
      "type": "event"
    },
    {
      "anonymous": false,
      "inputs": [
        {
          "indexed": true,
          "internalType": "address",
          "name": "previousOwner",
          "type": "address"
        },
        {
          "indexed": true,
          "internalType": "address",
          "name": "newOwner",
          "type": "address"
        }
      ],
      "name": "OwnershipTransferred",
      "type": "event"
    },
    {
      "anonymous": false,
      "inputs": [
        {
          "indexed": true,
          "internalType": "address",
          "name": "from",
          "type": "address"
        },
        {
          "indexed": true,
          "internalType": "address",
          "name": "to",
          "type": "address"
        },
        {
          "indexed": true,
          "internalType": "uint256",
          "name": "tokenId",
          "type": "uint256"
        }
      ],
      "name": "Transfer",
      "type": "event"
    },
    {
      "inputs": [
        {
          "internalType": "address",
          "name": "to",
          "type": "address"
        },
        {
          "internalType": "uint256",
          "name": "tokenId",
          "type": "uint256"
        }
      ],
      "name": "approve",
      "outputs": [],
      "stateMutability": "nonpayable",
      "type": "function"
    },
    {
      "inputs": [],
      "name": "artistFee",
      "outputs": [
        {
          "internalType": "uint256",
          "name": "",
          "type": "uint256"
        }
      ],
      "stateMutability": "view",
      "type": "function"
    },
    {
      "inputs": [],
      "name": "artistFeeAccount",
      "outputs": [
        {
          "internalType": "address",
          "name": "",
          "type": "address"
        }
      ],
      "stateMutability": "view",
      "type": "function"
    },
    {
      "inputs": [
        {
          "internalType": "address",
          "name": "owner",
          "type": "address"
        }
      ],
      "name": "balanceOf",
      "outputs": [
        {
          "internalType": "uint256",
          "name": "",
          "type": "uint256"
        }
      ],
      "stateMutability": "view",
      "type": "function"
    },
    {
      "inputs": [],
      "name": "contractFee",
      "outputs": [
        {
          "internalType": "uint256",
          "name": "",
          "type": "uint256"
        }
      ],
      "stateMutability": "view",
      "type": "function"
    },
    {
      "inputs": [],
      "name": "contractFeeAccount",
      "outputs": [
        {
          "internalType": "address",
          "name": "",
          "type": "address"
        }
      ],
      "stateMutability": "view",
      "type": "function"
    },
    {
      "inputs": [],
      "name": "critterCount",
      "outputs": [
        {
          "internalType": "uint256",
          "name": "",
          "type": "uint256"
        }
      ],
      "stateMutability": "view",
      "type": "function"
    },
    {
      "inputs": [
        {
          "internalType": "uint256",
          "name": "tokenId",
          "type": "uint256"
        }
      ],
      "name": "getApproved",
      "outputs": [
        {
          "internalType": "address",
          "name": "",
          "type": "address"
        }
      ],
      "stateMutability": "view",
      "type": "function"
    },
    {
      "inputs": [
        {
          "internalType": "address",
          "name": "owner",
          "type": "address"
        },
        {
          "internalType": "address",
          "name": "operator",
          "type": "address"
        }
      ],
      "name": "isApprovedForAll",
      "outputs": [
        {
          "internalType": "bool",
          "name": "",
          "type": "bool"
        }
      ],
      "stateMutability": "view",
      "type": "function"
    },
    {
      "inputs": [],
      "name": "name",
      "outputs": [
        {
          "internalType": "string",
          "name": "",
          "type": "string"
        }
      ],
      "stateMutability": "view",
      "type": "function"
    },
    {
      "inputs": [],
      "name": "owner",
      "outputs": [
        {
          "internalType": "address",
          "name": "",
          "type": "address"
        }
      ],
      "stateMutability": "view",
      "type": "function"
    },
    {
      "inputs": [
        {
          "internalType": "uint256",
          "name": "tokenId",
          "type": "uint256"
        }
      ],
      "name": "ownerOf",
      "outputs": [
        {
          "internalType": "address",
          "name": "",
          "type": "address"
        }
      ],
      "stateMutability": "view",
      "type": "function"
    },
    {
      "inputs": [],
      "name": "renounceOwnership",
      "outputs": [],
      "stateMutability": "nonpayable",
      "type": "function"
    },
    {
      "inputs": [
        {
          "internalType": "address",
          "name": "from",
          "type": "address"
        },
        {
          "internalType": "address",
          "name": "to",
          "type": "address"
        },
        {
          "internalType": "uint256",
          "name": "tokenId",
          "type": "uint256"
        }
      ],
      "name": "safeTransferFrom",
      "outputs": [],
      "stateMutability": "nonpayable",
      "type": "function"
    },
    {
      "inputs": [
        {
          "internalType": "address",
          "name": "from",
          "type": "address"
        },
        {
          "internalType": "address",
          "name": "to",
          "type": "address"
        },
        {
          "internalType": "uint256",
          "name": "tokenId",
          "type": "uint256"
        },
        {
          "internalType": "bytes",
          "name": "_data",
          "type": "bytes"
        }
      ],
      "name": "safeTransferFrom",
      "outputs": [],
      "stateMutability": "nonpayable",
      "type": "function"
    },
    {
      "inputs": [
        {
          "internalType": "address",
          "name": "operator",
          "type": "address"
        },
        {
          "internalType": "bool",
          "name": "approved",
          "type": "bool"
        }
      ],
      "name": "setApprovalForAll",
      "outputs": [],
      "stateMutability": "nonpayable",
      "type": "function"
    },
    {
      "inputs": [
        {
          "internalType": "bytes4",
          "name": "interfaceId",
          "type": "bytes4"
        }
      ],
      "name": "supportsInterface",
      "outputs": [
        {
          "internalType": "bool",
          "name": "",
          "type": "bool"
        }
      ],
      "stateMutability": "view",
      "type": "function"
    },
    {
      "inputs": [],
      "name": "symbol",
      "outputs": [
        {
          "internalType": "string",
          "name": "",
          "type": "string"
        }
      ],
      "stateMutability": "view",
      "type": "function"
    },
    {
      "inputs": [
        {
          "internalType": "uint256",
          "name": "tokenId",
          "type": "uint256"
        }
      ],
      "name": "tokenURI",
      "outputs": [
        {
          "internalType": "string",
          "name": "",
          "type": "string"
        }
      ],
      "stateMutability": "view",
      "type": "function"
    },
    {
      "inputs": [
        {
          "internalType": "address",
          "name": "from",
          "type": "address"
        },
        {
          "internalType": "address",
          "name": "to",
          "type": "address"
        },
        {
          "internalType": "uint256",
          "name": "tokenId",
          "type": "uint256"
        }
      ],
      "name": "transferFrom",
      "outputs": [],
      "stateMutability": "nonpayable",
      "type": "function"
    },
    {
      "inputs": [
        {
          "internalType": "address",
          "name": "newOwner",
          "type": "address"
        }
      ],
      "name": "transferOwnership",
      "outputs": [],
      "stateMutability": "nonpayable",
      "type": "function"
    },
    {
      "inputs": [
        {
          "internalType": "uint256",
          "name": "_gen",
          "type": "uint256"
        },
        {
          "internalType": "uint256",
          "name": "_dna",
          "type": "uint256"
        },
        {
          "internalType": "string",
          "name": "_name",
          "type": "string"
        },
        {
          "internalType": "string",
          "name": "_tokenURI",
          "type": "string"
        }
      ],
      "name": "createArtwork",
      "outputs": [],
      "stateMutability": "nonpayable",
      "type": "function"
    }
  ],
  "bytecode": "0x60806040523480156200001157600080fd5b50604051620035a5380380620035a58339818101604052810190620000379190620002c5565b6040518060400160405280600781526020017f43726974746572000000000000000000000000000000000000000000000000008152506040518060400160405280600781526020017f43524954544552000000000000000000000000000000000000000000000000008152506000620000b5620001df60201b60201c565b9050806000806101000a81548173ffffffffffffffffffffffffffffffffffffffff021916908373ffffffffffffffffffffffffffffffffffffffff1602179055508073ffffffffffffffffffffffffffffffffffffffff16600073ffffffffffffffffffffffffffffffffffffffff167f8be0079c531659141344cd1fd0a4f28419497f9722a3daafe3b4186f6b6457e060405160405180910390a35081600190805190602001906200016b929190620001e7565b50806002908051906020019062000184929190620001e7565b5050506000600c8190555081600b60006101000a81548173ffffffffffffffffffffffffffffffffffffffff021916908373ffffffffffffffffffffffffffffffffffffffff160217905550806009819055505050620003dd565b600033905090565b828054620001f59062000344565b90600052602060002090601f01602090048101928262000219576000855562000265565b82601f106200023457805160ff191683800117855562000265565b8280016001018555821562000265579182015b828111156200026457825182559160200191906001019062000247565b5b50905062000274919062000278565b5090565b5b808211156200029357600081600090555060010162000279565b5090565b600081519050620002a881620003a9565b92915050565b600081519050620002bf81620003c3565b92915050565b60008060408385031215620002d957600080fd5b6000620002e98582860162000297565b9250506020620002fc85828601620002ae565b9150509250929050565b600062000313826200031a565b9050919050565b600073ffffffffffffffffffffffffffffffffffffffff82169050919050565b6000819050919050565b600060028204905060018216806200035d57607f821691505b602082108114156200037457620003736200037a565b5b50919050565b7f4e487b7100000000000000000000000000000000000000000000000000000000600052602260045260246000fd5b620003b48162000306565b8114620003c057600080fd5b50565b620003ce816200033a565b8114620003da57600080fd5b50565b6131b880620003ed6000396000f3fe608060405234801561001057600080fd5b50600436106101425760003560e01c80638da5cb5b116100b8578063c87b56dd1161007c578063c87b56dd14610351578063d41977cd14610381578063e088e3131461039f578063e985e9c5146103bb578063f2fde38b146103eb578063ff20deb31461040757610142565b80638da5cb5b146102bf57806395d89b41146102dd578063a22cb465146102fb578063b25332ae14610317578063b88d4fde1461033557610142565b806342842e0e1161010a57806342842e0e146101fd5780635c717fb8146102195780636352211e1461023757806370a0823114610267578063715018a6146102975780638a29d0e4146102a157610142565b806301ffc9a71461014757806306fdde0314610177578063081812fc14610195578063095ea7b3146101c557806323b872dd146101e1575b600080fd5b610161600480360381019061015c91906121d3565b610425565b60405161016e9190612ad0565b60405180910390f35b61017f610507565b60405161018c9190612aeb565b60405180910390f35b6101af60048036038101906101aa9190612225565b610599565b6040516101bc9190612a69565b60405180910390f35b6101df60048036038101906101da9190612197565b61061e565b005b6101fb60048036038101906101f69190612091565b610736565b005b61021760048036038101906102129190612091565b610796565b005b6102216107b6565b60405161022e9190612a69565b60405180910390f35b610251600480360381019061024c9190612225565b6107dc565b60405161025e9190612a69565b60405180910390f35b610281600480360381019061027c919061202c565b61088e565b60405161028e9190612d4d565b60405180910390f35b61029f610946565b005b6102a9610a80565b6040516102b69190612a69565b60405180910390f35b6102c7610aa6565b6040516102d49190612a69565b60405180910390f35b6102e5610acf565b6040516102f29190612aeb565b60405180910390f35b6103156004803603810190610310919061215b565b610b61565b005b61031f610ce2565b60405161032c9190612d4d565b60405180910390f35b61034f600480360381019061034a91906120e0565b610ce8565b005b61036b60048036038101906103669190612225565b610d4a565b6040516103789190612aeb565b60405180910390f35b610389610e9c565b6040516103969190612d4d565b60405180910390f35b6103b960048036038101906103b4919061224e565b610ea2565b005b6103d560048036038101906103d09190612055565b610ff5565b6040516103e29190612ad0565b60405180910390f35b6104056004803603810190610400919061202c565b611089565b005b61040f611232565b60405161041c9190612d4d565b60405180910390f35b60007f80ac58cd000000000000000000000000000000000000000000000000000000007bffffffffffffffffffffffffffffffffffffffffffffffffffffffff1916827bffffffffffffffffffffffffffffffffffffffffffffffffffffffff191614806104f057507f5b5e139f000000000000000000000000000000000000000000000000000000007bffffffffffffffffffffffffffffffffffffffffffffffffffffffff1916827bffffffffffffffffffffffffffffffffffffffffffffffffffffffff1916145b8061050057506104ff82611238565b5b9050919050565b60606001805461051690612fad565b80601f016020809104026020016040519081016040528092919081815260200182805461054290612fad565b801561058f5780601f106105645761010080835404028352916020019161058f565b820191906000526020600020905b81548152906001019060200180831161057257829003601f168201915b5050505050905090565b60006105a4826112a2565b6105e3576040517f08c379a00000000000000000000000000000000000000000000000000000000081526004016105da90612c8d565b60405180910390fd5b6005600083815260200190815260200160002060009054906101000a900473ffffffffffffffffffffffffffffffffffffffff169050919050565b6000610629826107dc565b90508073ffffffffffffffffffffffffffffffffffffffff168373ffffffffffffffffffffffffffffffffffffffff16141561069a576040517f08c379a000000000000000000000000000000000000000000000000000000000815260040161069190612d0d565b60405180910390fd5b8073ffffffffffffffffffffffffffffffffffffffff166106b961130e565b73ffffffffffffffffffffffffffffffffffffffff1614806106e857506106e7816106e261130e565b610ff5565b5b610727576040517f08c379a000000000000000000000000000000000000000000000000000000000815260040161071e90612bcd565b60405180910390fd5b6107318383611316565b505050565b61074761074161130e565b826113cf565b610786576040517f08c379a000000000000000000000000000000000000000000000000000000000815260040161077d90612d2d565b60405180910390fd5b6107918383836114ad565b505050565b6107b183838360405180602001604052806000815250610ce8565b505050565b600b60009054906101000a900473ffffffffffffffffffffffffffffffffffffffff1681565b6000806003600084815260200190815260200160002060009054906101000a900473ffffffffffffffffffffffffffffffffffffffff169050600073ffffffffffffffffffffffffffffffffffffffff168173ffffffffffffffffffffffffffffffffffffffff161415610885576040517f08c379a000000000000000000000000000000000000000000000000000000000815260040161087c90612c0d565b60405180910390fd5b80915050919050565b60008073ffffffffffffffffffffffffffffffffffffffff168273ffffffffffffffffffffffffffffffffffffffff1614156108ff576040517f08c379a00000000000000000000000000000000000000000000000000000000081526004016108f690612bed565b60405180910390fd5b600460008373ffffffffffffffffffffffffffffffffffffffff1673ffffffffffffffffffffffffffffffffffffffff168152602001908152602001600020549050919050565b61094e61130e565b73ffffffffffffffffffffffffffffffffffffffff1661096c610aa6565b73ffffffffffffffffffffffffffffffffffffffff16146109c2576040517f08c379a00000000000000000000000000000000000000000000000000000000081526004016109b990612cad565b60405180910390fd5b600073ffffffffffffffffffffffffffffffffffffffff1660008054906101000a900473ffffffffffffffffffffffffffffffffffffffff1673ffffffffffffffffffffffffffffffffffffffff167f8be0079c531659141344cd1fd0a4f28419497f9722a3daafe3b4186f6b6457e060405160405180910390a360008060006101000a81548173ffffffffffffffffffffffffffffffffffffffff021916908373ffffffffffffffffffffffffffffffffffffffff160217905550565b600a60009054906101000a900473ffffffffffffffffffffffffffffffffffffffff1681565b60008060009054906101000a900473ffffffffffffffffffffffffffffffffffffffff16905090565b606060028054610ade90612fad565b80601f0160208091040260200160405190810160405280929190818152602001828054610b0a90612fad565b8015610b575780601f10610b2c57610100808354040283529160200191610b57565b820191906000526020600020905b815481529060010190602001808311610b3a57829003601f168201915b5050505050905090565b610b6961130e565b73ffffffffffffffffffffffffffffffffffffffff168273ffffffffffffffffffffffffffffffffffffffff161415610bd7576040517f08c379a0000000000000000000000000000000000000000000000000000000008152600401610bce90612b8d565b60405180910390fd5b8060066000610be461130e565b73ffffffffffffffffffffffffffffffffffffffff1673ffffffffffffffffffffffffffffffffffffffff16815260200190815260200160002060008473ffffffffffffffffffffffffffffffffffffffff1673ffffffffffffffffffffffffffffffffffffffff16815260200190815260200160002060006101000a81548160ff0219169083151502179055508173ffffffffffffffffffffffffffffffffffffffff16610c9161130e565b73ffffffffffffffffffffffffffffffffffffffff167f17307eab39ab6107e8899845ad3d59bd9653f200f220920489ca2b5937696c3183604051610cd69190612ad0565b60405180910390a35050565b60095481565b610cf9610cf361130e565b836113cf565b610d38576040517f08c379a0000000000000000000000000000000000000000000000000000000008152600401610d2f90612d2d565b60405180910390fd5b610d4484848484611709565b50505050565b6060610d55826112a2565b610d94576040517f08c379a0000000000000000000000000000000000000000000000000000000008152600401610d8b90612c6d565b60405180910390fd5b6000600760008481526020019081526020016000208054610db490612fad565b80601f0160208091040260200160405190810160405280929190818152602001828054610de090612fad565b8015610e2d5780601f10610e0257610100808354040283529160200191610e2d565b820191906000526020600020905b815481529060010190602001808311610e1057829003601f168201915b505050505090506000610e3e611765565b9050600081511415610e54578192505050610e97565b600082511115610e89578082604051602001610e71929190612a45565b60405160208183030381529060405292505050610e97565b610e928461177c565b925050505b919050565b60085481565b6000600c549050600d6040518060c001604052808381526020013373ffffffffffffffffffffffffffffffffffffffff1681526020018781526020018681526020018581526020016000151581525090806001815401808255809150506001900390600052602060002090600602016000909190919091506000820151816000015560208201518160010160006101000a81548173ffffffffffffffffffffffffffffffffffffffff021916908373ffffffffffffffffffffffffffffffffffffffff16021790555060408201518160020155606082015181600301556080820151816004019080519060200190610f9b929190611e50565b5060a08201518160050160006101000a81548160ff0219169083151502179055505050610fc83382611823565b610fd28183611841565b610fe86001600c546118b590919063ffffffff16565b600c819055505050505050565b6000600660008473ffffffffffffffffffffffffffffffffffffffff1673ffffffffffffffffffffffffffffffffffffffff16815260200190815260200160002060008373ffffffffffffffffffffffffffffffffffffffff1673ffffffffffffffffffffffffffffffffffffffff16815260200190815260200160002060009054906101000a900460ff16905092915050565b61109161130e565b73ffffffffffffffffffffffffffffffffffffffff166110af610aa6565b73ffffffffffffffffffffffffffffffffffffffff1614611105576040517f08c379a00000000000000000000000000000000000000000000000000000000081526004016110fc90612cad565b60405180910390fd5b600073ffffffffffffffffffffffffffffffffffffffff168173ffffffffffffffffffffffffffffffffffffffff161415611175576040517f08c379a000000000000000000000000000000000000000000000000000000000815260040161116c90612b2d565b60405180910390fd5b8073ffffffffffffffffffffffffffffffffffffffff1660008054906101000a900473ffffffffffffffffffffffffffffffffffffffff1673ffffffffffffffffffffffffffffffffffffffff167f8be0079c531659141344cd1fd0a4f28419497f9722a3daafe3b4186f6b6457e060405160405180910390a3806000806101000a81548173ffffffffffffffffffffffffffffffffffffffff021916908373ffffffffffffffffffffffffffffffffffffffff16021790555050565b600c5481565b60007f01ffc9a7000000000000000000000000000000000000000000000000000000007bffffffffffffffffffffffffffffffffffffffffffffffffffffffff1916827bffffffffffffffffffffffffffffffffffffffffffffffffffffffff1916149050919050565b60008073ffffffffffffffffffffffffffffffffffffffff166003600084815260200190815260200160002060009054906101000a900473ffffffffffffffffffffffffffffffffffffffff1673ffffffffffffffffffffffffffffffffffffffff1614159050919050565b600033905090565b816005600083815260200190815260200160002060006101000a81548173ffffffffffffffffffffffffffffffffffffffff021916908373ffffffffffffffffffffffffffffffffffffffff160217905550808273ffffffffffffffffffffffffffffffffffffffff16611389836107dc565b73ffffffffffffffffffffffffffffffffffffffff167f8c5be1e5ebec7d5bd14f71427d1e84f3dd0314c0f7b2291e5b200ac8c7c3b92560405160405180910390a45050565b60006113da826112a2565b611419576040517f08c379a000000000000000000000000000000000000000000000000000000000815260040161141090612bad565b60405180910390fd5b6000611424836107dc565b90508073ffffffffffffffffffffffffffffffffffffffff168473ffffffffffffffffffffffffffffffffffffffff16148061149357508373ffffffffffffffffffffffffffffffffffffffff1661147b84610599565b73ffffffffffffffffffffffffffffffffffffffff16145b806114a457506114a38185610ff5565b5b91505092915050565b8273ffffffffffffffffffffffffffffffffffffffff166114cd826107dc565b73ffffffffffffffffffffffffffffffffffffffff1614611523576040517f08c379a000000000000000000000000000000000000000000000000000000000815260040161151a90612ccd565b60405180910390fd5b600073ffffffffffffffffffffffffffffffffffffffff168273ffffffffffffffffffffffffffffffffffffffff161415611593576040517f08c379a000000000000000000000000000000000000000000000000000000000815260040161158a90612b6d565b60405180910390fd5b61159e8383836118cb565b6115a9600082611316565b6001600460008573ffffffffffffffffffffffffffffffffffffffff1673ffffffffffffffffffffffffffffffffffffffff16815260200190815260200160002060008282546115f99190612ec3565b925050819055506001600460008473ffffffffffffffffffffffffffffffffffffffff1673ffffffffffffffffffffffffffffffffffffffff16815260200190815260200160002060008282546116509190612e3c565b92505081905550816003600083815260200190815260200160002060006101000a81548173ffffffffffffffffffffffffffffffffffffffff021916908373ffffffffffffffffffffffffffffffffffffffff160217905550808273ffffffffffffffffffffffffffffffffffffffff168473ffffffffffffffffffffffffffffffffffffffff167fddf252ad1be2c89b69c2b068fc378daa952ba7f163c4a11628f55a4df523b3ef60405160405180910390a4505050565b6117148484846114ad565b611720848484846118d0565b61175f576040517f08c379a000000000000000000000000000000000000000000000000000000000815260040161175690612b0d565b60405180910390fd5b50505050565b606060405180602001604052806000815250905090565b6060611787826112a2565b6117c6576040517f08c379a00000000000000000000000000000000000000000000000000000000081526004016117bd90612ced565b60405180910390fd5b60006117d0611765565b905060008151116117f0576040518060200160405280600081525061181b565b806117fa84611a67565b60405160200161180b929190612a45565b6040516020818303038152906040525b915050919050565b61183d828260405180602001604052806000815250611c14565b5050565b61184a826112a2565b611889576040517f08c379a000000000000000000000000000000000000000000000000000000000815260040161188090612c2d565b60405180910390fd5b806007600084815260200190815260200160002090805190602001906118b0929190611e50565b505050565b600081836118c39190612e3c565b905092915050565b505050565b60006118f18473ffffffffffffffffffffffffffffffffffffffff16611c6f565b15611a5a578373ffffffffffffffffffffffffffffffffffffffff1663150b7a0261191a61130e565b8786866040518563ffffffff1660e01b815260040161193c9493929190612a84565b602060405180830381600087803b15801561195657600080fd5b505af192505050801561198757506040513d601f19601f8201168201806040525081019061198491906121fc565b60015b611a0a573d80600081146119b7576040519150601f19603f3d011682016040523d82523d6000602084013e6119bc565b606091505b50600081511415611a02576040517f08c379a00000000000000000000000000000000000000000000000000000000081526004016119f990612b0d565b60405180910390fd5b805181602001fd5b63150b7a0260e01b7bffffffffffffffffffffffffffffffffffffffffffffffffffffffff1916817bffffffffffffffffffffffffffffffffffffffffffffffffffffffff191614915050611a5f565b600190505b949350505050565b60606000821415611aaf576040518060400160405280600181526020017f30000000000000000000000000000000000000000000000000000000000000008152509050611c0f565b600082905060005b60008214611ae1578080611aca90612fdf565b915050600a82611ada9190612e92565b9150611ab7565b60008167ffffffffffffffff811115611b23577f4e487b7100000000000000000000000000000000000000000000000000000000600052604160045260246000fd5b6040519080825280601f01601f191660200182016040528015611b555781602001600182028036833780820191505090505b5090505b60008514611c0857600182611b6e9190612ec3565b9150600a85611b7d9190613028565b6030611b899190612e3c565b60f81b818381518110611bc5577f4e487b7100000000000000000000000000000000000000000000000000000000600052603260045260246000fd5b60200101907effffffffffffffffffffffffffffffffffffffffffffffffffffffffffffff1916908160001a905350600a85611c019190612e92565b9450611b59565b8093505050505b919050565b611c1e8383611c82565b611c2b60008484846118d0565b611c6a576040517f08c379a0000000000000000000000000000000000000000000000000000000008152600401611c6190612b0d565b60405180910390fd5b505050565b600080823b905060008111915050919050565b600073ffffffffffffffffffffffffffffffffffffffff168273ffffffffffffffffffffffffffffffffffffffff161415611cf2576040517f08c379a0000000000000000000000000000000000000000000000000000000008152600401611ce990612c4d565b60405180910390fd5b611cfb816112a2565b15611d3b576040517f08c379a0000000000000000000000000000000000000000000000000000000008152600401611d3290612b4d565b60405180910390fd5b611d47600083836118cb565b6001600460008473ffffffffffffffffffffffffffffffffffffffff1673ffffffffffffffffffffffffffffffffffffffff1681526020019081526020016000206000828254611d979190612e3c565b92505081905550816003600083815260200190815260200160002060006101000a81548173ffffffffffffffffffffffffffffffffffffffff021916908373ffffffffffffffffffffffffffffffffffffffff160217905550808273ffffffffffffffffffffffffffffffffffffffff16600073ffffffffffffffffffffffffffffffffffffffff167fddf252ad1be2c89b69c2b068fc378daa952ba7f163c4a11628f55a4df523b3ef60405160405180910390a45050565b828054611e5c90612fad565b90600052602060002090601f016020900481019282611e7e5760008555611ec5565b82601f10611e9757805160ff1916838001178555611ec5565b82800160010185558215611ec5579182015b82811115611ec4578251825591602001919060010190611ea9565b5b509050611ed29190611ed6565b5090565b5b80821115611eef576000816000905550600101611ed7565b5090565b6000611f06611f0184612d99565b612d68565b905082815260208101848484011115611f1e57600080fd5b611f29848285612f6b565b509392505050565b6000611f44611f3f84612dc9565b612d68565b905082815260208101848484011115611f5c57600080fd5b611f67848285612f6b565b509392505050565b600081359050611f7e81613126565b92915050565b600081359050611f938161313d565b92915050565b600081359050611fa881613154565b92915050565b600081519050611fbd81613154565b92915050565b600082601f830112611fd457600080fd5b8135611fe4848260208601611ef3565b91505092915050565b600082601f830112611ffe57600080fd5b813561200e848260208601611f31565b91505092915050565b6000813590506120268161316b565b92915050565b60006020828403121561203e57600080fd5b600061204c84828501611f6f565b91505092915050565b6000806040838503121561206857600080fd5b600061207685828601611f6f565b925050602061208785828601611f6f565b9150509250929050565b6000806000606084860312156120a657600080fd5b60006120b486828701611f6f565b93505060206120c586828701611f6f565b92505060406120d686828701612017565b9150509250925092565b600080600080608085870312156120f657600080fd5b600061210487828801611f6f565b945050602061211587828801611f6f565b935050604061212687828801612017565b925050606085013567ffffffffffffffff81111561214357600080fd5b61214f87828801611fc3565b91505092959194509250565b6000806040838503121561216e57600080fd5b600061217c85828601611f6f565b925050602061218d85828601611f84565b9150509250929050565b600080604083850312156121aa57600080fd5b60006121b885828601611f6f565b92505060206121c985828601612017565b9150509250929050565b6000602082840312156121e557600080fd5b60006121f384828501611f99565b91505092915050565b60006020828403121561220e57600080fd5b600061221c84828501611fae565b91505092915050565b60006020828403121561223757600080fd5b600061224584828501612017565b91505092915050565b6000806000806080858703121561226457600080fd5b600061227287828801612017565b945050602061228387828801612017565b935050604085013567ffffffffffffffff8111156122a057600080fd5b6122ac87828801611fed565b925050606085013567ffffffffffffffff8111156122c957600080fd5b6122d587828801611fed565b91505092959194509250565b6122ea81612ef7565b82525050565b6122f981612f09565b82525050565b600061230a82612df9565b6123148185612e0f565b9350612324818560208601612f7a565b61232d81613115565b840191505092915050565b600061234382612e04565b61234d8185612e20565b935061235d818560208601612f7a565b61236681613115565b840191505092915050565b600061237c82612e04565b6123868185612e31565b9350612396818560208601612f7a565b80840191505092915050565b60006123af603283612e20565b91507f4552433732313a207472616e7366657220746f206e6f6e20455243373231526560008301527f63656976657220696d706c656d656e74657200000000000000000000000000006020830152604082019050919050565b6000612415602683612e20565b91507f4f776e61626c653a206e6577206f776e657220697320746865207a65726f206160008301527f64647265737300000000000000000000000000000000000000000000000000006020830152604082019050919050565b600061247b601c83612e20565b91507f4552433732313a20746f6b656e20616c7265616479206d696e746564000000006000830152602082019050919050565b60006124bb602483612e20565b91507f4552433732313a207472616e7366657220746f20746865207a65726f2061646460008301527f72657373000000000000000000000000000000000000000000000000000000006020830152604082019050919050565b6000612521601983612e20565b91507f4552433732313a20617070726f766520746f2063616c6c6572000000000000006000830152602082019050919050565b6000612561602c83612e20565b91507f4552433732313a206f70657261746f7220717565727920666f72206e6f6e657860008301527f697374656e7420746f6b656e00000000000000000000000000000000000000006020830152604082019050919050565b60006125c7603883612e20565b91507f4552433732313a20617070726f76652063616c6c6572206973206e6f74206f7760008301527f6e6572206e6f7220617070726f76656420666f7220616c6c00000000000000006020830152604082019050919050565b600061262d602a83612e20565b91507f4552433732313a2062616c616e636520717565727920666f7220746865207a6560008301527f726f2061646472657373000000000000000000000000000000000000000000006020830152604082019050919050565b6000612693602983612e20565b91507f4552433732313a206f776e657220717565727920666f72206e6f6e657869737460008301527f656e7420746f6b656e00000000000000000000000000000000000000000000006020830152604082019050919050565b60006126f9602e83612e20565b91507f45524337323155524953746f726167653a2055524920736574206f66206e6f6e60008301527f6578697374656e7420746f6b656e0000000000000000000000000000000000006020830152604082019050919050565b600061275f602083612e20565b91507f4552433732313a206d696e7420746f20746865207a65726f20616464726573736000830152602082019050919050565b600061279f603183612e20565b91507f45524337323155524953746f726167653a2055524920717565727920666f722060008301527f6e6f6e6578697374656e7420746f6b656e0000000000000000000000000000006020830152604082019050919050565b6000612805602c83612e20565b91507f4552433732313a20617070726f76656420717565727920666f72206e6f6e657860008301527f697374656e7420746f6b656e00000000000000000000000000000000000000006020830152604082019050919050565b600061286b602083612e20565b91507f4f776e61626c653a2063616c6c6572206973206e6f7420746865206f776e65726000830152602082019050919050565b60006128ab602983612e20565b91507f4552433732313a207472616e73666572206f6620746f6b656e2074686174206960008301527f73206e6f74206f776e00000000000000000000000000000000000000000000006020830152604082019050919050565b6000612911602f83612e20565b91507f4552433732314d657461646174613a2055524920717565727920666f72206e6f60008301527f6e6578697374656e7420746f6b656e00000000000000000000000000000000006020830152604082019050919050565b6000612977602183612e20565b91507f4552433732313a20617070726f76616c20746f2063757272656e74206f776e6560008301527f72000000000000000000000000000000000000000000000000000000000000006020830152604082019050919050565b60006129dd603183612e20565b91507f4552433732313a207472616e736665722063616c6c6572206973206e6f74206f60008301527f776e6572206e6f7220617070726f7665640000000000000000000000000000006020830152604082019050919050565b612a3f81612f61565b82525050565b6000612a518285612371565b9150612a5d8284612371565b91508190509392505050565b6000602082019050612a7e60008301846122e1565b92915050565b6000608082019050612a9960008301876122e1565b612aa660208301866122e1565b612ab36040830185612a36565b8181036060830152612ac581846122ff565b905095945050505050565b6000602082019050612ae560008301846122f0565b92915050565b60006020820190508181036000830152612b058184612338565b905092915050565b60006020820190508181036000830152612b26816123a2565b9050919050565b60006020820190508181036000830152612b4681612408565b9050919050565b60006020820190508181036000830152612b668161246e565b9050919050565b60006020820190508181036000830152612b86816124ae565b9050919050565b60006020820190508181036000830152612ba681612514565b9050919050565b60006020820190508181036000830152612bc681612554565b9050919050565b60006020820190508181036000830152612be6816125ba565b9050919050565b60006020820190508181036000830152612c0681612620565b9050919050565b60006020820190508181036000830152612c2681612686565b9050919050565b60006020820190508181036000830152612c46816126ec565b9050919050565b60006020820190508181036000830152612c6681612752565b9050919050565b60006020820190508181036000830152612c8681612792565b9050919050565b60006020820190508181036000830152612ca6816127f8565b9050919050565b60006020820190508181036000830152612cc68161285e565b9050919050565b60006020820190508181036000830152612ce68161289e565b9050919050565b60006020820190508181036000830152612d0681612904565b9050919050565b60006020820190508181036000830152612d268161296a565b9050919050565b60006020820190508181036000830152612d46816129d0565b9050919050565b6000602082019050612d626000830184612a36565b92915050565b6000604051905081810181811067ffffffffffffffff82111715612d8f57612d8e6130e6565b5b8060405250919050565b600067ffffffffffffffff821115612db457612db36130e6565b5b601f19601f8301169050602081019050919050565b600067ffffffffffffffff821115612de457612de36130e6565b5b601f19601f8301169050602081019050919050565b600081519050919050565b600081519050919050565b600082825260208201905092915050565b600082825260208201905092915050565b600081905092915050565b6000612e4782612f61565b9150612e5283612f61565b9250827fffffffffffffffffffffffffffffffffffffffffffffffffffffffffffffffff03821115612e8757612e86613059565b5b828201905092915050565b6000612e9d82612f61565b9150612ea883612f61565b925082612eb857612eb7613088565b5b828204905092915050565b6000612ece82612f61565b9150612ed983612f61565b925082821015612eec57612eeb613059565b5b828203905092915050565b6000612f0282612f41565b9050919050565b60008115159050919050565b60007fffffffff0000000000000000000000000000000000000000000000000000000082169050919050565b600073ffffffffffffffffffffffffffffffffffffffff82169050919050565b6000819050919050565b82818337600083830152505050565b60005b83811015612f98578082015181840152602081019050612f7d565b83811115612fa7576000848401525b50505050565b60006002820490506001821680612fc557607f821691505b60208210811415612fd957612fd86130b7565b5b50919050565b6000612fea82612f61565b91507fffffffffffffffffffffffffffffffffffffffffffffffffffffffffffffffff82141561301d5761301c613059565b5b600182019050919050565b600061303382612f61565b915061303e83612f61565b92508261304e5761304d613088565b5b828206905092915050565b7f4e487b7100000000000000000000000000000000000000000000000000000000600052601160045260246000fd5b7f4e487b7100000000000000000000000000000000000000000000000000000000600052601260045260246000fd5b7f4e487b7100000000000000000000000000000000000000000000000000000000600052602260045260246000fd5b7f4e487b7100000000000000000000000000000000000000000000000000000000600052604160045260246000fd5b6000601f19601f8301169050919050565b61312f81612ef7565b811461313a57600080fd5b50565b61314681612f09565b811461315157600080fd5b50565b61315d81612f15565b811461316857600080fd5b50565b61317481612f61565b811461317f57600080fd5b5056fea2646970667358221220f68ad9dffe615a713b14d9989cd50f023c60cc922145c85f612de3ca8cb6b29264736f6c63430008000033",
  "immutableReferences": {},
  "source": "// SPDX-License-Identifier: MIT\npragma solidity >=0.4.22 <0.9.0;\n\nimport \"@openzeppelin/contracts/access/Ownable.sol\";\nimport \"@openzeppelin/contracts/token/ERC721/extensions/ERC721URIStorage.sol\";\nimport \"@openzeppelin/contracts/utils/math/SafeMath.sol\";\n\ncontract Art is Ownable, ERC721URIStorage {\n\n  using SafeMath for uint256;\n  \n  uint256 public contractFee;\n  uint256 public artistFee;\n  address public contractFeeAccount;\n  address public artistFeeAccount;\n  uint256 public critterCount;\n\n  struct Critter {\n    uint256 id;\n    address owner;\n    uint256 gen;\n    uint256 dna;\n    string name;\n    bool legacyCreated;\n  }\n\n  Critter[] critters;\n  \n  constructor(address _artistFeeAccount, uint256 _artistFee) ERC721(\"Critter\", \"CRITTER\") {\n    critterCount = 0;\n    artistFeeAccount = _artistFeeAccount;\n    artistFee = _artistFee;\n  }\n\n  function createArtwork(uint256 _gen, uint256 _dna, string memory _name, string memory _tokenURI) public{\n    uint256 _id = critterCount;\n    critters.push(Critter(_id, msg.sender, _gen, _dna, _name, false));\n    _safeMint(msg.sender, _id);\n    _setTokenURI(_id, _tokenURI);\n    critterCount = critterCount.add(1);\n  }\n}",
  "sourcePath": "/Users/andrewmlevy/Documents/blockchain/4_portfolio_projects/art-marketplace/src/contracts/Art.sol",
  "compiler": {
    "name": "solc",
    "version": "0.8.0+commit.c7dfd78e.Emscripten.clang"
  },
  "schemaVersion": "3.4.1",
  "updatedAt": "2021-05-31T21:13:47.245Z",
  "devdoc": {
    "kind": "dev",
    "methods": {
      "approve(address,uint256)": {
        "details": "See {IERC721-approve}."
      },
      "balanceOf(address)": {
        "details": "See {IERC721-balanceOf}."
      },
      "getApproved(uint256)": {
        "details": "See {IERC721-getApproved}."
      },
      "isApprovedForAll(address,address)": {
        "details": "See {IERC721-isApprovedForAll}."
      },
      "name()": {
        "details": "See {IERC721Metadata-name}."
      },
      "owner()": {
        "details": "Returns the address of the current owner."
      },
      "ownerOf(uint256)": {
        "details": "See {IERC721-ownerOf}."
      },
      "renounceOwnership()": {
        "details": "Leaves the contract without owner. It will not be possible to call `onlyOwner` functions anymore. Can only be called by the current owner. NOTE: Renouncing ownership will leave the contract without an owner, thereby removing any functionality that is only available to the owner."
      },
      "safeTransferFrom(address,address,uint256)": {
        "details": "See {IERC721-safeTransferFrom}."
      },
      "safeTransferFrom(address,address,uint256,bytes)": {
        "details": "See {IERC721-safeTransferFrom}."
      },
      "setApprovalForAll(address,bool)": {
        "details": "See {IERC721-setApprovalForAll}."
      },
      "supportsInterface(bytes4)": {
        "details": "See {IERC165-supportsInterface}."
      },
      "symbol()": {
        "details": "See {IERC721Metadata-symbol}."
      },
      "tokenURI(uint256)": {
        "details": "See {IERC721Metadata-tokenURI}."
      },
      "transferFrom(address,address,uint256)": {
        "details": "See {IERC721-transferFrom}."
      },
      "transferOwnership(address)": {
        "details": "Transfers ownership of the contract to a new account (`newOwner`). Can only be called by the current owner."
      }
    },
    "version": 1
  },
  "userdoc": {
    "kind": "user",
    "methods": {},
    "version": 1
  }
}